S01700006275696C642F697269732F6D61696E2E7372656343
S11300000C9481010C94A0010C94A0010C94A00107
S11300100C94A0010C94A0010C94A0010C94A001D8
S11300200C94A0010C94A0010C94A0010C94A001C8
S11300300C94A0010C94080D0C94A0010C94CE0710
S11300400C9421140C9457140C944F0C0C945A0CCB
S11300500C94650C0C94A0010C94A0010C94A001C8
S11300600C94AC0B0C949F090C94A0010C94220AE0
S11300700C94A0010C94A0010C94A0010C94790B95
S11300800C94580B0C94630B0C946E0B0C948C0B0B
S11300900C943B0B0C94A0010C944D0B0C94A001FC
S11300A00C94A0010C94A0010C94A0010C94A00148
S11300B00C94A0010C94A0010C94A0010C94A00138
S11300C00C94A0010C94A0010C94A001C71AFA1A74
S11300D0BE1A791B851B891BAE1BB31BBF1BEA1BF6
S11300E00D1C1C1C201C251CD41DF91D101EB21F28
S11300F04422A821BC2164264A2255220000211052
S1130100422063308440A550C660E770088129917D
S11301104AA16BB18CC1ADD1CEE1EFF13112100225
S113012073325222B5529442F772D66239931883CD
S11301307BB35AA3BDD39CC3FFF3DEE362244334F1
S113014020040114E664C774A44485546AA54BB51D
S113015028850995EEE5CFF5ACC58DD553367226C5
S113016011163006D776F6669556B4465BB77AA76D
S113017019973887DFF7FEE79DD7BCC7C448E55811
S11301808668A7784008611802282338CCC9EDD9BD
S11301908EE9AFF9488969990AA92BB9F55AD44A65
S11301A0B77A966A711A500A333A122AFDDBDCCB0D
S11301B0BFFB9EEB799B588B3BBB1AABA66C877C31
S11301C0E44CC55C222C033C600C411CAEED8FFD5D
S11301D0ECCDCDDD2AAD0BBD688D499D977EB66E05
S11301E0D55EF44E133E322E511E700E9FFFBEEFAD
S11301F0DDDFFCCF1BBF3AAF599F788F8891A9816F
S1130200CAB1EBA10CD12DC14EF16FE18010A10058
S1130210C230E3200450254046706760B983989348
S1130220FBA3DAB33DC31CD37FE35EF3B1029012A8
S1130230F322D2323542145277625672EAB5CBA514
S1130240A89589856EF54FE52CD50DC5E234C324F8
S1130250A01481046674476424540544DBA7FAB7E8
S11302609987B8975FE77EF71DC73CD7D326F23648
S11302709106B01657667676154634564CD96DC934
S11302800EF92FE9C899E9898AB9ABA94458654898
S113029006782768C018E1088238A3287DCB5CDB88
S11302A03FEB1EFBF98BD89BBBAB9ABB754A545AE8
S11302B0376A167AF10AD01AB32A923A2EFD0FED54
S11302C06CDD4DCDAABD8BADE89DC98D267C076C38
S11302D0645C454CA23C832CE01CC10C1FEF3EFF28
S11302E05DCF7CDF9BAFBABFD98FF89F176E367E88
S11302F0554E745E932EB23ED10EF01E00020E06D1
S11303000C0411241FBECFEFD1E2DEBFCDBF12E03B
S1130310A0E0B2E0E6E9FEE500E00BBF02C0079012
S11303200D92AC38B107D9F716E1ACE8B2E001C0E0
S11303301D92A736B107E1F70E949A260C944A2F22
S11303400C9400008FB7F894992708958FBF0895EF
S1130350282F9FB7F894E82FFF27E157FC4F80819F
S11303608F3F81F4E0915616E21771F40BC020938D
S1130370861404C0FF27E157FC4F208320935616B0
S113038020E007C025E005C0809186148F3F91F7D7
S1130390EECF892F99278FBF822F992708958AE05E
S11303A00E94A801992708958DE00E94A801992729
S11303B00895EF920F931F93AE2D99E0899FF0015A
S11303C01124E657F94F4083518362837383048376
S11303D0158326833783A17080858E7F8A2B826064
S11303E0808781E00E94A8011F910F91EF900895EA
S11303F07FB7F8946091B20020918A0330918B0307
S113040040918C0350918D03B99B11C08091B3002E
S11304109091B200280F311D411D511D2F5F3F4F98
S11304204F4F5F4F290F311D411D511D04C0260F31
S1130430311D411D511D872F99278FBFCA01B90155
S11304400895AF92BF92CF92DF92EF92FF920F93F3
S11304501F93F82E5A016B010E94F801AB01BC01F5
S113046081E0E82E960185018F2D0E94D9011F910C
S11304700F91FF90EF90DF90CF90BF90AF900895D1
S1130480613518F080E090E008950C960895665F59
S11304900E9440020895FC01818199278073907025
S11304A0816498688183892F9927828308950F93A3
S11304B01F938C010E944B02005A1F4FF8011082B7
S11304C01F910F9108951F931FB7F89480914E16B2
S11304D0882341F484E00E94A801882319F481E070
S11304E080934E16812F99278FBF1F910895382F1F
S11304F0FA01422F213518F082E090E008956683D6
S1130500872F992785833387218780919302909140
S11305109402892B19F085E090E008952FB7F894A0
S1130520332785E08093960210929702F09392020B
S1130530E093910282E090E090939402809393027E
S11305401092990210929802445F409395022FBF33
S11305508FB7F894282F3327809183078A3011F4BA
S11305602FBF19C02FBF9FB7F89480911B04882315
S113057011F020E006C081E080931B0410921C045B
S113058021E0892F99278FBF222329F00E9463023B
S113059080E090E00895109294021092930281E01A
S11305A090E00895CF93DF93DB01FB0135968183BF
S11305B0892F9927EB018D8384E6868380911C061D
S11305C090911D06892B19F085E090E029C0709365
S11305D01D0660931C06448380914F02882319F4FE
S11305E080E090E01DC08681EB016D817727762F36
S11305F0662721813327622B732B10924F02242FFD
S1130600AD010E9477029927282F882339F081E0D1
S113061080934F0210921D0610921C06822F992778
S1130620DF91CF910895882319F08CB5806402C0BE
S11306308CB58F7B8CBD0895882319F08CB58068A8
S113064002C08CB58F778CBD08950F931F9380E003
S11306500E9413030FB7F8941127229A2398219A22
S1130660209A8CB580618CBD80E00E941C038CB5FF
S1130670877F8CBD8CB58B7F8CBD81E00E9413037A
S11306808DB581608DBD8CB58C7F8CBD0FBF1F91E6
S11306900F9108950F931F93CF93DF93182F0FB7E4
S11306A0F8948091D502882311F40E942503802FA9
S11306B099278FBF8FB7F894C82FDD272C2F8091EF
S11306C0D502882361F481E08093D5021093150448
S11306D084E10E94A801CFBF80E090E021C0E12F17
S11306E0FF27ED5EFB4F80818F3F89F4E091640228
S11306F0E11789F40CC01093630204C0FF27ED5E78
S1130700FB4F10831093640280E090E002C085E008
S113071090E02FBF05C0809163028F3F79F7EBCF44
S1130720DF91CF911F910F910895FB01E05AFF4F84
S113073021E030E002C0220F331F8A95E2F72095B2
S11307408081822380830895FB01E05AFF4F21E0DA
S113075030E002C0220F331F8A95E2F78081822B9A
S113076080830895CF92DF92EF92FF920F931F93AD
S11307708C016A017B01BC0180E00E94A403045A3D
S11307801F4FF801C082D182E282F3821F910F9140
S1130790FF90EF90DF90CF9008958FB7F894209159
S11307A00C0430910D0440910E0450910F04E0911B
S11307B08400F0918500B09B08C02F5F3F4F4F4FDE
S11307C05F4FE0918400F091850099278FBFC901A4
S11307D0772766279F0144275527622B732B842B89
S11307E0952B0895FB01E05AFF4F21E030E002C051
S11307F0220F331F8A95E2F7808182239927089577
S11308001F93982F1FB7F8948091D402823099F5E2
S113081080916202891779F58091600220E030E0CE
S11308208F3F11F421E030E0232BF1F49FEF9093FC
S113083062028F3F19F42FEF30E00DC0282F3327C9
S1130840F901EC54FC4F8081809360028F3F11F4D6
S11308509093610290832093B10381E08093D4024A
S11308608EE00E94A80105C08FEF8093620210926F
S1130870D40221E001C020E0812F99278FBF90E0AE
S1130880213009F491E081E09827892F99271F915D
S1130890089580E00E940004992708950F931F9300
S11308A08C0160E50E944002F80120812151820FF1
S11308B0911D1F910F9108950B960895AC012091FD
S11308C081042E3118F081E090E0089580910B04AA
S11308D0682F620F712D711DFB016E31710508F0D7
S11308E07E97EE0FFF1FE857F84F518340832F5F29
S11308F02093810480E090E00895FC01808181517F
S1130900992708951F93CF93DF93EC01162F62E08C
S11309100E944002FC0191818091A702882309F082
S11309204DC09F3F09F44AC09F5F20916702291779
S113093040F480916802981708F040C090936802D0
S11309403DC01123C1F130E0CF59DF4F8881C1563A
S1130950D040893C08F031E0332311F42F3F59F59E
S11309609093670228C089859927982F882728851E
S11309703327822B932B90935902809358028281C0
S11309808093B00280818F5F80935A028091BD0270
S11309909091BE02A091BF02B091C0020196A11D28
S11309A0B11D8093BD029093BE02A093BF02B09389
S11309B0C00281E02AC0838180FDD5CF8091BD0231
S11309C09091BE02A091BF02B091C0020196A11DF8
S11309D0B11D8093BD029093BE02A093BF02B09359
S11309E0C0028091C1029091C202A091C302B09151
S11309F0C4020196A11DB11D8093C1029093C2024D
S1130A00A093C302B093C40280E09927DF91CF91F1
S1130A101F9108958BE490E008952091810422238E
S1130A2019F440E050E016C080910B04E82FFF2732
S1130A30EE0FFF1FE857F84F408151811182108259
S1130A402150209381048F5F80930B048E3111F425
S1130A5010920B04CA010895AC012091E7022E31D3
S1130A6018F081E090E008958091E602E82FFF27D6
S1130A70EE0FFF1FE75DFB4E518340838F5F809332
S1130A80E6028E3111F41092E6022F5F2093E70202
S1130A9080E090E008952F923F924F925F926F9280
S1130AA07F928F929F92AF92BF92CF92DF92EF92FA
S1130AB0FF920F931F93CF93DF93CDB7DEB72997A0
S1130AC00FB6F894DEBF0FBECDBF6FB76983F8943D
S1130AD020900604309007044090080450900904C4
S1130AE0662477248824EEE4AE2E73E8B72ECC2453
S1130AF0DD24EE24FF2400E010E0222D332D442DCC
S1130B00552D662D772D882D90E00E94722A2A8318
S1130B103B834C835D836E837F8388879987822E92
S1130B20932EA42EB52E2401350100E20E94702BD1
S1130B30A22EB32EC42ED52EA3019201569547950D
S1130B40379527952A0D3B1D4C1D5D1D57FF05C08C
S1130B505F772F5F3F4F4F4F5F4F209306043093D3
S1130B6007044093080450930904E9818E2F9927C0
S1130B708FBFCA01B90129960FB6F894DEBF0FBE24
S1130B80CDBFDF91CF911F910F91FF90EF90DF9038
S1130B90CF90BF90AF909F908F907F906F905F9019
S1130BA04F903F902F9008950E944B05DC01CB019C
S1130BB00895809183078A3021F48091DD03843085
S1130BC021F081E080938E02089586E00E94A801BE
S1130BD010928E0208952FB7F89433278093C6009D
S1130BE0E0ECF0E08081806480832FBF0895FC01F5
S1130BF06115710519F481E090E00895809116045F
S1130C0090911704892B19F085E090E00895709372
S1130C10741460937314F0931704E0931604109201
S1130C20DF031092DE0381E08093E0038091C00033
S1130C3080648093C0008091C10080648093C1006F
S1130C40808121E030E03093DF032093DE030E94B3
S1130C50EB0580E090E008958FB7F89499272091F0
S1130C609F022E7F20939F022EE72093AD038FBF18
S1130C7061E070E08DEA93E00E94F70599270895FA
S1130C801F93CF93DF938FB7F89410924E16209151
S1130C90830740E0283009F441E030E0293009F4CA
S1130CA031E0442311F4332351F010928307E0918F
S1130CB02406FF27EE0FFF1FE75EFB4F10829927E4
S1130CC08FBF442311F4332331F19FB7F8948091FB
S1130CD08A148F5F80938A1480911404833479F486
S1130CE02091130680911206821779F0822F8F5F6C
S1130CF080931306863048F01092130606C0A0E0D5
S1130D00442309F4A1E071E002C0A0E070E0892F5F
S1130D1099278FBF06C0222311F010E06CC0A0E019
S1130D2070E08FB7F894992720918E028FBF222309
S1130D3041F08FB7F89499272AE0209383078FBF57
S1130D4042C08FB7F89499276091190440911B040D
S1130D508FBF8FB7F894282F332750E09091120655
S1130D6080911306981709F451E02FBF552341F5DC
S1130D70662331F55FB7F89482E0809319048FB746
S1130D80F894282F332740E090911206809113069F
S1130D90981709F441E02FBF442311F080E006C006
S1130DA0E0911306FF27EE5EF94F828180931A04C7
S1130DB083E48093140410922406852F99270EC08F
S1130DC04150423010F010E00BC08FB7F8949927CF
S1130DD025E42093140421E0209324068FBF11E01E
S1130DE0772349F08FB7F8949927A09397028FBF80
S1130DF088E00E94A8018FB7F894C82FDD2780915E
S1130E0083078A3021F40E94D905CFBF1DC0CFBF0C
S1130E101123D1F02FB7F89433271092581610925B
S1130E2057161092120481E0809383072FBF0E940B
S1130E302C06882349F08FB7F894992729E020934A
S1130E4083078FBF0E946302DF91CF911F910895A2
S1130E50DF92EF92FF920F931F938FB7F894282F8E
S1130E603327D22E9091B3008091B20047B39817E4
S1130E7011F041FF02C02FBF71C080910404882388
S1130E80E1F10E94F801E0907B03F0907C03009173
S1130E907D0310917E032091901430919114409120
S1130EA09214509193146E197F09800B910B621761
S1130EB073078407950720F01092040471E01EC0A4
S1130EC02E0D3F1D401F511F80918A0390918B036B
S1130ED0A0918C03B0918D03281B390B4A0B5B0B3B
S1130EE0273E31054105510540F4822F223010F090
S1130EF070E005C070E082E002C070E086EE682F0A
S1130F0061508091B60083FDFCCF8091B2006817D8
S1130F1009F46F5F20918A0330918B0340918C0315
S1130F2050918D03DA01C9010196A11DB11D860FEF
S1130F30911DA11DB11D82179307A407B50710F4D5
S1130F40622F60958091B60083FDFCCF6093B3005F
S1130F50DFBE772319F080E00E94A8011F910F9152
S1130F60FF90EF90DF900895AFB7F894BB27E1E0CE
S1130F70E093040460937B0370937C0380937D036C
S1130F8090937E0320939014309391144093921481
S1130F9050939314AFBF0E94280708951F920F9295
S1130FA00FB60F9211248F938091B0008093B000FC
S1130FB08091B60081FDFCCF8F910F900FBE0F90F2
S1130FC01F901895ECEFF0E06927660FF11DE60F0E
S1130FD0F11DC895982F802D3196C89590250895B8
S1130FE0982F80919A02882389F5992379F531E025
S1130FF030939A028091500280939B0220918F0239
S1131000822F8170809389038091550290915602BA
S113101090939D0280939C028091900280939E0203
S113102032273170267EE32FFF27EE0FFF1FEF5A82
S1131030FD4F808191819093560280935502232B1A
S113104020938F0289E00E94A801089580918F0265
S113105080FF02C08B7F01C08D7F80938F02089533
S11310600F931F93082F162F8091DD038130D9F041
S1131070813038F0823009F44AC0833009F028C145
S113108059C0002309F458C110926C1410926B14C7
S11310901092870710927F14109201041092210677
S11310A01092200639C1002309F046C18091200620
S11310B0909121060E94E2079093210680932006D6
S11310C082E08093DD0310937F14143409F000C18F
S11310D025C18695869503C080918F02869581707F
S11310E009F0F6C080918F02992311F0846001C049
S11310F0826080938F0280918F02877E88608093C4
S11311008F02109290028FEF8093500215C100233A
S113111009F0DEC0609301048091200690912106BD
S11311200E94E207909321068093200683E0809337
S1131130DD0302C1809187078F3F09F4C9C00023F2
S113114009F461C0823008F4C3C0E0916B14EE234B
S113115009F4EBC04E2F4150E42FFF27E559FB4E15
S113116082819927382F2227442311F4E2E002C018
S1131170E42FE150FF27E559FB4E82819927282B64
S1131180392B80912006909121062817390709F000
S11311909FC080E00E94F007309101048091120604
S11311A020911306982F9F5F963008F090E09217D5
S11311B071F0E82FFF27EE5EF94F32838F5F809343
S11311C01206863010F0109212060E9463021092EA
S11311D06C1410926B1494E09093DD0310928707C3
S11311E010927F141092010410922106109220068E
S11311F080919F028D7F80939F0280918E0288232D
S113120009F49AC084C0823008F44EC0E0916C1492
S1131210FF27E559FB4E8281482F5527342F209113
S11312208F02822F869586958695837099278130C3
S1131230910519F00297F9F40EC0277E20612093DE
S11312408F02442311F485E001C080E08093900272
S11312503093500210C080919002833660F4E09184
S11312605502F0915602E80FF11D408380919002DF
S11312708F5F8093900280916C14E82FFF27E559CB
S1131280FB4E62818F5F80936C14833010F0109258
S11312906C14772780912006909121060E94E20722
S11312A0909321068093200680916B14E82FFF27EA
S11312B0E559FB4E12838F5F80936B14833010F0DB
S11312C010926B14809187078F5F8093870734C0D7
S11312D010926C1410926B1414E01093DD031092AE
S11312E0870710927F141092010410922106109225
S11312F0200680919F028D7F80939F0281E00E944F
S1131300F00780918E02882329F01093DD030E9458
S1131310D90512C0002381F081E009CF80918F02AA
S1131320982F917080FDD5CED7CE80916F149927D8
S1131330382F222742E01CCF1F910F9108951F924E
S11313400F920FB60F9211242F933F934F935F93F5
S11313506F937F938F939F93AF93BF93EF93FF9379
S11313608091C00087FF42C06091C600E0912206D0
S1131370F0912306309719F180914C1690914D16F7
S1131380E80FF91F6083019690934D1680934C16D5
S11313902091591630915A168217930738F11092FA
S11313A0230610922206809182078330F9F08091FF
S11313B0C1008F778093C1001092820717C06E37E7
S11313C019F460E081E010C080919F026D3721F430
S11313D0826080939F020AC081FF05C08D7F809345
S11313E09F0280E2682780E00E943008FF91EF911D
S11313F0BF91AF919F918F917F916F915F914F9129
S11314003F912F910F900FBE0F901F901895982F1A
S11314108D57823068F480919F02816080939F028F
S113142080E28927809386078DE78093AD0302C00D
S11314309093AD0361E070E08DEA93E00E94F705BC
S11314409927089578941F920F920FB60F92112442
S1131450FF920F931F932F933F934F935F936F9339
S11314607F938F939F93AF93BF93CF93DF93EF9328
S1131470FF932091DE033091DF03809173149091E8
S113148074142817390780F4E0911604F0911704B6
S1131490E20FF31F80812F5F3F4F3093DF032093D0
S11314A0DE030E94EB05D1C01092170410921604BB
S11314B01092E0038091C1008F7B8093C100FFB63E
S11314C0F89480919F0280FF0EC08E7F80939F02CC
S11314D0809186078093AD0361E070E08DEA93E02C
S11314E00E94F705AFC080918307843009F48CC053
S11314F0853040F4823021F18330B8F5813009F031
S11315009CC00DC0863009F48DC0863008F483C0B9
S1131510873009F48EC0883009F08FC091C0809163
S113152014040E94070A082F83E0809383076091C4
S1131530140480915716909158160E94E20710C027
S113154080918A140E94070A082F83E080938307FE
S113155060918A1480915716909158160E94E20760
S1131560909358168093571666C0E0912406FF277F
S1131570EE0FFF1FE65EFB4F80810E94070A082FD3
S113158010912406C12FDD27FE01EE0FFF1FE65E3A
S1131590FB4F608180915716909158160E94E20784
S11315A09093581680935716209112042F5F20931E
S11315B01204113039F580919602E0919102F09174
S11315C09202E80FF11DE0818F5F80939602909163
S11315D09502981730F482E080931B0440E050E0B9
S11315E002C04E2F5527DE01AA0FBB1FFD01E75E87
S11315F0FB4F8081823031F02F3F21F0A65EBB4F3C
S11316004C9319C084E012C0809157160E94070AB7
S1131610082F85E00BC0809158160E94070A082FF6
S113162086E004C00E942C06082F87E0809383077D
S113163002C088E003C0002329F089E08093830777
S11316400E9463028F2D99278FBFFF91EF91DF9145
S1131650CF91BF91AF919F918F917F916F915F9146
S11316604F913F912F911F910F91FF900F900FBEBB
S11316700F901F9018951F920F920FB60F9211247E
S11316808F938091C80087FF02C08091CE008F9114
S11316900F900FBE0F901F90189578941F920F9281
S11316A00FB60F9211240F900FBE0F901F90189534
S11316B078941F920F920FB60F9211240F900FBEC1
S11316C00F901F90189578941F920F920FB60F9257
S11316D011240F900FBE0F901F90189578941F92AD
S11316E00F920FB60F9211240F900FBE0F901F9000
S11316F0189578941F920F920FB60F9211248F931E
S11317009F9380919600909197009F918F910F9055
S11317100FBE0F901F90189578941F920F920FB6DA
S11317200F9211242F933F938F939F932FB7F89485
S1131730332780911E0690911F06019690931F06F1
S113174080931E062FBF9F918F913F912F910F90F1
S11317500FBE0F901F9018951F920F920FB60F9205
S113176011240F931F932F933F934F935F936F9382
S11317707F938F939F93AF93BF93CF93DF93EF9315
S1131780FF932EB5E0917D07F0917E07309739F0F5
S113179080911A0690911B06E80FF91F208380910F
S11317A01A0690911B06019690931B0680931A06C5
S11317B080E00E941C03C0911A06D0911B06209160
S11317C0FA023091FB02C217D30708F042C000911D
S11317D0E6151091E71540917D0750917E07CE01E3
S11317E00A962817390708F4C901DA01AC0FBD1F9E
S11317F0F801EC0FFD1F9C012150304015C001156C
S1131800110531F080818EBD0DB407FEFDCF04C0FB
S11318101EBC0DB407FEFDCF8EB54115510509F070
S11318208C93219611963196C217D30740F381E029
S11318300E941C030115110531F00C0F1D1FF80146
S113184080818EBD01C01EBCD0931B06C0931A06B6
S113185011C010927E0710927D071092E715109226
S1131860E6151092FB021092FA0210921B061092D7
S11318701A068EB5FF91EF91DF91CF91BF91AF9191
S11318809F918F917F916F915F914F913F912F9194
S11318901F910F910F900FBE0F901F901895789481
S11318A01F920F920FB60F9211240F900FBE0F903C
S11318B01F90189578941F920F920FB60F921124CF
S11318C00F900FBE0F901F90189578941F920F924F
S11318D00FB60F9211242F933F938F939F93AF933F
S11318E0BF932FB7F894332780910C0490910D0483
S11318F0A0910E04B0910F040196A11DB11D809317
S11319000C0490930D04A0930E04B0930F042FBF06
S1131910BF91AF919F918F913F912F910F900FBEE7
S11319200F901F901895CF92DF92EF92FF920F9332
S11319301F93182F0E94F8016B017C018091F20221
S1131940813009F58091EE029091EF02A091F002AE
S1131950B091F102A7019601281B390B4A0B5B0BCE
S1131960609171027091720280917302909174027D
S113197003EF0E94FA2960937102709372028093BC
S1131980730290937402112341F0C092EE02D0923C
S1131990EF02E092F002F092F1021F910F91FF909A
S11319A0EF90DF90CF9008956091F302882399F02F
S11319B06623A1F07727762F662743EF809177027D
S11319C0909178020E94B9299093780280937702CB
S11319D01092F30208956F5F6093F302089560918B
S11319E0F202882389F07727762F662743EF8091C8
S11319F07502909176020E94B929909376028093A1
S1131A0075021092F20208956F5F6093F2020895D6
S1131A101F920F920FB60F9211242F933F934F935F
S1131A205F936F937F938F939F93AF93BF93EF9342
S1131A30FF938091B0008093B0008091B60081FD47
S1131A40FCCF8091B30099270196AA27BB27209148
S1131A508A0330918B0340918C0350918D03280F9E
S1131A60391F4A1F5B1F20938A0330938B034093D3
S1131A708C0350938D039091B10090688091B600CF
S1131A8080FDFCCF9093B1009F778091B60080FDDC
S1131A90FCCF9093B10078940E942807FF91EF91B6
S1131AA0BF91AF919F918F917F916F915F914F9172
S1131AB03F912F910F900FBE0F901F9018950F9389
S1131AC01F931FB7F8948091D502823099F58091C5
S1131AD06502882379F58091630220E030E08F3F2E
S1131AE011F421E030E0232BF1F49FEF9093650291
S1131AF08F3F19F42FEF30E00DC0282F3327F90161
S1131B00ED5EFB4F8081809363028F3F11F49093CD
S1131B10640290832093150481E08093D50284E1CC
S1131B200E94A80105C08FEF809365021092D50230
S1131B3001E001C000E0812F99278FBF1FB7F894FF
S1131B408091D502882311F40E941303812F9927D1
S1131B508FBF90E0013009F491E081E09827892F4C
S1131B6099271F910F91089590E08091E7028823AF
S1131B7009F491E0992371F4E091E502FF27EE0F57
S1131B80FF1FE75DFB4E808191810E945E048BE024
S1131B900E94A80108950E947D0486509927089503
S1131BA0EF92FF920F931F938C010E940A058B5FA3
S1131BB0682FC8010E9440027C01C8010E94CB0D1D
S1131BC0E80EF11CC7011F910F91FF90EF9008954B
S1131BD08FB7F894282F3327922F8091650288239A
S1131BE031F48091D502823011F42FBF13C09FBF0E
S1131BF08FB7F894282F33278091D502882369F46E
S1131C0082E08093D502109265022FBF0E942503C3
S1131C10209A289A81E090E008952FBF80E00E94E6
S1131C204A0380E090E00895EF92FF920F931F9390
S1131C308C0160E50E9440027C01C8010E947D0481
S1131C408150E80EF11CC7011F910F91FF90EF9096
S1131C500895665F0E9440020895EF92FF920F93E9
S1131C601F93CF93DF93E5EFF5E1C091A402D091E8
S1131C70A502C035D10510F0C0E5D0E080E5DF0154
S1131C801D928A95E9F72091A4023091A5028091D2
S1131C90A0029091A10200E010E07F0113C0FC01BA
S1131CA0EE57FB4FE0812115310539F0019660E9CB
S1131CB071E00E94122C21503040D701ED937D0138
S1131CC00F5F1F4F0C171D0751F73093A502209388
S1131CD0A4029093A1028093A00240E569EE75E10D
S1131CE08FEF9FEF0E94D202882319F08AE00E94AE
S1131CF0A801DF91CF911F910F91FF90EF9008956C
S1131D00662361F48091A4029091A502892B19F0B5
S1131D100E942D0E08951092A60208958AE00E9452
S1131D20A8010895EF92FF920F931F93CF93DF932F
S1131D30182F7B01042FE82FFF27EE0FFF1FE45E0F
S1131D40F94F1182108210924F02A0911C06B0919B
S1131D501D06109721F080918F1480FF0EC081E042
S1131D6080934F0203C083E00E94A8011123C9F4A9
S1131D70602FC7010E94800E14C0FD013596248196
S1131D803327ED016D817727762F66278181992787
S1131D90682B792BAD0186810E947702882331F369
S1131DA0E2CFDF91CF911F910F91FF90EF900895B3
S1131DB08FB7F894282F33278091A602813021F41D
S1131DC02FBF80E090E0089540E08091A4029091BC
S1131DD0A502892B09F441E0442321F02FBF81E0BF
S1131DE090E0089581E08093A6022FBF0E942D0EFB
S1131DF080E090E008951F93CF93DF93182F809194
S1131E00A602882361F48091A4029091A502883CE3
S1131E10910528F081E08093A6020E942D0E8FB7D1
S1131E20F894C82FDD272091A4023091A50281E007
S1131E3020393807D8F48091A2029091A302FC01C2
S1131E40EE57FB4F1083019660E971E00E94122C5B
S1131E509093A3028093A2022F5F3F4F3093A50279
S1131E602093A402CFBF80E090E003C0CFBF8FEFE8
S1131E709FEFDF91CF911F910895AF92BF92CF92C0
S1131E80DF92EF92FF920F931F93CF93DF93809192
S1131E907014882309F4C4C00E94E80D882309F44F
S1131EA0BFC08FB7F8949927C0911004D091110442
S1131EB08FBF1092701428988FE88EBD0DB407FE62
S1131EC0FDCF8EB51EBC0DB407FEFDCF8EB5289A8E
S1131ED0982F8091F902833011F0873031F485E036
S1131EE08093E81588E08093F902A92EBB24A2FE12
S1131EF067C08091F902863019F41092F90203C088
S1131F00882309F05DC0943009F049C0289886E818
S1131F108EBD0DB407FEFDCF8EB51EBC0DB407FEFD
S1131F20FDCFFEB4289A2FE1F2228091B603982FB8
S1131F30969596953F2D391B830F8093B603009198
S1131F40850310918603B80181E00E949503B801CE
S1131F5082E00E94A4030F591F4FF801F1820E94EE
S1131F60CD036B017C010091850310918603B801B8
S1131F7080E00E94A403045A1F4FCC19DD0927975F
S1131F80CE01AA2797FDA095BA2F8C0D9D1DAE1DDD
S1131F90BF1DF80180839183A283B3830EC0609137
S1131FA085037091860382E00E9495036091850306
S1131FB07091860380E00E94950385E08093F90286
S1131FC0A3FE2EC09091F902943069F485E08093C9
S1131FD0E8151092F902109294149093BA0380E1D8
S1131FE00E94A8011DC09530D9F420910A042898B4
S1131FF086E88EBD0DB407FEFDCF8EB51EBC0DB4B4
S113200007FEFDCF8EB5289A8F71922F96959695DF
S1132010891B280F20930A0489E08093F90208C0E1
S11320202091F902222309F475C2293009F082C1F2
S1132030289880E28EBD0DB407FEFDCF8EB51EBC80
S11320400DB407FEFDCF8EB5482F5527433008F455
S1132050AEC2842F99278E3591050CF0A8C21EBC00
S1132060E0918503F09186034083A42FA250A7300A
S113207010F49A2F01C097E0BF016F5F7F4F292FA3
S1132080FB0140E050E00DB407FEFDCF8EB51EBC51
S1132090808381914827042E4295407F4025052E58
S11320A0542F42954F700426469554274527440FD4
S11320B0440F440F4025215031F79150FB01E90FA3
S11320C0F11D9F5F31968FB7F894282F332760E076
S11320D080916514833008F461E02FBF662309F40E
S11320E05EC0A91B9A2F18C00DB407FEFDCF8EB594
S11320F01EBC808381914827042E4295407F402551
S1132100052E542F42954F70042646955427452793
S1132110440F440F440F4025915030F70DB407FE8F
S1132120FDCF8EB51EBC9A012827022E2295207F52
S11321302025032E322F22952F7002262695322732
S11321402327220F220F220F20250DB407FEFDCFD7
S11321508EB51EBC2827022E2295207F2025032E13
S1132160322F22952F700226269532272327220FFD
S1132170220F220F20250DB407FEFDCF8EB5E0916E
S11321808503F0918603EF59FF4F8083289A85E0F9
S11321908093E8151092F902232B31F0B7C10DB4E6
S11321A007FEFDCF8EB503C2E0908503F090860351
S11321B057010894A11CB11CF7018185208599273A
S11321C0582F44273327422B532B80918E03282FDB
S11321D03327F901EE0FFF1FEB58FB4E80819181ED
S11321E0609180078417950769F4F901E05BF94E63
S11321F08081861709F464C0862F8F5F80938007DF
S113220080831BC010E000E080E090E0C5E7D4E1EB
S1132210E0E5F6E1C62EC394DF01782F9C018881A6
S113222099818417950759F420938E038C9186170E
S113223009F446C0C0928007CC9210E828C080817F
S1132240962F981B191710F4192F022F7F5FC901BD
S1132250019611962296319685309105F1F67530E6
S1132260B1F400938E03A02FBB27FD01EE0FFF1FD7
S1132270EB58FB4E51834083862F8F5F80938007FA
S1132280FD01E05BF94E8083A45AB94E1C929091F3
S11322908007892F8F778F3779F41F3768F0E0E54F
S11322A0F6E1292F207880818F6789132083319666
S11322B036E1E535F307B9F780918E03282F3327EC
S11322C0F5019281A22FBB27FD01E45AF94E8081CA
S11322D080FF07C0FD01EA59FB4E8081981729F160
S11322E002C081608083AA59BB4E9C93CFB6F894F8
S11322F0809165148330B0F4E0918914E80FE330E1
S113230008F0E350FF27EE0FFF1FE859FC4F008150
S11323101181F182E0828F5F8093651481E10E94D4
S1132320A80178018C2D99278FBFF0928603E09243
S11323308503E3C0822F8150833008F0BCC08150F4
S1132340823008F03BC09091E8159130B9F530E047
S113235080917F07882309F431E0332379F12F98A2
S11323609093180490937F07609184007091850086
S11323702FB7F8944091840050918500CA01861BC0
S1132380970B03968B52934018F0CA01039603C02F
S1132390CB01855D9C4F009711F481E090E001979B
S11323A0909389008093880082E086BB90916F00AF
S11323B0926090936F0033272FBF68C0233009F0D9
S11323C042C08091E815833009F097C00E94E80D5F
S11323D08823C9F128988FE88EBD0DB407FEFDCF80
S11323E08EB51EBC0DB407FEFDCF8EB5289A809124
S11323F0810080648093810080E286BB80916F00BD
S1132400806280936F009091B003289888EC8EBD11
S11324100DB407FEFDCF8EB590669EBD0DB407FECC
S1132420FDCF8EB5289A289882EC8EBD0DB407FE98
S1132430FDCF8EB586E08EBD0DB407FEFDCF8EB503
S1132440289A84E023C08091F9028150823000F5FB
S11324508091E8158530E1F40E94E80D8823C1F0ED
S1132460289882EC8EBD0DB407FEFDCF8EB583E0B7
S11324708EBD0DB407FEFDCF8EB5289A80916F00F6
S11324808F7D80936F001092701483E08093E81521
S11324909091F902913041F48091E8158330B1F5BF
S11324A02F9A9093E81525C0923039F58091E8155C
S11324B0833061F51EC0273001F50E94E80D8823A2
S11324C0E1F09091B003289888EC8EBD0DB407FE1E
S11324D0FDCF8EB590669EBD0DB407FEFDCF8EB5C3
S11324E0289A8091E815853021F484E08093E815DA
S11324F004C088E08093F90204C08091F902883016
S113250029F41092F9028FE00E94A8018091F90247
S11325108823C9F48091E815853091F48091701472
S1132520882371F48091BA03823051F481E080935E
S1132530BA0380E10E94A8018091F902882319F46A
S113254082E10E94A80180917F07823019F51092E0
S11325507F07809118048130E9F48091E815823076
S113256021F483E08093E81513C08091F90286304A
S113257079F41092F902289881E88EBD0DB407FE13
S1132580FDCF8EB51EBC0DB407FEFDCF8EB5289AC7
S11325900E940D148FB7F894282F33278091AF032E
S11325A0813061F081E08093AF032FBF70CC289A13
S11325B085E08093E8151092F902A8CF1092AF033A
S11325C02FBFDF91CF911F910F91FF90EF90DF907C
S11325D0CF90BF90AF9008958FB7F894282F3327EA
S11325E08091AF0381508093AF03803811F02FBFE7
S11325F0089581E08093AF032FBF0E943D0F08959B
S11326001F93FC018FE382878091F8028F5F809390
S1132610F80283832FB7F89433278091AF038F5F39
S11326208093AF032FBF8091BA03882311F015E084
S11326300DC0F0938507E093840781E08093BA038B
S11326401092810780E10E94A80110E00E94EC1220
S1132650812F99271F910895EF92FF920F931F9353
S1132660CF93DF93082F7B01EA01122F213518F055
S113267086E090E089C08A81298140E09927982FDB
S113268088273327822B932B87749C7C815498480A
S113269009F441E0442319F4CE010E944B02135F74
S11326A018832FB7F894332780915D0290915E02CE
S11326B02FBF8887892F992789872FB7F8943327C5
S11326C080915F022FBF99278C831D82CE010E94C7
S11326D05C04FC010083EE828F2D99278F838FB7D2
S11326E0F894282F33278091D402882371F482E050
S11326F08093D402109262022FBFCE010E94001375
S11327009927182F882399F00FC02FBFD093B303B4
S1132710C093B2038FB7F894C82FDD272C2F809174
S1132720D402882399F406C080E00E940004812F1B
S113273099272AC081E08093D4021092B1038EE0DD
S11327400E94A801CFBF80E090E01EC08091B40336
S11327508F3F89F4E0916102EE2369F010C010927A
S1132760600204C0FF27EC54FC4F108210926102F7
S113277080E090E002C085E090E02FBF05C080912A
S113278060028F3F79F7EBCFDF91CF911F910F91CB
S1132790FF90EF9008951F93AC012091E002222353
S11327A0C1F18091E1029091E2024817590789F53D
S11327B0213071F48091A4068D7F8093A40683E078
S11327C08093660286E10E94A80180E090E023C025
S11327D02230F9F48FB7F89499272091AF032F5F33
S11327E02093AF038FBF8091BA038150823010F0E1
S11327F015E00AC084E08093BA0383E080939414C4
S113280080E10E94A80110E00E94EC12812F992718
S113281002C081E090E01F9108958FB7F894282FAB
S113282033278091AF03882329F080688093AF0316
S11328302FBF089581E08093AF032FBF0E943D0F07
S1132840089578941F920F920FB60F9211242F932C
S11328503F934F935F936F937F938F939F93AF9324
S1132860BF93EF93FF93E6E8F0E0808191812081AC
S113287031818FB7F8949927309311042093100471
S113288021E0209370148FBF0E940D14FF91EF91EB
S1132890BF91AF919F918F917F916F915F914F9174
S11328A03F912F910F900FBE0F901F901895789421
S11328B01F920F920FB60F9211242F933F934F93B1
S11328C05F936F937F938F939F93AF93BF93EF9394
S11328D0FF9380916F008D7F80936F0078949FB7F2
S11328E0F89480917F07813019F482E080937F0708
S11328F0892F99278FBF0E940D14FF91EF91BF91EB
S1132900AF919F918F917F916F915F914F913F9183
S11329102F910F900FBE0F901F9018951F93CF9378
S1132920DF93382F80915702882309F452C0809195
S1132930E7029927282F882309F44BC0332329F46D
S113294080918703281708F444C0E091E502FF272B
S1132950EE0FFF1FE75DFB4EC081D181CE010E94C7
S11329607D04182F8091AE029091AF02892B89F5D6
S11329708091D302853068F1873141F48091AD06AE
S11329808D7F8093AD068DE00E94A8019091D302C3
S1132990892F8651823010F0953011F48CE00BC0F1
S11329A0963011F48DE007C09B3021F0933111F083
S11329B0943119F48EE08093D302D093AF02C09384
S11329C0AE0211501093250681E080937A03109291
S11329D0AD02DF91CF911F9108951F93CF93DF93A1
S11329E0EC01FB014530D0F114818091DF028117A5
S11329F038F09927811B91098F3791050CF443C155
S1132A008091DB029091DC0201969093DC0280932A
S1132A10DB02455055273596BF018BEB93E00E94AE
S1132A20922C1093DF020E94F8012091BB03309195
S1132A30BC03322F2227330F330F44275527621B41
S1132A40730B840B950B60930103709302038093C3
S1132A5003039093040385E10E94A8018091D302AB
S1132A608231B1F58FB7F894992740915D02509166
S1132A705E028FBF8F812E819927982F8827332755
S1132A80822B932B48175907F9F08F5F9F4F09F456
S1132A9009C1898528859927982F88273327822B70
S1132AA0932B20915802309159022817390709F0C5
S1132AB0F9C08091AD068D7F8093AD068EE0809342
S1132AC0D3028DE00E94A8018091D302823129F0C3
S1132AD08F3019F08E3009F08CC08FB7F894992795
S1132AE040915D0250915E028FBF8F812E819927A4
S1132AF0982F88273327822B932B4817590711F0D7
S1132B0060E05BC0898528859927982F882733271B
S1132B10822B932B209158023091590228173907A0
S1132B2009F0C0C064E0CE010E944002FC01908123
S1132B3080915A02891709F0B5C02091AE023091F4
S1132B40AF021092AF021092AE028091AD068D7F5B
S1132B508093AD0640917A03E091E502FF27EE0FE2
S1132B60FF1FE75DFB4E8081918128173907C1F46F
S1132B70442399F4C9010E945E048091E502909176
S1132B80E702992351F08F5F8093E5028E3111F4AF
S1132B901092E50291509093E70281E00E948E1416
S1132BA080E00E94EF0C80E00E94930C8EE0809302
S1132BB0D3028DE00E94A80161E0CE010E9482044C
S1132BC02091AE023091AF02882321F0232B29F00B
S1132BD080E109C0232B09F065C08091AD068D7F8B
S1132BE08093AD0683E18093D3028DE00E94A80117
S1132BF059C08051823008F055C0898528859927AD
S1132C00982F88273327822B932B209158023091B9
S1132C1059028217930709F045C08F812E819927A5
S1132C20582F44273327422B532B8FB7F8949927D7
S1132C3020915D0230915E028FBF4217530791F1DC
S1132C404F5F5F4F51F52EC060E0CE010E948204B9
S1132C50882319F01093D302C8CF8FE08093D30256
S1132C6021C08091AE029091AF020E94CB138823C1
S1132C70C9F460E0CE010E948204882399F081E0C7
S1132C808093B2020FC08091DD029091DE02019622
S1132C909093DE028093DD02E1CE1091D3021031D5
S1132CA001F7D2CFCE01DF91CF911F910895AF925A
S1132CB0BF92CF92DF92EF920F931F935B016C014F
S1132CC00E94F801AB01BC01B1E0EB2E9601850135
S1132CD080E00E94D9011F910F91EF90DF90CF9077
S1132CE0BF90AF9008952F923F925F926F927F9220
S1132CF08F929F92AF92BF92CF92DF92EF92FF9208
S1132D000F931F93CF93DF935B016C01C0E0D0E07E
S1132D10EAE8F6E0608561FF19C2208131814281D1
S1132D205381E480F58006811781D601C501821B99
S1132D30930BA40BB50B8E159F05A007B10708F4E0
S1132D4005C260FF03C06D7F608708C02E0D3F1D64
S1132D50401F511F2083318342835383C23009F4BF
S1132D60C8C0C33030F4CC2359F0C13009F0F4C1E9
S1132D70A3C0C33009F489C1C43009F0EDC1E2C174
S1132D806CE08CE298E00E9440028C018CE298E0B6
S1132D900E944B0210928C0880918C0290918D02BB
S1132DA0019690938D0280938C020197F8018183A0
S1132DB0892F992780830E940A058550823008F460
S1132DC070C08091EA029091EB0201969093EB021D
S1132DD08093EA028091E7028E3129F00E940D056A
S1132DE0EC01009751F48091A9029091AA020196F6
S1132DF09093AA028093A90254C0FC01ACE2B8E00B
S1132E0083E60D9001928150E1F789E18883CE0138
S1132E100E94D00DFC018091490290914A02818365
S1132E20892F992780838091A8028F5F8093A802BD
S1132E3081508283138281E284830E94F8017B01A2
S1132E408C01CE010E944E04FC01E382BB27A12F1A
S1132E50902F8F2D8283C801AA27BB278183E12E5F
S1132E60FF2400271127E082CE010E942C0588232D
S1132E7061F48091A702882321F08BE00E94A801CD
S1132E8010C080E00E948E140CC08091A902909121
S1132E90AA0201969093AA028093A902CE010E94ED
S1132EA05E0460914B0270914C0280914D029091AE
S1132EB04E020E94571650C10E94F8019F938F93AF
S1132EC07F936F938091490290914A029F938F93CD
S1132ED080E092E09F938F930E94A22C0E94D80ED0
S1132EE08DB79EB708960FB6F8949EBF0FBE8DBFE0
S1132EF033C150905B16C091E102D091E202209060
S1132F008414309085148FB7F894282F3327809138
S1132F10E302882319F02FBF25E0B3C081E080933A
S1132F20E3022FBF0E94F8013B014C016093890624
S1132F30CE010E944E04FC018081E1802281A380A5
S1132F40332744275527542F432F322F22279927DD
S1132F50AA27BB27B82FAA2799278827FF24002749
S1132F6011278701FF24EE248E299F29A02BB12B42
S1132F70BB24CC24DD248A299B29AC29BD29282BF8
S1132F80392B4A2B5B2B20938B1430938C14409356
S1132F908D1450938E14CE010E944E04FC01808146
S1132FA0E1802281A380332744275527542F432FC0
S1132FB0322F22279927AA27BB27B82FAA27992778
S1132FC08827FF24002711278701FF24EE248E2958
S1132FD09F29A02BB12BBB24CC24DD248A299B2937
S1132FE0AC29BD29282B392B4A2B5B2B8091E40279
S1132FF0680E711C811C911C26193709480959094E
S11330002383BB27A52F942F832F8283CA01AA274A
S1133010BB278183252F332744275527208394E01A
S1133020590E252DAE01B10181E80E942C13992778
S1133030D82E882311F1E0908B14F0908C14009119
S11330408D1410918E14CE010E944E04FC01E38273
S1133050BB27A12F902F8F2D8283C801AA27BB27BE
S11330608183E12EFF2400271127E0821092E302DE
S11330708D2D9927282F882321F482E08093E00264
S11330806BC02093660286E15EC09091D302892FC3
S11330908051823008F460C09731A1F48091AE026F
S11330A09091AF02892B61F48091A702882331F4B7
S11330B0809167028F3F11F486E140C085E03EC0F5
S11330C08CE03CC09231A9F19F30A9F520916802AF
S11330D02F3F79F0809167028F3F59F0992701962D
S11330E0820F911D62E070E00E94262C60936702BB
S11330F003C08FEF809367028FEF80936802809103
S1133100CF029091D00201969093D0028093CF0287
S11331108091A702882369F4809167028F3F49F464
S11331208091D1029091D20201969093D202809321
S1133130D1028EE003C09A3019F48BE08093D3025D
S11331408DE001C087E10E94A80106C0219639964E
S1133150C530D10509F0DECD81E00E94A801DF91E0
S1133160CF911F910F91FF90EF90DF90CF90BF9080
S1133170AF909F908F907F906F905F903F902F9033
S11331800895AF92BF92CF92DF92EF920F931F9365
S11331905B016C010E94F801AB01BC01E1E0EE2E81
S11331A09601850183E00E94D9011F910F91EF9050
S11331B0DF90CF90BF90AF9008956623E9F480919B
S11331C0C5029091C602A091C702B091C8020196AF
S11331D0A11DB11D8093C5029093C602A093C7029E
S11331E0B093C80282E18093D30262E070E080E091
S11331F090E00E94C11808958091C9029091CA027A
S113320001969093CA028093C902633069F4809155
S1133210B202813049F41092B20280E18093D30269
S11332208DE00E94A80108958091AD0681FF02C03F
S11332308FE001C08EE08093D3020895DF92EF9275
S1133240FF920F931F93CF93DF93EC01D62E0E942E
S11332505C04FC0180819927803821F0813809F0D1
S11332607BC047C0DD20A9F58F819927982F882737
S11332702E813327822B932B8F5F9F4F99F0809160
S1133280B7029091B802A091B902B091BA02019626
S1133290A11DB11D8093B7029093B802A093B90207
S11332A0B093BA028091B3029091B402A091B50296
S11332B0B091B6020196A11DB11D8093B302909303
S11332C0B402A093B502B093B6028091D3028F5F8B
S11332D00AC08091BB029091BC0201969093BC02FB
S11332E08093BB0284E18093D3028DE00E94A80105
S11332F033C01092E302DD2059F41091E4020E94DD
S1133300F80120918906621B160F16951093E402AA
S1133310E0908B14F0908C1400918D1410918E1405
S1133320CE010E944E04FC01E382BB27A12F902F03
S11333308F2D8283C801AA27BB278183E12EFF2416
S113334000271127E0821092E0026D2D8091E102A6
S11333509091E2020E94DD18DF91CF911F910F91AD
S1133360FF90EF90DF900895AF92BF92CF92DF92DB
S1133370EF920F931F93E0917902E330F9F0FF2766
S1133380EE0FFF1FEE0FFF1FE259FC4FA080B1802C
S1133390C280D380A114B104C104D10421F487E113
S11333A00E94A8010BC00E94F801AB01BC0131E0EE
S11333B0E32E9601850184E00E94D9011F910F91AB
S11333C0EF90DF90CF90BF90AF900895AF92BF92EF
S11333D0CF92DF92EF920F931F93CF93DF93E82E58
S11333E05A016B0180917902CE2DDD278330A1F43F
S11333F0FE01EE0FFF1FEE0FFF1FE259FC4F40834B
S1133400518362837383E0927902C954DC4F8883C9
S1133410E81609F47CC047C08E01000F111F000F8D
S1133420111F02591C4FF801408351836283738337
S11334308091B60681FF17C00E94F8012091AE0664
S11334403091AF064091B0065091B106621B730BE8
S1133450840B950B6A0D7B1D8C1D9D1DF8016083EB
S113346071838283938350917902E52FFF27EE0FB6
S1133470FF1FEE0FFF1FE259FC4F80819181A28153
S1133480B381A816B906CA06DB0610F5C954DC4F89
S11334905883E0927902F3E0EF16C9F1F801A080B5
S11334A0B180C280D380A114B104C104D10421F439
S11334B087E10E94A8012BC00E94F801AB01BC0166
S11334C0E1E0EE2E9601850184E00E94D9011FC03F
S11334D0252F332729543C4FF9014081433091F083
S11334E0542FE42FFF27EE0FFF1FEE0FFF1FE259AB
S11334F0FC4F80819181A281B381A816B906CA06C6
S1133500DB0630F7F901E082C954DC4F4883DF91D0
S1133510CF911F910F91EF90DF90CF90BF90AF901C
S113352008952F923F924F925F926F927F928F9263
S11335309F92AF92BF92CF92DF92EF92FF920F933E
S11335401F93CF93DF93CDB7DEB7AA970FB6F89446
S1133550DEBF0FBECDBF19A21AA21BA21CA2E82F68
S1133560FF27E831F10510F00C946426EA59FF4F67
S1133570EE0FFF1F0590F491E02D099480918F14B4
S1133580882311F40C94642690E001E08EC08091AD
S1133590AE03882361F52091801430918114409109
S11335A0821450918314EFB7F894FF2760917B0342
S11335B070917C0380917D0390917E03E090901440
S11335C0F090911400919214109193146E0D7F1D3C
S11335D0801F911FEFBF2093801430938114409378
S11335E08214509383141092AE030E94B4070E9475
S11335F0F80144C00E94F8014B015C018FB7F894B4
S11336009927109204048FBF0FEFC02E0FEFD02E16
S11336100FEFE02E0FE7F02E60E0EAE8F6E0808599
S113362081FF1CC080819181A281B381A501940195
S1133630281B390B4A0B5B0BDA01C9012481358144
S113364046815781281B390B4A0B5B0B2C153D0512
S11336504E055F051CF469017A0161E0399636E094
S1133660E73BF307E1F6662311F40C9464261C147B
S11336701D041E041F0434F0C501B4010E94731616
S11336800C946426C0928014D0928114E092821427
S1133690F092831481E08093AE03A7019601C501E3
S11336A0B4010E94B4070C94642620918F14802FD7
S11336B08223C1F0E92FFF27EE0FFF1FE45EF94FCD
S11336C04081518111821082802F8095282320937C
S11336D08F14992339F463E0CA010E94800E000F0D
S11336E091E0E3CF9F5F983010F00C946426000FB4
S11336F0DCCF80914F02E82FFF27EE0FFF1FE45E1F
S1133700F94F6081718141E061C00E9440060C94D0
S113371064268091C1008F7B8093C1008091C10099
S11337208F778093C100109282071092E0038091FA
S1133730C10088608093C1008091C1008061809342
S1133740C1008091C10080688093C1008FB7F89454
S11337509927109283071092DD030DC687E00E941B
S1133760A8010C9464268091C100877F8093C100D6
S11337708091C1008F7E8093C1000C9464261092C6
S11337809402109293028FB7F8949927409197026C
S11337908FBF80919802811143E020919102309172
S11337A0920280919902882311F00C9464268091EE
S11337B04F02882311F00C94642660911C067091CA
S11337C01D066217730711F00C9464260E94920E72
S11337D00C9464268FB7F894992720919C02309119
S11337E09D02409189038FBF8FB7F894E42FFF2780
S11337F0EE0FFF1FEF5AFD4F3183208320918F027C
S1133800442311F02B7F01C02D7F20938F0210924F
S11338109A0299278FBF0C94642640E569EE75E1FE
S11338208FEF9FEF0E94D202882311F40C94642638
S11338300E94CF010C9464260E94B40D0C9464265B
S113384080E00E948E140C9464268091D30285300B
S113385011F08C3049F58FB7F89499272091AF0374
S11338602F5F2093AF038FBF8091BA03882309F0A1
S113387045C08091F902882309F040C08091E81581
S1133880813049F490E080917F07882309F491E026
S11338909923A1F102C0853089F183E08093F90274
S11338A00E940D1485E01FC0843111F0813049F568
S11338B08FB7F89499272091AF032F5F2093AF031C
S11338C08FBF8091BA038823C9F48091F9028823B9
S11338D0A9F48091E815813089F081E08093F902A0
S11338E00E940D1486E08093BA030E94EC1280912A
S11338F0D3028F5F8093D3020C9464260E94EC124F
S113390009C0843059F480914F168093551685E090
S11339108093D3020E94D4010C946426833021F452
S11339201092D3020C9464268631F1F40E944B0564
S1133930DC01CB0160910204709103040091AB039C
S11339401091AC03060F171F660F771F6F5F7F4F31
S11339500E94122C081B190B22273327C901B80116
S11339600E94C11887E1C6CF8E30E9F46091050446
S1133970772788279927209171023091720240910C
S1133980730250917402220F331F441F551F0E946B
S1133990F32B0E94C1188FE08093D30281E00E9430
S11339A0930C0C946426893069F46091551677273A
S11339B06A5F7F4F882777FD8095982F0E94C118F2
S11339C08AE098CF8031F1F500912506C090AE02CF
S11339D0D090AF02E0905802F0905902C6010E94C4
S11339E0140EFC018091DF0280838091E002882321
S11339F021F581E08093E002F0928514E092841432
S1133A00D092E202C092E1020F5F00935B16109223
S1133A1066020E94D4056091B00277276F5F7F4FE2
S1133A200E94122CAA27BB27AC01BD0182E00E9490
S1133A30210210927A0381E15DCF85E080937A03BD
S1133A4083E166CF873009F09AC085E093E00E9455
S1133A50570264E085E093E00E944002FC018091FB
S1133A60A702882319F080E090E003C080916702E8
S1133A70992781838091551682838091B1028F5F4B
S1133A808093B10281508083DF0113961382809169
S1133A90A702882381F440E08091E7022EE130E020
S1133AA0281B31098091B5039927281739070CF091
S1133AB041E0442319F08C9181608C93E0905B0287
S1133AC0F0905C028091D602882311F424E045C072
S1133AD00091DF0211270E94F80120910103309127
S1133AE002034091030350910403621B730B840B84
S1133AF0950B60507E4F8F4F9F4F2AE09695879588
S1133B00779567952A95D1F77093BC036093BB03AF
S1133B1060E585E093E00E944002FC010483359651
S1133B20ABEBB3E082E20D9001928150E1F780911A
S1133B30D7029091D802A091D902B091DA020196ED
S1133B40A11DB11D8093D7029093D802A093D902EE
S1133B50B093DA021092D60227E245E053E0B701AF
S1133B6080E80E942C132FEF3FEF30935C022093E8
S1133B705B02882311F488E0BDCE8BE0C9CE83318B
S1133B8051F484E18093D3020E94D40181E00E9425
S1133B90EF0C0C9464268B3011F00C94642681E0B5
S1133BA00E94D40C84E1B4CE2FB7F89433278091CB
S1133BB0B1038093620282E08093D4022FBF80918C
S1133BC06202882311F00C9464268091B2039091D0
S1133BD0B3030E940013082F1127002311F40C943F
S1133BE064260E944904602F8091B2039091B3032C
S1133BF0B4C18091BA031092BA03853011F41298BB
S1133C0003C0863029F4129A8091D3028F5F80CE4C
S1133C10873011F40C9464268093BA030C946426C0
S1133C208FB7F89499272091AF032F5F2093AF03A8
S1133C308FBF8091BA03813009F07CC180918107E4
S1133C408F5F80938107863008F074C140908407A9
S1133C50509085078091F902882309F062C1809110
S1133C60E815853009F05DC10E94E80D882309F448
S1133C7058C180917014882309F053C1B20181E0C6
S1133C800E94F203882311F490E00BC041E650E057
S1133C90440E551EF20191812FE93FEF420E531E4F
S1133CA09F7080918004981781F0909380042898E5
S1133CB085EC8EBD0DB407FEFDCF8EB590689EBD1C
S1133CC00DB407FEFDCF8EB5289A289882EC8EBDE0
S1133CD00DB407FEFDCF8EB589E08EBD0DB407FE91
S1133CE0FDCF8EB5289A0E94CD036B017C01B201F1
S1133CF083E00E94F203882319F4E0E0F0E006C0B8
S1133D00D2018C918550F201E80FF11D289881E8C9
S1133D108EBD0DB407FEFDCF8EB51EBC0DB407FEDF
S1133D20FDCF8EB5289A8F71893079F0289882EC6E
S1133D308EBD0DB407FEFDCF8EB586E08EBD0DB4ED
S1133D4007FEFDCF8EB5289AECC08FB7F89499275B
S1133D502F9A40918400509185008FBF2F98289806
S1133D6080E68EBDD2019C910DB407FEFDCF8EB5C9
S1133D709EBD8EEF282E290EB6E0B21510F0622DEE
S1133D8001C067E092012F5F3F4FD901962F7D91CB
S1133D900DB407FEFDCF8EB57EBD9150C1F76150C5
S1133DA0260F311D6F5F2F5F3F4F3AA729A74C198C
S1133DB05D094E555F4F3A01882477FC8094982C16
S1133DC06C0C7D1C8E1C9F1C3097D1F12081E180EE
S1133DD08281A3809927AA27BB27BA2FA92F982FBE
S1133DE08827332744275527522F44273327222750
S1133DF0FF24002711278701FF24EE242E293F29C1
S1133E00402B512BBB24CC24DD242A293B294C29CB
S1133E105D29822B932BA42BB52B86199709A8090E
S1133E20B9098383292F3A2F4B2F552722839D01CC
S1133E304427552721838B2F9927AA27BB278083C3
S1133E40922D961B0EC0A9A5BAA52C910DB407FE00
S1133E50FDCF49A55AA54F5F5F4F5AA749A78EB515
S1133E602EBD915080F70DB407FEFDCF8EB5289A74
S1133E70289882EC8EBD0DB407FEFDCF8EB586E08A
S1133E808EBD0DB407FEFDCF8EB5289A3097D1F1C3
S1133E902081E1808281A3809927AA27BB27BA2F9A
S1133EA0A92F982F8827332744275527522F442793
S1133EB033272227FF24002711278701FF24EE241C
S1133EC02E293F29402B512BBB24CC24DD242A2925
S1133ED03B294C295D29822B932BA42BB52B860DD2
S1133EE0971DA81DB91D8383292F3A2F4B2F5527C2
S1133EF022839D014427552721838B2F9927AA27A5
S1133F00BB278083B401A301C2010E94B20386E0EF
S1133F108093E81584E08093F9021092941483E06E
S1133F2004C085E08093941482E08093BA030E94D5
S1133F30EC12CAC61092BA030E94EC1200919414B7
S1133F40E0908407F0908507F70182858F3309F0AC
S1133F50BBC60E944904602FC7010E941E19B4C643
S1133F602FBFB2C68FB7F894282F332780916514DA
S1133F708823B1F3E0918914AE2FBB27AA0FBB1F8E
S1133F80A859BC4F0D90BC91A02DBA83A9832FBF13
S1133F90FD0182850781F6808F3309F0A1C18981F3
S1133FA09A810E945C04FC01108169817A81645FBA
S1133FB07F4F29813A81D9018D91B8A3AF8F8D505C
S1133FC0482F5527802F9927B82FAA278F2D992757
S1133FD0A82BB92B8FB7F894992720915D023091C3
S1133FE05E028FBFA217B30721F0AF5FBF4F09F086
S1133FF053C6103809F439C1113809F08BC18981CD
S11340009A810E944E049AA789A7DC01AC90FC0116
S11340106180E28023800E94F801FF240027112799
S1134020102F0F2DFE2CEE24BB24CC24DD24DA2CFF
S1134030CC24BB24AA2477248824992443017724FC
S11340406624A628B728C828D9283324442455240C
S1134050A228B328C428D528EA28FB280C291D291E
S1134060E60EF71E081F191FE9A5FAA5E382BB2770
S1134070A12F902F8F2D8283C801AA27BB2781836C
S1134080E12EFF2400271127E08289819A810E9472
S1134090140EFC012091DF028081821738F09927E9
S11340A0821B91098F3791050CF4FDC581E0809343
S11340B0D6028091D3028950823008F02BC18091BE
S11340C0AD068D7F8093AD06EF8DF8A180852781A5
S11340D09927982F88273327822B932B90935C0260
S11340E080935B0287E08093D3020E94D401809185
S11340F0CB029091CC02A091CD02B091CE02019658
S1134100A11DB11D8093CB029093CC02A093CD024C
S1134110B093CE0280E00E94D40C8091EC02909186
S1134120ED0201969093ED028093EC0289819A81CD
S11341300E94D00DFC0143814F5F43838081218124
S11341409927782F66273327622B732BE28080917F
S1134150A702882311F010E001C0142F1CA3EBA2C6
S11341607AA369A35091E802F090E902352F00E0A8
S113417025C0E32FFF27EE0FFF1FEE0FFF1FEB56A7
S1134180FB4E80819181A281B381CCA02BA1E9A1B6
S1134190FAA18E179F0709F089C5A21709F086C5F1
S11341A0BC1508F483C58091AB029091AC020196D2
S11341B09093AC028093AB02ADC00F5F0F15C9F6AC
S11341C07BC589E08093E80203C051505093E80214
S11341D0E091E8022E2F3327220F331F220F331FC3
S11341E02B563B4E8DA19EA1AFA1B8A5F9018083AA
S11341F09183A283B3838091E9028A3018F48F5F9C
S11342008093E9028091A702882309F083C00E9469
S11342100D058C01892B51F48091A9029091AA0279
S113422001969093AA028093A90212C089819A816F
S11342300E942C05813099F48091A9029091AA02E0
S113424001969093AA028093A902C8010E945E0479
S11342508091D302873009F05DC08BE024C08CE0EC
S11342600E94A8011A83098355C089819A810E94FA
S1134270ED149A8389834EC08091D3028031B1F4C6
S1134280E981FA81878126819927982F8827332706
S1134290822B932B20915802309159028217930755
S11342A009F038C08FE08093D30234C0813191F596
S11342B0E981FA81878126819927982F88273327D6
S11342C0822B932B20915802309159028217930725
S11342D009F58091AE029091AF020E94CB131AC0EF
S11342E0802F9927582F44278F2D9927482B592BF6
S11342F08FB7F894992720915D0230915E028FBFA9
S11343004217530719F04F5F5F4F21F48FB7F894AA
S113431099278FBF9FB7F89480918914A82FBB2742
S1134320AA0FBB1FA859BC4F29813A812D933C93F6
S11343308F5F80938914833010F0109289148091D8
S11343406514815080936514892F99278FBF0ACEF5
S11343508FB7F894992710927E0710927D071092D8
S1134360E7151092E6151092FB021092FA021092D1
S11343701B0610921A064ECA2FB7F8943327809161
S113438015048093650282E08093D5022FBF80914B
S11343906502882309F098C4209A289A8091E81528
S11343A0882309F074C08EEF91E00197019601977C
S11343B0E1F716982F9886E090E00197019601970F
S11343C0E1F7169A289883EC8EBD0DB407FEFDCF55
S11343D08EB51EBC0DB407FEFDCF8EB5289A289865
S11343E082EC8EBD0DB407FEFDCF8EB588E08EBD88
S11343F00DB407FEFDCF8EB5289A8EEF91E001979C
S113440001960197E1F728988EEC8EBD0DB407FE56
S1134410FDCF8EB58DE48EBD0DB407FEFDCF8EB5F8
S1134420289A289889EC8EBD0DB407FEFDCF8EB571
S113443087EC8EBD0DB407FEFDCF8EB5289A289863
S113444085EC8EBD0DB407FEFDCF8EB580E88EBD24
S11344500DB407FEFDCF8EB5289A109280048DE02E
S11344608093B003289888EC8EBD0DB407FEFDCF71
S11344708EB58DE68EBD0DB407FEFDCF8EB5289AA0
S11344802F9A81E08093E8150E945F0D1DC40E945D
S11344900D141AC41092E002609166028091E10248
S11344A09091E2020E94DD180FC44FB7F89455278B
S11344B0809179029927FC01E954FC4F20812093D3
S11344C079024FBF60917902082F7C01EE0CFF1C2A
S11344D0EE0CFF1C4EE653E0E40EF51E1DC07727DC
S11344E0FB01EE0FFF1FEE0FFF1FE259FC4FA080F0
S11344F0B180C280D380D7012D913D914D915C91C3
S1134500A21AB30AC40AD50AA082B182C282D38293
S113451069547C4FFB016081633009F70E94B41930
S11345200130E1F0013020F0023009F043C02CC02A
S113453010927F0380E090EDA2E0B0E080938003CE
S113454090938103A0938203B093830340E050EDE2
S113455062E070E080E00E94E61940C010922708F3
S113456080E090E6A9E0B0E08093280890932908C1
S1134570A0932A08B0932B0840E050E669E070E06D
S113458081E00E94E61972C01092FC0280E090E182
S1134590AEE0B0E08093FD029093FE02A093FF0290
S11345A0B093000340E050E16EE070E082E00E94CE
S11345B0E619CBC0409101005091020060910300C4
S11345C070910400802F0E94E619013009F44EC056
S11345D0013020F0023009F077C3B7C02091EA021D
S11345E03091EB0244275527EAE0220F331F441F82
S11345F0551FEA95D1F76091690270916A02809122
S11346006B0290916C0203EF0E94FA296093690295
S113461070936A0280936B0290936C021092EB0287
S11346201092EA022091EC023091ED0244275527C2
S11346307AE0220F331F441F551F7A95D1F76091FA
S11346406D0270916E0280916F02909170020E94CF
S1134650FA2960936D0270936E0280936F029093B7
S113466070021092ED021092EC022EC300917A02B5
S113467010917B026CE0C8010E94290E7C01C801E4
S11346800E9457028091F4029091F5020196909352
S1134690F5028093F4020197F7018183892F99270A
S11346A080832091690230916A0240916B0250919B
S11346B06C02233031054105510518F42FEF3FEF0B
S11346C006C060E070ED82E090E00E94392CF701B2
S11346D02383832F9927828320916D0230916E0268
S11346E040916F025091700223303105410551050C
S11346F018F42FEF3FEF06C060E070ED82E090E029
S11347000E94392CF7012583832F99278483809174
S1134710710290917202A0917302B0917402818728
S1134720292F3A2F4B2F552720879D0144275527A2
S113473027838B2F9927AA27BB278683809176020C
S11347408287809178028387BFC2E0907C02F090D8
S11347507D026EE2C7010E9447028C01C7010E94DC
S113476057028091F6029091F70201969093F70216
S11347708093F60201978C83F8018183892F99270E
S11347808B8380838091A9029091AA028E83838374
S1134790892F99278D8382838091AB029091AC02FB
S11347A088878583892F99278F8384838091B30297
S11347B09091B402A091B502B091B6028C87818722
S11347C0292F3A2F4B2F55272B8720879D014427CC
S11347D055272A8727838B2F9927AA27BB278987C1
S11347E086838091B7029091B802A091B902B091EA
S11347F0BA02888B8587292F3A2F4B2F55272F876D
S113480024879D01442755272E8723878B2F99279B
S1134810AA27BB278D8782878091BB029091BC0217
S11348208A8B8787892F9927898B86878091BD02F8
S11348309091BE02A091BF02B091C0028E8B838B77
S1134840292F3A2F4B2F55272D8B228B9D0144273F
S113485055272C8B218B8B2F9927AA27BB278B8B32
S1134860808B8091C1029091C202A091C302B09149
S1134870C4028A8F878B292F3A2F4B2F5527298FD4
S1134880268B9D0144275527288F258B8B2F99270D
S1134890AA27BB278F8B848B8091C5029091C60277
S11348A0A091C702B091C8028D8F838F292F3A2F10
S11348B04B2F55272C8F228F9D01442755272B8F53
S11348C0218F8B2F9927AA27BB27282E808F809191
S11348D0C9029091CA028E8F858F892F9927382E0D
S11348E0848F8091CB029091CC02A091CD02B091A3
S11348F0CE02482E81A3292F3A2F4B2F5527622E03
S113490020A39D0144275527522E278F8B2F9927AB
S1134910AA27BB27C82E868F8091CF029091D00200
S1134920D82E83A3892F9927E82E82A38091D102C0
S11349309091D202F82E85A3892F9927A82E84A3BB
S11349408091D7029091D802A091D902B091DA0255
S113495081A7292F3A2F4B2F552720A79D014427A4
S1134960552727A38B2F9927AA27BB2786A3809196
S1134970DB029091DC0283A7892F992782A780917B
S1134980DD029091DE0285A7892F992784A70091E3
S11349907C0210917D020E94F801BB24BA2CAA2447
S11349A02F2D3327A22AB32ABF92AF922E2D33275D
S11349B0322F22274D2D5527242B352B3F932F9310
S11349C0772488249924982C872C762C6624DD243B
S11349D0EE24FF24FC2CEE24DD24CC24252D3327C7
S11349E044275527A90133272227C22AD32AE42A98
S11349F0F52A242D332744275527C22AD32AE42A0B
S1134A00F52A6C287D288E289F289F928F927F926A
S1134A106F92232D3327322F2227FE8D4F2F5527B8
S1134A20242B352B3F932F93AC8D2A2F33274427E8
S1134A305527CC24D22EE32EF42E3324442455249B
S1134A40522C442433242224BB8D2B2F3327442778
S1134A505527A90133272227222A332A442A552AF3
S1134A60ED8D2E2F332744275527222A332A442A13
S1134A70552AC228D328E428F528FF92EF92DF9222
S1134A80CF92F98D2F2F3327442755278824922E30
S1134A90A32EB42EAF892A2F332744275527522F0C
S1134AA0442733272227B88DCB2EDD24EE24FF2480
S1134AB07601DD24CC242C293D294E295F29EA8D59
S1134AC0CE2EDD24EE24FF242C293D294E295F29F6
S1134AD0822A932AA42AB52ABF92AF929F928F92D8
S1134AE0FD892F2F3327442755278824922EA32E60
S1134AF0B42E2B89C22EDD24EE24FF245C2D442702
S1134B0033272227AC89CA2EDD24EE24FF24760124
S1134B10DD24CC242C293D294E295F29BE89CB2EA6
S1134B20DD24EE24FF242C293D294E295F29822AE5
S1134B30932AA42AB52ABF92AF929F928F92E989B1
S1134B402E2F3327322F2227FA894F2F5527242B34
S1134B50352B3F932F93AF852A2F3327442755278F
S1134B608824922EA32EB42EBD85CB2EDD24EE24D4
S1134B70FF245C2D442733272227EE85CE2EDD2407
S1134B80EE24FF247601DD24CC242C293D294E2952
S1134B905F29F889CF2EDD24EE24FF242C293D291A
S1134BA04E295F29822A932AA42AB52ABF92AF925A
S1134BB09F928F92AB852A2F332744275527882429
S1134BC0922EA32EB42EB985CB2EDD24EE24FF2401
S1134BD05C2D442733272227EA85CE2EDD24EE24BC
S1134BE0FF247601DD24CC242C293D294E295F297C
S1134BF0FC85CF2EDD24EE24FF242C293D294E29CB
S1134C005F29822A932AA42AB52ABF92AF929F923F
S1134C108F924F81242F3327322F2227A8854A2FA2
S1134C205527242B352B3F932F93BD812B2F3327CF
S1134C30322F2227EE814E2F5527242B352B3F93DD
S1134C402F93FB812F2F3327322F2227AC814A2F1A
S1134C505527242B352B3F932F939F938F937F932B
S1134C606F938091490290914A029F938F938FE0B2
S1134C7092E09F938F930E94A22CEDB7FEB7BE964D
S1134C800FB6F894FEBF0FBEEDBF0E94D80E10936E
S1134C907D0200937C0218C0103809F4E6CA11386A
S1134CA009F038CBE9CA1092D60203CA3F5F3A3002
S1134CB008F483CA30E081CA18A7EFA27EA36DA3CB
S1134CC0552309F47ECA81CAAA960FB6F894DEBFAA
S1134CD00FBECDBFDF91CF911F910F91FF90EF9049
S1134CE0DF90CF90BF90AF909F908F907F906F9008
S1134CF05F904F903F902F900895809186148F3F3E
S1134D00B1F0282F3327F901E157FC4F80818093BC
S1134D1086148F3F11F4809356168FEF80832F3FB4
S1134D2031F0822F0E94911A81E090E0089580E092
S1134D3090E00895EF920F931F93CF93DF93EFB614
S1134D40F89414BE88E10FB6F89480936000109232
S1134D5060000FBE48E150E06FEF70E08FE893E031
S1134D600E949B2C8FEF809386148093561656983E
S1134D705E9854985C9880916F008F7D80936F004B
S1134D80209A289A279A2F980E9A169A8DE194E0E1
S1134D90909386038093850310920A048AE5809396
S1134DA0B60381E08093810080E28093B60083E0C3
S1134DB08093B10080918400909185004AE720910E
S1134DC08400309185002817390708F441504423A2
S1134DD011F0C901F4CF9091B2008091B20089170B
S1134DE0E1F320918400309185009091B20080918C
S1134DF0B2008917E1F38091840090918500821BB1
S1134E00930B409635E0969587953A95E1F7909304
S1134E108814809387141092B1008091B10080931C
S1134E208100809181008093B6001092B2001092AC
S1134E308500109284008FEF87BB87B386BB809177
S1134E40B6008571E1F70A9A099A089A129A119A9A
S1134E50109A18B88FEF87B90C981498109285009F
S1134E601092840080916F00816080936F00809124
S1134E708100887F82608093810010929500109257
S1134E809400809171008160809371008091910001
S1134E90887F8260809391000E947D268823E1F7B9
S1134EA0E8E8F7E08FE898E0819391938D599F4F5C
S1134EB027E0E43CF207C1F78EE18093810410926D
S1134EC00B0480E092E09093AC038093AB039AE0F0
S1134ED09093840388E080934F1680E28093880344
S1134EE083E08093050411E0109387039093B50346
S1134EF083E390E0909303048093020480E098E2BB
S1134F00A0E0B0E08093A7039093A803A093A90323
S1134F10B093AA038091490290914A020196AA276C
S1134F20BB278093060490930704A0930804B093CE
S1134F3009040FEF0093130480E00E944A032DEB51
S1134F4034E1309369032093680320E235E1309320
S1134F506B0320936A0323E835E130936D032093B8
S1134F606C032FEF3FEF3093761420937514309336
S1134F7078142093771430937A142093791430930F
S1134F807C1420937B1430937E1420937D1440E092
S1134F9090E0882309F491E0911709F441E08091AD
S1134FA049022EE732E0411709F0D2C18295807F91
S1134FB08093F8020093B4031092E8021092E9027D
S1134FC0309364162093631612E006E06091871410
S1134FD070918814882799272CE0660F771F881F03
S1134FE0991F2A95D1F720E031EE40E050E00E946D
S1134FF0392C215030402093C400832F992780936B
S1135000C5001093C0000093C2001092C100209309
S1135010CC008093CD001093C8000093CA00109276
S1135020C90084E490E090937214809371141092F8
S1135030190410921B048AE08093830710921204CF
S11350401092140410928A14109258161092571643
S113505010924E161092240610926C1410926B1437
S113506084E08093DD031092870710927F141092DE
S11350700104109221061092200610921306109239
S113508012061092A6028091B60080628093B60048
S1135090249A8091B60081FDFCCF82E48093B00015
S11350A08091B60080FDFCCF83E08093B1008091B5
S11350B0B60083FDFCCF86EE8093B3008091700030
S11350C08260809370000E9428070E947D268823B6
S11350D0E1F78E2D99278FBF789410E007C0113027
S11350E0B1F0113018F01230C9F522C010927F03CC
S11350F080E090EDA2E0B0E0809380039093810380
S1135100A0938203B0938303EFE7F3E029C11092E5
S1135110270880E090E6A9E0B0E080932808909307
S11351202908A0932A08B0932B08E7E2F8E018C1F5
S11351301092FC0280E090E1AEE0B0E08093FD02CA
S11351409093FE02A093FF02B093000340E050E16D
S11351506EE070E082E00E94E6190FC04091010009
S1135160509102006091030070910400812F0E940D
S1135170E6191F5F133008F4B2CF8FB7F894282FC5
S11351803327922F809183078A3031F08091DD0399
S1135190843011F02FBF04C09FBF85E00E94A80196
S11351A01092A7028091D302882331F484E0809383
S11351B0D3028DE00E94A80111E01093570280E011
S11351C00E948E1480E093E09093AC038093AB0331
S11351D06091840377278827992720E033E040E013
S11351E050E00E94F32B24E630E040E050E00E94BF
S11351F0392C3093030420930204109387030E94F4
S1135200F801AB01BC0181E0E82E00E014E020E0ED
S113521030E081E00E94D9010E944B0520914B02AD
S113522030914C0240914D0250914E020E94392C13
S11352306F5F7F4F8F4F9F4F0E945716ADEBB3E0C8
S1135240E1EEF3E080E201900D928150E1F71092DB
S1135250BC031092BB030E94F80160930103709396
S1135260020380930303909304038FB7F894482FA9
S1135270552753C080917000992783709070892BB3
S113528019F4E5E0F0E014C08091B6008A71E1F70A
S11352908091B3009091B200891B8C3038F08091DA
S11352A0B200853F18F4E3E0F0E002C0E2E0F0E091
S11352B080916E008670E9F480916F008E72C9F45B
S11352C00CB407FC16C08091C100807E91F48091DB
S11352D0C900807E71F48091BC0082FD0AC0809177
S11352E07A0087FF03C081E090E005C085E090E08C
S11352F002C080E090E023B78E1708F4E82FFF2760
S1135300E450FD4FE491207F2160E22BE3BF7894C9
S11353108895F89483B78E7F83BF809186148F3FDE
S113532009F4A8CF282F3327F901E157FC4F8081D6
S1135330809386148F3F11F4809356168FEF8083E9
S11353402F3F09F497CF4FBF822F0E94911A8DCF20
S11353508295807F8093F8028FEF8093B4032CCEE4
S11353604181528163817481812F0E94E6191F5FFC
S1135370B6CE552786179707E8F0861B970B9C0136
S11353803070F9014E9F90014F9F300D5E9F300D9C
S11353901124232F3327892F9927FC014E9FC00105
S11353A04F9F900D5E9F900D1124860F971F280F1D
S11353B0391F1EC09B01281B390BC901232F33271A
S11353C0F9014E9F90014F9F300D5E9F300D1124C7
S11353D09070FC014E9FC0014F9F900D5E9F900DF9
S11353E01124892F9927280F391F621B730B9B01E6
S11353F0C90108956F927F928F929F92AF92BF924C
S1135400CF92DF92EF92FF920F931F93CF93DF938C
S113541059016A01C02FDD27602E7724882499243E
S1135420621773078407950730F19B01AC012A19B1
S11354303B094C095D09C9019070BC01C69FC001BC
S1135440C79F900DD69F900D1124892F99277C0119
S113545000271127232F342F452F5527C401B301CB
S11354600E94F32B6A0D7B1D8C1D9D1DE60EF71EFD
S1135470081F191F26C079018A01E61AF70A080BCA
S1135480190B5527412F302F2F2DC401B3010E9432
S1135490F32B2FEFE222FF24CE9D9001CF9D300D00
S11354A0DE9D300D1124232F332744275527260F43
S11354B0371F481F591F86017501E21AF30A040BAE
S11354C0150BC801B701DF91CF911F910F91FF9088
S11354D0EF90DF90CF90BF90AF909F908F907F9090
S11354E06F900895ACE2B0E0E8E7FAE20C945B2C2C
S11354F0222E332E442E552E662E772E882E992E4C
S1135500FE013196A8E01192AA95E9F729823A8220
S11355104B825C826D827E828F829886FE013996F0
S1135520B8E01192BA95E9F7A986BA86CB86DC86EB
S1135530ED86FE860F87188B89819A81AB81BC81A9
S113554089A79AA7ABA7BCA77C018D018FEF9FEF1A
S1135550A0E0B0E0E822F9220A231B2389A59AA53A
S1135560ABA5BCA51D014424552489859A85AB852A
S1135570BC858DA39EA3AFA3B8A75C016D018FEF7B
S11355809FEFA0E0B0E0A822B922CA22DB228DA1BD
S11355909EA1AFA1B8A53D0188249924C801B701F3
S11355A0A60195010E94F32B69A37AA38BA39CA364
S11355B0C801B701A40193010E94F32B7B018C0164
S11355C0C201B101A60195010E94F32B5B016C019C
S11355D0C201B101A40193010E94F32B3B014C01D0
S11355E0EA0CFB1C0C1D1D1D89A19AA1ABA1BCA139
S11355F09D01442755272E0D3F1D401F511F2A157D
S11356003B054C055D0540F480E090E0A1E0B0E08E
S1135610680E791E8A1E9B1ECA01AA27BB27860D07
S1135620971DA81DB91D8D8F9E8FAF8FB8A3A9019B
S11356303327222789A19AA1ABA1BCA1A070B07085
S1135640280F391F4A1F5B1F298F3A8F4B8F5C8F9E
S1135650A98CBA8CCB8CDC8CED8CFE8C0F8D18A1B4
S1135660FE01719698E011929A95E9F7ED8AFE8A07
S11356700F8B188F2D813E814F8158856DA17EA19E
S11356808FA198A50E94F32B3B014C012D853E85EB
S11356904F85588969A57AA58BA59CA50E94F32BF3
S11356A02D893E894F89588D260F371F481F591F52
S11356B0260D371D481D591D2D8B3E8B4F8B588F42
S11356C06D887E888F88988C2A2D3B2D4C2D5D2DDE
S11356D0662D772D882D992DE2E1AC960C94772CCC
S11356E0A0E1B0E0E6E7FBE20C945B2C222E332E23
S11356F0442E552E662E772E882E992E002309F4DB
S113570066C088E0FE01319611928A95E9F72983F3
S11357103A834B835C836D837E838F829887E0E238
S1135720E01B1E16CCF52D813E814F815885602FDC
S1135730772767FD7095DA01C901062E04C0B69576
S1135740A795979587950A94D2F78D879E87AF87FB
S1135750B88B04C0220F331F441F551FEA95D2F79C
S113576089819A81AB81BC8104C0B695A795979530
S113577087956A95D2F7282B392B4A2B5B2B2987DF
S11357803A874B875C8729843A844B845C846D8494
S11357907E848F8498881BC01D861E861F86188A67
S11357A02E2F332727FD3095309521953F4F8D813E
S11357B09E81AF81B88504C0B695A79597958795C6
S11357C02A95D2F789879A87AB87BC87DCCF222DAD
S11357D0332D442D552D662D772D882D992DE2E1FD
S11357E060960C94772C629FD001739FF001829F86
S11357F0E00DF11D649FE00DF11D929FF00D839F5C
S1135800F00D749FF00D659FF00D9927729FB00DF8
S1135810E11DF91F639FB00DE11DF91FBD01CF010B
S113582011240895AA1BBB1B51E107C0AA1FBB1F6B
S1135830A617B70710F0A61BB70B881F991F5A9518
S1135840A9F780959095BC01CD01089597FB092E89
S113585007260AD077FD04D0E5DF06D000201AF42D
S1135860709561957F4F0895F6F7909581959F4FB8
S11358700895A1E21A2EAA1BBB1BFD010DC0AA1F8D
S1135880BB1FEE1FFF1FA217B307E407F50720F0A5
S1135890A21BB30BE40BF50B661F771F881F991F20
S11358A01A9469F760957095809590959B01AC0169
S11358B0BD01CF0108952F923F924F925F926F9254
S11358C07F928F929F92AF92BF92CF92DF92EF928C
S11358D0FF920F931F93CF93DF93CDB7DEB7CA1B0D
S11358E0DB0B0FB6F894DEBF0FBECDBF09942A8838
S11358F0398848885F846E847D848C849B84AA84E0
S1135900B984C884DF80EE80FD800C811B81AA816C
S1135910B981CE0FD11D0FB6F894DEBF0FBECDBF37
S1135920ED010895FB01DC0102C001900D9241508C
S11359305040D8F70895DC0101C06D9341505040A8
S1135940E0F70895A2E0B0E0E8EAFCE20C946B2CE6
S1135950FE01379661917191FA83E983AF018091D9
S11359606316909164160E94B92CE2E022960C947E
S1135970872CABE0B0E0EFEBFCE20C945D2C3C0137
S11359804B016A01FC0117821682838181FD03C0E9
S11359908FEF9FEFDAC1F3013381F40133FD859179
S11359A033FF81914F01882309F4CCC1853239F446
S11359B033FD859133FF81914F01853229F4B30181
S11359C099270E94BF2EE7CF00E0442455244AE0E3
S11359D00032B0F48B3269F08C3228F4803251F00A
S11359E0833271F40BC08D3239F0803349F4016095
S11359F028C00260046025C0086023C0006121C083
S1135A0007FD29C0282F20532A3078F406FF06C04A
S1135A10549EC0011124522E580E13C0449EC0013E
S1135A201124422E480E00620CC08E3221F406FD71
S1135A3089C1006406C08C3611F4006802C088363F
S1135A4051F4F40133FD859133FF81914F01882393
S1135A5009F46FC0BDCF982F8554833018F080525D
S1135A60833038F424E030E0C20ED31E8FE3898300
S1135A700FC0933631F0933799F0933509F05BC03A
S1135A8023C0F6018081898322E030E0C20ED31E58
S1135A907E010894E11CF11C51E0A52EB12C12C02A
S1135AA0F601E080F18006FD03C06FEF7FEF02C0D6
S1135AB0652D772722E030E0C20ED31EC7010E9475
S1135AC0B42E5C010F7713C0F601E080F18006FD6F
S1135AD003C06FEF7FEF02C0652D772722E030E02F
S1135AE0C20ED31EC7010E94A92E5C01006803FFE9
S1135AF007C01BC0B30180E290E00E94BF2E4A940D
S1135B00842D9927A816B906A8F30FC0F70107FD3D
S1135B10859107FF81917F01B30199270E94BF2ED0
S1135B2041104A940894A108B108A114B10471F772
S1135B3006C190E03EC0943611F0993691F507FF06
S1135B400AC0F601608171818281938124E030E092
S1135B50C20ED31E0DC0F601808191819C01B90152
S1135B60882777FD8095982F42E050E0C40ED51E1B
S1135B704FE6B42EB02297FF09C09095809570959A
S1135B8061957F4F8F4F9F4F50E8B52A8E010F5F6D
S1135B901F4F2AE030E0A8010E94EC2EA82EA01A84
S1135BA04DC0953731F43FEEF32EF0222AE030E079
S1135BB023C029EFF22EF0229F3661F0903720F4B3
S1135BC0983509F0BFC012C0903739F0983709F002
S1135BD0B9C005C028E030E00FC080E1F82AF4FE27
S1135BE002C094E0F92A20E130E006C0F4FE02C0CD
S1135BF0E6E0FE2A20E132E0F7FE0AC0F601608109
S1135C0071818281938144E050E0C40ED51E0BC0A3
S1135C10F60180819181AC01BA0188279927E2E0DD
S1135C20F0E0CE0EDF1E8E010F5F1F4FA8010E9411
S1135C30EC2EA82EA01A8FE7B82EBF20B6FE10C0F7
S1135C40FEEFBF22A51460F42B2D332724FF1AC0C6
S1135C5022FF02C0052D09C02FEEB222052D01C07E
S1135C600A2D2B2D332724FF0EC0FE01EA0DF11D52
S1135C708081803319F439EEB32209C00F5F22FF0B
S1135C8006C004C0052D822F867809F00F5FEB2C27
S1135C90FF24E3FC14C0E0FE0FC0041510F05A2CDE
S1135CA00BC0542C501A5A0C042D06C0B30180E2C8
S1135CB090E00E94BF2E0F5F0415C0F304C00415CA
S1135CC010F4401A01C04424E4FE10C0B30180E380
S1135CD090E00E94BF2EE2FE1EC0E1FE03C088E5F4
S1135CE090E002C088E790E0B3010CC08E2D867866
