S01700006275696C642F697269732F6D61696E2E7372656343
S11300000C9483010C94A2010C94A2010C94A201FF
S11300100C94A2010C94A2010C94A2010C94A201D0
S11300200C94A2010C94A2010C94A2010C94A201C0
S11300300C94A2010C942E0D0C94A2010C943C0778
S11300400C94AD130C94E3130C94BD0B0C94C80BDB
S11300500C94D30B0C94A2010C94A2010C94A20155
S11300600C941A0B0C940D090C94A2010C94900995
S11300700C94A2010C94A2010C94A2010C94E70A22
S11300800C94C60A0C94D10A0C94DC0A0C94FA0A57
S11300900C94A90A0C94A2010C94BB0A0C94A2011E
S11300A00C94A2010C94A2010C94A2010C94A20140
S11300B00C94A2010C94A2010C94A2010C94A20130
S11300C00C94A2010C94A2010C94A2016B1D6F1D4F
S11300D0621DEE1DFD1DE51E0A1F0D1F1B1F491F7E
S11300E06C1F7A1F921F971F4B2171218821342383
S11300F0D32337234B23032ADA23E523C028D42927
S113010000002110422063308440A550C660E7708F
S1130110088129914AA16BB18CC1ADD1CEE1EFF137
S11301203112100273325222B5529442F772D662DF
S1130130399318837BB35AA3BDD39CC3FFF3DEE387
S11301406224433420040114E664C774A44485542F
S11301506AA54BB528850995EEE5CFF5ACC58DD5D7
S11301605336722611163006D776F6669556B4467F
S11301705BB77AA719973887DFF7FEE79DD7BCC727
S1130180C448E5588668A7784008611802282338CF
S1130190CCC9EDD98EE9AFF9488969990AA92BB977
S11301A0F55AD44AB77A966A711A500A333A122A1F
S11301B0FDDBDCCBBFFB9EEB799B588B3BBB1AABC7
S11301C0A66C877CE44CC55C222C033C600C411C6F
S11301D0AEED8FFDECCDCDDD2AAD0BBD688D499D17
S11301E0977EB66ED55EF44E133E322E511E700EBF
S11301F09FFFBEEFDDDFFCCF1BBF3AAF599F788F67
S11302008891A981CAB1EBA10CD12DC14EF16FE146
S11302108010A100C230E32004502540467067607E
S1130220B9839893FBA3DAB33DC31CD37FE35EF396
S1130230B1029012F322D2323542145277625672CE
S1130240EAB5CBA5A89589856EF54FE52CD50DC5E6
S1130250E234C324A014810466744764245405441E
S1130260DBA7FAB79987B8975FE77EF71DC73CD736
S1130270D326F2369106B01657667676154634566E
S11302804CD96DC90EF92FE9C899E9898AB9ABA986
S11302904458654806782768C018E1088238A328BE
S11302A07DCB5CDB3FEB1EFBF98BD89BBBAB9ABBD6
S11302B0754A545A376A167AF10AD01AB32A923A0E
S11302C02EFD0FED6CDD4DCDAABD8BADE89DC98D26
S11302D0267C076C645C454CA23C832CE01CC10C5E
S11302E01FEF3EFF5DCF7CDF9BAFBABFD98FF89F76
S11302F0176E367E554E745E932EB23ED10EF01EAE
S113030000020E060C0411241FBECFEFD1E2DEBFA3
S1130310CDBF12E0A0E0B2E0E6E8F5E600E00BBFF6
S113032002C007900D92A43DB107D9F717E1A4EDDF
S1130330B2E001C01D92A739B107E1F70E943A2A41
S11303400C94C2320C9400008FB7F8949927089546
S11303508FBF0895CF93DF93EC01DB0183E0B69563
S1130360A7958A95E1F767707070E42FFF27CF0196
S1130370860F971F0997D8F4AC0FBD1F2C91332714
S113038088279927861B970B8E1B9F0B089602C004
S1130390359527958A95E2F781E090E002C0880FB1
S11303A0991FEA95E2F781508223992744C0611589
S11303B0710511F450E01CC0460F4850FE01EA0FCD
S11303C0FB1F28E030E0261B370B81E090E002C0E1
S11303D0880F991F2A95E2F781502081822399275B
S11303E0042E02C0880F991F0A94E2F7582F119621
S11303F0FE01EA0FFB1F0BC0485081919927042E80
S113040002C0880F991F0A94E2F7582B11964830BE
S113041098F7442371F0AC0FBD1F2C91332788E06B
S113042090E0841B910902C0359527958A95E2F7DF
S1130430522B852F9927DF91CF9108957FB7F89498
S11304406091B2002091DB033091DC034091DD0325
S11304505091DE03B99B11C08091B3009091B2001A
S1130460280F311D411D511D2F5F3F4F4F4F5F4FCF
S1130470290F311D411D511D04C0260F311D411D81
S1130480511D872F99278FBFCA01B9010895282FBD
S11304909FB7F894E82FFF27E052FC4F80818F3FED
S11304A081F4E0918617E21771F40BC02093B6151E
S11304B004C0FF27E052FC4F20832093861720E0DE
S11304C007C025E005C08091B6158F3F91F7EECFA8
S11304D0892F99278FBF822F992708958DE00E9435
S11304E0470299270895582F2091480360914103AA
S11304F07091420330E040E029C080914503992780
S113050087709070892BA9F4E0914303F091440320
S113051081919927282FF0934403E0934303109289
S113052045036E177F0728F48093480381E090E029
S11305300895330F822F881F8827881F382B220F96
S1130540809145038F5F809345034F5F4517A9F65C
S113055020934803832F992708951F931FB7F89476
S113056080917E17882341F484E00E944702882307
S113057019F481E080937E17812F99278FBF1F91F3
S11305800895382FFA01422F213518F082E090E0C7
S113059008956683872F99278583338721878091E0
S11305A0DB029091DC02892B19F085E090E008953C
S11305B02FB7F894332785E08093DE021092DF0290
S11305C0F093DA02E093D90282E090E09093DC02A7
S11305D08093DB021092E1021092E002445F4093A8
S11305E0DD022FBF8FB7F894282F332780911B0883
S11305F08A3011F42FBF19C02FBF9FB7F894809190
S1130600B304882311F020E006C081E08093B30492
S11306101092B40421E0892F99278FBF222329F057
S11306200E94AD0280E090E008951092DC021092E6
S1130630DB0281E090E00895EF920F931F93AE2DBB
S113064099E0899FF0011124EE5DF84F40835183B6
S1130650628373830483158326833783A170808523
S11306608E7F8A2B8260808781E00E9447021F91DF
S11306700F91EF900895AF92BF92CF92DF92EF92D5
S1130680FF920F931F93F82E5A016B010E941E02D2
S1130690AB01BC0121E0E22E960185018F2D0E9461
S11306A01C031F910F91FF90EF90DF90CF90BF90AC
S11306B0AF900895613518F080E090E008950C96AD
S11306C00895FC01818199278073907081649868F2
S11306D08183892F9927828308950F931F938C0117
S11306E00E946103005A1F4FF80110821F910F915D
S11306F00895CF93DF93DB01FB0135968183892F26
S11307009927ED018D8384E686838091B4069091C8
S1130710B506892B19F085E090E029C0B093B506A1
S1130720A093B406448380919602882319F480E050
S113073090E01DC08681ED016D817727762F6627B5
S113074021813327622B732B10929602242FAD0143
S11307500E94C1029927282F882339F081E08093D1
S113076096021092B5061092B406822F9927DF9153
S1130770CF910895882319F08CB5806402C08CB59C
S11307808F7B8CBD0895882319F08CB5806802C0D6
S11307908CB58F778CBD08950F931F9380E00E94D2
S11307A0BA030FB7F8941127229A2398219A209A12
S11307B08CB580618CBD80E00E94C3038CB5877FBB
S11307C08CBD8CB58B7F8CBD81E00E94BA038DB546
S11307D081608DBD8CB58C7F8CBD0FBF1F910F9137
S11307E008950F931F93CF93DF93182F0FB7F894A7
S11307F080911D03882311F40E94CC03802F992734
S11308008FBF8FB7F894C82FDD272C2F80911D033D
S1130810882361F481E080931D031093AD0484E187
S11308200E944702CFBF80E090E021C0E12FFF2764
S1130830E555FB4F80818F3F89F4E091AB02E117CE
S113084089F40CC01093AA0204C0FF27E555FB4F9E
S113085010831093AB0280E090E002C085E090E04A
S11308602FBF05C08091AA028F3F79F7EBCFDF91AC
S1130870CF911F910F910895FB01E05AFF4F21E0A2
S113088030E002C0220F331F8A95E2F72095808161
S1130890822380830895FB01E05AFF4F21E030E07A
S11308A002C0220F331F8A95E2F78081822B808356
S11308B008958FB7F8942091A2043091A304409135
S11308C0A4045091A504E0918400F0918500B09BAC
S11308D008C02F5F3F4F4F4F5F4FE0918400F0916E
S11308E0850099278FBFC901772766279F01442771
S11308F05527622B732B842B952B0895FB01E05A0B
S1130900FF4F21E030E002C0220F331F8A95E2F747
S113091080818223992708950F931F938C0160E5AA
S11309200E945A03F80120812151820F911D1F91C9
S11309300F9108950B960895AC01209119052E315D
S113094018F081E090E008958091A104682F620F6F
S1130950712D711DFB016E31710508F07E97EE0F4C
S1130960FF1FE05EF74F518340832F5F20931905EB
S113097080E090E00895FC018081815199270895D9
S11309801F93CF93DF93EC01162F62E00E945A036A
S1130990FC0191818091EF028823F1F59F3FE1F101
S11309A09F5F8091AE02891738F48091AF02981747
S11309B098F59093AF0230C0112359F19093AE0291
S11309C028C089859927982F882728853327822B43
S11309D0932B9093A00280939F0282818093F802CC
S11309E080818F5F8093A10280910503909106031B
S11309F0A0910703B09108030196A11DB11D809336
S1130A00050390930603A0930703B093080381E0C2
S1130A102AC0838180FDD5CF809105039091060380
S1130A20A0910703B09108030196A11DB11D809305
S1130A30050390930603A0930703B09308038091E2
S1130A40090390910A03A0910B03B0910C03019642
S1130A50A11DB11D8093090390930A03A0930B0376
S1130A60B0930C0380E09927DF91CF911F910895F3
S1130A70EF92FF920F931F938C0160E50E945A033B
S1130A807C01C8010E94BB048150E80EF11CC7011F
S1130A901F910F91FF90EF9008958BE490E00895DB
S1130AA020911905222319F440E050E016C08091EA
S1130AB0A104E82FFF27EE0FFF1FE05EF74F4081F0
S1130AC05181118210822150209319058F5F8093E8
S1130AD0A1048E3111F41092A104CA010895AC014D
S1130AE020912E032E3118F081E090E0089580913A
S1130AF02D03E82FFF27EE0FFF1FE75AFA4E51830D
S1130B0040838F5F80932D038E3111F410922D0357
S1130B102F5F20932E0380E090E008952F923F9260
S1130B204F925F926F927F928F929F92AF92BF92F9
S1130B30CF92DF92EF92FF920F931F93CF93DF93A5
S1130B40CDB7DEB729970FB6F894DEBF0FBECDBF81
S1130B506FB76983F89420909C0430909D04409072
S1130B609E0450909F04662477248824EEE4AE2EDD
S1130B7073E8B72ECC24DD24EE24FF2400E010E03B
S1130B80222D332D442D552D662D772D882D90E063
S1130B900E94EA2D2A833B834C835D836E837F838B
S1130BA088879987822E932EA42EB52E2401350191
S1130BB000E20E94E82EA22EB32EC42ED52EA3014D
S1130BC0920156954795379527952A0D3B1D4C1D47
S1130BD05D1D57FF05C05F772F5F3F4F4F4F5F4F3E
S1130BE020939C0430939D0440939E0450939F044F
S1130BF0E9818E2F99278FBFCA01B90129960FB6B3
S1130C00F894DEBF0FBECDBFDF91CF911F910F913E
S1130C10FF90EF90DF90CF90BF90AF909F908F9018
S1130C207F906F905F904F903F902F9008958FB773
S1130C30F894282F3327922F80911B088A3041F093
S1130C4080919304843021F02FBF89E090E00895CF
S1130C509FBF85E00E94470280E090E00895809164
S1130C601B088A3021F480919304843021F081E0C0
S1130C708093D602089586E00E9447021092D6021D
S1130C8008952FB7F89433278093C600E0ECF0E082
S1130C908081806480832FBF0895FC0161157105F4
S1130CA019F481E090E008958091AE049091AF042E
S1130CB0892B19F085E090E008957093A415609352
S1130CC0A315F093AF04E093AE0410929504109230
S1130CD0940481E0809396048091C00080648093A2
S1130CE0C0008091C10080648093C100808121E0B4
S1130CF030E030939504209394040E94410680E0F0
S1130D0090E008958FB7F89499272091E7022E7FF9
S1130D102093E7022EE7209300048FBF61E070E088
S1130D2080E094E00E944D0699270895DF92EF92A7
S1130D30FF920F931F938FB7F894282F3327D22E47
S1130D409091B3008091B20047B3981711F041FF1E
S1130D5002C02FBF71C080919A048823E1F10E94E0
S1130D601E02E090CC03F090CD030091CE031091CD
S1130D70CF032091C0153091C1154091C2155091F7
S1130D80C3156E197F09800B910B621773078407D3
S1130D90950720F010929A0471E01EC02E0D3F1D9D
S1130DA0401F511F8091DB039091DC03A091DD0370
S1130DB0B091DE03281B390B4A0B5B0B273E310530
S1130DC04105510540F4822F223010F070E005C037
S1130DD070E082E002C070E086EE682F615080917E
S1130DE0B60083FDFCCF8091B200681709F46F5FF1
S1130DF02091DB033091DC034091DD035091DE034D
S1130E00DA01C9010196A11DB11D860F911DA11D15
S1130E10B11D82179307A407B50710F4622F6095DC
S1130E208091B60083FDFCCF6093B300DFBE7723CF
S1130E3019F080E00E9447021F910F91FF90EF90FC
S1130E40DF900895AFB7F894BB27E1E0E0939A04EC
S1130E506093CC037093CD038093CE039093CF0320
S1130E602093C0153093C1154093C2155093C315F8
S1130E70AFBF0E94960608951F920F920FB60F926D
S1130E8011248F938091B0008093B0008091B600BC
S1130E9081FDFCCF8F910F900FBE0F901F9018957E
S1130EA0E0E0F1E06927660FF11DE60FF11DC8953A
S1130EB0982F802D3196C89590250895982F80916C
S1130EC0E202882389F5992379F531E03093E2022F
S1130ED0809197028093E3022091D702822F817040
S1130EE08093DA0380919C0290919D029093E50295
S1130EF08093E4028091D8028093E6023227317015
S1130F00267EE32FFF27EE0FFF1FE856FD4F80815B
S1130F10918190939D0280939C02232B2093D7026E
S1130F2089E00E94470208958091D70280FF02C0A1
S1130F308B7F01C08D7F8093D70208950F931F93F9
S1130F40082F162F809193048130D9F0813038F026
S1130F50823009F44AC0833009F028C159C0002303
S1130F6009F458C110929C1510929B1510921F08F9
S1130F701092AF15109297041092B9061092B80609
S1130F8039C1002309F046C18091B8069091B90691
S1130F900E9450079093B9068093B80682E080932C
S1130FA093041093AF15143409F000C125C186953C
S1130FB0869503C08091D7028695817009F0F6C0AA
S1130FC08091D702992311F0846001C082608093DC
S1130FD0D7028091D702877E88608093D7021092CF
S1130FE0D8028FEF8093970215C1002309F0DEC069
S1130FF0609397048091B8069091B9060E945007B7
S11310009093B9068093B80683E08093930402C159
S113101080911F088F3F09F4C9C0002309F461C0FF
S1131020823008F4C3C0E0919B15EE2309F4EBC0B1
S11310304E2F4150E42FFF27E556FA4E828199271F
S1131040382F2227442311F4E2E002C0E42FE150B8
S1131050FF27E556FA4E82819927282B392B809158
S1131060B8069091B9062817390709F09FC080E0A7
S11310700E945E07309197048091AA062091AB06E6
S1131080982F9F5F963008F090E0921771F0E82F48
S1131090FF27E655F94F32838F5F8093AA06863087
S11310A010F01092AA060E94AD0210929C151092A4
S11310B09B1594E09093930410921F081092AF151F
S11310C0109297041092B9061092B8068091E70224
S11310D08D7F8093E7028091D602882309F49AC019
S11310E084C0823008F44EC0E0919C15FF27E55679
S11310F0FA4E8281482F5527342F2091D702822F10
S1131100869586958695837099278130910519F087
S11311100297F9F40EC0277E20612093D70244235E
S113112011F485E001C080E08093D80230939702E7
S113113010C08091D802833660F4E0919C02F09153
S11311409D02E80FF11D40838091D8028F5F809348
S1131150D80280919C15E82FFF27E556FA4E62814C
S11311608F5F80939C15833010F010929C15772725
S11311708091B8069091B9060E9450079093B906E1
S11311808093B80680919B15E82FFF27E556FA4E09
S113119012838F5F80939B15833010F010929B1500
S11311A080911F088F5F80931F0834C010929C1594
S11311B010929B1514E01093930410921F08109240
S11311C0AF15109297041092B9061092B806809148
S11311D0E7028D7F8093E70281E00E945E078091A1
S11311E0D602882329F0109393040E942F0612C07C
S11311F0002381F081E009CF8091D702982F91706C
S113120080FDD5CED7CE80919F159927382F2227E0
S113121042E01CCF1F910F9108951F920F920FB6B9
S11312200F9211242F933F934F935F936F937F9368
S11312308F939F93AF93BF93EF93FF938091C000DD
S113124087FF42C06091C600E091BA06F091BB06E8
S1131250309719F180917C1790917D17E80FF91F51
S11312606083019690937D1780937C172091891752
S113127030918A178217930738F11092BB061092A7
S1131280BA0680911A088330F9F08091C1008F77F3
S11312908093C10010921A0817C06E3719F460E0E9
S11312A081E010C08091E7026D3721F48260809361
S11312B0E7020AC081FF05C08D7F8093E70280E2C8
S11312C0682780E00E949E07FF91EF91BF91AF9144
S11312D09F918F917F916F915F914F913F912F914A
S11312E00F900FBE0F901F901895982F8D57823036
S11312F068F48091E70281608093E70280E28927A5
S113130080931E088DE78093000402C0909300042C
S113131061E070E080E094E00E944D069927089512
S113132078941F920F920FB60F921124FF920F938D
S11313301F932F933F934F935F936F937F938F9359
S11313409F93AF93BF93CF93DF93EF93FF9320913A
S11313509404309195048091A3159091A4152817B5
S1131360390780F4E091AE04F091AF04E20FF31F6B
S113137080812F5F3F4F30939504209394040E9403
S11313804106D1C01092AF041092AE04109296049C
S11313908091C1008F7B8093C100FFB6F894809147
S11313A0E70280FF0EC08E7F8093E70280911E08C3
S11313B08093000461E070E080E094E00E944D06B8
S11313C0AFC080911B08843009F48CC0853040F490
S11313D0823021F18330B8F5813009F09CC00DC012
S11313E0863009F48DC0863008F483C0873009F450
S11313F08EC0883009F08FC091C08091AC040E94E7
S11314007509082F83E080931B086091AC048091D8
S11314108717909188170E94500710C08091BA15C1
S11314200E947509082F83E080931B086091BA1508
S113143080918717909188170E945007909388177E
S11314408093871766C0E091BC06FF27EE0FFF1F4D
S1131450EE54FB4F80810E947509082F1091BC0641
S1131460C12FDD27FE01EE0FFF1FEE54FB4F6081FD
S113147080918717909188170E945007909388173E
S1131480809387172091A8042F5F2093A80411301C
S113149039F58091DE02E091D902F091DA02E80F89
S11314A0F11DE0818F5F8093DE029091DD02981739
S11314B030F482E08093B30440E050E002C04E2F49
S11314C05527DE01AA0FBB1FFD01EF54FB4F80819E
S11314D0823031F02F3F21F0AE54BB4F4C9319C0F2
S11314E084E012C0809187170E947509082F85E057
S11314F00BC0809188170E947509082F86E004C0EC
S11315000E948206082F87E080931B0802C088E0AF
S113151003C0002329F089E080931B080E94AD02D8
S11315208F2D99278FBFFF91EF91DF91CF91BF91BD
S1131530AF919F918F917F916F915F914F913F9167
S11315402F911F910F91FF900F900FBE0F901F903E
S113155018951F920F920FB60F9211248F938091BA
S1131560C80087FF02C08091CE008F910F900FBEFC
S11315700F901F90189578941F920F920FB60F92A8
S113158011240F900FBE0F901F90189578941F92FE
S11315900F920FB60F9211240F900FBE0F901F9051
S11315A0189578941F920F920FB60F9211240F90F2
S11315B00FBE0F901F90189578941F920F920FB63C
S11315C00F9211240F900FBE0F901F9018957894CE
S11315D01F920F920FB60F9211248F939F938091B5
S11315E09600909197009F918F910F900FBE0F904E
S11315F01F90189578941F920F920FB60F92112492
S11316002F933F938F939F932FB7F8943327809111
S1131610B6069091B70601969093B7068093B606E6
S11316202FBF9F918F913F912F910F900FBE0F90DD
S11316301F9018951F920F920FB60F9211240F93BB
S11316401F932F933F934F935F936F937F938F9346
S11316509F93AF93BF93CF93DF93EF93FF932EB5F5
S1131660E0911508F0911608309739F08091B20690
S11316709091B306E80FF91F20838091B2069091F0
S1131680B30601969093B3068093B20680E00E945D
S1131690C303C091B206D091B30620914B0330919D
S11316A04C03C217D30708F042C0009116171091DB
S11316B017174091150850911608CE010A9628175D
S11316C0390708F4C901DA01AC0FBD1FF801EC0FAA
S11316D0FD1F9C012150304015C00115110531F04A
S11316E080818EBD0DB407FEFDCF04C01EBC0DB4B9
S11316F007FEFDCF8EB54115510509F08C93219657
S113170011963196C217D30740F381E00E94C303B8
S11317100115110531F00C0F1D1FF80180818EBDDC
S113172001C01EBCD093B306C093B20611C0109280
S11317301608109215081092171710921617109287
S11317404C0310924B031092B3061092B2068EB55E
S1131750FF91EF91DF91CF91BF91AF919F918F91C5
S11317607F916F915F914F913F912F911F910F91B5
S11317700F900FBE0F901F90189578941F920F92A0
S11317800FB60F9211240F900FBE0F901F90189553
S113179078941F920F920FB60F9211240F900FBEE0
S11317A00F901F90189578941F920F920FB60F9276
S11317B011242F933F938F939F93AF93BF932FB78E
S11317C0F89433278091A2049091A304A091A404D7
S11317D0B091A5040196A11DB11D8093A20490931C
S11317E0A304A093A404B093A5042FBFBF91AF9109
S11317F09F918F913F912F910F900FBE0F901F904B
S11318001895EF92FF920F931F93CF93DF93E5E226
S1131810F7E1C091EC02D091ED02C035D10510F092
S1131820C0E5D0E080E5DF011D928A95E9F72091BB
S1131830EC023091ED028091E8029091E90200E01F
S113184010E07F0113C0FC01E65EFA4FE081211530
S1131850310539F0019660E971E00E948A2F215028
S11318603040D701ED937D010F5F1F4F0C171D070B
S113187051F73093ED022093EC029093E9028093A8
S1131880E80240E569E177E18FEF9FEF0E94790379
S1131890882319F08AE00E944702DF91CF911F91BB
S11318A00F91FF90EF9008958FB7F894282F332766
S11318B08091EE02813021F42FBF80E090E0089502
S11318C040E08091EC029091ED02892B09F441E013
S11318D0442321F02FBF81E090E0089581E08093BC
S11318E0EE022FBF0E94010C80E090E008951F9348
S11318F0CF93DF93182F8091EE02882361F48091B7
S1131900EC029091ED02883C910528F081E08093EF
S1131910EE020E94010C8FB7F894C82FDD272091A6
S1131920EC023091ED0281E020393807D8F480913F
S1131930EA029091EB02FC01E65EFA4F10830196F5
S113194060E971E00E948A2F9093EB028093EA028F
S11319502F5F3F4F3093ED022093EC02CFBF80E026
S113196090E003C0CFBF8FEF9FEFDF91CF911F9126
S11319700895CF92DF92EF92FF920F931F93182F47
S11319800E941E026B017C0180913903813009F5AC
S11319908091350390913603A0913703B0913803B9
S11319A0A7019601281B390B4A0B5B0B6091B80207
S11319B07091B9028091BA029091BB0203EF0E9428
S11319C0722D6093B8027093B9028093BA02909317
S11319D0BB02112341F0C0923503D0923603E0924A
S11319E03703F09238031F910F91FF90EF90DF902F
S11319F0CF90089560913A03882399F06623A1F06B
S1131A007727762F662743EF8091BE029091BF021D
S1131A100E94312D9093BF028093BE0210923A032C
S1131A2008956F5F60933A030895609139038823A2
S1131A3089F07727762F662743EF8091BC02909137
S1131A40BD020E94312D9093BD028093BC0210927E
S1131A50390308956F5F6093390308951F920F92BD
S1131A600FB60F9211242F933F934F935F936F936D
S1131A707F938F939F93AF93BF93EF93FF93809143
S1131A80B0008093B0008091B60081FDFCCF8091BE
S1131A90B30099270196AA27BB272091DB03309135
S1131AA0DC034091DD035091DE03280F391F4A1FE8
S1131AB05B1F2093DB033093DC034093DD035093DF
S1131AC0DE039091B10090688091B60080FDFCCF58
S1131AD09093B1009F778091B60080FDFCCF9093E6
S1131AE0B10078940E949606FF91EF91BF91AF9157
S1131AF09F918F917F916F915F914F913F912F9122
S1131B000F900FBE0F901F9018951F93982F1FB71B
S1131B10F89480911C03823099F58091A902891769
S1131B2079F58091A70220E030E08F3F11F421E0A5
S1131B3030E0232BF1F49FEF9093A9028F3F19F427
S1131B402FEF30E00DC0282F3327F901E659FB4F62
S1131B5080818093A7028F3F11F49093A802908311
S1131B602093670481E080931C038EE00E94470267
S1131B7005C08FEF8093A90210921C0321E001C0DD
S1131B8020E0812F99278FBF90E0213009F491E064
S1131B9081E09827892F99271F9108958FB7F8948A
S1131BA0282F3327922F8091AC02882331F480911F
S1131BB01D03823011F42FBF13C09FBF8FB7F89459
S1131BC0282F332780911D03882369F482E08093B2
S1131BD01D031092AC022FBF0E94CC03209A289AB6
S1131BE081E090E008952FBF80E00E94F10380E03F
S1131BF090E008950E94BB04865099270895EF92BF
S1131C00FF920F931F938C010E944D058B5F682FE9
S1131C10C8010E945A037C01C8010E94FA0DE80E13
S1131C20F11CC7011F910F91FF90EF9008950F933E
S1131C301F93982F1FB7F89480911D03823099F554
S1131C408091AC02891779F58091AA0220E030E0F6
S1131C508F3F11F421E030E0232BF1F49FEF9093B8
S1131C60AC028F3F19F42FEF30E00DC0282F33273B
S1131C70F901E555FB4F80818093AA028F3F11F44F
S1131C809093AB0290832093AD0481E080931D0375
S1131C9084E10E94470205C08FEF8093AC0210924A
S1131CA01D0301E001C000E0812F99278FBF1FB7FA
S1131CB0F89480911D03882311F40E94BA03812FA4
S1131CC099278FBF90E0013009F491E081E09827D3
S1131CD0892F99271F910F910895662361F48091AC
S1131CE0EC029091ED02892B19F00E94010C0895E9
S1131CF01092EE0208958AE00E9447020895EF923E
S1131D00FF920F931F93CF93DF93182F7B01042F20
S1131D10E82FFF27EE0FFF1FEC54F94F11821082BA
S1131D2010929602A091B406B091B506109721F0D6
S1131D308091BF1580FF0EC081E08093960203C09E
S1131D4083E00E9447021123C9F4602FC7010E9457
S1131D506D0E14C0FD01359624813327ED016D818C
S1131D607727762F662781819927682B792BAD01F8
S1131D7086810E94C102882331F3E2CFDF91CF91A3
S1131D801F910F91FF90EF900895665F0E945A0390
S1131D900895AF92BF92CF92DF92EF92FF920F938A
S1131DA01F93CF93DF938091A015882309F4C4C0B7
S1131DB00E94CE0D882309F4BFC08FB7F8949927E9
S1131DC0C091A604D091A7048FBF1092A0152898A3
S1131DD08FE88EBD0DB407FEFDCF8EB51EBC0DB4CD
S1131DE007FEFDCF8EB5289A982F80914A03833041
S1131DF011F0873031F485E08093181788E08093E0
S1131E004A03A92EBB24A2FE67C080914A038630F0
S1131E1019F410924A0303C0882309F05DC094307A
S1131E2009F049C0289886E88EBD0DB407FEFDCFA1
S1131E308EB51EBC0DB407FEFDCFFEB4289A2FE16B
S1131E40F22280916C04982F969596953F2D391B1C
S1131E50830F80936C040091D6031091D703B801CB
S1131E6081E00E943C04B80182E00E944B040F59B7
S1131E701F4FF801F1820E9459046B017C0100910B
S1131E80D6031091D703B80180E00E944B04045A92
S1131E901F4FCC19DD092797CE01AA2797FDA095DE
S1131EA0BA2F8C0D9D1DAE1DBF1DF801808391833B
S1131EB0A283B3830EC06091D6037091D70382E0EE
S1131EC00E943C046091D6037091D70380E00E9485
S1131ED03C0485E080934A03A3FE2EC090914A03FC
S1131EE0943069F485E08093181710924A03109295
S1131EF0C4159093700480E10E9447021DC0953080
S1131F00D9F42091A004289886E88EBD0DB407FE6C
S1131F10FDCF8EB51EBC0DB407FEFDCF8EB5289A3D
S1131F208F71922F96959695891B280F2093A00464
S1131F3089E080934A0308C020914A03222309F4CC
S1131F4075C2293009F082C1289880E28EBD0DB493
S1131F5007FEFDCF8EB51EBC0DB407FEFDCF8EB5BA
S1131F60482F5527433008F4AEC2842F99278E3565
S1131F7091050CF0A8C21EBCE091D603F091D703E2
S1131F804083A42FA250A73010F42A2F01C027E0C9
S1131F90BF016F5F7F4F322FFB0140E050E00DB473
S1131FA007FEFDCF8EB51EBC992781934827042ECA
S1131FB04295407F4025052E542F42954F700426AC
S1131FC0469554274527440F440F440F402531506C
S1131FD031F72150FB01E20FF11D2F5F31968FB7CE
S1131FE0F894682F772790E080919515833008F452
S1131FF091E06FBF992309F45EC09A2F921B18C019
S11320000DB407FEFDCF8EB51EBC80838191482799
S1132010042E4295407F4025052E542F42954F7043
S11320200426469554274527440F440F440F402562
S1132030915030F70DB407FEFDCF8EB51EBC9A014A
S11320402827022E2295207F2025032E322F229529
S11320502F700226269532272327220F220F220FC4
S113206020250DB407FEFDCF8EB51EBC2827022EF9
S11320702295207F2025032E322F22952F700226B1
S1132080269532272327220F220F220F20250DB455
S113209007FEFDCF8EB5E091D603F091D703EF593B
S11320A0FF4F8083289A85E08093181710924A0383
S11320B0232B31F0B7C10DB407FEFDCF8EB503C29B
S11320C0E090D603F090D70357010894A11CB11CEB
S11320D0F701818520859927582F44273327422BE0
S11320E0532B8091DF03282F3327F901EE0FFF1FB5
S11320F0EB55FA4E808191816091180884179507F9
S113210069F4F901E058F84E8081861709F464C037
S1132110862F8F5F8093180880831BC010E000E037
S113212080E090E0C5EAD5E1E0E8F7E1C62EC3948B
S1132130DF01782F9C01888199818417950759F4D0
S11321402093DF038C91861709F446C0C0921808C7
S1132150CC9210E828C08081962F981B191710F490
S1132160192F022F7F5FC90101961196229631968D
S113217085309105F1F67530B1F40093DF03A02F9B
S1132180BB27FD01EE0FFF1FEB55FA4E5183408331
S1132190862F8F5F80931808FD01E058F84E8083E6
S11321A0A457B84E1C9290911808892F8F778F37B7
S11321B079F41F3768F0E0E8F7E1292F207880816F
S11321C08F6789132083319637E1E538F307B9F730
S11321D08091DF03282F3327F5019281A22FBB279B
S11321E0FD01E457F84E808180FF07C0FD01EA56E7
S11321F0FA4E8081981729F102C081608083AA5623
S1132200BA4E9C93CFB6F894809195158330B0F470
S1132210E091B915E80FE33008F0E350FF27EE0F23
S1132220FF1FE754FC4F00811181F182E0828F5F30
S11322308093951581E10E94470278018C2D99279E
S11322408FBFF092D703E092D603E3C0822F815070
S1132250833008F0BCC08150823008F03BC09091BC
S113226018179130B9F530E080911708882309F4E4
S113227031E0332379F12F989093B00490931708A9
S113228060918400709185002FB7F8944091840088
S113229050918500CA01861B970B03968B5293407D
S11322A018F0CA01039603C0CB01855D9C4F0097CB
S11322B011F481E090E00197909389008093880065
S11322C082E086BB90916F00926090936F003327F9
S11322D02FBF68C0233009F042C0809118178330A3
S11322E009F097C00E94CE0D8823C9F128988FE881
S11322F08EBD0DB407FEFDCF8EB51EBC0DB407FE1A
S1132300FDCF8EB5289A80918100806480938100EE
S113231080E286BB80916F00806280936F00909111
S11323206604289888EC8EBD0DB407FEFDCF8EB5EB
S113233090669EBD0DB407FEFDCF8EB5289A2898F1
S113234082EC8EBD0DB407FEFDCF8EB586E08EBD4A
S11323500DB407FEFDCF8EB5289A84E023C080918A
S11323604A038150823000F5809118178530E1F4DA
S11323700E94CE0D8823C1F0289882EC8EBD0DB446
S113238007FEFDCF8EB583E08EBD0DB407FEFDCFF5
S11323908EB5289A80916F008F7D80936F00109284
S11323A0A01583E08093181790914A03913041F46B
S11323B0809118178330B1F52F9A9093181725C080
S11323C0923039F580911817833061F51EC027309B
S11323D001F50E94CE0D8823E1F0909166042898BF
S11323E088EC8EBD0DB407FEFDCF8EB590669EBD04
S11323F00DB407FEFDCF8EB5289A8091181785304D
S113240021F484E08093181704C088E080934A0381
S113241004C080914A03883029F410924A038FE063
S11324200E94470280914A038823C9F480911817B7
S1132430853091F48091A015882371F48091700403
S1132440823051F481E08093700480E10E9447025D
S113245080914A03882319F482E10E944702809103
S11324601708823019F5109217088091B004813052
S1132470E9F480911817823021F483E080931817CF
S113248013C080914A03863079F410924A03289845
S113249081E88EBD0DB407FEFDCF8EB51EBC0DB414
S11324A007FEFDCF8EB5289A0E9499138FB7F89432
S11324B0282F332780916504813061F081E0809377
S11324C065042FBF70CC289A85E08093181710926A
S11324D04A03A8CF109265042FBFDF91CF911F91BB
S11324E00F91FF90EF90DF90CF90BF90AF90089541
S11324F08FB7F894282F33278091650481508093F7
S11325006504803811F02FBF089581E0809365043D
S11325102FBF0E94C90E08951F93FC018FE3828789
S1132520809149038F5F8093490383832FB7F89485
S11325303327809165048F5F809365042FBF80915A
S11325407004882311F015E00DC0F0931D08E0938A
S11325501C0881E0809370041092190880E10E94A5
S1132560470210E00E947812812F99271F91089545
S1132570EF92FF920F931F93CF93DF93082F7B016A
S1132580EA01122F213518F086E090E089C08A8193
S1132590298140E09927982F88273327822B932B72
S11325A087749C7C8154984809F441E0442319F4CD
S11325B0CE010E946103135F18832FB7F894332769
S11325C08091A4029091A5022FBF8887892F992713
S11325D089872FB7F89433278091A6022FBF9927B4
S11325E08C831D82CE010E949A04FC010083EE823A
S11325F08F2D99278F838FB7F894282F33278091B5
S11326001C03882371F482E080931C031092A902B6
S11326102FBFCE010E948C129927182F882399F07E
S11326200FC02FBFD0936904C09368048FB7F89488
S1132630C82FDD272C2F80911C03882399F406C012
S113264080E00E94850D812F99272AC081E0809324
S11326501C03109267048EE00E944702CFBF80E003
S113266090E01EC080916A048F3F89F4E091A80233
S1132670EE2369F010C01092A70204C0FF27E659A8
S1132680FB4F10821092A80280E090E002C085E027
S113269090E02FBF05C08091A7028F3F79F7EBCF61
S11326A0DF91CF911F910F91FF90EF9008951F93A9
S11326B0AC01209127032223C1F18091280390913A
S11326C029034817590789F5213071F480913C0793
S11326D08D7F80933C0783E08093AD0286E10E9466
S11326E0470280E090E023C02230F9F48FB7F894D9
S11326F09927209165042F5F209365048FBF8091F3
S113270070048150823010F015E00AC084E0809398
S1132710700483E08093C41580E10E94470210E0B6
S11327200E947812812F992702C081E090E01F91C6
S113273008958FB7F894282F332780916504882350
S113274029F08068809365042FBF089581E0809309
S113275065042FBF0E94C90E089578941F920F92AA
S11327600FB60F9211242F933F934F935F936F9360
S11327707F938F939F93AF93BF93EF93FF93E6E879
S1132780F0E080819181208131818FB7F89499277D
S11327903093A7042093A60421E02093A0158FBFB3
S11327A00E949913FF91EF91BF91AF919F918F91E7
S11327B07F916F915F914F913F912F910F900FBE39
S11327C00F901F90189578941F920F920FB60F9246
S11327D011242F933F934F935F936F937F938F9322
S11327E09F93AF93BF93EF93FF9380916F008D7F7F
S11327F080936F0078949FB7F89480911708813084
S113280019F482E080931708892F99278FBF0E94BB
S11328109913FF91EF91BF91AF919F918F917F9108
S11328206F915F914F913F912F910F900FBE0F9039
S11328301F9018951F93CF93DF93382F80919E029A
S1132840882309F452C080912E039927282F8823C6
S113285009F44BC0332329F48091D803281708F4D2
S113286044C0E0912C03FF27EE0FFF1FE75AFA4EF6
S1132870C081D181CE010E94BB04182F8091F60241
S11328809091F702892B89F580911B03853068F1BB
S1132890873141F4809145078D7F809345078DE012
S11328A00E94470290911B03892F8651823010F0B9
S11328B0953011F48CE00BC0963011F48DE007C014
S11328C09B3021F0933111F0943119F48EE0809310
S11328D01B03D093F702C093F60211501093BD0668
S11328E081E08093CB031092F502DF91CF911F9189
S11328F008951F93CF93DF93EC01FB014530D0F192
S1132900148180914003811738F09927811B910924
S11329108F3791050CF446C18091230390912403D1
S113292001969093240380932303455055273596AD
S1132930BF0181E794E00E940A30109340030E9493
S11329401E022091710430917204322F2227330F1A
S1132950330F44275527621B730B840B950B60932D
S1132960520370935303809354039093550389E166
S11329700E94470285E10E94470280911B03823135
S1132980B1F58FB7F89499274091A4025091A5020C
S11329908FBF8F812E819927982F88273327822BE9
S11329A0932B48175907F9F08F5F9F4F09F409C11A
S11329B0898528859927982F88273327822B932B5D
S11329C020919F023091A0022817390709F0F9C01D
S11329D0809145078D7F809345078EE080931B038C
S11329E08DE00E94470280911B03823129F08F30D1
S11329F019F08E3009F08CC08FB7F8949927409164
S1132A00A4025091A5028FBF8F812E819927982F00
S1132A1088273327822B932B4817590711F060E03E
S1132A205BC0898528859927982F88273327822B8F
S1132A30932B20919F023091A0022817390709F0A7
S1132A40C0C064E0CE010E945A03FC0190818091D1
S1132A50A102891709F0B5C02091F6023091F7025E
S1132A601092F7021092F602809145078D7F8093B1
S1132A7045074091CB03E0912C03FF27EE0FFF1F86
S1132A80E75AFA4E8081918128173907C1F444230B
S1132A9099F4C9010E949C0480912C0390912E0307
S1132AA0992351F08F5F80932C038E3111F410928F
S1132AB02C03915090932E0381E00E941A1480E01D
S1132AC00E94150D80E00E94B90C8EE080931B03D8
S1132AD08DE00E94470261E0CE010E94C004209173
S1132AE0F6023091F702882321F0232B29F080E1AC
S1132AF009C0232B09F065C0809145078D7F809321
S1132B00450783E180931B038DE00E94470259C06F
S1132B108051823008F055C0898528859927982FDF
S1132B2088273327822B932B20919F023091A00278
S1132B308217930709F045C08F812E819927582F5A
S1132B4044273327422B532B8FB7F894992720918E
S1132B50A4023091A5028FBF4217530791F14F5F32
S1132B605F4F51F52EC060E0CE010E94C00488235F
S1132B7019F010931B03C8CF8FE080931B0321C06F
S1132B808091F6029091F7020E9457138823C9F4AA
S1132B9060E0CE010E94C004882399F081E0809314
S1132BA0FA020FC080912503909126030196909319
S1132BB0260380932503DECE10911B03103101F709
S1132BC0D2CFCE01DF91CF911F9108952F923F92E2
S1132BD04F925F926F927F928F929F92AF92BF9229
S1132BE0CF92DF92EF92FF920F931F93CF93DF93D5
S1132BF0CDB7DEB72E970FB6F894DEBF0FBECDBFAC
S1132C001D821E821F8218868FB7F894282F3327BF
S1132C1080919515882309F459C2E091B915AE2F16
S1132C20BB27AA0FBB1FA754BC4F0D90BC91A02D6E
S1132C30BC83AB832FBFFD0182850781E6808F3380
S1132C4009F0F5C18B819C810E949A04FC011081DA
S1132C506B817C81645F7F4F2B813C81D9018D9195
S1132C60BA83A9838D50482F5527802F9927B82FD1
S1132C70AA278E2D9927A82BB92B8FB7F8949927BB
S1132C802091A4023091A5028FBFA217B30721F0AF
S1132C90AF5FBF4F09F003C2103809F48DC111387A
S1132CA009F0DFC18B819C810E948C049E878D87F3
S1132CB0DC01AC90FC016180E28023800E941E0252
S1132CC0FF2400271127102F0F2DFE2CEE24BB24E8
S1132CD0CC24DD24DA2CCC24BB24AA247724882415
S1132CE09924430177246624A628B728C828D9281C
S1132CF0332444245524A228B328C428D528EA28F8
S1132D00FB280C291D29E60EF71E081F191FED8547
S1132D10FE85E382BB27A12F902F8F2D8283C801CC
S1132D20AA27BB278183E12EFF2400271127E082F5
S1132D308B819C810E943805FC0120914003808195
S1132D40821738F09927821B91098F3791050CF46B
S1132D50ACC181E080931E0380911B0389508230B3
S1132D6008F07FC1809145078D7F80934507E981F5
S1132D70FA81808527819927982F88273327822BEA
S1132D80932B9093A3028093A20287E080931B036A
S1132D908DE00E9447028091130390911403A09147
S1132DA01503B09116030196A11DB11D8093130361
S1132DB090931403A0931503B093160380E00E942C
S1132DC0FA0C809133039091340301969093340369
S1132DD0809333038B819C810E94FF0D2C01FC01A5
S1132DE003810F5F03838B819C810E94FA0DA82EBF
S1132DF0D2018C91F20121819927582F442733273E
S1132E00422B532BC2808091EF02882311F010E0F3
S1132E1001C0102F1887CF825E834D8370912F03DA
S1132E20E0903003372F00E025C0E32FFF27EE0F9B
S1132E30FF1FEE0FFF1FEB53FA4E80819181A28199
S1132E40B38168842F81ED81FE818E179F0709F07D
S1132E502FC1A21709F02CC1B61508F429C180911D
S1132E60F3029091F40201969093F4028093F3029A
S1132E70F8C00F5F0E15C9F621C189E080932F03B6
S1132E8003C0715070932F03E0912F032E2F33272B
S1132E90220F331F220F331F2B533A4E89859A85F5
S1132EA0AB85BC85F90180839183A283B383809130
S1132EB030038A3018F48F5F809330038091EF02DF
S1132EC0882309F44BC06A2D665F8B819C810E9424
S1132ED05A03DC01F2016480FC01EA0DF11DC38098
S1132EE00C91FC01A1808B819C810E94FF0DFC014F
S1132EF0E08081800E941E02DD24DF92CF921127A0
S1132F00102F0027BB240A291B291F930F93772412
S1132F107F926F92FF24FE2CEE249924E828F9284E
S1132F20FF92EF929F938F937F936F938091900280
S1132F30909191029F938F9380E092E09F938F935F
S1132F400E941A300E94540C2DB73EB7205F3F4FA9
S1132F500FB6F8943EBF0FBE2DBF83C00E9450052C
S1132F608C01892B51F48091F1029091F202019627
S1132F709093F2028093F10212C08B819C810E9493
S1132F806F05813099F48091F1029091F2020196DB
S1132F909093F2028093F102C8010E949C048091F4
S1132FA01B03873009F05DC08BE024C08CE00E94D5
S1132FB047021C830B8355C08B819C810E9479142A
S1132FC09C838B834EC080911B038031B1F4EB81D1
S1132FD0FC81878126819927982F88273327822B84
S1132FE0932B20919F023091A0028217930709F03E
S1132FF038C08FE080931B0334C0813191F5EB819D
S1133000FC81878126819927982F88273327822B53
S1133010932B20919F023091A0028217930709F508
S11330208091F6029091F7020E9457131AC0802FE4
S11330309927582F44278E2D9927482B592B8FB722
S1133040F89499272091A4023091A5028FBF4217CA
S1133050530719F04F5F5F4F21F48FB7F894992706
S11330608FBF9FB7F8948091B915A82FBB27AA0FDB
S1133070BB1FA754BC4F2B813C812D933C938F5F86
S11330808093B915833010F01092B915809195157D
S1133090815080939515892F99278FBFB5CD10380E
S11330A009F48ACF1138E9F68ECF10921E0354CE5C
S11330B03F5F3A3008F4DDCE30E0DBCE1C87CB86B0
S11330C05A874987772309F4D8CEDBCE2FBF2E96B3
S11330D00FB6F894DEBF0FBECDBFDF91CF911F9125
S11330E00F91FF90EF90DF90CF90BF90AF909F90A3
S11330F08F907F906F905F904F903F902F900895A6
S1133100AF92BF92CF92DF92EF920F931F93E09111
S1133110C002E330F9F0FF27EE0FFF1FEE0FFF1F91
S1133120E154FC4FA080B180C280D380A114B104CB
S1133130C104D10421F487E10E9447020BC00E941C
S11331401E02AB01BC01E1E0EE2E9601850184E094
S11331500E941C031F910F91EF90DF90CF90BF90BE
S1133160AF900895AF92BF92CF92DF92EF920F93F8
S11331701F935B016C010E941E02AB01BC01B1E014
S1133180EB2E9601850183E00E941C031F910F9191
S1133190EF90DF90CF90BF90AF9008956623E9F44D
S11331A080910D0390910E03A0910F03B091100331
S11331B00196A11DB11D80930D0390930E03A0935E
S11331C00F03B093100382E180931B0362E070E06D
S11331D080E090E00E94B2180895809111039091CC
S11331E0120301969093120380931103633069F4E0
S11331F08091FA02813049F41092FA0280E18093BE
S11332001B038DE00E94470208958091450781FFCA
S113321002C08FE001C08EE080931B030895DF920B
S1133220EF92FF920F931F93CF93DF93EC01D62E6F
S11332300E949A04FC0180819927803821F081380A
S113324009F07BC047C0DD20A9F58F819927982F0D
S113325088272E813327822B932B8F5F9F4F99F0E2
S11332608091FF0290910003A0910103B0910203A9
S11332700196A11DB11D8093FF0290930003A093BA
S11332800103B09302038091FB029091FC02A09190
S1133290FD02B091FE020196A11DB11D8093FB02B7
S11332A09093FC02A093FD02B093FE0280911B0355
S11332B08F5F0AC080910303909104030196909359
S11332C004038093030384E180931B038DE00E9435
S11332D0470233C010922A03DD2059F410912B03C6
S11332E00E941E0220912107621B160F169510934F
S11332F02B03E090BB15F090BC150091BD15109107
S1133300BE15CE010E948C04FC01E382BB27A12FD1
S1133310902F8F2D8283C801AA27BB278183E12E9A
S1133320FF2400271127E082109227036D2D80913E
S11333302803909129030E94CE18DF91CF911F9109
S11333400F91FF90EF90DF900895AF92BF92CF92CC
S1133350DF92EF920F931F935B016C010E941E0298
S1133360AB01BC01E1E0EE2E9601850180E00E94F4
S11333701C031F910F91EF90DF90CF90BF90AF90FF
S113338008952F923F925F926F927F928F929F92B5
S1133390AF92BF92CF92DF92EF92FF920F931F935F
S11333A0CF93DF935B016C01C0E0D0E0E2E2F7E091
S11333B0608561FF3CC22081318142815381E48078
S11333C0F58006811781D601C501821B930BA40BDE
S11333D0B50B8E159F05A007B10708F428C260FF3E
S11333E003C06D7F608708C02E0D3F1D401F511F15
S11333F02083318342835383C23009F4EBC0C3304A
S113340030F4CC2359F0C13009F035C2C6C0C33002
S113341009F4ACC1C43009F02EC205C26CE084ECDE
S113342098E00E945A036C0184EC98E00E946103C6
S1133430109224098091D4029091D5020196909320
S1133440D5028093D4020197F6018183892F9927AD
S113345080830E944D058550823008F46CC08091B1
S11334603103909132030196909332038093310398
S113347080912E038E3129F00E945005EC010097B3
S113348051F48091F1029091F20201969093F2022C
S11334908093F10250C0FC01A4ECB8E083E60D90E7
S11334A001928150E1F789E18883CE010E94FF0DEA
S11334B0FC0180919002909191028183892F992738
S11334C080838091F0028F5F8093F0028150828329
S11334D0138281E284830E941E027B018C01CE014F
S11334E00E948C04FC01E382BB27A12F902F8F2D17
S11334F08283C801AA27BB278183E12EFF240027EA
S11335001127E082CE010E946F05882341F4809147
S1133510EF02882309F092C10E941A1492C180918B
S1133520F1029091F20201969093F2028093F102DB
S1133530CE010E949C04F6010081E1800E941E02DB
S11335401127102F0027FF240E291F291F930F93E3
S11335509F938F937F936F938091900290919102A8
S11335609F938F938DE192E09F938F930E941A30E3
S11335700E94540C8DB79EB70A960FB6F8949EBF5E
S11335800FBE8DBF6091920270919302809194025C
S1133590909195020E94A5196EC10E941E029F93EC
S11335A08F937F936F9380919002909191029F9358
S11335B08F9383E392E09F938F930E941A300E942B
S11335C0540CEDB7FEB738960FB6F894FEBF0FBE95
S11335D0EDBF51C150908B17C0912803D09129039E
S11335E02090B4153090B5158FB7F894282F332751
S11335F080912A03882319F02FBF25E0B3C081E00E
S113360080932A032FBF0E941E023B014C0160934A
S11336102107CE010E948C04FC018081E18022817B
S1133620A380332744275527542F432F322F222793
S11336309927AA27BB27B82FAA2799278827FF24C9
S1133640002711278701FF24EE248E299F29A02B10
S1133650B12BBB24CC24DD248A299B29AC29BD2988
S1133660282B392B4A2B5B2B2093BB153093BC158D
S11336704093BD155093BE15CE010E948C04FC01ED
S11336808081E1802281A380332744275527542F4A
S1133690432F322F22279927AA27BB27B82FAA27DF
S11336A099278827FF24002711278701FF24EE2468
S11336B08E299F29A02BB12BBB24CC24DD248A295D
S11336C09B29AC29BD29282B392B4A2B5B2B8091B4
S11336D02B03680E711C811C911C2619370948099B
S11336E059092383BB27A52F942F832F8283CA01D3
S11336F0AA27BB278183252F3327442755272083D7
S1133700F4E05F0E252DAE01B10181E80E94B812EC
S11337109927D82E882311F1E090BB15F090BC15A1
S11337200091BD151091BE15CE010E948C04FC01C0
S1133730E382BB27A12F902F8F2D8283C801AA2754
S1133740BB278183E12EFF2400271127E0821092FA
S11337502A038D2D9927282F882321F482E0809332
S1133760270389C02093AD0286E15EC090911B03BC
S1133770892F8051823008F47EC09731A1F4809162
S1133780F6029091F702892B61F48091EF0288236D
S113379031F48091AE028F3F11F486E140C085E0A0
S11337A03EC08CE03CC09231A9F19F30A9F5209134
S11337B0AF022F3F79F08091AE028F3F59F09927E5
S11337C00196820F911D62E070E00E949E2F60932B
S11337D0AE0203C08FEF8093AE028FEF8093AF02EF
S11337E08091170390911803019690931803809386
S11337F017038091EF02882369F48091AE028F3F12
S113380049F48091190390911A03019690931A0335
S1133810809319038EE003C09A3019F48BE08093EF
S11338201B038DE001C087E10E94470224C021965A
S11338303996C530D10509F0BBCD1DC08BE00E947F
S11338404702F6010081E1800E941E021127102F19
S11338500027FF240E291F291F930F939F938F93F3
S11338607F936F9380919002909191029F938F9395
S113387082E492E079CE81E00E944702DF91CF9109
S11338801F910F91FF90EF90DF90CF90BF90AF907A
S11338909F908F907F906F905F903F902F900895AE
S11338A0EF92FF920F931F9380916404882361F534
S11338B02091B0153091B1154091B2155091B315C6
S11338C0EFB7F894FF276091CC037091CD038091FA
S11338D0CE039091CF03E090C015F090C1150091F4
S11338E0C2151091C3156E0D7F1D801F911FEFBF70
S11338F02093B0153093B1154093B2155093B3157E
S1133900109264040E9422070E941E020E94C119A0
S11339101F910F91FF90EF900895AF92BF92CF92B5
S1133920DF92EF920F931F93CF93DF93E82E5A0108
S11339306B018091C002CE2DDD278330A1F4FE01FE
S1133940EE0FFF1FEE0FFF1FE154FC4F4083518326
S113395062837383E092C002C359DB4F8883E81605
S113396009F47CC047C08E01000F111F000F111F06
S113397001541C4FF8014083518362837383809107
S11339804E0781FF17C00E941E0220914607309106
S113399047074091480750914907621B730B840BFA
S11339A0950B6A0D7B1D8C1D9D1DF8016083718331
S11339B0828393835091C002E52FFF27EE0FFF1FF0
S11339C0EE0FFF1FE154FC4F80819181A281B381EE
S11339D0A816B906CA06DB0610F5C359DB4F58838F
S11339E0E092C002F3E0EF16C9F1F801A080B180C3
S11339F0C280D380A114B104C104D10421F487E1AD
S1133A000E9447022BC00E941E02AB01BC01E1E0F0
S1133A10EE2E9601850184E00E941C031FC0252F11
S1133A20332723593B4FF9014081433091F0542F00
S1133A30E42FFF27EE0FFF1FEE0FFF1FE154FC4F93
S1133A4080819181A281B381A816B906CA06DB06DA
S1133A5030F7F901E082C359DB4F4883DF91CF91FE
S1133A601F910F91EF90DF90CF90BF90AF9008958A
S1133A702F923F924F925F926F927F928F929F927A
S1133A80AF92BF92CF92DF92EF92FF920F931F9368
S1133A90CF93DF93CDB7DEB7C65BD0400FB6F894B3
S1133AA0DEBF0FBECDBFE82FFF27EA31F10510F0CE
S1133AB00C94032AEA59FF4FEE0FFF1F0590F4916F
S1133AC0E02D09948091BF15882311F40C94032AE6
S1133AD090E011E05FC00E94501C0C94032A0E94E5
S1133AE01E024B015C018FB7F894992710929A0437
S1133AF08FBF9FEFC92E9FEFD92E9FEFE92E9FE72F
S1133B00F92E60E0E2E2F7E0808581FF1CC080814D
S1133B109181A281B381A5019401281B390B4A0B21
S1133B205B0BDA01C9012481358146815781281B49
S1133B30390B4A0B5B0B2C153D054E055F051CF438
S1133B4069017A0161E0399637E0EF34F307E1F671
S1133B50662311F40C94032A1C141D041E041F0470
S1133B6034F0C501B4010E94C1190C94032AC09217
S1133B70B015D092B115E092B215F092B31581E070
S1133B8080936404A7019601C501B4010E94220731
S1133B900C94032A2091BF15812F8223C1F0E92FB1
S1133BA0FF27EE0FFF1FEC54F94F40815181118222
S1133BB01082812F809528232093BF15992339F4EF
S1133BC063E0CA010E946D0E110F91E0E3CF9F5F85
S1133BD0983010F00C94032A110FDCCF80919602D8
S1133BE0E82FFF27EE0FFF1FEC54F94F608171811E
S1133BF041E00E947F0E0C94032A8FB7F894109230
S1133C007E1720911B0840E0283009F441E030E0A1
S1133C10293009F431E0442311F4332351F0109294
S1133C201B08E091BC06FF27EE0FFF1FEF54FB4F6C
S1133C30108299278FBF442311F4332331F19FB7A6
S1133C40F8948091BA158F5F8093BA158091AC0473
S1133C50833479F42091AB068091AA06821779F017
S1133C60822F8F5F8093AB06863048F01092AB06AC
S1133C7006C0A0E0442309F4A1E071E002C0A0E082
S1133C8070E0892F99278FBF06C0222311F010E01E
S1133C906CC0A0E070E08FB7F89499272091D60209
S1133CA08FBF222341F08FB7F89499272AE02093FD
S1133CB01B088FBF42C08FB7F89499276091B10455
S1133CC04091B3048FBF8FB7F894282F332750E067
S1133CD09091AA068091AB06981709F451E02FBF82
S1133CE0552341F5662331F55FB7F89482E080935C
S1133CF0B1048FB7F894282F332740E09091AA0697
S1133D008091AB06981709F441E02FBF442311F0CA
S1133D1080E006C0E091AB06FF27E655F94F8281AB
S1133D208093B20483E48093AC041092BC06852F84
S1133D3099270EC04150423010F010E00BC08FB7ED
S1133D40F894992725E42093AC0421E02093BC0641
S1133D508FBF11E0772349F08FB7F8949927A09388
S1133D60DF028FBF88E00E9447028FB7F894E82EE5
S1133D70FF2480911B088A3029F40E942F06EFBE8D
S1133D800C94032AEFBE112311F40C94032A2FB7C9
S1133D90F894332710928817109287171092A8046A
S1133DA081E080931B082FBF0E948206882311F4B0
S1133DB00C94032A8FB7F894992729E020931B08C1
S1133DC08FBF0E94AD020C94032A8091C1008F7BA7
S1133DD08093C1008091C1008F778093C1001092BD
S1133DE01A08109296048091C10088608093C100E3
S1133DF08091C10080618093C1008091C10080687E
S1133E008093C1008FB7F894992710921B081092E1
S1133E10930440C487E00C94EF298091C100877F0C
S1133E208093C1008091C1008F7E8093C1000E9465
S1133E3017060C94032A1092DC021092DB028FB74F
S1133E40F89499274091DF028FBF8091E00281119D
S1133E5043E0E091D902F091DA028091E1028823F3
S1133E6011F00C94032A138580919602882349F457
S1133E706091B4067091B5066E177F0711F40E9425
S1133E807F0E1B3711F00C94032A10923E030C94FE
S1133E90032A8FB7F89499272091E4023091E50220
S1133EA04091DA038FBF8FB7F894E42FFF27EE0F0A
S1133EB0FF1FE856FD4F318320832091D70244230E
S1133EC011F02B7F01C02D7F2093D7021092E202C4
S1133ED099278FBF0C94032A40E569E177E18FEFBE
S1133EE09FEF0E947903882311F40C94032A8AE03B
S1133EF00C94EF2990E080912E03882309F491E03B
S1133F00992311F00C94032AE0912C03FF27EE0F60
S1133F10FF1FE75AFA4E808191810E949C048BE036
S1133F200C94EF2980E00E941A140C94032A8091C7
S1133F301B03853011F08C3049F58FB7F89499271D
S1133F40209165042F5F209365048FBF80917004D6
S1133F50882309F045C080914A03882309F040C0B2
S1133F6080911817813049F490E0809117088823D4
S1133F7009F491E09923A1F102C0853089F183E02D
S1133F8080934A030E94991385E01FC0843111F085
S1133F90813049F58FB7F8949927209165042F5FF4
S1133FA0209365048FBF809170048823C9F48091A5
S1133FB04A038823A9F480911817813089F081E09D
S1133FC080934A030E94991386E0809370040E94B0
S1133FD0781280911B038F5F80931B030C94032A38
S1133FE00E94781209C0843059F480917F1780931D
S1133FF0851785E080931B030E946E020C94032AAC
S1134000833021F410921B030C94032A8631F1F4BB
S11340100E948E05DC01CB01609198047091990493
S11340200091FE031091FF03060F171F660F771F01
S11340306F5F7F4F0E948A2F081B190B222733279B
S1134040C901B8010E94B21887E1C6CF8E30E9F4E5
S113405060919B047727882799272091B802309193
S1134060B9024091BA025091BB02220F331F441F80
S1134070551F0E946B2F0E94B2188FE080931B0380
S113408081E00E94B90C0C94032A893069F4609190
S1134090851777276A5F7F4F882777FD8095982F4C
S11340A00E94B2188AE098CF803109F040C0109184
S11340B0BD06E090F602F090F702C0909F02D09007
S11340C0A002C7010E943805FC018091400380834F
S11340D080912703882331F581E080932703D092D0
S11340E0B515C092B415F0922903E09228031F5F1E
S11340F010938B171092AD020E948E05DC01CB0148
S11341006091F80277276F5F7F4F0E948A2FAA275A
S1134110BB27AC01BD0182E00E943B031092CB039C
S113412081E15ACF85E08093CB0383E163CF87306D
S113413009F09CC086E593E00E9461031092B603E7
S113414064E086E593E00E945A03FC018091EF024B
S1134150882319F080E090E003C08091AE02992793
S113416081838091851782838091F9028F5F809388
S1134170F90281508083DF01139613828091EF024C
S1134180882381F440E080912E032EE130E0281B47
S1134190310980916B049927281739070CF041E005
S11341A0442319F08C9181608C93E090A202F090EA
S11341B0A30280911E03882311F424E045C00091DA
S11341C0400311270E941E02209152033091530391
S11341D04091540350915503621B730B840B950B50
S11341E060507E4F8F4F9F4F2AE096958795779525
S11341F067952A95D1F7709372046093710460E512
S113420086E593E00E945A03FC0104833596A1E7F6
S1134210B4E082E20D9001928150E1F780911F0396
S113422090912003A0912103B09122030196A11D36
S1134230B11D80931F0390932003A0932103B09397
S1134240220310921E0327E246E553E0B70180E8FB
S11342500E94B8122FEF3FEF3093A3022093A202E3
S1134260882311F488E0B8CE8BE0C4CE833151F4B6
S113427084E180931B030E946E0281E00E94150D6D
S11342800C94032A8B3011F00C94032A81E00E94D1
S1134290FA0C84E1AFCE2FB7F894332780916704EA
S11342A08093A90282E080931C032FBF8091A9020E
S11342B0882311F00C94032A809168049091690476
S11342C00E948C12E82EFF24EE2011F40C94032A91
S11342D080E00E94850D6E2D8091680490916904A0
S11342E0C0C18091700410927004853011F412984A
S11342F003C0863029F4129A80911B038F5F7ACE13
S1134300873011F40C94032A809370040C94032ACC
S11343108FB7F8949927209165042F5F2093650443
S11343208FBF80917004813009F087C18091190892
S11343308F5F80931908863008F07FC180901C0835
S113434090901D0880914A03882309F06DC18091E3
S11343501817853009F068C10E94CE0D882309F42E
S113436063C18091A015882309F05EC1B40181E086
S11343700E947E04882311F490E00BC041E650E0D3
S1134380840E951EF40191812FE93FEF820E931E56
S11343909F7080911805981781F0909318052898BC
S11343A085EC8EBD0DB407FEFDCF8EB590689EBD25
S11343B00DB407FEFDCF8EB5289A289882EC8EBDE9
S11343C00DB407FEFDCF8EB589E08EBD0DB407FE9A
S11343D0FDCF8EB5289A0E9459047B018C01B4014B
S11343E083E00E947E04882319F4E0E0F0E006C034
S11343F0D4018C918550F401E80FF11D289881E8CF
S11344008EBD0DB407FEFDCF8EB51EBC0DB407FEE8
S1134410FDCF8EB5289A8F71893079F0289882EC77
S11344208EBD0DB407FEFDCF8EB586E08EBD0DB4F6
S113443007FEFDCF8EB5289AF7C08FB7F894992759
S11344402F9A20918400309185008FBF2F9828984F
S113445080E68EBDD4019C910DB407FEFDCF8EB5D0
S11344609EBD9250C756DF4F9883C959D0409730AC
S113447010F4692F01C067E0A4014F5F5F4FDA01B8
S1134480962F7D910DB407FEFDCF8EB57EBD915064
S1134490C1F761501A01260E311C6F5F0894211C6C
S11344A0311C2E193F092E553F4F2901662457FC14
S11344B06094762C4E0C5F1C601E711E3097D1F1F7
S11344C02081E1808281A3809927AA27BB27BA2F64
S11344D0A92F982F8827332744275527522F44275D
S11344E033272227FF24002711278701FF24EE24E6
S11344F02E293F29402B512BBB24CC24DD242A29EF
S11345003B294C295D29822B932BA42BB52B841991
S11345109509A609B7098383292F3A2F4B2F5527CD
S113452022839D014427552721838B2F9927AA276E
S1134530BB278083C756DF4F9881C959D040961B4B
S11345400AC0D1012C910DB407FEFDCF0894211CA3
S1134550311C8EB52EBD9150A0F70DB407FEFDCFD2
S11345608EB5289A289882EC8EBD0DB407FEFDCF37
S11345708EB586E08EBD0DB407FEFDCF8EB5289AAC
S11345803097D1F12081E1808281A3809927AA27E5
S1134590BB27BA2FA92F982F8827332744275527BD
S11345A0522F442733272227FF240027112787016E
S11345B0FF24EE242E293F29402B512BBB24CC244D
S11345C0DD242A293B294C295D29822B932BA42BFA
S11345D0B52B840D951DA61DB71D8383292F3A2F56
S11345E04B2F552722839D014427552721838B2F49
S11345F09927AA27BB278083B40180E00E944B043B
S1134600ECE5F0E08E0E9F1ED4014D925D926D920A
S11346107C92139786E08093181784E080934A0372
S11346201092C41583E004C085E08093C41582E031
S1134630809370040E947812E6C6109270040E945F
S113464078121091C415E0901C08F0901D08F70131
S113465082858F3309F0D7C680E00E94850D612FD3
S1134660C7010E940F19CFC60E94E615CCC68FB7AA
S1134670F89499271092160810921508109217179B
S11346801092161710924C0310924B031092B3061B
S11346901092B2061ECC2FB7F89433278091AD0444
S11346A08093AC0282E080931D032FBF8091AC0203
S11346B0882309F0A8C6209A289A8091181788237D
S11346C009F075C08EEF91E0019701960197E1F72B
S11346D016982F9886E090E0019701960197E1F7EC
S11346E0169A289883EC8EBD0DB407FEFDCF8EB5C7
S11346F01EBC0DB407FEFDCF8EB5289A289882EC17
S11347008EBD0DB407FEFDCF8EB588E08EBD0DB411
S113471007FEFDCF8EB5289A8EEF91E001970196A2
S11347200197E1F728988EEC8EBD0DB407FEFDCFFE
S11347308EB58DE48EBD0DB407FEFDCF8EB5289ADF
S1134740289889EC8EBD0DB407FEFDCF8EB587EC9D
S11347508EBD0DB407FEFDCF8EB5289A289885EC42
S11347608EBD0DB407FEFDCF8EB580E88EBD0DB4B1
S113477007FEFDCF8EB5289A109218058DE0809320
S11347806604289888EC8EBD0DB407FEFDCF8EB567
S11347908DE68EBD0DB407FEFDCF8EB5289A2F9AF7
S11347A081E08093181780E00E94170E2CC60E94A7
S11347B0991329C6109227036091AD0280912803B2
S11347C0909129030E94CE181EC64FB7F89455271E
S11347D08091C0029927FC01E359FB4F208120936B
S11347E0C0024FBF6091C002082F7C01EE0CFF1C79
S11347F0EE0CFF1C2FEB33E0E20EF31E1DC07727F7
S1134800FB01EE0FFF1FEE0FFF1FE154FC4FA080D2
S1134810B180C280D380D7012D913D914D915C919F
S1134820A21AB30AC40AD50AA082B182C282D38270
S113483063597B4FFB016081633009F70E94801844
S11348400130E1F0013020F0023009F043C02CC007
S11348501092D00380E090EDA2E0B0E08093D10309
S11348609093D203A093D303B093D40340E050EDCC
S113487062E070E080E00E948D1C40C01092BF088E
S113488080E090E6A9E0B0E08093C0089093C1086E
S1134890A093C208B093C30840E050E669E070E01A
S11348A081E00E948D1C72C010924D0380E090E163
S11348B0AEE0B0E080934E0390934F03A093500377
S11348C0B093510340E050E16EE070E082E00E945A
S11348D08D1CCFC0409101005091020060910300F3
S11348E070910400802F0E948D1C013009F44EC089
S11348F0013020F0023009F086C5BBC0209131039D
S11349003091320344275527EAE0220F331F441F16
S1134910551FEA95D1F76091B0027091B102809170
S1134920B2029091B30203EF0E94722D6093B00221
S11349307093B1028093B2029093B3021092320347
S113494010923103209133033091340344275527C7
S11349507AE0220F331F441F551F7A95D1F76091D7
S1134960B4027091B5028091B6029091B7020E9490
S1134970722D6093B4027093B5028093B602909343
S1134980B70210923403109233033DC50091C10263
S11349901091C2026CE0C8010E94C50E7C01C801DE
S11349A00E946103005A1F4FD8011C9280913B035F
S11349B090913C03019690933C0380933B030197B1
S11349C0F7018183892F992780832091B002309148
S11349D0B1024091B2025091B30223303105410536
S11349E0510518F42FEF3FEF06C060E070ED82E050
S11349F090E00E94B12FF7012383832F99278283AC
S1134A002091B4023091B5024091B6025091B702A0
S1134A10233031054105510518F42FEF3FEF06C04F
S1134A2060E070ED82E090E00E94B12FF7012583F1
S1134A30832F992784838091B8029091B902A09121
S1134A40BA02B091BB028187292F3A2F4B2F5527E9
S1134A5020879D014427552727838B2F9927AA2731
S1134A60BB2786838091BD0282878091BF028387A2
S1134A70CAC4E090C302F090C40268E3C7010E9474
S1134A805A038C01C7010E946D03809146039091E3
S1134A904703019690934703809346030197C556B5
S1134AA0DF4F8883CB59D040F8018183892F992720
S1134AB0C656DF4F8883CA59D04080838091F10263
S1134AC09091F202C356DF4F8883CD59D04083833F
S1134AD0892F9927C456DF4F8883CC59D0408283CD
S1134AE08091F3029091F402C156DF4F8883CF592D
S1134AF0D0408583892F9927C256DF4F8883CE59AA
S1134B00D04084838091FB029091FC02A091FD022D
S1134B10B091FE02CD55DF4F8883C35AD0408187C0
S1134B20292F3A2F4B2F5527CE55DF4F2883C25AB2
S1134B30D04020879D0144275527CF55DF4F288338
S1134B40C15AD04027838B2F9927AA27BB27C05649
S1134B50DF4F8883C05AD04086838091FF029091B2
S1134B600003A0910103B0910203C955DF4F88836C
S1134B70C75AD0408587292F3A2F4B2F5527CA551E
S1134B80DF4F2883C65AD04024879D0144275527E8
S1134B90CB55DF4F2883C55AD04023878B2F9927C5
S1134BA0AA27BB27CC55DF4F8883C45AD0408287BD
S1134BB08091030390910403C755DF4F8883C95A3A
S1134BC0D0408787892F9927C855DF4F8883C85AD3
S1134BD0D04086878091050390910603A091070336
S1134BE0B0910803C355DF4F8883CD5AD040838BDF
S1134BF0292F3A2F4B2F5527C455DF4F2883CC5AE2
S1134C00D040228B9D0144275527C555DF4F28836B
S1134C10CB5AD040218B8B2F9927AA27BB27C65567
S1134C20DF4F8883CA5AD040808B809109039091CA
S1134C300A03A0910B03B0910C03CF54DF4F888378
S1134C40C15BD040878B292F3A2F4B2F5527C05556
S1134C50DF4F2883C05BD040268B9D014427552716
S1134C60C155DF4F2883CF5AD040258B8B2F9927EE
S1134C70AA27BB27C255DF4F8883CE5AD040848BE6
S1134C8080910D0390910E03A0910F03B091100336
S1134C90CC54DF4F8883C45BD040838F292F3A2FB5
S1134CA04B2F5527CD54DF4F2883C35BD040228F31
S1134CB09D0144275527CE54DF4F2883C25BD04043
S1134CC0218F8B2F9927AA27BB27282E808F80918D
S1134CD0110390911203CB54DF4F8883C55BD040FE
S1134CE0858F892F9927382E848F80911303909173
S1134CF01403A0911503B0911603482E81A3292F04
S1134D003A2F4B2F5527622E20A39D014427552768
S1134D10522E278F8B2F9927AA27BB27C82E868F21
S1134D208091170390911803D82E83A3892F992774
S1134D30E82E82A38091190390911A03F82E85A37B
S1134D40892F9927A82E84A380911F039091200373
S1134D50A0912103B091220381A7292F3A2F4B2F31
S1134D60552720A79D014427552727A38B2F992733
S1134D70AA27BB2786A3809123039091240383A7AA
S1134D80892F992782A7809125039091260385A7CF
S1134D90892F992784A70091C3021091C4020E940D
S1134DA01E02BB24BA2CAA242F2D3327A22AB32AED
S1134DB0BF92AF922E2D3327322F22274D2D552708
S1134DC0242B352B3F932F93772488249924982CD4
S1134DD0872C762C6624DD24EE24FF24FC2CEE2480
S1134DE0DD24CC24252D332744275527A901332737
S1134DF02227C22AD32AE42AF52A242D332744273A
S1134E005527C22AD32AE42AF52A6C287D288E281D
S1134E109F289F928F927F926F92232D3327322F58
S1134E202227CB54DF4FF881C55BD0404F2F552745
S1134E30242B352B3F932F93CD54DF4FA881C35B95
S1134E40D0402A2F332744275527CC24D22EE32EB3
S1134E50F42E332444245524522C44243324222471
S1134E60CE54DF4FB881C25BD0402B2F3327442769
S1134E705527A90133272227222A332A442A552ACF
S1134E80CC54DF4FE881C45BD0402E2F3327442716
S1134E905527222A332A442A552AC228D328E4280B
S1134EA0F528FF92EF92DF92CF92C055DF4FF88141
S1134EB0C05BD0402F2F3327442755278824922EB8
S1134EC0A32EB42EC255DF4FA881CE5AD0402A2F2C
S1134ED0332744275527522F442733272227C155E8
S1134EE0DF4FB881CF5AD040CB2EDD24EE24FF24EF
S1134EF07601DD24CC242C293D294E295F29CF5469
S1134F00DF4FE881C15BD040CE2EDD24EE24FF24A8
S1134F102C293D294E295F29822A932AA42AB52ABD
S1134F20BF92AF929F928F92C455DF4FF881CC5AB3
S1134F30D0402F2F3327442755278824922EA32E81
S1134F40B42EC655DF4F2881CA5AD040C22EDD2464
S1134F50EE24FF245C2D442733272227C555DF4F39
S1134F60A881CB5AD040CA2EDD24EE24FF2476013A
S1134F70DD24CC242C293D294E295F29C355DF4F3C
S1134F80B881CD5AD040CB2EDD24EE24FF242C2929
S1134F903D294E295F29822A932AA42AB52ABF9241
S1134FA0AF929F928F92C855DF4FE881C85AD04084
S1134FB02E2F3327322F2227C755DF4FF881C95AA6
S1134FC0D0404F2F5527242B352B3F932F93CA5571
S1134FD0DF4FA881C65AD0402A2F332744275527AC
S1134FE08824922EA32EB42ECC55DF4FB881C45AF8
S1134FF0D040CB2EDD24EE24FF245C2D4427332720
S11350002227CB55DF4FE881C55AD040CE2EDD2470
S1135010EE24FF247601DD24CC242C293D294E29BD
S11350205F29C955DF4FF881C75AD040CF2EDD2400
S1135030EE24FF242C293D294E295F29822A932A14
S1135040A42AB52ABF92AF929F928F92CE55DF4F7A
S1135050A881C25AD0402A2F3327442755278824B1
S1135060922EA32EB42EC056DF4FB881C05AD04022
S1135070CB2EDD24EE24FF245C2D44273327222766
S1135080CF55DF4FE881C15AD040CE2EDD24EE2427
S1135090FF247601DD24CC242C293D294E295F29C7
S11350A0CD55DF4FF881C35AD040CF2EDD24EE24F6
S11350B0FF242C293D294E295F29822A932AA42AD8
S11350C0B52ABF92AF929F928F92C256DF4F48810A
S11350D0CE59D040242F3327322F2227C156DF4FF9
S11350E0A881CF59D0404A2F5527242B352B3F93E5
S11350F02F93C456DF4FB881CC59D0402B2F332780
S1135100322F2227C356DF4FE881CD59D0404E2F8E
S11351105527242B352B3F932F93C656DF4FF88109
S1135120CA59D0402F2F3327322F2227C556DF4F9D
S1135130A881CB59D0404A2F5527242B352B3F9398
S11351402F939F938F937F936F938091900290916D
S113515091029F938F9386E592E09F938F930E9491
S11351601A30EDB7FEB7BE960FB6F894FEBF0FBE69
S1135170EDBF0E94540C1093C4020093C30243C1B8
S1135180E090A904F090AA0443E060E070E0C70155
S11351900E94AA01082F42E063E070E0C7010E9468
S11351A0AA0111270F5F1F4F682F77276F5F7F4F6B
S11351B088E190E00E949E2F069FC001079F900DFA
S11351C0169F900D11248E83813910F080E98E830F
S11351D00E941E0269837A838B839C8322E030E0E1
S11351E0E20EF31EF0924403E09243034DE150E0DB
S11351F0E40EF51EF0924203E092410381EE9FEF2C
S1135200E80EF91E1092450345E065E070E0C70121
S11352100E94AA018F8345E06AE070E0C7010E9402
S1135220AA019927882E88879F80AA24BB2467C057
S1135230091529F458E1952E900E81E006C0081551
S113524019F448E1842E800E80E0891408F04FC0E0
S1135250882311F015E004C0FE01E00FF11D108554
S1135260002309F415E090E003C09F5F9330A9F098
S113527081E0CA54DF4F9883C65BD0400E9473021A
S1135280CA54DF4F9881C65BD040882371F79923B5
S113529021F4FE01E00FF11D06C0913031F4FE014E
S11352A0E00FF11D1F5F118716C0C02EDD2439E009
S11352B0E32EF12CEC0EFD1E923031F4EC0CFD1CAF
S11352C01150D7011C9307C084E00E947302EC0CB8
S11352D0FD1CF701808320914303309144038091A6
S11352E04103909142038217930730F48CC0FE016E
S11352F0E00FF11D89E081870894A11CB11C0A2DDF
S11353008E81A81608F494CF6DC08091900290917C
S11353109102AA27BB2780931004892F9A2FAB2FC1
S1135320BB2780930F0410920E0410920D049091E9
S11353302C099093110480912D098093120480917B
S11353402E0980931304392F369520E010C0E22FE4
S1135350FF27DF01AC5EBB4FEE0FFF1FE95DF64F89
S113536080858295807F9185890F8C932F5F231789
S113537071F72FE441E054E06FEF7FEF8BE70E9479
S1135380C102882309F03FC080913F03882329F498
S1135390109881E080933F0303C0109A10923F035A
S11353A081E080933E032FC00E941E02209171046D
S11353B03091720444275527621B730B840B950BA1
S11353C060932709709328098093290990932A09E7
S11353D083E794E09093AA048093A90488E10E944F
S11353E0470211C0A7E2B9E0FE01319688E90190B5
S11353F00D928150E1F781E080933D0380913E035B
S1135400882309F482CFCA54DF4F0FB6F894DEBF65
S11354100FBECDBFDF91CF911F910F91FF90EF9001
S1135420DF90CF90BF90AF909F908F907F906F90C0
S11354305F904F903F902F9008958091B6158F3FC5
S1135440B1F0282F3327F901E052FC4F808180937B
S1135450B6158F3F11F4809386178FEF80832F3F0B
S113546031F0822F0E94381D81E090E0089580E0A1
S113547090E00895EF920F931F93CF93DF93EFB6CD
S1135480F89414BE88E10FB6F894809360001092EB
S113549060000FBE4AE150E06FEF70E080EE93E0F1
S11354A00E9413308FEF8093B61580938617569819
S11354B05E9854985C9880916F008F7D80936F0004
S11354C0209A289A279A2F980E9A169A85EB94E098
S11354D09093D7038093D6031092A0048AE5809317
S11354E06C0481E08093810080E28093B60083E0C5
S11354F08093B10080918400909185004AE72091C7
S11355008400309185002817390708F4415044235A
S113551011F0C901F4CF9091B2008091B2008917C3
S1135520E1F320918400309185009091B200809144
S1135530B2008917E1F38091840090918500821B69
S1135540930B409665E0969587956A95E1F790935D
S1135550B8158093B7151092B1008091B100809373
S11355608100809181008093B6001092B200109265
S11355708500109284008FEF87BB87B386BB809130
S1135580B6008571E1F70A9A099A089A129A119A53
S1135590109A18B88FEF87B90C9814981092850058
S11355A01092840080916F00816080936F008091DD
S11355B08100887F82608093810010929500109210
S11355C094008091710081608093710080919100BA
S11355D0887F8260809391000E941D2A8823E1F7CE
S11355E0E0E2F8E08FEB99E0819391938D599F4F1E
S11355F028E0EC35F207C1F78EE18093190510928B
S1135600A10480E092E09093FF038093FE039AE06C
S11356109093D50388E080937F1780E28093D90329
S113562083E080939B0411E01093D80390936B0460
S113563083E390E0909399048093980480E098E247
S1135640A0E0B0E08093FA039093FB03A093FC03E3
S1135650B093FD0380919002909191020196AA2744
S1135660BB2780939C0490939D04A0939E04B093C5
S11356709F040FEF0093AB0480E00E94F1032DEE32
S113568035E13093BA032093B90320E536E1309332
S1135690BC032093BB0323EB36E13093BE0320937A
S11356A0BD032FEF3FEF3093A6152093A51530933C
S11356B0A8152093A7153093AA152093A915309304
S11356C0AC152093AB153093AE152093AD1540E087
S11356D090E0882309F491E0911709F441E0809166
S11356E0900225EC32E0411709F0AAC18295807F2F
S11356F08093490300936A0410922F03109230039D
S1135700309394172093931712E006E06091B71535
S11357107091B815882799275CE0660F771F881F5A
S1135720991F5A95D1F720E031EE40E050E00E94F5
S1135730B12F215030402093C400832F99278093A8
S1135740C5001093C0000093C2001092C1002093C2
S1135750CC008093CD001093C8000093CA0010922F
S1135760C90084E490E09093A2158093A11510924F
S1135770B1041092B3048AE080931B081092A80429
S11357801092AC041092BA151092881710928717D1
S113579010927E171092BC0610929C1510929B15C5
S11357A084E08093930410921F081092AF15109216
S11357B097041092B9061092B8061092AB06109294
S11357C0AA061092EE028091B60080628093B60021
S11357D0249A8091B60081FDFCCF82E48093B000CE
S11357E08091B60080FDFCCF83E08093B10080916E
S11357F0B60083FDFCCF86EE8093B30080917000E9
S11358008260809370000E9496060E941D2A88235D
S1135810E1F78E2D99278FBF789410E007C01130DF
S1135820B1F0113018F01230C9F522C01092D00333
S113583080E090EDA2E0B0E08093D1039093D20396
S1135840A093D303B093D403E0EDF3E001C110922D
S1135850BF0880E090E6A9E0B0E08093C008909390
S1135860C108A093C208B093C308EFEBF8E0F0C0FE
S113587010924D0380E090E1AEE0B0E080934E03DF
S113588090934F03A0935003B093510340E050E131
S11358906EE070E082E00E948D1C0FC04091010018
S11358A0509102006091030070910400812F0E94C6
S11358B08D1C1F5F133008F4B2CF0E94170610929C
S11358C0EF0280911B03882331F484E080931B034F
S11358D08DE00E94470211E010939E0280E00E9436
S11358E01A1480E093E09093FF038093FE03609189
S11358F0D50377278827992720E033E040E050E05C
S11359000E946B2F24E630E040E050E00E94B12F6B
S113591030939904209398041093D8030E941E0294
S1135920AB01BC0121E0E22E00E014E020E030E015
S113593081E00E941C030E948E0520919202309106
S1135940930240919402509195020E94B12F6F5F8F
S11359507F4F8F4F9F4F0E94A5198FB7F894482F00
S1135960552753C080917000992783709070892BBC
S113597019F4E5E0F0E014C08091B6008A71E1F713
S11359808091B3009091B200891B8C3038F08091E3
S1135990B200853F18F4E3E0F0E002C0E2E0F0E09A
S11359A080916E008670E9F480916F008E72C9F464
S11359B00CB407FC16C08091C100807E91F48091E4
S11359C0C900807E71F48091BC0082FD0AC0809180
S11359D07A0087FF03C081E090E005C085E090E095
S11359E002C080E090E023B78E1708F4E82FFF2769
S11359F0E050FD4FE491207F2160E22BE3BF7894D7
S1135A008895F89483B78E7F83BF8091B6158F3FB6
S1135A1009F4A8CF282F3327F901E052FC4F8081E5
S1135A208093B6158F3F11F4809386178FEF808390
S1135A302F3F09F497CF4FBF822F0E94381D8DCF7F
S1135A408295807F809349038FEF80936A0454CEBC
S1135A504181528163817481812F0E948D1C1F5F5B
S1135A60DECE552786179707E8F0861B970B9C0117
S1135A703070F9014E9F90014F9F300D5E9F300DA5
S1135A801124232F3327892F9927FC014E9FC0010E
S1135A904F9F900D5E9F900D1124860F971F280F26
S1135AA0391F1EC09B01281B390BC901232F332723
S1135AB0F9014E9F90014F9F300D5E9F300D1124D0
S1135AC09070FC014E9FC0014F9F900D5E9F900D02
S1135AD01124892F9927280F391F621B730B9B01EF
S1135AE0C90108956F927F928F929F92AF92BF9255
S1135AF0CF92DF92EF92FF920F931F93CF93DF9396
S1135B0059016A01C02FDD27602E77248824992447
S1135B10621773078407950730F19B01AC012A19BA
S1135B203B094C095D09C9019070BC01C69FC001C5
S1135B30C79F900DD69F900D1124892F99277C0122
S1135B4000271127232F342F452F5527C401B301D4
S1135B500E946B2F6A0D7B1D8C1D9D1DE60EF71E8A
S1135B60081F191F26C079018A01E61AF70A080BD3
S1135B70190B5527412F302F2F2DC401B3010E943B
S1135B806B2F2FEFE222FF24CE9D9001CF9D300D8D
S1135B90DE9D300D1124232F332744275527260F4C
S1135BA0371F481F591F86017501E21AF30A040BB7
S1135BB0150BC801B701DF91CF911F910F91FF9091
S1135BC0EF90DF90CF90BF90AF909F908F907F9099
S1135BD06F900895ACE2B0E0E0EFFDE20C94D32FB7
S1135BE0222E332E442E552E662E772E882E992E55
S1135BF0FE013196A8E01192AA95E9F729823A822A
S1135C004B825C826D827E828F829886FE013996F9
S1135C10B8E01192BA95E9F7A986BA86CB86DC86F4
S1135C20ED86FE860F87188B89819A81AB81BC81B2
S1135C3089A79AA7ABA7BCA77C018D018FEF9FEF23
S1135C40A0E0B0E0E822F9220A231B2389A59AA543
S1135C50ABA5BCA51D014424552489859A85AB8533
S1135C60BC858DA39EA3AFA3B8A75C016D018FEF84
S1135C709FEFA0E0B0E0A822B922CA22DB228DA1C6
S1135C809EA1AFA1B8A53D0188249924C801B701FC
S1135C90A60195010E946B2F69A37AA38BA39CA3F1
S1135CA0C801B701A40193010E946B2F7B018C01F1
S1135CB0C201B101A60195010E946B2F5B016C0129
S1135CC0C201B101A40193010E946B2F3B014C015D
S1135CD0EA0CFB1C0C1D1D1D89A19AA1ABA1BCA142
S1135CE09D01442755272E0D3F1D401F511F2A1586
