S01700006275696C642F697269732F6D61696E2E7372656343
S11300000C9483010C94A2010C94A2010C94A201FF
S11300100C94A2010C94A2010C94A2010C94A201D0
S11300200C94A2010C94A2010C94A2010C94A201C0
S11300300C94A2010C94B70C0C94A2010C947D07AF
S11300400C94F9130C942F140C94FE0B0C94090CBF
S11300500C94140C0C94A2010C94A2010C94A20113
S11300600C945B0B0C944E090C94A2010C94D109D2
S11300700C94A2010C94A2010C94A2010C94280BE0
S11300800C94070B0C94120B0C941D0B0C943B0B4F
S11300900C94EA0A0C94A2010C94FC0A0C94A2019C
S11300A00C94A2010C94A2010C94A2010C94A20140
S11300B00C94A2010C94A2010C94A2010C94A20130
S11300C00C94A2010C94A2010C94A201C91EFC1E62
S11300D0C01E7B1F8A1F732098209D20AB20D9202F
S11300E0FC200B2122212621CD22F0220523A72446
S11300F06827CC26E026C1286E2779277C278F28FD
S113010000002110422063308440A550C660E7708F
S1130110088129914AA16BB18CC1ADD1CEE1EFF137
S11301203112100273325222B5529442F772D662DF
S1130130399318837BB35AA3BDD39CC3FFF3DEE387
S11301406224433420040114E664C774A44485542F
S11301506AA54BB528850995EEE5CFF5ACC58DD5D7
S11301605336722611163006D776F6669556B4467F
S11301705BB77AA719973887DFF7FEE79DD7BCC727
S1130180C448E5588668A7784008611802282338CF
S1130190CCC9EDD98EE9AFF9488969990AA92BB977
S11301A0F55AD44AB77A966A711A500A333A122A1F
S11301B0FDDBDCCBBFFB9EEB799B588B3BBB1AABC7
S11301C0A66C877CE44CC55C222C033C600C411C6F
S11301D0AEED8FFDECCDCDDD2AAD0BBD688D499D17
S11301E0977EB66ED55EF44E133E322E511E700EBF
S11301F09FFFBEEFDDDFFCCF1BBF3AAF599F788F67
S11302008891A981CAB1EBA10CD12DC14EF16FE146
S11302108010A100C230E32004502540467067607E
S1130220B9839893FBA3DAB33DC31CD37FE35EF396
S1130230B1029012F322D2323542145277625672CE
S1130240EAB5CBA5A89589856EF54FE52CD50DC5E6
S1130250E234C324A014810466744764245405441E
S1130260DBA7FAB79987B8975FE77EF71DC73CD736
S1130270D326F2369106B01657667676154634566E
S11302804CD96DC90EF92FE9C899E9898AB9ABA986
S11302904458654806782768C018E1088238A328BE
S11302A07DCB5CDB3FEB1EFBF98BD89BBBAB9ABBD6
S11302B0754A545A376A167AF10AD01AB32A923A0E
S11302C02EFD0FED6CDD4DCDAABD8BADE89DC98D26
S11302D0267C076C645C454CA23C832CE01CC10C5E
S11302E01FEF3EFF5DCF7CDF9BAFBABFD98FF89F76
S11302F0176E367E554E745E932EB23ED10EF01EAE
S113030000020E060C0411241FBECFEFD1E2DEBFA3
S1130310CDBF12E0A0E0B2E0E2E0F3E600E00BBF04
S113032002C007900D92AC38B107D9F717E1ACE8D9
S1130330B2E001C01D92A730B107E1F70E94F8288E
S11303400C9480310C9400008FB7F8949927089589
S11303508FBF0895CF93DF93EC01DB0183E0B69563
S1130360A7958A95E1F767707070E42FFF27CF0196
S1130370860F971F0997D8F4AC0FBD1F2C91332714
S113038088279927861B970B8E1B9F0B089602C004
S1130390359527958A95E2F781E090E002C0880FB1
S11303A0991FEA95E2F781508223992744C0611589
S11303B0710511F450E01CC0460F4850FE01EA0FCD
S11303C0FB1F28E030E0261B370B81E090E002C0E1
S11303D0880F991F2A95E2F781502081822399275B
S11303E0042E02C0880F991F0A94E2F7582F119621
S11303F0FE01EA0FFB1F0BC0485081919927042E80
S113040002C0880F991F0A94E2F7582B11964830BE
S113041098F7442371F0AC0FBD1F2C91332788E06B
S113042090E0841B910902C0359527958A95E2F7DF
S1130430522B852F9927DF91CF9108957FB7F89498
S11304406091B200209193033091940340919503FD
S113045050919603B99B11C08091B3009091B20062
S1130460280F311D411D511D2F5F3F4F4F4F5F4FCF
S1130470290F311D411D511D04C0260F311D411D81
S1130480511D872F99278FBFCA01B9010895282FBD
S11304909FB7F894E82FFF27E856FC4F80818F3FE1
S11304A081F4E091F616E21771F40BC0209326153F
S11304B004C0FF27E856FC4F20832093F61620E063
S11304C007C025E005C0809126158F3F91F7EECF38
S11304D0892F99278FBF822F992708958AE00E9438
S11304E04702992708958BE00E94470299270895AF
S11304F08DE00E944702992708950E941E022091D0
S1130500290430912A0444275527621B730B840B5A
S1130510950B6093DF087093E0088093E108909353
S1130520E2088BE294E0909362048093610488E192
S11305300E9447020895582F209100036091F90208
S11305407091FA0230E040E029C08091FD029927C1
S113055087709070892BA9F4E091FB02F091FC0262
S113056081919927282FF093FC02E093FB021092CB
S1130570FD026E177F0728F48093000381E090E06A
S11305800895330F822F881F8827881F382B220F46
S11305908091FD028F5F8093FD024F5F4517A9F69E
S11305A020930003832F992708951F931FB7F8946E
S11305B08091EE16882341F484E00E944702882348
S11305C019F481E08093EE16812F99278FBF1F9134
S11305D00895382FFA01422F213518F082E090E077
S11305E008956683872F9927858333872187809190
S11305F0930290919402892B19F085E090E008957C
S11306002FB7F894332785E08093960210929702CF
S1130610F0939202E093910282E090E0909394022E
S1130620809393021092990210929802445F40932F
S113063095022FBF8FB7F894282F33278091D307C3
S11306408A3011F42FBF19C02FBF9FB7F89480913F
S11306506B04882311F020E006C081E080936B04D2
S113066010926C0421E0892F99278FBF222329F04F
S11306700E94D50280E090E00895109294021092B6
S1130680930281E090E00895EF920F931F93AE2DB3
S113069099E0899FF0011124E652F94F4083518378
S11306A0628373830483158326833783A1708085D3
S11306B08E7F8A2B8260808781E00E9447021F918F
S11306C00F91EF900895AF92BF92CF92DF92EF9285
S11306D0FF920F931F93F82E5A016B010E941E0282
S11306E0AB01BC0121E0E22E960185018F2D0E9411
S11306F044031F910F91FF90EF90DF90CF90BF9034
S1130700AF900895613518F080E090E008950C965C
S11307100895665F0E9482030895FC0181819927F0
S113072080739070816498688183892F992782836C
S113073008950F931F938C010E948D03005A1F4F3D
S1130740F80110821F910F910895CF93DF93DB017D
S1130750FB0135968183892F9927ED018D8384E6EA
S1130760868380916C0690916D06892B19F085E043
S113077090E029C0B0936D06A0936C0644838091E9
S11307804F02882319F480E090E01DC08681ED01BA
S11307906D817727762F662721813327622B732B70
S11307A010924F02242FAD010E94E9029927282FAD
S11307B0882339F081E080934F0210926D061092E5
S11307C06C06822F9927DF91CF910895882319F021
S11307D08CB5806402C08CB58F7B8CBD08950F935B
S11307E01F931FB7F8948091D502823099F58091B8
S11307F06502882379F58091630220E030E08F3F21
S113080011F421E030E0232BF1F49FEF9093650283
S11308108F3F19F42FEF30E00DC0282F3327F90153
S1130820ED59FB4F8081809363028F3F11F49093C5
S1130830640290832093650481E08093D50284E16F
S11308400E94470205C08FEF809365021092D50283
S113085001E001C000E0812F99278FBF1FB7F894F2
S11308608091D502882311F40E94E603812F9927F1
S11308708FBF90E0013009F491E081E09827892F3F
S113088099271F910F910895882319F08CB58068DA
S113089002C08CB58F778CBD08950F931F9380E0B1
S11308A00E94E6030FB7F8941127229A2398219AFD
S11308B0209A8CB580618CBD80E00E9444048CB584
S11308C0877F8CBD8CB58B7F8CBD81E00E94E60355
S11308D08DB581608DBD8CB58C7F8CBD0FBF1F9194
S11308E00F910895FB01E05AFF4F21E030E002C070
S11308F0220F331F8A95E2F720958081822380831B
S11309000895FB01E05AFF4F21E030E002C0220FBE
S1130910331F8A95E2F78081822B80830895CF92DA
S1130920DF92EF92FF920F931F938C016A017B0178
S1130930BC0180E00E948104045A1F4FF801C08268
S1130940D182E282F3821F910F91FF90EF90DF90AA
S1130950CF9008958FB7F89420915A0430915B0496
S113096040915C0450915D04E0918400F091850015
S1130970B09B08C02F5F3F4F4F4F5F4FE091840003
S1130980F091850099278FBFC901772766279F01BA
S113099044275527622B732B842B952B0895FB0139
S11309A0E05AFF4F21E030E002C0220F331F8A9546
S11309B0E2F780818223992708950F931F938C0176
S11309C060E50E948203F80120812151820F911D6C
S11309D01F910F9108950B960895AC012091D104B5
S11309E02E3118F081E090E0089580915904682F29
S11309F0620F712D711DFB016E31710508F07E9738
S1130A00EE0FFF1FE852F84F518340832F5F20936E
S1130A10D10480E090E00895FC0180818151992700
S1130A2008951F93CF93DF93EC01162F62E00E9489
S1130A308203FC0191818091A7028823F1F59F3FF5
S1130A40E1F19F5F80916702891738F48091680211
S1130A50981798F59093680230C0112359F1909338
S1130A60670228C089859927982F882728853327E6
S1130A70822B932B90935902809358028281809306
S1130A80B00280818F5F80935A028091BD02909161
S1130A90BE02A091BF02B091C0020196A11DB11D7A
S1130AA08093BD029093BE02A093BF02B093C00294
S1130AB081E02AC0838180FDD5CF8091BD029091D1
S1130AC0BE02A091BF02B091C0020196A11DB11D4A
S1130AD08093BD029093BE02A093BF02B093C00264
S1130AE08091C1029091C202A091C302B091C4024C
S1130AF00196A11DB11D8093C1029093C202A093DF
S1130B00C302B093C40280E09927DF91CF911F9173
S1130B1008958BE490E008952091D104222319F4E0
S1130B2040E050E016C080915904E82FFF27EE0FF3
S1130B30FF1FE852F84F40815181118210822150E9
S1130B402093D1048F5F809359048E3111F4109255
S1130B505904CA010895AC012091E6022E3118F01F
S1130B6081E090E008958091E502E82FFF27EE0FE1
S1130B70FF1FE753FB4E518340838F5F8093E50251
S1130B808E3111F41092E5022F5F2093E60280E08B
S1130B9090E008952F923F924F925F926F927F92CE
S1130BA08F929F92AF92BF92CF92DF92EF92FF9279
S1130BB00F931F93CF93DF93CDB7DEB729970FB66B
S1130BC0F894DEBF0FBECDBF6FB76983F894209051
S1130BD054043090550440905604509057046624B1
S1130BE077248824EEE4AE2E73E8B72ECC24DD24DB
S1130BF0EE24FF2400E010E0222D332D442D552D4A
S1130C00662D772D882D90E00E94A82C2A833B83A3
S1130C104C835D836E837F8388879987822E932E8E
S1130C20A42EB52E2401350100E20E94A62DA22E89
S1130C30B32EC42ED52EA301920156954795379510
S1130C4027952A0D3B1D4C1D5D1D57FF05C05F7781
S1130C502F5F3F4F4F4F5F4F209354043093550401
S1130C604093560450935704E9818E2F99278FBFE0
S1130C70CA01B90129960FB6F894DEBF0FBECDBFE5
S1130C80DF91CF911F910F91FF90EF90DF90CF9064
S1130C90BF90AF909F908F907F906F905F904F9098
S1130CA03F902F9008950E94CA05DC01CB0108955E
S1130CB08FB7F894282F3327922F8091D3078A3047
S1130CC041F080914B04843021F02FBF89E090E003
S1130CD008959FBF85E00E94470280E090E0089558
S1130CE08091D3078A3021F480914B04843021F021
S1130CF081E080938E02089586E00E94470210925C
S1130D008E0208952FB7F89433278093C600E0EC41
S1130D10F0E08081806480832FBF0895FC01611519
S1130D20710519F481E090E0089580916604909132
S1130D306704892B19F085E090E0089570931415E9
S1130D4060931315F0936704E093660410924D04C6
S1130D5010924C0481E080934E048091C000806422
S1130D608093C0008091C10080648093C100808121
S1130D7021E030E030934D0420934C040E9482061D
S1130D8080E090E008958FB7F894992720919F020E
S1130D902E7F20939F022EE72093B8038FBF61E03C
S1130DA070E088EB93E00E948E0699270895DF9205
S1130DB0EF92FF920F931F938FB7F894282F332746
S1130DC0D22E9091B3008091B20047B3981711F0DE
S1130DD041FF02C02FBF71C0809152048823E1F10A
S1130DE00E941E02E0908403F09085030091860324
S1130DF010918703209130153091311540913215AF
S1130E00509133156E197F09800B910B621773078C
S1130E108407950720F01092520471E01EC02E0D35
S1130E203F1D401F511F8091930390919403A09103
S1130E309503B0919603281B390B4A0B5B0B273E95
S1130E4031054105510540F4822F223010F070E045
S1130E5005C070E082E002C070E086EE682F615049
S1130E608091B60083FDFCCF8091B200681709F42D
S1130E706F5F2091930330919403409195035091B7
S1130E809603DA01C9010196A11DB11D860F911DBA
S1130E90A11DB11D82179307A407B50710F4622F93
S1130EA060958091B60083FDFCCF6093B300DFBEF4
S1130EB0772319F080E00E9447021F910F91FF9061
S1130EC0EF90DF900895AFB7F894BB27E1E0E0938B
S1130ED052046093840370938503809386039093F4
S1130EE08703209330153093311540933215509376
S1130EF03315AFBF0E94D70608951F920F920FB605
S1130F000F9211248F938091B0008093B000809150
S1130F10B60081FDFCCF8F910F900FBE0F901F90F4
S1130F201895E0E0F1E06927660FF11DE60FF11D69
S1130F30C895982F802D3196C89590250895982F9F
S1130F4080919A02882389F5992379F531E03093C9
S1130F509A028091500280939B0220918F02822FEB
S1130F6081708093920380915502909156029093E0
S1130F709D0280939C028091900280939E0232276E
S1130F803170267EE32FFF27EE0FFF1FEF5AFD4F30
S1130F90808191819093560280935502232B209354
S1130FA08F0289E00E944702089580918F0280FF9A
S1130FB002C08B7F01C08D7F80938F0208950F93B1
S1130FC01F93082F162F80914B048130D9F0813064
S1130FD038F0823009F44AC0833009F028C159C07E
S1130FE0002309F458C110920C1510920B1510929D
S1130FF0D70710921F1510924F0410927106109289
S1131000700639C1002309F046C1809170069091A1
S113101071060E949107909371068093700682E096
S113102080934B0410931F15143409F000C125C19B
S11310308695869503C080918F028695817009F00C
S1131040F6C080918F02992311F0846001C0826000
S113105080938F0280918F02877E886080938F02B5
S1131060109290028FEF8093500215C1002309F073
S1131070DEC060934F0480917006909171060E94C7
S11310809107909371068093700683E080934B04DC
S113109002C18091D7078F3F09F4C9C0002309F426
S11310A061C0823008F4C3C0E0910B15EE2309F44B
S11310B0EBC04E2F4150E42FFF27E55FFA4E8281AB
S11310C09927382F2227442311F4E2E002C0E42FA9
S11310D0E150FF27E55FFA4E82819927282B392BAF
S11310E080917006909171062817390709F09FC006
S11310F080E00E949F0730914F0480916206209106
S11311006306982F9F5F963008F090E0921771F075
S1131110E82FFF27EE59F94F32838F5F80936206E1
S1131120863010F0109262060E94D50210920C15BF
S113113010920B1594E090934B041092D7071092E1
S11311401F1510924F041092710610927006809130
S11311509F028D7F80939F0280918E02882309F4E1
S11311609AC084C0823008F44EC0E0910C15FF2769
S1131170E55FFA4E8281482F5527342F20918F0244
S1131180822F86958695869583709927813091055F
S113119019F00297F9F40EC0277E206120938F0284
S11311A0442311F485E001C080E0809390023093E1
S11311B0500210C080919002833660F4E091550291
S11311C0F0915602E80FF11D4083809190028F5FE9
S11311D08093900280910C15E82FFF27E55FFA4E6B
S11311E062818F5F80930C15833010F010920C1580
S11311F0772780917006909171060E9491079093D1
S113120071068093700680910B15E82FFF27E55F28
S1131210FA4E12838F5F80930B15833010F0109277
S11312200B158091D7078F5F8093D70734C0109236
S11312300C1510920B1514E010934B041092D70761
S113124010921F1510924F0410927106109270069E
S113125080919F028D7F80939F0281E00E949F076F
S113126080918E02882329F010934B040E9470060B
S113127012C0002381F081E009CF80918F02982F62
S1131280917080FDD5CED7CE80910F159927382F38
S1131290222742E01CCF1F910F9108951F920F92B5
S11312A00FB60F9211242F933F934F935F936F9335
S11312B07F938F939F93AF93BF93EF93FF9380910B
S11312C0C00087FF42C06091C600E0917206F091B1
S11312D07306309719F18091EC169091ED16E80F92
S11312E0F91F608301969093ED168093EC1620917C
S11312F0F9163091FA168217930738F11092730693
S1131300109272068091D2078330F9F08091C10067
S11313108F778093C1001092D20717C06E3719F4EB
S113132060E081E010C080919F026D3721F48260FB
S113133080939F020AC081FF05C08D7F80939F0226
S113134080E2682780E00E94DF07FF91EF91BF9160
S1131350AF919F918F917F916F915F914F913F9149
S11313602F910F900FBE0F901F901895982F8D57A7
S1131370823068F480919F02816080939F0280E2B2
S113138089278093D6078DE78093B80302C0909392
S1131390B80361E070E088EB93E00E948E06992721
S11313A0089578941F920F920FB60F921124FF9212
S11313B00F931F932F933F934F935F936F937F9359
S11313C08F939F93AF93BF93CF93DF93EF93FF9349
S11313D020914C0430914D04809113159091141573
S11313E02817390780F4E0916604F0916704E20F4E
S11313F0F31F80812F5F3F4F30934D0420934C04A3
S11314000E948206D1C01092670410926604109262
S11314104E048091C1008F7B8093C100FFB6F89485
S113142080919F0280FF0EC08E7F80939F028091E7
S1131430D6078093B80361E070E088EB93E00E94E4
S11314408E06AFC08091D307843009F48CC08530F8
S113145040F4823021F18330B8F5813009F09CC02A
S11314600DC0863009F48DC0863008F483C08730FF
S113147009F48EC0883009F08FC091C08091640453
S11314800E94B609082F83E08093D3076091640417
S11314908091F7169091F8160E94910710C08091E0
S11314A02A150E94B609082F83E08093D307609120
S11314B02A158091F7169091F8160E94910790933F
S11314C0F8168093F71666C0E0917406FF27EE0FB6
S11314D0FF1FE659FB4F80810E94B609082F109127
S11314E07406C12FDD27FE01EE0FFF1FE659FB4FE7
S11314F060818091F7169091F8160E94910790935D
S1131500F8168093F716209160042F5F20936004EF
S1131510113039F580919602E0919102F091920296
S1131520E80FF11DE0818F5F809396029091950200
S1131530981730F482E080936B0440E050E002C0DE
S11315404E2F5527DE01AA0FBB1FFD01E759FB4FA4
S11315508081823031F02F3F21F0A659BB4F4C934C
S113156019C084E012C08091F7160E94B609082FB2
S113157085E00BC08091F8160E94B609082F86E01A
S113158004C00E94C306082F87E08093D30702C0DB
S113159088E003C0002329F089E08093D3070E94E8
S11315A0D5028F2D99278FBFFF91EF91DF91CF91B6
S11315B0BF91AF919F918F917F916F915F914F9167
S11315C03F912F911F910F91FF900F900FBE0F909D
S11315D01F9018951F920F920FB60F9211248F939C
S11315E08091C80087FF02C08091CE008F910F9038
S11315F00FBE0F901F90189578941F920F920FB6FC
S11316000F9211240F900FBE0F901F90189578948D
S11316101F920F920FB60F9211240F900FBE0F90CE
S11316201F90189578941F920F920FB60F92112461
S11316300F900FBE0F901F90189578941F920F92E1
S11316400FB60F9211240F900FBE0F901F90189594
S113165078941F920F920FB60F9211248F939F9339
S113166080919600909197009F918F910F900FBE5B
S11316700F901F90189578941F920F920FB60F92A7
S113168011242F933F938F939F932FB7F89433276D
S113169080916E0690916F06019690936F068093E9
S11316A06E062FBF9F918F913F912F910F900FBE88
S11316B00F901F9018951F920F920FB60F9211243E
S11316C00F931F932F933F934F935F936F937F9346
S11316D08F939F93AF93BF93CF93DF93EF93FF9336
S11316E02EB5E091CD07F091CE07309739F0809177
S11316F06A0690916B06E80FF91F208380916A06B1
S113170090916B06019690936B0680936A0680E035
S11317100E944404C0916A06D0916B062091030391
S113172030910403C217D30708F042C00091861613
S1131730109187164091CD075091CE07CE010A969D
S11317402817390708F4C901DA01AC0FBD1FF801E5
S1131750EC0FFD1F9C012150304015C001151105EF
S113176031F080818EBD0DB407FEFDCF04C01EBCD8
S11317700DB407FEFDCF8EB54115510509F08C93CC
S1131780219611963196C217D30740F381E00E9447
S113179044040115110531F00C0F1D1FF80180815F
S11317A08EBD01C01EBCD0936B06C0936A0611C0E7
S11317B01092CE071092CD071092871610928616BB
S11317C0109204031092030310926B0610926A069F
S11317D08EB5FF91EF91DF91CF91BF91AF919F9122
S11317E08F917F916F915F914F913F912F911F91B5
S11317F00F910F900FBE0F901F90189578941F9221
S11318000F920FB60F9211240F900FBE0F901F90DE
S1131810189578941F920F920FB60F9211240F907F
S11318200FBE0F901F90189578941F920F920FB6C9
S11318300F9211242F933F938F939F93AF93BF9352
S11318402FB7F894332780915A0490915B04A091A8
S11318505C04B0915D040196A11DB11D80935A04EE
S113186090935B04A0935C04B0935D042FBFBF917D
S1131870AF919F918F913F912F910F900FBE0F9039
S11318801F901895CF92DF92EF92FF920F931F93C0
S1131890182F0E941E026B017C018091F10281309D
S11318A009F58091ED029091EE02A091EF02B091C2
S11318B0F002A7019601281B390B4A0B5B0B6091C0
S11318C0710270917202809173029091740203EF1D
S11318D00E94302C609371027093720280937302A1
S11318E090937402112341F0C092ED02D092EE0263
S11318F0E092EF02F092F0021F910F91FF90EF90AF
S1131900DF90CF9008956091F202882399F06623C6
S1131910A1F07727762F662743EF80917702909185
S113192078020E94EF2B90937802809377021092B2
S1131930F20208956F5F6093F20208956091F102DC
S1131940882389F07727762F662743EF80917502E5
S1131950909176020E94EF2B909376028093750209
S11319601092F10208956F5F6093F10208951F923F
S11319700F920FB60F9211242F933F934F935F93BF
S11319806F937F938F939F93AF93BF93EF93FF9343
S11319908091B0008093B0008091B60081FDFCCFAF
S11319A08091B30099270196AA27BB27209193031E
S11319B0309194034091950350919603280F391F59
S11319C04A1F5B1F20939303309394034093950322
S11319D0509396039091B10090688091B60080FD79
S11319E0FCCF9093B1009F778091B60080FDFCCF2F
S11319F09093B10078940E94D706FF91EF91BF9124
S1131A00AF919F918F917F916F915F914F913F9192
S1131A102F910F900FBE0F901F9018950F931F9347
S1131A20CF93DF93182F0FB7F8948091D5028823B2
S1131A3011F40E944D04802F99278FBF8FB7F8941B
S1131A40C82FDD272C2F8091D502882361F481E0F3
S1131A508093D5021093650484E10E944702CFBFAE
S1131A6080E090E021C0E12FFF27ED59FB4F8081FA
S1131A708F3F89F4E0916402E11789F40CC010935C
S1131A80630204C0FF27ED59FB4F108310936402D7
S1131A9080E090E002C085E090E02FBF05C0809117
S1131AA063028F3F79F7EBCFDF91CF911F910F91B5
S1131AB008958FB7F894282F3327922F80916502C9
S1131AC0882331F48091D502823011F42FBF13C0E2
S1131AD09FBF8FB7F894282F33278091D50288238E
S1131AE069F482E08093D502109265022FBF0E94B0
S1131AF04D04209A289A81E090E008952FBF80E059
S1131B000E940E0D80E090E008950E940C0586501E
S1131B1099270895EF92FF920F931F938C010E94CF
S1131B2089058B5F682FC8010E9482037C01C8016C
S1131B300E94850DE80EF11CC7011F910F91FF90C3
S1131B40EF900895EF92FF920F931F938C0160E53D
S1131B500E9482037C01C8010E940C058150E80E9A
S1131B60F11CC7011F910F91FF90EF9008951F93EF
S1131B70982F1FB7F8948091D402823099F5809100
S1131B806202891779F58091600220E030E08F3F8E
S1131B9011F421E030E0232BF1F49FEF90936202E3
S1131BA08F3F19F42FEF30E00DC0282F3327F901B0
S1131BB0EE5DFB4F8081809360028F3F11F4909320
S1131BC06102908320931F0481E08093D4028EE00D
S1131BD00E94470205C08FEF809362021092D402E4
S1131BE021E001C020E0812F99278FBF90E02130B0
S1131BF009F491E081E09827892F99271F9108958E
S1131C0080E00E94B70D99270895EF92FF920F93F9
S1131C101F93CF93DF93E5E9F6E1C091A402D0913D
S1131C20A502C035D10510F0C0E5D0E080E5DF01A4
S1131C301D928A95E9F72091A4023091A502809122
S1131C40A0029091A10200E010E07F0113C0FC010A
S1131C50EE52FB4FE0812115310539F0019660E920
S1131C6071E00E94482E21503040D701ED937D0150
S1131C700F5F1F4F0C171D0751F73093A5022093D8
S1131C80A4029093A1028093A00240E569E876E162
S1131C908FEF9FEF0E94A503882319F08AE00E942A
S1131CA04702DF91CF911F910F91FF90EF9008951C
S1131CB0662361F48091A4029091A502892B19F006
S1131CC00E94050E08951092A60208958AE00E94CB
S1131CD047020895EF92FF920F931F93CF93DF93E0
S1131CE0182F7B01042FE82FFF27EE0FFF1FE45965
S1131CF0F94F1182108210924F02A0916C06B0919C
S1131D006D06109721F080912F1580FF0EC081E0A1
S1131D1080934F0203C083E00E9447021123C9F459
S1131D20602FC7010E94580E14C0FD01359624810E
S1131D303327ED016D817727762F662781819927D7
S1131D40682B792BAD0186810E94E902882331F347
S1131D50E2CFDF91CF911F910F91FF90EF90089503
S1131D608FB7F894282F33278091A602813021F46D
S1131D702FBF80E090E0089540E08091A40290910C
S1131D80A502892B09F441E0442321F02FBF81E00F
S1131D9090E0089581E08093A6022FBF0E94050E73
S1131DA080E090E008951F93CF93DF93182F8091E4
S1131DB0A602882361F48091A4029091A502883C34
S1131DC0910528F081E08093A6020E94050E8FB74A
S1131DD0F894C82FDD272091A4023091A50281E058
S1131DE020393807D8F48091A2029091A302FC0113
S1131DF0EE52FB4F1083019660E971E00E94482E79
S1131E009093A3028093A2022F5F3F4F3093A502C9
S1131E102093A402CFBF80E090E003C0CFBF8FEF38
S1131E209FEFDF91CF911F910895AF92BF92CF9210
S1131E30DF92EF92FF920F931F93CF93DF938091E2
S1131E401015882309F4C4C00E94590D882309F48D
S1131E50BFC08FB7F8949927C0915E04D0915F04F6
S1131E608FBF1092101528988FE88EBD0DB407FE11
S1131E70FDCF8EB51EBC0DB407FEFDCF8EB5289ADE
S1131E80982F80910203833011F0873031F485E07C
S1131E908093881688E080930203A92EBB24A2FEB7
S1131EA067C080910203863019F41092020303C0C4
S1131EB0882309F05DC0943009F049C0289886E869
S1131EC08EBD0DB407FEFDCF8EB51EBC0DB407FE4E
S1131ED0FDCFFEB4289A2FE1F22280912404982F9A
S1131EE0969596953F2D391B830F8093240400917A
S1131EF08E0310918F03B80181E00E947204B8012F
S1131F0082E00E9481040F591F4FF801F1820E9460
S1131F10AA046B017C0100918E0310918F03B80118
S1131F2080E00E948104045A1F4FCC19DD092797D1
S1131F30CE01AA2797FDA095BA2F8C0D9D1DAE1D2D
S1131F40BF1DF80180839183A283B3830EC0609187
S1131F508E0370918F0382E00E94720460918E035D
S1131F6070918F0380E00E94720485E080930203E5
S1131F70A3FE2EC090910203943069F485E080930F
S1131F80881610920203109234159093280480E16D
S1131F900E9447021DC09530D9F420915804289816
S1131FA086E88EBD0DB407FEFDCF8EB51EBC0DB404
S1131FB007FEFDCF8EB5289A8F71922F9695969530
S1131FC0891B280F2093580489E08093020308C0DA
S1131FD020910203222309F475C2293009F082C139
S1131FE0289880E28EBD0DB407FEFDCF8EB51EBCD1
S1131FF00DB407FEFDCF8EB5482F5527433008F4A6
S1132000AEC2842F99278E3591050CF0A8C21EBC50
S1132010E0918E03F0918F034083A42FA250A73048
S113202010F42A2F01C027E0BF016F5F7F4F322FCA
S1132030FB0140E050E00DB407FEFDCF8EB51EBCA1
S1132040992781934827042E4295407F4025052EE9
S1132050542F42954F700426469554274527440F24
S1132060440F440F4025315031F72150FB01E20F5A
S1132070F11D2F5F31968FB7F894682F772790E082
S113208080910515833008F491E06FBF992309F41A
S11320905EC09A2F921B18C00DB407FEFDCF8EB5FB
S11320A01EBC808381914827042E4295407F4025A1
S11320B0052E542F42954F700426469554274527E4
S11320C0440F440F440F4025915030F70DB407FEE0
S11320D0FDCF8EB51EBC9A012827022E2295207FA3
S11320E02025032E322F22952F7002262695322783
S11320F02327220F220F220F20250DB407FEFDCF28
S11321008EB51EBC2827022E2295207F2025032E63
S1132110322F22952F700226269532272327220F4D
S1132120220F220F20250DB407FEFDCF8EB5E091BE
S11321308E03F0918F03EF59FF4F8083289A85E037
S11321408093881610920203232B31F0B7C10DB48B
S113215007FEFDCF8EB503C2E0908E03F0908F038F
S113216057010894A11CB11CF7018185208599278A
S1132170582F44273327422B532B80919703282F22
S11321803327F901EE0FFF1FEB5EFA4E8081918138
S11321906091D0078417950769F4F901E051F94E6D
S11321A08081861709F464C0862F8F5F8093D007DF
S11321B080831BC010E000E080E090E0C5E1D5E141
S11321C0E0EFF6E1C62EC394DF01782F9C018881ED
S11321D099818417950759F4209397038C91861756
S11321E009F446C0C092D007CC9210E828C0808180
S11321F0962F981B191710F4192F022F7F5FC9010E
S1132200019611962296319685309105F1F6753036
S1132210B1F400939703A02FBB27FD01EE0FFF1F1E
S1132220EB5EFA4E51834083862F8F5F8093D007F5
S1132230FD01E051F94E8083A450B94E1C92909157
S1132240D007892F8F778F3779F41F3768F0E0EF45
S1132250F6E1292F207880818F67891320833196B6
S113226036E1E53FF307B9F780919703282F332729
S1132270F5019281A22FBB27FD01E450F94E808124
S113228080FF07C0FD01EA5FFA4E8081981729F1AB
S113229002C081608083AA5FBA4E9C93CFB6F89443
S11322A0809105158330B0F4E0912915E80FE330EF
S11322B008F0E350FF27EE0FFF1FEF58FC4F00819B
S11322C01181F182E0828F5F8093051581E10E9484
S11322D0470278018C2D99278FBFF0928F03E092EB
S11322E08E03E3C0822F8150833008F0BCC081503C
S11322F0823008F03BC0909188169130B9F530E0F7
S11323008091CF07882309F431E0332379F12F98A2
S1132310909368049093CF07609184007091850036
S11323202FB7F8944091840050918500CA01861B10
S1132330970B03968B52934018F0CA01039603C07F
S1132340CB01855D9C4F009711F481E090E00197EB
S1132350909389008093880082E086BB90916F00FF
S1132360926090936F0033272FBF68C0233009F029
S113237042C080918816833009F097C00E94590D9D
S11323808823C9F128988FE88EBD0DB407FEFDCFD0
S11323908EB51EBC0DB407FEFDCF8EB5289A809174
S11323A0810080648093810080E286BB80916F000D
S11323B0806280936F0090911E04289888EC8EBDF3
S11323C00DB407FEFDCF8EB590669EBD0DB407FE1D
S11323D0FDCF8EB5289A289882EC8EBD0DB407FEE9
S11323E0FDCF8EB586E08EBD0DB407FEFDCF8EB554
S11323F0289A84E023C0809102038150823000F542
S1132400809188168530E1F40E94590D8823C1F02B
S1132410289882EC8EBD0DB407FEFDCF8EB583E007
S11324208EBD0DB407FEFDCF8EB5289A80916F0046
S11324308F7D80936F001092101583E0809388162F
S113244090910203913041F4809188168330B1F564
S11324502F9A9093881625C0923039F5809188166A
S1132460833061F51EC0273001F50E94590D882381
S1132470E1F090911E04289888EC8EBD0DB407FEFF
S1132480FDCF8EB590669EBD0DB407FEFDCF8EB513
S1132490289A80918816853021F484E080938816E8
S11324A004C088E08093020304C080910203883052
S11324B029F4109202038FE00E94470280910203E4
S11324C08823C9F480918816853091F48091101581
S11324D0882371F480912804823051F481E0809340
S11324E0280480E10E94470280910203882319F4A2
S11324F082E10E9447028091CF07823019F5109241
S1132500CF07809168048130E9F480918816823085
S113251021F483E08093881613C0809102038630EF
S113252079F410920203289881E88EBD0DB407FE59
S1132530FDCF8EB51EBC0DB407FEFDCF8EB5289A17
S11325400E94E5138FB7F894282F332780911D0438
S1132550813061F081E080931D042FBF70CC289AF4
S113256085E08093881610920203A8CF10921D0470
S11325702FBFDF91CF911F910F91FF90EF90DF90CC
S1132580CF90BF90AF9008958FB7F894282F33273A
S113259080911D04815080931D04803811F02FBF59
S11325A0089581E080931D042FBF0E94150F0895A4
S11325B01F93FC018FE38287809101038F5F8093D7
S11325C0010383832FB7F894332780911D048F5F11
S11325D080931D042FBF80912804882311F015E0F7
S11325E00DC0F093D507E093D40781E080932804CD
S11325F01092D10780E10E94470210E00E94C412A9
S1132600812F99271F910895EF92FF920F931F93A3
S1132610CF93DF93082F7B01EA01122F213518F0A5
S113262086E090E089C08A81298140E09927982F2B
S113263088273327822B932B87749C7C815498485A
S113264009F441E0442319F4CE010E948D03135F81
S113265018832FB7F894332780915D0290915E021E
S11326602FBF8887892F992789872FB7F894332715
S113267080915F022FBF99278C831D82CE010E9417
S1132680EB04FC010083EE828F2D99278F838FB793
S1132690F894282F33278091D402882371F482E0A0
S11326A08093D402109262022FBFCE010E94D812EE
S11326B09927182F882399F00FC02FBFD093210496
S11326C0C09320048FB7F894C82FDD272C2F809156
S11326D0D402882399F406C080E00E94B70D812FAC
S11326E099272AC081E08093D40210921F048EE0BF
S11326F00E944702CFBF80E090E01EC08091220478
S11327008F3F89F4E0916102EE2369F010C01092CA
S1132710600204C0FF27EE5DFB4F1082109261023D
S113272080E090E002C085E090E02FBF05C080917A
S113273060028F3F79F7EBCFDF91CF911F910F911B
S1132740FF90EF9008951F93AC012091DF022223A4
S1132750C1F18091E0029091E1024817590789F58F
S1132760213071F48091F4068D7F8093F40683E028
S11327708093660286E10E94470280E090E023C0D5
S11327802230F9F48FB7F894992720911D042F5F14
S113279020931D048FBF809128048150823010F053
S11327A015E00AC084E08093280483E08093341504
S11327B080E10E94470210E00E94C412812F9927F1
S11327C002C081E090E01F9108958FB7F894282FFC
S11327D0332780911D04882329F0806880931D0489
S11327E02FBF089581E080931D042FBF0E94150F11
S11327F0089578941F920F920FB60F9211242F937D
S11328003F934F935F936F937F938F939F93AF9374
S1132810BF93EF93FF93E6E8F0E0808191812081FC
S113282031818FB7F894992730935F0420935E0425
S113283021E0209310158FBF0E94E513FF91EF91C3
S1132840BF91AF919F918F917F916F915F914F91C4
S11328503F912F910F900FBE0F901F901895789471
S11328601F920F920FB60F9211242F933F934F9301
S11328705F936F937F938F939F93AF93BF93EF93E4
S1132880FF9380916F008D7F80936F0078949FB742
S1132890F8948091CF07813019F482E08093CF07B8
S11328A0892F99278FBF0E94E513FF91EF91BF9164
S11328B0AF919F918F917F916F915F914F913F91D4
S11328C02F910F900FBE0F901F9018951F93CF93C9
S11328D0DF93382F80915702882309F452C08091E6
S11328E0E6029927282F882309F44BC0332329F4BF
S11328F080919003281708F444C0E091E402FF2774
S1132900EE0FFF1FE753FB4EC081D181CE010E9421
S11329100C05182F8091AE029091AF02892B89F596
S11329208091D302853068F1873141F48091FD06AE
S11329308D7F8093FD068DE00E9447029091D30223
S1132940892F8651823010F0953011F48CE00BC041
S1132950963011F48DE007C09B3021F0933111F0D3
S1132960943119F48EE08093D302D093AF02C093D4
S1132970AE0211501093750681E080938303109288
S1132980AD02DF91CF911F9108951F93CF93DF93F1
S1132990EC01FB014530D0F114818091F8028117DC
S11329A038F09927811B91098F3791050CF446C1A2
S11329B08091DB029091DC0201969093DC0280937B
S11329C0DB02455055273596BF0189E294E00E9409
S11329D0C82E1093F8020E941E02209129043091FF
S11329E02A04322F2227330F330F44275527621B23
S11329F0730B840B950B60930A0370930B03809302
S1132A000C0390930D0389E10E94470285E10E9423
S1132A1047028091D3028231B1F58FB7F894992798
S1132A2040915D0250915E028FBF8F812E81992764
S1132A30982F88273327822B932B48175907F9F0AF
S1132A408F5F9F4F09F409C1898528859927982F9D
S1132A5088273327822B932B2091580230915902D7
S1132A602817390709F0F9C08091FD068D7F8093FE
S1132A70FD068EE08093D3028DE00E944702809190
S1132A80D302823129F08F3019F08E3009F08CC0D6
S1132A908FB7F894992740915D0250915E028FBFE1
S1132AA08F812E819927982F88273327822B932B68
S1132AB04817590711F060E05BC08985288599277C
S1132AC0982F88273327822B932B209158023091FB
S1132AD059022817390709F0C0C064E0CE010E94EA
S1132AE08203FC01908180915A02891709F0B5C0D4
S1132AF02091AE023091AF021092AF021092AE025A
S1132B008091FD068D7F8093FD0640918303E091C3
S1132B10E402FF27EE0FFF1FE753FB4E80819181F4
S1132B2028173907C1F4442399F4C9010E94ED041C
S1132B308091E4029091E602992351F08F5F809393
S1132B40E4028E3111F41092E40291509093E60263
S1132B5081E00E94661480E00E949E0C80E00E9446
S1132B60420C8EE08093D3028DE00E94470261E024
S1132B70CE010E9411052091AE023091AF0288234C
S1132B8021F0232B29F080E109C0232B09F065C033
S1132B908091FD068D7F8093FD0683E18093D302AF
S1132BA08DE00E94470259C08051823008F055C020
S1132BB0898528859927982F88273327822B932B5B
S1132BC020915802309159028217930709F045C0A9
S1132BD08F812E819927582F44273327422B532B3B
S1132BE08FB7F894992720915D0230915E028FBFD0
S1132BF04217530791F14F5F5F4F51F52EC060E0CC
S1132C00CE010E941105882319F01093D302C8CF76
S1132C108FE08093D30221C08091AE029091AF02E5
S1132C200E94A3138823C9F460E0CE010E94110519
S1132C30882399F081E08093B2020FC08091DD0275
S1132C409091DE0201969093DE028093DD02DECE47
S1132C501091D302103101F7D2CFCE01DF91CF9181
S1132C601F910895AF92BF92CF92DF92EF920F938C
S1132C701F935B016C010E941E02AB01BC01F1E0D9
S1132C80EF2E9601850183E00E9444031F910F916A
S1132C90EF90DF90CF90BF90AF9008956623E9F452
S1132CA08091C5029091C602A091C702B091C8025A
S1132CB00196A11DB11D8093C5029093C602A093F5
S1132CC0C702B093C80282E18093D30262E070E04D
S1132CD080E090E00E94321608958091C90290919C
S1132CE0CA0201969093CA028093C902633069F4C0
S1132CF08091B202813049F41092B20280E1809353
S1132D00D3028DE00E94470208958091FD0681FF61
S1132D1002C08FE001C08EE08093D3020895DF9259
S1132D20EF92FF920F931F93CF93DF93EC01D62E74
S1132D300E94EB04FC0180819927803821F08138BE
S1132D4009F07BC047C0DD20A9F58F819927982F12
S1132D5088272E813327822B932B8F5F9F4F99F0E7
S1132D608091B7029091B802A091B902B091BA02D1
S1132D700196A11DB11D8093B7029093B802A09350
S1132D80B902B093BA028091B3029091B402A091B7
S1132D90B502B091B6020196A11DB11D8093B30294
S1132DA09093B402A093B502B093B6028091D3027B
S1132DB08F5F0AC08091BB029091BC0201969093F0
S1132DC0BC028093BB0284E18093D3028DE00E9415
S1132DD0470233C01092E202DD2059F41091E3025D
S1132DE00E941E022091D906621B160F169510939D
S1132DF0E302E0902B15F0902C1500912D15109105
S1132E002E15CE010E94DD04FC01E382BB27A12F15
S1132E10902F8F2D8283C801AA27BB278183E12E9F
S1132E20FF2400271127E0821092DF026D2D80918C
S1132E30E0029091E1020E944E16DF91CF911F9122
S1132E400F91FF90EF90DF900895AF92BF92CF92D1
S1132E50DF92EF920F931F935B016C010E941E029D
S1132E60AB01BC0131E0E32E9601850180E00E94B4
S1132E7044031F910F91EF90DF90CF90BF90AF90DC
S1132E8008952F923F925F926F927F928F929F92BA
S1132E90AF92BF92CF92DF92EF92FF920F931F9364
S1132EA0CF93DF935B016C01C0E0D0E0EAEDF6E084
S1132EB0608561FF19C22081318142815381E480A0
S1132EC0F58006811781D601C501821B930BA40BE3
S1132ED0B50B8E159F05A007B10708F405C260FF66
S1132EE003C06D7F608708C02E0D3F1D401F511F1A
S1132EF02083318342835383C23009F4C8C0C33072
S1132F0030F4CC2359F0C13009F0F4C1A3C0C3306C
S1132F1009F489C1C43009F0EDC1E2C16CE08CE769
S1132F2098E00E9482038C018CE798E00E948D0354
S1132F301092DC0880918C0290918D0201969093FE
S1132F408D0280938C020197F8018183892F992740
S1132F5080830E9489058550823008F470C0809176
S1132F60E9029091EA0201969093EA028093E902C1
S1132F708091E6028E3129F00E948C05EC010097C5
S1132F8051F48091A9029091AA0201969093AA0209
S1132F908093A90254C0FC01ACE7B8E083E60D902D
S1132FA001928150E1F789E18883CE010E948A0D64
S1132FB0FC018091490290914A028183892F9927CB
S1132FC080838091A8028F5F8093A80281508283BE
S1132FD0138281E284830E941E027B018C01CE0154
S1132FE00E94DD04FC01E382BB27A12F902F8F2DCB
S1132FF08283C801AA27BB278183E12EFF240027EF
S11330001127E082CE010E94AB05882361F48091F0
S1133010A702882321F08BE00E94470210C080E0C1
S11330200E9466140CC08091A9029091AA02019694
S11330309093AA028093A902CE010E94ED046091AC
S11330404B0270914C0280914D0290914E020E946D
S1133050251750C10E941E029F938F937F936F93F5
S11330608091490290914A029F938F9380E092E06D
S11330709F938F930E94D82E0E94B00E8DB79EB757
S113308008960FB6F8949EBF0FBE8DBF33C1509003
S1133090FB16C091E002D091E102209024153090FB
S11330A025158FB7F894282F33278091E2028823BF
S11330B019F02FBF25E0B3C081E08093E2022FBF57
S11330C00E941E023B014C016093D906CE010E946E
S11330D0DD04FC018081E1802281A3803327442721
S11330E05527542F432F322F22279927AA27BB274E
S11330F0B82FAA2799278827FF240027112787019B
S1133100FF24EE248E299F29A02BB12BBB24CC2491
S1133110DD248A299B29AC29BD29282B392B4A2B4C
S11331205B2B20932B1530932C1540932D15509326
S11331302E15CE010E94DD04FC018081E1802281F4
S1133140A380332744275527542F432F322F222778
S11331509927AA27BB27B82FAA2799278827FF24AE
S1133160002711278701FF24EE248E299F29A02BF5
S1133170B12BBB24CC24DD248A299B29AC29BD296D
S1133180282B392B4A2B5B2B8091E302680E711C90
S1133190811C911C26193709480959092383BB2727
S11331A0A52F942F832F8283CA01AA27BB2781834B
S11331B0252F332744275527208394E0590E252DA6
S11331C0AE01B10181E80E9404139927D82E882307
S11331D011F1E0902B15F0902C1500912D15109104
S11331E02E15CE010E94DD04FC01E382BB27A12F32
S11331F0902F8F2D8283C801AA27BB278183E12EBC
S1133200FF2400271127E0821092E2028D2D9927D6
S1133210282F882321F482E08093DF026BC020935F
S1133220660286E15EC09091D302892F805182307C
S113323008F460C09731A1F48091AE029091AF027E
S1133240892B61F48091A702882331F4809167026D
S11332508F3F11F486E140C085E03EC08CE03CC065
S11332609231A9F19F30A9F5209168022F3F79F09E
S1133270809167028F3F59F099270196820F911D23
S113328062E070E00E945C2E6093670203C08FEFDF
S1133290809367028FEF809368028091CF029091B0
S11332A0D00201969093D0028093CF028091A7021E
S11332B0882369F4809167028F3F49F48091D10299
S11332C09091D20201969093D2028093D1028EE023
S11332D003C09A3019F48BE08093D3028DE001C0CF
S11332E087E10E94470206C021963996C530D10570
S11332F009F0DECD81E00E944702DF91CF911F915A
S11333000F91FF90EF90DF90CF90BF90AF909F9080
S11333108F907F906F905F903F902F900895AF9221
S1133320BF92CF92DF92EF920F931F93CF93DF93CD
S1133330E82E5A016B0180917902CE2DDD2783306E
S1133340A1F4FE01EE0FFF1FEE0FFF1FE958FC4F23
S11333504083518362837383E0927902CB5DDB4FB8
S11333608883E81609F47CC047C08E01000F111F42
S1133370000F111F09581C4FF801408351836283C9
S113338073838091060781FF17C00E941E0220915B
S1133390FE063091FF064091000750910107621B21
S11333A0730B840B950B6A0D7B1D8C1D9D1DF80101
S11333B0608371838283938350917902E52FFF2781
S11333C0EE0FFF1FEE0FFF1FE958FC4F8081918124
S11333D0A281B381A816B906CA06DB0610F5CB5D37
S11333E0DB4F5883E0927902F3E0EF16C9F1F8015C
S11333F0A080B180C280D380A114B104C104D104DF
S113340021F487E10E9447022BC00E941E02AB01F7
S1133410BC01E1E0EE2E9601850184E00E944403A4
S11334201FC0252F33272B5D3B4FF90140814330CB
S113343091F0542FE42FFF27EE0FFF1FEE0FFF1F15
S1133440E958FC4F80819181A281B381A816B90605
S1133450CA06DB0630F7F901E082CB5DDB4F488317
S1133460DF91CF911F910F91EF90DF90CF90BF909C
S1133470AF9008952F923F924F925F926F927F92F6
S11334808F929F92AF92BF92CF92DF92EF92FF9270
S11334900F931F93CF93DF93CDB7DEB76C970FB61F
S11334A0F894DEBF0FBECDBF4FB7F8945527809177
S11334B079029927FC01EB5DFB4F2081209379026F
S11334C04FBF60917902F82E8C01000F111F000F7D
S11334D0111F09581C4F1DC07727FB01EE0FFF1F5A
S11334E0EE0FFF1FE958FC4FA080B180C280D3804B
S11334F0D8012D913D914D915C91A21AB30AC40A51
S1133500D50AA082B182C282D3826B5D7B4FFB015C
S11335106081633009F7E0917902E330F9F0FF2725
S1133520EE0FFF1FEE0FFF1FE958FC4FA080B18084
S1133530C280D380A114B104C104D10421F487E171
S11335400E9447020BC00E941E02AB01BC01F1E0C5
S1133550EF2E9601850184E00E944403F1E0FF16FA
S1133560E9F0FF1628F022E0F21609F043C02CC05F
S11335701092880380E090EDA2E0B0E0809389038C
S113358090938A03A0938B03B0938C0340E050ED97
S113359062E070E080E00E948F1942C010927708C8
S11335A080E090E6A9E0B0E08093780890937908F1
S11335B0A0937A08B0937B0840E050E669E070E09D
S11335C081E00E948F1974C01092050380E090E19D
S11335D0AEE0B0E08093060390930703A093080342
S11335E0B093090340E050E16EE070E082E00E9495
S11335F08F19D1C0409101005091020060910300E5
S1133600709104008F2D0E948F1941E0F41609F483
S11336104FC0F41628F082E0F81609F068C3BBC066
S11336202091E9023091EA0244275527EAE0220F6B
S1133630331F441F551FEA95D1F7609169027091B9
S11336406A0280916B0290916C0203EF0E94302C0D
S11336506093690270936A0280936B0290936C0288
S11336601092EA021092E9022091EB023091EC02EE
S1133670442755277AE0220F331F441F551F7A959C
S1133680D1F760916D0270916E0280916F029091FA
S113369070020E94302C60936D0270936E028093CE
S11336A06F02909370021092EC021092EB021FC30F
S11336B000917A0210917B0266E1C8010E948203A4
S11336C07C01C8010E948D03005A1F4FD8011C922F
S11336D08091F3029091F40201969093F402809306
S11336E0F3020197F7018183892F99278083209121
S11336F0690230916A0240916B0250916C0223304E
S113370031054105510518F42FEF3FEF06C060E085
S113371070ED82E090E00E946F2EF7012383832FE7
S11337209927828320916D0230916E0240916F023D
S113373050917002233031054105510518F42FEFE3
S11337403FEF06C060E070ED82E090E00E946F2ED3
S1133750F7012583832F99278483809171029091A7
S11337607202A0917302B09174028187292F3A2FBB
S11337704B2F552720879D014427552727838B2FBF
S11337809927AA27BB278683809176028287809116
S113379078028387ACC2E0907C02F0907D0268E3FB
S11337A0C7010E9482038C01C7010E948D0380E639
S11337B090E0E80EF91ED7011C928091FE029091D0
S11337C0FF0201969093FF028093FE0201978A8381
S11337D0F8018183892F9927898380838091A902A5
S11337E09091AA028C838383892F99278B83828368
S11337F08091AB029091AC028E838583892F9927A7
S11338008D8384838091B3029091B402A091B50218
S1133810B091B6028A878187292F3A2F4B2F5527DB
S1133820298720879D0144275527288727838B2FA5
S11338309927AA27BB278F8386838091B70290910B
S1133840B802A091B902B091BA028E878587292F58
S11338503A2F4B2F55272D8724879D014427552721
S11338602C8723878B2F9927AA27BB278B878287AF
S11338708091BB029091BC02888B8787892F9927FE
S11338808F8786878091BD029091BE02A091BF026E
S1133890B091C0028C8B838B292F3A2F4B2F552745
S11338A02B8B228B9D01442755272A8B218B8B2F11
S11338B09927AA27BB27898B808B8091C10290917D
S11338C0C202A091C302B091C402888F878B292FB2
S11338D03A2F4B2F55272F8B268B9D014427552795
S11338E02E8B258B8B2F9927AA27BB278D8B848B17
S11338F08091C5029091C602A091C702B091C802FE
S11339008B8F838F292F3A2F4B2F55272A8F228F66
S11339109D0144275527298F218F8B2F9927AA276B
S1133920BB27282E808F8091C9029091CA028C8F68
S1133930858F892F9927382E848F8091CB0290917F
S1133940CC02A091CD02B091CE02482E81A3292FA2
S11339503A2F4B2F5527622E20A39D01442755272C
S1133960522E278F8B2F9927AA27BB27C82E868FE5
S11339708091CF029091D002D82E83A3892F9927CA
S1133980E82E82A38091D1029091D202F82E85A3D1
S1133990892F9927A82E84A38091D7029091D802C9
S11339A0A091D902B091DA0281A7292F3A2F4B2F87
S11339B0552720A79D014427552727A38B2F9927F7
S11339C0AA27BB2786A38091DB029091DC0283A700
S11339D0892F992782A78091DD029091DE0285A725
S11339E0892F992784A700917C0210917D020E945F
S11339F01E02BB24BA2CAA242F2D3327A22AB32AB1
S1133A00BF92AF922E2D3327322F22274D2D5527CB
S1133A10242B352B3F932F93772488249924982C97
S1133A20872C762C6624DD24EE24FF24FC2CEE2443
S1133A30DD24CC24252D332744275527A9013327FA
S1133A402227C22AD32AE42AF52A242D33274427FD
S1133A505527C22AD32AE42AF52A6C287D288E28E1
S1133A609F289F928F927F926F92232D3327322F1C
S1133A702227FC8D4F2F5527242B352B3F932F9333
S1133A80AA8D2A2F332744275527CC24D22EE32E60
S1133A90F42E332444245524522C44243324222445
S1133AA0B98D2B2F332744275527A90133272227E4
S1133AB0222A332A442A552AEB8D2E2F33274427D2
S1133AC05527222A332A442A552AC228D328E428EF
S1133AD0F528FF92EF92DF92CF92FF892F2F3327A1
S1133AE0442755278824922EA32EB42EAD892A2F3D
S1133AF0332744275527522F442733272227BE89AB
S1133B00CB2EDD24EE24FF247601DD24CC242C29C5
S1133B103D294E295F29E88DCE2EDD24EE24FF2495
S1133B202C293D294E295F29822A932AA42AB52AC1
S1133B30BF92AF929F928F92FB892F2F33274427F6
S1133B4055278824922EA32EB42E2989C22EDD2433
S1133B50EE24FF245C2D442733272227AA89CA2E6A
S1133B60DD24EE24FF247601DD24CC242C293D29F8
S1133B704E295F29BC89CB2EDD24EE24FF242C2979
S1133B803D294E295F29822A932AA42AB52ABF9265
S1133B90AF929F928F92EF852E2F3327322F2227B9
S1133BA0F8894F2F5527242B352B3F932F93AD8521
S1133BB02A2F3327442755278824922EA32EB42E48
S1133BC0BB85CB2EDD24EE24FF245C2D4427332734
S1133BD02227EC85CE2EDD24EE24FF247601DD247D
S1133BE0CC242C293D294E295F29FE85CF2EDD24A6
S1133BF0EE24FF242C293D294E295F29822A932A69
S1133C00A42AB52ABF92AF929F928F92A9852A2F98
S1133C103327442755278824922EA32EB42EBF8100
S1133C20CB2EDD24EE24FF245C2D442733272227CA
S1133C30E885CE2EDD24EE24FF247601DD24CC2479
S1133C402C293D294E295F29FA85CF2EDD24EE2427
S1133C50FF242C293D294E295F29822A932AA42A4C
S1133C60B52ABF92AF929F928F924D81242F332712
S1133C70322F2227AE814A2F5527242B352B3F93F1
S1133C802F93BB812B2F3327322F2227EC814E2FEA
S1133C905527242B352B3F932F93F9812F2F33272F
S1133CA0322F2227AA814A2F5527242B352B3F93C5
S1133CB02F939F938F937F936F9380914902909159
S1133CC04A029F938F938FE092E09F938F930E9479
S1133CD0D82EEDB7FEB7BE960FB6F894FEBF0FBE52
S1133CE0EDBF0E94B00E10937D0200937C026C968F
S1133CF00FB6F894DEBF0FBECDBFDF91CF911F91F9
S1133D000F91FF90EF90DF90CF90BF90AF909F9076
S1133D108F907F906F905F904F903F902F90089579
S1133D202F923F924F925F926F927F928F929F92C7
S1133D30AF92BF92CF92DF92EF92FF920F931F93B5
S1133D40CF93DF93CDB7DEB7C056D0400FB6F8940B
S1133D50DEBF0FBECDBF6C961CAE1DAE1EAE1FAE39
S1133D606C97E82FFF27EA31F10510F00C94C12875
S1133D70EA59FF4FEE0FFF1F0590F491E02D0994CF
S1133D8080912F15882311F40C94C12890E011E040
S1133D908EC080911C04882361F5209120153091F8
S1133DA021154091221550912315EFB7F894FF2760
S1133DB060918403709185038091860390918703B9
S1133DC0E0903015F09031150091321510913315B3
S1133DD06E0D7F1D801F911FEFBF20932015309320
S1133DE02115409322155093231510921C040E9410
S1133DF063070E941E0244C00E941E025B016C0104
S1133E008FB7F8949927109252048FBF4FEFE42E86
S1133E104FEFF42E4FEF042F4FE7142F60E0EAED3D
S1133E20F6E0808581FF1CC080819181A281B381ED
S1133E30A6019501281B390B4A0B5B0BDA01C9015A
S1133E402481358146815781281B390B4A0B5B0B32
S1133E502E153F05400751071CF479018A0161E0E2
S1133E60399637E0E730F307E1F6662311F40C9452
S1133E70C1281E141F041006110634F0C601B50132
S1133E800E9441170C94C128E0922015F09221154C
S1133E90009322151093231581E080931C04A8013C
S1133EA09701C601B5010E9463070C94C1282091B3
S1133EB02F15812F8223C1F0E92FFF27EE0FFF1F5B
S1133EC0E459F94F4081518111821082812F8095EC
S1133ED0282320932F15992339F463E0CA010E9403
S1133EE0580E110F91E0E3CF9F5F983010F00C94BF
S1133EF0C128110FDCCF80914F02E82FFF27EE0F6E
S1133F00FF1FE459F94F6081718141E00E946A0EFC
S1133F100C94C1288FB7F8941092EE162091D30711
S1133F2040E0283009F441E030E0293009F431E080
S1133F30442311F4332351F01092D307E091740613
S1133F40FF27EE0FFF1FE759FB4F108299278FBF02
S1133F50442311F4332331F19FB7F89480912A1547
S1133F608F5F80932A1580916404833479F42091BF
S1133F70630680916206821779F0822F8F5F8093A7
S1133F806306863048F01092630606C0A0E044231E
S1133F9009F4A1E071E002C0A0E070E0892F992744
S1133FA08FBF06C0222311F0FF246DC0A0E070E093
S1133FB08FB7F894992720918E028FBF222341F066
S1133FC08FB7F89499272AE02093D3078FBF42C074
S1133FD08FB7F89499276091690440916B048FBF5F
S1133FE08FB7F894282F332750E090916206809180
S1133FF06306981709F451E02FBF552341F5662352
S113400031F55FB7F89482E0809369048FB7F89430
S1134010282F332740E09091620680916306981719
S113402009F441E02FBF442311F080E006C0E09181
S11340306306FF27EE59F94F828180936A0483E473
S11340408093640410927406852F99270EC0415002
S1134050423010F0FF240CC08FB7F894992725E460
S11340602093640421E0209374068FBF11E0F12EA5
S1134070772349F08FB7F8949927A09397028FBFBD
S113408088E00E9447028FB7F894082F1127809187
S1134090D3078A3029F40E9470060FBF0C94C128FC
S11340A00FBFFF2011F40C94C1282FB7F8943327C5
S11340B01092F8161092F7161092600481E0809323
S11340C0D3072FBF0E94C306882311F40C94C12880
S11340D08FB7F894992729E02093D3078FBF0E94C4
S11340E0D5020C94C1288091C1008F7B8093C100BC
S11340F08091C1008F778093C1001092D2071092F3
S11341004E048091C10088608093C1008091C100F9
S113411080618093C1008091C10080688093C10058
S11341208FB7F89499271092D30710924B0447C67F
S113413087E00E9447020C94C1288091C100877FC8
S11341408093C1008091C1008F7E8093C1000E9442
S113415058060C94C12810929402109293028FB7BF
S1134160F8949927409197028FBF8091980281110A
S113417043E0E0919102F0919202809199028823A8
S113418011F00C94C128138580914F02882349F4BF
S113419060916C0670916D066E177F0711F40E9492
S11341A06A0E1B3711F00C94C1281092F6020C947D
S11341B0C1288FB7F894992720919C0230919D02D1
S11341C0409192038FBF8FB7F894E42FFF27EE0F2F
S11341D0FF1FEF5AFD4F3183208320918F02442328
S11341E011F02B7F01C02D7F20938F0210929A0231
S11341F099278FBF0C94C12840E569E876E18FEFD9
S11342009FEF0E94A503882311F40C94C1280E94F7
S11342106E020C94C12890E08091E602882309F490
S113422091E0992309F0ADC7E091E402FF27EE0F76
S1134230FF1FE753FB4E808191810E94ED040E9491
S113424073029FC780E00E9466149BC78091D302CB
S1134250853011F08C3049F58FB7F8949927209167
S11342601D042F5F20931D048FBF80912804882391
S113427009F044C080910203882309F03FC0809173
S11342808816813049F490E08091CF07882309F49F
S113429091E0992399F102C0853081F183E0809304
S11342A002030E94E51385E01FC0843111F08130C0
S11342B041F58FB7F894992720911D042F5F20931F
S11342C01D048FBF809128048823C1F480910203C8
S11342D08823A1F480918816813081F081E0809355
S11342E002030E94E51386E0809328040E94C4120E
S11342F08091D3028F5F8093D30243C70E94C4127C
S113430009C0843051F48091EF168093F51685E04E
S11343108093D3020E94780234C7833019F4109238
S1134320D3022FC78631E1F40E94530660915004F2
S1134330709151040091B6031091B703060F171F33
S1134340660F771F6F5F7F4F0E94482E081B190B63
S113435022273327C901B8010E94321687E1CBCF47
S11343608E30E1F4609153047727882799272091B0
S11343707102309172024091730250917402220FC3
S1134380331F441F551F0E94292E0E9432168FE0AE
S11343908093D30281E00E94420CF3C6893069F411
S11343A06091F51677276A5F7F4F882777FD8095A0
S11343B0982F0E9432168AE09ECF8031F1F5109139
S11343C07506E090AE02F090AF02C0905802D09013
S11343D05902C7010E94A20DFC018091F80280835A
S11343E08091DF02882321F581E08093DF02D0925F
S11343F02515C0922415F092E102E092E0021F5FBD
S11344001093FB16109266020E9453066091B0024C
S113441077276F5F7F4F0E94482EAA27BB27AC01E6
S1134420BD0182E00E9463031092830381E163CFA4
S113443085E08093830383E16BCF873009F09AC0D2
S11344408EE093E00E94990364E08EE093E00E9482
S11344508203FC018091A702882319F080E090E098
S113446003C080916702992781838091F516828326
S11344708091B1028F5F8093B10281508083DF010C
S1134480139613828091A702882381F440E08091DF
S1134490E6022EE130E0281B31098091230499279C
S11344A0281739070CF041E0442319F08C918160FE
S11344B08C93E0905B02F0905C028091D60288239A
S11344C011F424E045C00091F80211270E941E0255
S11344D020910A0330910B0340910C0350910D037A
S11344E0621B730B840B950B60507E4F8F4F9F4F55
S11344F02AE096958795779567952A95D1F77093D5
S11345002A046093290460E58EE093E00E9482030C
S1134510FC0104833596A9E2B4E082E20D90019295
S11345208150E1F78091D7029091D802A091D902ED
S1134530B091DA020196A11DB11D8093D702909328
S1134540D802A093D902B093DA021092D60227E2DD
S11345504EE053E0B70180E80E9404132FEF3FEFD1
S113456030935C0220935B02882311F488E0C3CE6D
S11345708BE0CECE833149F484E18093D3020E9450
S1134580780281E00E949E0CFCC58B3009F0F9C5CD
S113459081E00E94830C84E1BBCE2FB7F8943327CB
S11345A080911F048093620282E08093D4022FBF23
S11345B080916202882309F0E4C5809120049091DF
S11345C021040E94D812E82EFF24EE2009F4D9C554
S11345D00E94000E6E2D8091200490912104B2C19E
S11345E08091280410922804853011F4129803C095
S11345F0863029F4129A8091D3028F5F89CE873056
S113460009F4BFC580932804BCC58FB7F8949927D3
S113461020911D042F5F20931D048FBF80912804D7
S1134620813009F07CC18091D1078F5F8093D107DD
S1134630863008F074C12090D4073090D50780915B
S11346400203882309F062C180918816853009F03D
S11346505DC10E94590D882309F458C18091101539
S1134660882309F053C1B10181E00E94CF0488235B
S113467011F490E00DC041E650E0240E351EF10126
S113468091818FE9C82E8FEFD82E2C0C3D1C9F7082
S11346908091D004981781F09093D004289885ECE9
S11346A08EBD0DB407FEFDCF8EB590689EBD0DB4D2
S11346B007FEFDCF8EB5289A289882EC8EBD0DB4E6
S11346C007FEFDCF8EB589E08EBD0DB407FEFDCF8C
S11346D08EB5289A0E94AA047B018C01B10183E063
S11346E00E94CF04882319F4E0E0F0E006C0D10171
S11346F08C918550F101E80FF11D289881E88EBD59
S11347000DB407FEFDCF8EB51EBC0DB407FEFDCF64
S11347108EB5289A8F71893079F0289882EC8EBDF5
S11347200DB407FEFDCF8EB586E08EBD0DB407FE39
S1134730FDCF8EB5289AEAC08FB7F89499272F9A9F
S113474040918400509185008FBF2F98289880E66F
S11347508EBDD1019C910DB407FEFDCF8EB59EBDDB
S1134760925062969FAF6297973010F4692F01C000
S113477067E091012F5F3F4FD901962F7D910DB4D2
S113478007FEFDCF8EB57EBD9150C1F76150290162
S1134790460E511C6F5F0894411C511C4E195F0951
S11347A04E555F4F3A01882477FC8094982C6E0C08
S11347B07F1C801E911E3097D1F12081E18082817F
S11347C0A3809927AA27BB27BA2FA92F982F882718
S11347D0332744275527522F442733272227FF24E2
S11347E0002711278701FF24EE242E293F29402B7F
S11347F0512BBB24CC24DD242A293B294C295D29B7
S1134800822B932BA42BB52B86199709A809B909D8
S11348108383292F3A2F4B2F552722839D01442729
S1134820552721838B2F9927AA27BB27808362963C
S11348309FAD6297961B0AC0D2012C910DB407FE5E
S1134840FDCF0894411C511C8EB52EBD9150A0F78C
S11348500DB407FEFDCF8EB5289A289882EC8EBD44
S11348600DB407FEFDCF8EB586E08EBD0DB407FEF8
S1134870FDCF8EB5289A3097D1F12081E1808281D5
S1134880A3809927AA27BB27BA2FA92F982F882757
S1134890332744275527522F442733272227FF2421
S11348A0002711278701FF24EE242E293F29402BBE
S11348B0512BBB24CC24DD242A293B294C295D29F6
S11348C0822B932BA42BB52B860D971DA81DB91DE8
S11348D08383292F3A2F4B2F552722839D01442769
S11348E0552721838B2F9927AA27BB278083B401BF
S11348F0A301C1010E948F0486E08093881684E09E
S1134900809302031092341583E004C085E0809301
S1134910341582E0809328040E94C41232C4109299
S113492028040E94C412F09034150091D407109109
S1134930D507F80182858F3309F023C40E94000E45
S11349406F2DC8010E948F161CC42FBF1AC48FB7C5
S1134950F894282F3327809105158823B1F3E0912B
S11349602915FF27EE0FFF1FEF58FC4F0190F08130
S1134970E02D6496FFAFEEAF64972FBF8285178159
S113498006818F3309F0CEC164968EAD9FAD6497D6
S11349900E94EB04FC01E08164966EAD7FAD6497E8
S11349A0645F7F4F6496CEACDFAC6497D6018D9183
S11349B06896BFAFAEAF68978D50482F5527812FAB
S11349C09927B82FAA27802F9927A82BB92B8FB7FF
S11349D0F894992720915D0230915E028FBFA2174F
S11349E0B30721F0AF5FBF4F09F09CC3E03809F46F
S11349F055C1E13809F0B0C164968EAD9FAD64979E
S1134A000E94DD0466969FAF8EAF6697DC01AC9082
S1134A10FC016180E28023800E941E02FF240027A3
S1134A201127102F0F2DFE2CEE24BB24CC24DD24C3
S1134A30DA2CCC24BB24AA24772488249924430187
S1134A4077246624A628B728C828D92833244424E0
S1134A505524A228B328C428D528EA28FB280C29E1
S1134A601D29E60EF71E081F191F6696EEADFFAD51
S1134A706697E382BB27A12F902F8F2D8283C801D5
S1134A80AA27BB278183E12EFF2400271127E08278
S1134A9064968EAD9FAD64970E94A20DFC01209197
S1134AA0F8028081821738F09927821B91098F3789
S1134AB091050CF43EC381E08093D6028091D30229
S1134AC08950823008F048C18091FD068D7F809323
S1134AD0FD066896EEADFFAD68978085278199271E
S1134AE0982F88273327822B932B90935C028093F3
S1134AF05B0287E08093D3020E9478028091CB020C
S1134B009091CC02A091CD02B091CE020196A11D4C
S1134B10B11D8093CB029093CC02A093CD02B093AD
S1134B20CE0280E00E94830C8091EB029091EC0213
S1134B3001969093EC028093EB0264968EAD9FAD48
S1134B4064970E948A0DFC0143814F5F43838081F7
S1134B5021819927782F66273327622B732BE280D4
S1134B608091A702882311F000E001C0042F6C9605
S1134B700FAF6C976B96EFAE6B976A967FAF6EAF85
S1134B806A975091E702F090E802352F10E02BC0AD
S1134B90E32FFF27EE0FFF1FEE0FFF1FEB5CFA4E14
S1134BA080819181A281B3816C96EFAD6C976B96F5
S1134BB02FAD6B976A96CEACDFAC6A978C159D05CA
S1134BC009F0BAC2A21709F0B7C2BE1708F4B4C2FA
S1134BD08091AB029091AC0201969093AC028093C9
S1134BE0AB02BAC01F5F1F1599F6ACC289E080936F
S1134BF0E70203C051505093E702E091E702FF2718
S1134C00EE0FFF1FEE0FFF1FEB5CFA4EA0962CADCC
S1134C103DAD4EAD5FADA097208331834283538376
S1134C208091E8028A3018F48F5F8093E8028091C3
S1134C30A702882309F090C00E948C057C01892B6F
S1134C4051F48091A9029091AA0201969093AA022C
S1134C508093A90214C064968EAD9FAD64970E94A0
S1134C60AB05813099F48091A9029091AA02019632
S1134C709093AA028093A902C7010E94ED04809137
S1134C80D302873009F068C08BE02CC08CE00E940E
S1134C9047026496FFAEEEAE64975EC064968EAD36
S1134CA09FAD64970E94C51464969FAF8EAF6497BE
S1134CB053C08091D3028031C1F46496EEADFFAD50
S1134CC06497878126819927982F88273327822BF9
S1134CD0932B20915802309159028217930709F0BF
S1134CE03BC08FE08093D30237C0813109F034C0D8
S1134CF06496EEADFFAD6497878126819927982F3E
S1134D0088273327822B932B209158023091590204
S1134D108217930709F58091AE029091AF020E9429
S1134D20A3131AC0812F9927582F4427802F99271E
S1134D30482B592B8FB7F894992720915D02309115
S1134D405E028FBF4217530719F04F5F5F4F21F484
S1134D508FB7F89499278FBF9FB7F894809129153E
S1134D60E82FFF27EE0FFF1FEF58FC4F6496CEACE1
S1134D70DFAC6497D182C0828F5F80932915833022
S1134D8010F0109229158091051581508093051516
S1134D90892F99278FBFDBCD8FB7F894992710926D
S1134DA0CE071092CD071092871610928616109295
S1134DB004031092030310926B0610926A0619CA38
S1134DC02FB7F8943327809165048093650282E0BD
S1134DD08093D5022FBF80916502882309F0D1C149
S1134DE0209A289A80918816882309F074C08EEF3F
S1134DF091E0019701960197E1F716982F9886E0C4
S1134E0090E0019701960197E1F7169A289883ECB0
S1134E108EBD0DB407FEFDCF8EB51EBC0DB407FECE
S1134E20FDCF8EB5289A289882EC8EBD0DB407FE6E
S1134E30FDCF8EB588E08EBD0DB407FEFDCF8EB5D7
S1134E40289A8EEF91E0019701960197E1F728984F
S1134E508EEC8EBD0DB407FEFDCF8EB58DE48EBDF8
S1134E600DB407FEFDCF8EB5289A289889EC8EBD27
S1134E700DB407FEFDCF8EB587EC8EBD0DB407FED5
S1134E80FDCF8EB5289A289885EC8EBD0DB407FE0B
S1134E90FDCF8EB580E88EBD0DB407FEFDCF8EB577
S1134EA0289A1092D0048DE080931E04289888ECF0
S1134EB08EBD0DB407FEFDCF8EB58DE68EBD0DB44F
S1134EC007FEFDCF8EB5289A2F9A81E0809388162D
S1134ED00E94EF0356C10E94E51353C11092DF02F2
S1134EE0609166028091E0029091E1020E944E1668
S1134EF048C10E943A1A45C1E0906104F0906204EE
S1134F0043E060E070E0C7010E94AA01082F42E07C
S1134F1063E070E0C7010E94AA0111270F5F1F4FD1
S1134F20682F77276F5F7F4F88E190E00E945C2EA7
S1134F30069FC001079F900D169F900D11248E832C
S1134F40893410F088E48E830E941E0269837A8378
S1134F508B839C8322E030E0E20EF31EF092FC028D
S1134F60E092FB024DE150E0E40EF51EF092FA02ED
S1134F70E092F90281EE9FEFE80EF91E1092FD0215
S1134F8045E065E070E0C7010E94AA018F8345E017
S1134F906AE070E0C7010E94AA019927982E8887C9
S1134FA0CF80AA24BB2466C01C1529F458E1C52E61
S1134FB0C10E81E006C0191519F448E1942E910E32
S1134FC080E09C1408F04EC0882311F095E004C0E2
S1134FD0FE01E10FF11D9085112309F495E0DD2414
S1134FE004C0D394A3E0DA1689F081E0A1969FAFC0
S1134FF0A1970E949B02A1969FADA197882389F750
S1135000DD2021F4FE01E10FF11D07C0B1E0DB1644
S113501031F4FE01E10FF11D9F5F918717C0012F4D
S1135020112739E0E32EF12CEC0EFD1EE2E0DE1632
S113503031F4E00EF11E9150D7019C9307C084E037
S11350400E949B02E00EF11EF70180832091FB0277
S11350503091FC028091F9029091FA028217930731
S113506030F48FC0FE01E10FF11D89E081870894BF
S1135070A11CB11C1A2D8E81A81608F495CF70C0FE
S11350808091490290914A02AA27BB278093C803C2
S1135090892F9A2FAB2FBB278093C7031092C60387
S11350A01092C5039091E4089093C9038091E50898
S11350B08093CA038091E6088093CB03392F3695F9
S11350C020E010C0E22FFF27DF01A453BC4FEE0FF6
S11350D0FF1FE152F74F80858295807F9185890F6C
S11350E08C932F5F231771F72FE449EB53E06FEF95
S11350F07FEF8BE70E94E902882309F042C0809188
S1135100F702882329F4109881E08093F70203C002
S1135110109A1092F70281E08093F60232C00E9446
S11351207D022FC0E03809F4B9CDE13809F014CE7E
S1135130C0CD1092D602C2CC3F5F3A3008F452CDB3
S113514030E050CDA0960FAFA0976F96EFAE6F975B
S11351506E967FAF6EAF6E97552309F447CD4ACD57
S1135160AFEDB8E0FE01319680E501900D928150DB
S1135170E1F781E08093F5028091F602882309F437
S11351807FCFC05ADF4F0FB6F894DEBF0FBECDBF3E
S1135190DF91CF911F910F91FF90EF90DF90CF900F
S11351A0BF90AF909F908F907F906F905F904F9043
S11351B03F902F900895809126158F3FB1F0282FAE
S11351C03327F901E856FC4F8081809326158F3FE1
S11351D011F48093F6168FEF80832F3F31F0822FE6
S11351E00E94901E81E090E0089580E090E0089590
S11351F0EF920F931F93CF93DF93EFB6F89414BEFF
S113520088E10FB6F89480936000109260000FBE9E
S11352104AE150E06FEF70E088E993E00E94D12EFC
S11352208FEF809326158093F61656985E985498BF
S11352305C9880916F008F7D80936F00209A289AEC
S1135240279A2F980E9A169A8DE694E090938F03DE
S113525080938E03109258048AE58093240481E09D
S11352608093810080E28093B60083E08093B10054
S113527080918400909185004AE7209184003091C8
S113528085002817390708F44150442311F0C90157
S1135290F4CF9091B2008091B2008917E1F320918C
S11352A08400309185009091B2008091B2008917FA
S11352B0E1F38091840090918500821B930B4096CA
S11352C0B5E096958795BA95E1F790932815809364
S11352D027151092B1008091B100809381008091D4
S11352E081008093B6001092B20010928500109253
S11352F084008FEF87BB87B386BB8091B60085712E
S1135300E1F70A9A099A089A129A119A109A18B807
S11353108FEF87B90C98149810928500109284002E
S113532080916F00816080936F0080918100887FFD
S11353308260809381001092950010929400809175
S1135340710081608093710080919100887F8260F8
S1135350809391000E94DB288823E1F7E8EDF7E0D1
S11353608FE299E0819391938D599F4F28E0E43126
S1135370F207C1F78EE18093D1041092590480E0C2
S113538092E09093B7038093B6039AE090938D03D1
S113539088E08093EF1680E28093910383E080930A
S11353A0530411E0109390039093230483E390E05B
S11353B0909351048093500480E098E2A0E0B0E020
S11353C08093B2039093B303A093B403B093B50353
S11353D08091490290914A020196AA27BB278093A3
S11353E0540490935504A0935604B09357040FEFBC
S11353F00093630480E00E940E0D2DE535E13093A7
S113540072032093710320EC35E1309374032093ED
S1135410730323E236E130937603209375032FEF71
S11354203FEF3093161520931515309318152093DC
S1135430171530931A152093191530931C152093C2
S11354401B1530931E1520931D1540E090E0882312
S113545009F491E0911709F441E0809149022EE7A3
S113546032E0411709F0AAC18295807F809301033D
S1135470009322041092E7021092E802309304177A
S11354802093031712E006E0609127157091281508
S113549088279927ACE0660F771F881F991FAA9564
S11354A0D1F720E031EE40E050E00E946F2E215011
S11354B030402093C400832F99278093C500109314
S11354C0C0000093C2001092C1002093CC008093CE
S11354D0CD001093C8000093CA001092C90084E460
S11354E090E0909312158093111510926904109214
S11354F06B048AE08093D3071092600410926404D2
S113550010922A151092F8161092F7161092EE16B1
S11355101092740610920C1510920B1584E080936F
S11355204B041092D70710921F1510924F0410923B
S11355307106109270061092630610926206109221
S1135540A6028091B60080628093B600249A80916E
S1135550B60081FDFCCF82E48093B0008091B60058
S113556080FDFCCF83E08093B1008091B60083FD81
S1135570FCCF86EE8093B3008091700082608093AC
S113558070000E94D7060E94DB288823E1F78E2D45
S113559099278FBF789410E007C01130B1F0113013
S11355A018F01230C9F522C01092880380E090ED03
S11355B0A2E0B0E08093890390938A03A0938B03C5
S11355C0B0938C03E8E8F3E001C11092770880E01F
S11355D090E6A9E0B0E08093780890937908A093CE
S11355E07A08B0937B08E7E7F8E0F0C0109205036F
S11355F080E090E1AEE0B0E080930603909307036F
S1135600A0930803B093090340E050E16EE070E01A
S113561082E00E948F190FC0409101005091020056
S11356206091030070910400812F0E948F191F5F05
S1135630133008F4B2CF0E9458061092A70280914A
S1135640D302882331F484E08093D3028DE00E9456
S1135650470211E01093570280E00E94661480E034
S113566093E09093B7038093B60360918D037727FB
S11356708827992720E033E040E050E00E94292E5B
S113568024E630E040E050E00E946F2E3093510455
S113569020935004109390030E941E02AB01BC019E
S11356A0E1E0EE2E00E014E020E030E081E00E9432
S11356B044030E94CA0520914B0230914C02409150
S11356C04D0250914E020E946F2E6F5F7F4F8F4F9D
S11356D09F4F0E9425178FB7F894482F552753C022
S11356E080917000992783709070892B19F4E5E0FC
S11356F0F0E014C08091B6008A71E1F78091B300A4
S11357009091B200891B8C3038F08091B200853FB3
S113571018F4E3E0F0E002C0E2E0F0E080916E0013
S11357208670E9F480916F008E72C9F40CB407FCA2
S113573016C08091C100807E91F48091C900807E62
S113574071F48091BC0082FD0AC080917A0087FFC9
S113575003C081E090E005C085E090E002C080E0F5
S113576090E023B78E1708F4E82FFF27E050FD4F91
S1135770E491207F2160E22BE3BF78948895F8942C
S113578083B78E7F83BF809126158F3F09F4A8CFFE
S1135790282F3327F901E856FC4F80818093261582
S11357A08F3F11F48093F6168FEF80832F3F09F417
S11357B097CF4FBF822F0E94901E8DCF8295807FFE
S11357C0809301038FEF8093220454CE4181528150
S11357D063817481812F0E948F191F5FDECE55274C
S11357E086179707E8F0861B970B9C013070F90128
S11357F04E9F90014F9F300D5E9F300D1124232F3B
S11358003327892F9927FC014E9FC0014F9F900D8C
S11358105E9F900D1124860F971F280F391F1EC0FD
S11358209B01281B390BC901232F3327F9014E9FF4
S113583090014F9F300D5E9F300D11249070FC013C
S11358404E9FC0014F9F900D5E9F900D1124892F94
S11358509927280F391F621B730B9B01C9010895F7
S11358606F927F928F929F92AF92BF92CF92DF926C
S1135870EF92FF920F931F93CF93DF9359016A0125
S1135880C02FDD27602E772488249924621773079C
S11358908407950730F19B01AC012A193B094C0997
S11358A05D09C9019070BC01C69FC001C79F900DDE
S11358B0D69F900D1124892F99277C010027112749
S11358C0232F342F452F5527C401B3010E94292EBD
S11358D06A0D7B1D8C1D9D1DE60EF71E081F191FEA
S11358E026C079018A01E61AF70A080B190B552715
S11358F0412F302F2F2DC401B3010E94292E2FEFE9
S1135900E222FF24CE9D9001CF9D300DDE9D300D0F
S11359101124232F332744275527260F371F481FC9
S1135920591F86017501E21AF30A040B150BC8010D
S1135930B701DF91CF911F910F91FF90EF90DF900E
S1135940CF90BF90AF909F908F907F906F9008956D
S1135950ACE2B0E0EEEAFCE20C94912E222E332E5F
S1135960442E552E662E772E882E992EFE013196C2
S1135970A8E01192AA95E9F729823A824B825C82C7
S11359806D827E828F829886FE013996B8E01192EC
S1135990BA95E9F7A986BA86CB86DC86ED86FE86BB
S11359A00F87188B89819A81AB81BC8189A79AA7BB
S11359B0ABA7BCA77C018D018FEF9FEFA0E0B0E007
S11359C0E822F9220A231B2389A59AA5ABA5BCA525
S11359D01D014424552489859A85AB85BC858DA3F6
S11359E09EA3AFA3B8A75C016D018FEF9FEFA0E06A
S11359F0B0E0A822B922CA22DB228DA19EA1AFA1C8
S1135A00B8A53D0188249924C801B701A6019501D0
S1135A100E94292E69A37AA38BA39CA3C801B70172
S1135A20A40193010E94292E7B018C01C201B101C2
S1135A30A60195010E94292E5B016C01C201B101EE
S1135A40A40193010E94292E3B014C01EA0CFB1C8A
S1135A500C1D1D1D89A19AA1ABA1BCA19D014427C8
S1135A6055272E0D3F1D401F511F2A153B054C0580
S1135A705D0540F480E090E0A1E0B0E0680E791E9E
S1135A808A1E9B1ECA01AA27BB27860D971DA81D27
S1135A90B91D8D8F9E8FAF8FB8A3A90133272227FD
S1135AA089A19AA1ABA1BCA1A070B070280F391F25
S1135AB04A1F5B1F298F3A8F4B8F5C8FA98CBA8C3E
S1135AC0CB8CDC8CED8CFE8C0F8D18A1FE017196B5
S1135AD098E011929A95E9F7ED8AFE8A0F8B188F58
S1135AE02D813E814F8158856DA17EA18FA198A5FE
S1135AF00E94292E3B014C012D853E854F855889F6
S1135B0069A57AA58BA59CA50E94292E2D893E897D
S1135B104F89588D260F371F481F591F260D371DD3
S1135B20481D591D2D8B3E8B4F8B588F6D887E8859
S1135B308F88988C2A2D3B2D4C2D5D2D662D772D2D
S1135B40882D992DE2E1AC960C94AD2EA0E1B0E045
S1135B50ECEAFDE20C94912E222E332E442E552E87
S1135B60662E772E882E992E002309F466C088E0CD
S1135B70FE01319611928A95E9F729833A834B8382
S1135B805C836D837E838F829887E0E2E01B1E1620
S1135B90CCF52D813E814F815885602F772767FD95
S1135BA07095DA01C901062E04C0B695A79597959C
S1135BB087950A94D2F78D879E87AF87B88B04C0E8
S1135BC0220F331F441F551FEA95D2F789819A810A
S1135BD0AB81BC8104C0B695A795979587956A95C6
S1135BE0D2F7282B392B4A2B5B2B29873A874B87F3
S1135BF05C8729843A844B845C846D847E848F849E
S1135C0098881BC01D861E861F86188A2E2F332750
S1135C1027FD3095309521953F4F8D819E81AF8131
S1135C20B88504C0B695A795979587952A95D2F718
S1135C3089879A87AB87BC87DCCF222D332D442DEF
S1135C40552D662D772D882D992DE2E160960C94C3
S1135C50AD2E629FD001739FF001829FE00DF11D74
S1135C60649FE00DF11D929FF00D839FF00D749FD2
S1135C70F00D659FF00D9927729FB00DE11DF91F7E
S1135C80639FB00DE11DF91FBD01CF0111240895DB
S1135C90AA1BBB1B51E107C0AA1FBB1FA617B7074E
S1135CA010F0A61BB70B881F991F5A95A9F780956A
S1135CB09095BC01CD01089597FB092E07260AD0C3
S1135CC077FD04D0E5DF06D000201AF470956195C5
S1135CD07F4F0895F6F7909581959F4F0895A1E21F
S1135CE01A2EAA1BBB1BFD010DC0AA1FBB1FEE1F52
