S01700006275696C642F697269732F6D61696E2E7372656343
S11300000C9481010C94A0010C94A0010C94A00107
S11300100C94A0010C94A0010C94A0010C94A001D8
S11300200C94A0010C94A0010C94A0010C94A001C8
S11300300C94A0010C94E10B0C94A0010C94A70661
S11300400C9433130C9469130C94280B0C94330BF9
S11300500C943E0B0C94A0010C94A0010C94A001F0
S11300600C94850A0C9478080C94A0010C94FB0859
S11300700C94A0010C94A0010C94A0010C94520ABD
S11300800C94310A0C943C0A0C94470A0C94650AAB
S11300900C94140A0C94A0010C94260A0C94A0014C
S11300A00C94A0010C94A0010C94A0010C94A00148
S11300B00C94A0010C94A0010C94A0010C94A00138
S11300C00C94A0010C94A0010C94A001B41AE71A9A
S11300D0AB1A661B721B5A1C7F1C841C901CBB1C15
S11300E0DE1CED1C061D0B1D6D1E711E881E2A20B4
S11300F0BC2220223422DC26C222CD220000211080
S1130100422063308440A550C660E770088129917D
S11301104AA16BB18CC1ADD1CEE1EFF13112100225
S113012073325222B5529442F772D66239931883CD
S11301307BB35AA3BDD39CC3FFF3DEE362244334F1
S113014020040114E664C774A44485546AA54BB51D
S113015028850995EEE5CFF5ACC58DD553367226C5
S113016011163006D776F6669556B4465BB77AA76D
S113017019973887DFF7FEE79DD7BCC7C448E55811
S11301808668A7784008611802282338CCC9EDD9BD
S11301908EE9AFF9488969990AA92BB9F55AD44A65
S11301A0B77A966A711A500A333A122AFDDBDCCB0D
S11301B0BFFB9EEB799B588B3BBB1AABA66C877C31
S11301C0E44CC55C222C033C600C411CAEED8FFD5D
S11301D0ECCDCDDD2AAD0BBD688D499D977EB66E05
S11301E0D55EF44E133E322E511E700E9FFFBEEFAD
S11301F0DDDFFCCF1BBF3AAF599F788F8891A9816F
S1130200CAB1EBA10CD12DC14EF16FE18010A10058
S1130210C230E3200450254046706760B983989348
S1130220FBA3DAB33DC31CD37FE35EF3B1029012A8
S1130230F322D2323542145277625672EAB5CBA514
S1130240A89589856EF54FE52CD50DC5E234C324F8
S1130250A01481046674476424540544DBA7FAB7E8
S11302609987B8975FE77EF71DC73CD7D326F23648
S11302709106B01657667676154634564CD96DC934
S11302800EF92FE9C899E9898AB9ABA94458654898
S113029006782768C018E1088238A3287DCB5CDB88
S11302A03FEB1EFBF98BD89BBBAB9ABB754A545AE8
S11302B0376A167AF10AD01AB32A923A2EFD0FED54
S11302C06CDD4DCDAABD8BADE89DC98D267C076C38
S11302D0645C454CA23C832CE01CC10C1FEF3EFF28
S11302E05DCF7CDF9BAFBABFD98FF89F176E367E88
S11302F0554E745E932EB23ED10EF01E00020E06D1
S11303000C0411241FBECFEFD1E2DEBFCDBF12E03B
S1130310A0E0B2E0EEE1FFE500E00BBF02C0079011
S11303200D92AC38B107D9F716E1ACE8B2E001C0E0
S11303301D92A734B107E1F70E9412270C948E2F67
S11303400C9400008FB7F894992708958FBF0895EF
S1130350282F9FB7F894E82FFF27E157FC4F80819F
S11303608F3F81F4E0913616E21771F40BC02093AD
S1130370661404C0FF27E157FC4F208320933616F0
S113038020E007C025E005C0809166148F3F91F7F7
S1130390EECF892F99278FBF822F992708958AE05E
S11303A00E94A801992708958BE00E94A80199272B
S11303B008958DE00E94A80199270895EF920F9364
S11303C01F93AE2D99E0899FF0011124E659F94F4E
S11303D04083518362837383048315832683378325
S11303E0A17080858E7F8A2B8260808781E00E9445
S11303F0A8011F910F91EF9008957FB7F894609131
S1130400B20020918A0330918B0340918C03509168
S11304108D03B99B11C08091B3009091B200280F55
S1130420311D411D511D2F5F3F4F4F4F5F4F290F0E
S1130430311D411D511D04C0260F311D411D511D8B
S1130440872F99278FBFCA01B9010895AF92BF9230
S1130450CF92DF92EF92FF920F931F93F82E5A01DF
S11304606B010E94FD01AB01BC0181E0E82E960105
S113047085018F2D0E94DE011F910F91FF90EF9057
S1130480DF90CF90BF90AF900895613518F080E071
S113049090E008950C960895665F0E9445020895C1
S11304A0FC018181992780739070816498688183AD
S11304B0892F9927828308950F931F938C010E949B
S11304C05002005A1F4FF80110821F910F91089596
S11304D01F931FB7F89480912E16882341F484E06B
S11304E00E94A801882319F481E080932E16812F9D
S11304F099278FBF1F910895382FFA01422F213574
S113050018F082E090E008956683872F9927858309
S1130510338721878091930290919402892B19F05B
S113052085E090E008952FB7F894332785E0809311
S1130530960210929702F0939202E093910282E065
S113054090E09093940280939302109299021092F7
S11305509802445F409395022FBF8FB7F894282FD9
S11305603327809163078A3011F42FBF19C02FBF3E
S11305709FB7F8948091FB03882311F020E006C014
S113058081E08093FB031092FC0321E0892F9927DB
S11305908FBF222329F00E94680280E090E0089532
S11305A0109294021092930281E090E00895CF9308
S11305B0DF93DB01FB0135968183892F9927EB01BA
S11305C08D8384E686838091FC059091FD05892BBB
S11305D019F085E090E029C07093FD056093FC0557
S11305E0448380914F02882319F480E090E01DC079
S11305F08681EB016D817727762F6627218133274A
S1130600622B732B10924F02242FAD010E947C02A7
S11306109927282F882339F081E080934F02109284
S1130620FD051092FC05822F9927DF91CF91089543
S1130630882319F08CB5806402C08CB58F7B8CBD87
S113064008950F931F931FB7F8948091D5028230B9
S113065099F580916502882379F58091630220E001
S113066030E08F3F11F421E030E0232BF1F49FEFD1
S1130670909365028F3F19F42FEF30E00DC0282FBF
S11306803327F901ED50FC4F8081809363028F3F43
S113069011F49093640290832093F50381E0809396
S11306A0D50284E10E94A80105C08FEF8093650202
S11306B01092D50201E001C000E0812F99278FBF7D
S11306C01FB7F8948091D502882311F40E9418036F
S11306D0812F99278FBF90E0013009F491E081E0E8
S11306E09827892F99271F910F910895882319F02E
S11306F08CB5806802C08CB58F778CBD08950F933C
S11307001F9380E00E9418030FB7F8941127229AD0
S11307102398219A209A8CB580618CBD80E00E9438
S113072076038CB5877F8CBD8CB58B7F8CBD81E0C7
S11307300E9418038DB581608DBD8CB58C7F8CBDF6
S11307400FBF1F910F910895FB01E05AFF4F21E065
S113075030E002C0220F331F8A95E2F72095808192
S1130760822380830895FB01E05AFF4F21E030E0AB
S113077002C0220F331F8A95E2F78081822B808387
S11307800895CF92DF92EF92FF920F931F938C0103
S11307906A017B01BC0180E00E94B303045A1F4F2D
S11307A0F801C082D182E282F3821F910F91FF90FF
S11307B0EF90DF90CF9008958FB7F8942091EC03D9
S11307C03091ED034091EE035091EF03E0918400EA
S11307D0F0918500B09B08C02F5F3F4F4F4F5F4F94
S11307E0E0918400F091850099278FBFC901772794
S11307F066279F0144275527622B732B842B952B47
S11308000895FB01E05AFF4F21E030E002C0220FBF
S1130810331F8A95E2F780818223992708950F93E5
S11308201F938C0160E50E944502F801208121514B
S1130830820F911D1F910F9108950B960895AC019D
S1130840209161042E3118F081E090E008958091A8
S1130850EB03682F620F712D711DFB016E31710561
S113086008F07E97EE0FFF1FE859F84F518340833D
S11308702F5F2093610480E090E00895FC01808163
S11308808151992708951F93CF93DF93EC01162F7D
S113089062E00E944502FC0191818091A7028823B5
S11308A009F04DC09F3F09F44AC09F5F2091670241
S11308B0291740F480916802981708F040C090937B
S11308C068023DC01123C1F130E0CF59DF4F888168
S11308D0C156D040893C08F031E0332311F42F3F56
S11308E059F59093670228C089859927982F8827FE
S11308F028853327822B932B909359028093580297
S113090082818093B00280818F5F80935A028091AC
S1130910BD029091BE02A091BF02B091C0020196A7
S1130920A11DB11D8093BD029093BE02A093BF028E
S1130930B093C00281E02AC0838180FDD5CF80912D
S1130940BD029091BE02A091BF02B091C002019677
S1130950A11DB11D8093BD029093BE02A093BF025E
S1130960B093C0028091C1029091C202A091C302CF
S1130970B091C4020196A11DB11D8093C102909350
S1130980C202A093C302B093C40280E09927DF910E
S1130990CF911F9108958BE490E008952091610414
S11309A0222319F440E050E016C08091EB03E82FB5
S11309B0FF27EE0FFF1FE859F84F40815181118244
S11309C010822150209361048F5F8093EB038E315A
S11309D011F41092EB03CA010895AC012091E702CF
S11309E02E3118F081E090E008958091E602E82F1E
S11309F0FF27EE0FFF1FE75FFB4E518340838F5F9E
S1130A008093E6028E3111F41092E6022F5F209358
S1130A10E70280E090E008952F923F924F925F9218
S1130A206F927F928F929F92AF92BF92CF92DF92FA
S1130A30EF92FF920F931F93CF93DF93CDB7DEB75F
S1130A4029970FB6F894DEBF0FBECDBF6FB7698389
S1130A50F8942090E6033090E7034090E803509028
S1130A60E903662477248824EEE4AE2E73E8B72ED7
S1130A70CC24DD24EE24FF2400E010E0222D332DCD
S1130A80442D552D662D772D882D90E00E94B62A91
S1130A902A833B834C835D836E837F838887998716
S1130AA0822E932EA42EB52E2401350100E20E943D
S1130AB0B42BA22EB32EC42ED52EA301920156958B
S1130AC04795379527952A0D3B1D4C1D5D1D57FFF6
S1130AD005C05F772F5F3F4F4F4F5F4F2093E60373
S1130AE03093E7034093E8035093E903E9818E2FA1
S1130AF099278FBFCA01B90129960FB6F894DEBFB2
S1130B000FBECDBFDF91CF911F910F91FF90EF905A
S1130B10DF90CF90BF90AF909F908F907F906F9019
S1130B205F904F903F902F9008950E940C05DC0138
S1130B30CB010895809163078A3021F48091DD030D
S1130B40843021F081E080938E02089586E00E9433
S1130B50A80110928E0208952FB7F894332780933A
S1130B60C600E0ECF0E08081806480832FBF0895AC
S1130B70FC016115710519F481E090E008958091FC
S1130B80F6039091F703892B19F085E090E008951E
S1130B907093541460935314F093F703E093F603A3
S1130BA01092DF031092DE0381E08093E0038091D2
S1130BB0C00080648093C0008091C10080648093F1
S1130BC0C100808121E030E03093DF032093DE0315
S1130BD00E94AC0580E090E008958FB7F8949927BF
S1130BE020919F022E7F20939F022EE72093AD0336
S1130BF08FBF61E070E08DEA93E00E94B805992709
S1130C000895DF92EF92FF920F931F938FB7F8949A
S1130C10282F3327D22E9091B3008091B20047B38E
S1130C20981711F041FF02C02FBF71C08091E403F7
S1130C308823E1F10E94FD01E0907B03F0907C03A6
S1130C4000917D0310917E032091701430917114F2
S1130C5040917214509173146E197F09800B910B9B
S1130C60621773078407950720F01092E40371E07C
S1130C701EC02E0D3F1D401F511F80918A0390916D
S1130C808B03A0918C03B0918D03281B390B4A0B65
S1130C905B0B273E31054105510540F4822F22307C
S1130CA010F070E005C070E082E002C070E086EEF3
S1130CB0682F61508091B60083FDFCCF8091B20013
S1130CC0681709F46F5F20918A0330918B03409178
S1130CD08C0350918D03DA01C9010196A11DB11D48
S1130CE0860F911DA11DB11D82179307A407B50797
S1130CF010F4622F60958091B60083FDFCCF609361
S1130D00B300DFBE772319F080E00E94A8011F9191
S1130D100F91FF90EF90DF900895AFB7F894BB2741
S1130D20E1E0E093E40360937B0370937C0380939E
S1130D307D0390937E032093701430937114409339
S1130D40721450937314AFBF0E94010608951F924A
S1130D500F920FB60F9211248F938091B00080935D
S1130D60B0008091B60081FDFCCF8F910F900FBE33
S1130D700F901F901895ECEFF0E06927660FF11DB6
S1130D80E60FF11DC895982F802D3196C8959025B2
S1130D900895982F80919A02882389F5992379F5EB
S1130DA031E030939A028091500280939B0220910B
S1130DB08F02822F817080938903809155029091D4
S1130DC0560290939D0280939C028091900280939E
S1130DD09E0232273170267EE32FFF27EE0FFF1F7E
S1130DE0EF5AFD4F80819181909356028093550272
S1130DF0232B20938F0289E00E94A80108958091FB
S1130E008F0280FF02C08B7F01C08D7F80938F0291
S1130E1008950F931F93082F162F8091DD038130BF
S1130E20D9F0813038F0823009F44AC0833009F0B7
S1130E3028C159C0002309F458C110924C141092CF
S1130E404B141092670710925F141092E1031092F2
S1130E5001061092000639C1002309F046C18091B1
S1130E600006909101060E94BB06909301068093B0
S1130E70000682E08093DD0310935F14143409F0BC
S1130E8000C125C18695869503C080918F02869501
S1130E90817009F0F6C080918F02992311F084606B
S1130EA001C0826080938F0280918F02877E886068
S1130EB080938F02109290028FEF8093500215C19D
S1130EC0002309F0DEC06093E10380910006909155
S1130ED001060E94BB06909301068093000683E0FE
S1130EE08093DD0302C1809167078F3F09F4C9C075
S1130EF0002309F461C0823008F4C3C0E0914B14AC
S1130F00EE2309F4EBC04E2F4150E42FFF27E55B9D
S1130F10FB4E82819927382F2227442311F4E2E0E3
S1130F2002C0E42FE150FF27E55BFB4E8281992745
S1130F30282B392B80910006909101062817390738
S1130F4009F09FC080E00E94C9063091E1038091BE
S1130F50F2052091F305982F9F5F963008F090E0FA
S1130F60921771F0E82FFF27EE50FA4F32838F5F0C
S1130F708093F205863010F01092F2050E94680208
S1130F8010924C1410924B1494E09093DD03109241
S1130F90670710925F141092E103109201061092F9
S1130FA0000680919F028D7F80939F0280918E0224
S1130FB0882309F49AC084C0823008F44EC0E091BA
S1130FC04C14FF27E55BFB4E8281482F5527342FB5
S1130FD020918F02822F8695869586958370992716
S1130FE08130910519F00297F9F40EC0277E206133
S1130FF020938F02442311F485E001C080E08093A4
S113100090023093500210C080919002833660F4B5
S1131010E0915502F0915602E80FF11D4083809152
S113102090028F5F8093900280914C14E82FFF27E9
S1131030E55BFB4E62818F5F80934C14833010F02C
S113104010924C14772780910006909101060E941B
S1131050BB06909301068093000680914B14E82F01
S1131060FF27E55BFB4E12838F5F80934B14833025
S113107010F010924B14809167078F5F809367077D
S113108034C010924C1410924B1414E01093DD03EE
S11310901092670710925F141092E10310920106F8
S11310A01092000680919F028D7F80939F0281E0C1
S11310B00E94C90680918E02882329F01093DD03D3
S11310C00E949A0512C0002381F081E009CF80912B
S11310D08F02982F917080FDD5CED7CE80914F147A
S11310E09927382F222742E01CCF1F910F91089592
S11310F01F920F920FB60F9211242F933F934F9389
S11311005F936F937F938F939F93AF93BF93EF936B
S1131110FF938091C00087FF42C06091C600E091B8
S11311200206F0910306309719F180912C169091E4
S11311302D16E80FF91F6083019690932D16809366
S11311402C162091391630913A168217930738F1EC
S11311501092030610920206809162078330F9F020
S11311608091C1008F778093C1001092620717C0ED
S11311706E3719F460E081E010C080919F026D37F2
S113118021F4826080939F020AC081FF05C08D7F95
S113119080939F0280E2682780E00E940907FF9104
S11311A0EF91BF91AF919F918F917F916F915F91DB
S11311B04F913F912F910F900FBE0F901F90189554
S11311C0982F8D57823068F480919F0281608093BC
S11311D09F0280E28927809366078DE78093AD03A1
S11311E002C09093AD0361E070E08DEA93E00E9449
S11311F0B8059927089578941F920F920FB60F920D
S11312001124FF920F931F932F933F934F935F9358
S11312106F937F938F939F93AF93BF93CF93DF93FA
S1131220EF93FF932091DE033091DF0380915314F9
S1131230909154142817390780F4E091F603F09143
S1131240F703E20FF31F80812F5F3F4F3093DF03DB
S11312502093DE030E94AC05D1C01092F7031092D4
S1131260F6031092E0038091C1008F7B8093C1004C
S1131270FFB6F89480919F0280FF0EC08E7F80930A
S11312809F02809166078093AD0361E070E08DEA70
S113129093E00E94B805AFC080916307843009F4DD
S11312A08CC0853040F4823021F18330B8F5813030
S11312B009F09CC00DC0863009F48DC0863008F456
S11312C083C0873009F48EC0883009F08FC091C084
S11312D08091F4030E94E008082F83E08093630761
S11312E06091F40380913716909138160E94BB06E2
S11312F010C080916A140E94E008082F83E0809354
S1131300630760916A1480913716909138160E9491
S1131310BB06909338168093371666C0E091040696
S1131320FF27EE0FFF1FE650FC4F80810E94E0086C
S1131330082F10910406C12FDD27FE01EE0FFF1FB9
S1131340E650FC4F608180913716909138160E94C8
S1131350BB0690933816809337162091F2032F5FC3
S11313602093F203113039F580919602E0919102B5
S1131370F0919202E80FF11DE0818F5F8093960255
S113138090919502981730F482E08093FB0340E03B
S113139050E002C04E2F5527DE01AA0FBB1FFD01EE
S11313A0E750FC4F8081823031F02F3F21F0A6506E
S11313B0BC4F4C9319C084E012C0809137160E9430
S11313C0E008082F85E00BC0809138160E94E008E1
S11313D0082F86E004C00E94ED05082F87E0809363
S11313E0630702C088E003C0002329F089E08093EA
S11313F063070E9468028F2D99278FBFFF91EF9199
S1131400DF91CF91BF91AF919F918F917F916F9118
S11314105F914F913F912F911F910F91FF900F90EA
S11314200FBE0F901F9018951F920F920FB60F9238
S113143011248F938091C80087FF02C08091CE0051
S11314408F910F900FBE0F901F90189578941F9254
S11314500F920FB60F9211240F900FBE0F901F9092
S1131460189578941F920F920FB60F9211240F9033
S11314700FBE0F901F90189578941F920F920FB67D
S11314800F9211240F900FBE0F901F90189578940F
S11314901F920F920FB60F9211240F900FBE0F9050
S11314A01F90189578941F920F920FB60F921124E3
S11314B08F939F9380919600909197009F918F9125
S11314C00F900FBE0F901F90189578941F920F9253
S11314D00FB60F9211242F933F938F939F932FB79F
S11314E0F89433278091FE059091FF05019690931F
S11314F0FF058093FE052FBF9F918F913F912F9100
S11315000F900FBE0F901F9018951F920F920FB659
S11315100F9211240F931F932F933F934F935F9335
S11315206F937F938F939F93AF93BF93CF93DF93E7
S1131530EF93FF932EB5E0915D07F0915E0730972E
S113154039F08091FA059091FB05E80FF91F20838B
S11315508091FA059091FB0501969093FB05809389
S1131560FA0580E00E947603C091FA05D091FB054C
S11315702091FA023091FB02C217D30708F042C04F
S11315800091C6151091C71540915D0750915E07F3
S1131590CE010A962817390708F4C901DA01AC0FFD
S11315A0BD1FF801EC0FFD1F9C012150304015C0F8
S11315B00115110531F080818EBD0DB407FEFDCFFC
S11315C004C01EBC0DB407FEFDCF8EB541155105F8
S11315D009F08C93219611963196C217D30740F3E4
S11315E081E00E9476030115110531F00C0F1D1FD7
S11315F0F80180818EBD01C01EBCD093FB05C09351
S1131600FA0511C010925E0710925D071092C7157B
S11316101092C6151092FB021092FA021092FB056A
S11316201092FA058EB5FF91EF91DF91CF91BF91A2
S1131630AF919F918F917F916F915F914F913F9166
S11316402F911F910F910F900FBE0F901F9018951F
S113165078941F920F920FB60F9211240F900FBE21
S11316600F901F90189578941F920F920FB60F92B7
S113167011240F900FBE0F901F90189578941F920D
S11316800F920FB60F9211242F933F938F939F9332
S1131690AF93BF932FB7F89433278091EC039091C5
S11316A0ED03A091EE03B091EF030196A11DB11DCE
S11316B08093EC039093ED03A093EE03B093EF03B8
S11316C02FBFBF91AF919F918F913F912F910F9019
S11316D00FBE0F901F901895CF92DF92EF92FF925A
S11316E00F931F93182F0E94FD016B017C018091C1
S11316F0F202813009F58091EE029091EF02A091FF
S1131700F002B091F102A7019601281B390B4A0B94
S11317105B0B6091710270917202809173029091DF
S1131720740203EF0E943E2A609371027093720266
S11317308093730290937402112341F0C092EE02DD
S1131740D092EF02E092F002F092F1021F910F9119
S1131750FF90EF90DF90CF9008956091F30288237B
S113176099F06623A1F07727762F662743EF8091BF
S11317707702909178020E94FD29909378028093D9
S113178077021092F30208956F5F6093F302089555
S11317906091F202882389F07727762F662743EF3A
S11317A080917502909176020E94FD2990937602B1
S11317B0809375021092F20208956F5F6093F202B3
S11317C008951F920F920FB60F9211242F933F93F7
S11317D04F935F936F937F938F939F93AF93BF9335
S11317E0EF93FF938091B0008093B0008091B60096
S11317F081FDFCCF8091B30099270196AA27BB27CE
S113180020918A0330918B0340918C0350918D0376
S1131810280F391F4A1F5B1F20938A0330938B03C1
S113182040938C0350938D039091B1009068809104
S1131830B60080FDFCCF9093B1009F778091B600F5
S113184080FDFCCF9093B10078940E940106FF9133
S1131850EF91BF91AF919F918F917F916F915F9124
S11318604F913F912F910F900FBE0F901F9018959D
S11318700E940C05DC01CB016091B00277276F5FF9
S11318807F4F0E94562C08950E943E04865099274B
S11318900895EF92FF920F931F938C010E94CB0443
S11318A08B5F682FC8010E9445027C01C8010E9419
S11318B0440CE80EF11CC7011F910F91FF90EF90AB
S11318C00895EF92FF920F931F938C0160E50E949D
S11318D045027C01C8010E943E048150E80EF11CBF
S11318E0C7011F910F91FF90EF9008950F931F93DD
S11318F0CF93DF93182F0FB7F8948091D5028823E4
S113190011F40E947F03802F99278FBF8FB7F8941B
S1131910C82FDD272C2F8091D502882361F481E024
S11319208093D5021093F50384E10E94A801CFBFF0
S113193080E090E021C0E12FFF27ED50FC4F808133
S11319408F3F89F4E0916402E11789F40CC010938D
S1131950630204C0FF27ED50FC4F10831093640210
S113196080E090E002C085E090E02FBF05C0809148
S113197063028F3F79F7EBCFDF91CF911F910F91E6
S113198008958FB7F894282F3327922F80916502FA
S1131990882331F48091D502823011F42FBF13C013
S11319A09FBF8FB7F894282F33278091D5028823BF
S11319B069F482E08093D502109265022FBF0E94E1
S11319C07F03209A289A81E090E008952FBF80E059
S11319D00E94760C80E090E008951F93982F1FB723
S11319E0F8948091D402823099F58091620289172B
S11319F079F58091600220E030E08F3F11F421E01E
S1131A0030E0232BF1F49FEF909362028F3F19F49F
S1131A102FEF30E00DC0282F3327F901EC54FC4F91
S1131A208081809360028F3F11F4909361029083D0
S1131A302093B10381E08093D4028EE00E94A80138
S1131A4005C08FEF809362021092D40221E001C09E
S1131A5020E0812F99278FBF90E0213009F491E095
S1131A6081E09827892F99271F91089580E00E948B
S1131A70ED0C99270895EF92FF920F931F93CF9344
S1131A80DF93E5EDF5E1C091A402D091A502C03544
S1131A90D10510F0C0E5D0E080E5DF011D928A9504
S1131AA0E9F72091A4023091A5028091A0029091BF
S1131AB0A10200E010E07F0113C0FC01EE59FB4FCE
S1131AC0E0812115310539F0019660E971E00E9449
S1131AD0562C21503040D701ED937D010F5F1F4FED
S1131AE00C171D0751F73093A5022093A40290937D
S1131AF0A1028093A00240E569EC75E18FEF9FEFAE
S1131B000E94D702882319F08AE00E94A801DF917D
S1131B10CF911F910F91FF90EF900895662361F488
S1131B208091A4029091A502892B19F00E943B0D8B
S1131B3008951092A60208958AE00E94A8010895CB
S1131B40EF92FF920F931F93CF93DF93182F7B0194
S1131B50042FE82FFF27EE0FFF1FE450FA4F1182E6
S1131B60108210924F02A091FC05B091FD051097D0
S1131B7021F080916F1480FF0EC081E080934F02AA
S1131B8003C083E00E94A8011123C9F4602FC70198
S1131B900E948E0D14C0FD01359624813327ED017A
S1131BA06D817727762F662781819927682B792B7A
S1131BB0AD0186810E947C02882331F3E2CFDF915C
S1131BC0CF911F910F91FF90EF9008958FB7F894E4
S1131BD0282F33278091A602813021F42FBF80E083
S1131BE090E0089540E08091A4029091A502892B91
S1131BF009F441E0442321F02FBF81E090E00895EF
S1131C0081E08093A6022FBF0E943B0D80E090E00C
S1131C1008951F93CF93DF93182F8091A6028823F2
S1131C2061F48091A4029091A502883C910528F06A
S1131C3081E08093A6020E943B0D8FB7F894C82FD1
S1131C40DD272091A4023091A50281E020393807D4
S1131C50D8F48091A2029091A302FC01EE59FB4FAB
S1131C601083019660E971E00E94562C9093A302C0
S1131C708093A2022F5F3F4F3093A5022093A402CA
S1131C80CFBF80E090E003C0CFBF8FEF9FEFDF9125
S1131C90CF911F910895665F0E9445020895AF9207
S1131CA0BF92CF92DF92EF92FF920F931F93CF9345
S1131CB0DF9380915014882309F4C4C00E94C10C9E
S1131CC0882309F4BFC08FB7F8949927C091F00313
S1131CD0D091F1038FBF1092501428988FE88EBDD5
S1131CE00DB407FEFDCF8EB51EBC0DB407FEFDCFAF
S1131CF08EB5289A982F8091F902833011F087309D
S1131D0031F485E08093C81588E08093F902A92E08
S1131D10BB24A2FE67C08091F902863019F41092A8
S1131D20F90203C0882309F05DC0943009F049C06A
S1131D30289886E88EBD0DB407FEFDCF8EB51EBC77
S1131D400DB407FEFDCFFEB4289A2FE1F222809154
S1131D50B603982F969596953F2D391B830F809344
S1131D60B6030091850310918603B80181E00E94B7
S1131D70A403B80182E00E94B3030F591F4FF80176
S1131D80F1820E94DC036B017C01009185031091B8
S1131D908603B80180E00E94B303045A1F4FCC1994
S1131DA0DD092797CE01AA2797FDA095BA2F8C0DA0
S1131DB09D1DAE1DBF1DF80180839183A283B38353
S1131DC00EC0609185037091860382E00E94A40393
S1131DD0609185037091860380E00E94A40385E0EE
S1131DE08093F902A3FE2EC09091F902943069F415
S1131DF085E08093C8151092F902109274149093A0
S1131E00BA0380E10E94A8011DC09530D9F4209145
S1131E10EA03289886E88EBD0DB407FEFDCF8EB583
S1131E201EBC0DB407FEFDCF8EB5289A8F71922F7C
S1131E3096959695891B280F2093EA0389E0809351
S1131E40F90208C02091F902222309F475C229304D
S1131E5009F082C1289880E28EBD0DB407FEFDCF43
S1131E608EB51EBC0DB407FEFDCF8EB5482F552789
S1131E70433008F4AEC2842F99278E3591050CF0B7
S1131E80A8C21EBCE0918503F09186034083A42F71
S1131E90A250A73010F49A2F01C097E0BF016F5FE2
S1131EA07F4F292FFB0140E050E00DB407FEFDCF2A
S1131EB08EB51EBC808381914827042E4295407FB5
S1131EC04025052E542F42954F70042646955427DD
S1131ED04527440F440F440F4025215031F79150BA
S1131EE0FB01E90FF11D9F5F31968FB7F894282FFE
S1131EF0332760E080914514833008F461E02FBFFC
S1131F00662309F45EC0A91B9A2F18C00DB407FEFE
S1131F10FDCF8EB51EBC808381914827042E429547
S1131F20407F4025052E542F42954F700426469538
S1131F3054274527440F440F440F4025915030F750
S1131F400DB407FEFDCF8EB51EBC9A012827022EC4
S1131F502295207F2025032E322F22952F700226D2
S1131F60269532272327220F220F220F20250DB476
S1131F7007FEFDCF8EB51EBC2827022E2295207F9A
S1131F802025032E322F22952F70022626953227E4
S1131F902327220F220F220F20250DB407FEFDCF89
S1131FA08EB5E0918503F0918603EF59FF4F80834E
S1131FB0289A85E08093C8151092F902232B31F0FA
S1131FC0B7C10DB407FEFDCF8EB503C2E090850303
S1131FD0F090860357010894A11CB11CF701818578
S1131FE020859927582F44273327422B532B809140
S1131FF08E03282F3327F901EE0FFF1FEB5AFB4EF8
S113200080819181609160078417950769F4F901D3
S1132010E05DF94E8081861709F464C0862F8F5FD6
S11320208093600780831BC010E000E080E090E0B4
S1132030C5E5D4E1E0E3F6E1C62EC394DF01782FD1
S11320409C01888199818417950759F420938E0304
S11320508C91861709F446C0C0926007CC9210E8B0
S113206028C08081962F981B191710F4192F022F5E
S11320707F5FC901019611962296319685309105AC
S1132080F1F67530B1F400938E03A02FBB27FD0148
S1132090EE0FFF1FEB5AFB4E51834083862F8F5F59
S11320A080936007FD01E05DF94E8083A45CB94E26
S11320B01C9290916007892F8F778F3779F41F379F
S11320C068F0E0E3F6E1292F207880818F67891397
S11320D02083319636E1E533F307B9F780918E0317
S11320E0282F3327F5019281A22FBB27FD01E45C41
S11320F0F94E808180FF07C0FD01EA5BFB4E8081C1
S1132100981729F102C081608083AA5BBB4E9C931F
S1132110CFB6F894809145148330B0F4E0916914FB
S1132120E80FE33008F0E350FF27EE0FFF1FE859F4
S1132130FC4F00811181F182E0828F5F809345140E
S113214081E10E94A80178018C2D99278FBFF0921C
S11321508603E0928503E3C0822F8150833008F028
S1132160BCC08150823008F03BC09091C8159130BA
S1132170B9F530E080915F07882309F431E0332317
S113218079F12F989093F80390935F0760918400FE
S1132190709185002FB7F894409184005091850088
S11321A0CA01861B970B03968B52934018F0CA0101
S11321B0039603C0CB01855D9C4F009711F481E029
S11321C090E00197909389008093880082E086BB19
S11321D090916F00926090936F0033272FBF68C077
S11321E0233009F042C08091C815833009F097C0AC
S11321F00E94C10C8823C9F128988FE88EBD0DB4C4
S113220007FEFDCF8EB51EBC0DB407FEFDCF8EB507
S1132210289A8091810080648093810080E286BB4B
S113222080916F00806280936F009091B003289832
S113223088EC8EBD0DB407FEFDCF8EB590669EBDB5
S11322400DB407FEFDCF8EB5289A289882EC8EBD7A
S11322500DB407FEFDCF8EB586E08EBD0DB407FE2E
S1132260FDCF8EB5289A84E023C08091F902815075
S1132270823000F58091C8158530E1F40E94C10CCC
S11322808823C1F0289882EC8EBD0DB407FEFDCFE3
S11322908EB583E08EBD0DB407FEFDCF8EB5289AB2
S11322A080916F008F7D80936F001092501483E0B3
S11322B08093C8159091F902913041F48091C8152A
S11322C08330B1F52F9A9093C81525C0923039F513
S11322D08091C815833061F51EC0273001F50E9436
S11322E0C10C8823E1F09091B003289888EC8EBD4E
S11322F00DB407FEFDCF8EB590669EBD0DB407FEEE
S1132300FDCF8EB5289A8091C815853021F484E0DC
S11323108093C81504C088E08093F90204C08091BA
S1132320F902883029F41092F9028FE00E94A80182
S11323308091F9028823C9F48091C815853091F4FD
S113234080915014882371F48091BA03823051F43F
S113235081E08093BA0380E10E94A8018091F90290
S1132360882319F482E10E94A80180915F078230DA
S113237019F510925F078091F8038130E9F4809198
S1132380C815823021F483E08093C81513C080916E
S1132390F902863079F41092F902289881E88EBD0A
S11323A00DB407FEFDCF8EB51EBC0DB407FEFDCFE8
S11323B08EB5289A0E941F138FB7F894282F3327BD
S11323C08091AF03813061F081E08093AF032FBF30
S11323D070CC289A85E08093C8151092F902A8CF92
S11323E01092AF032FBFDF91CF911F910F91FF90F8
S11323F0EF90DF90CF90BF90AF9008958FB7F8948F
S1132400282F33278091AF0381508093AF03803806
S113241011F02FBF089581E08093AF032FBF0E9476
S11324204F0E08951F93FC018FE382878091F80279
S11324308F5F8093F80283832FB7F89433278091BA
S1132440AF038F5F8093AF032FBF8091BA038823BC
S113245011F015E00DC0F0936507E093640781E087
S11324608093BA031092610780E10E94A80110E0F2
S11324700E94FE11812F99271F910895EF92FF92D8
S11324800F931F93CF93DF93082F7B01EA01122F41
S1132490213518F086E090E089C08A81298140E0E6
S11324A09927982F88273327822B932B87749C7C1A
S11324B08154984809F441E0442319F4CE010E9460
S11324C05002135F18832FB7F894332780915D026D
S11324D090915E022FBF8887892F992789872FB70C
S11324E0F894332780915F022FBF99278C831D8234
S11324F0CE010E941D04FC010083EE828F2D9927DA
S11325008F838FB7F894282F33278091D4028823A0
S113251071F482E08093D402109262022FBFCE0144
S11325200E9412129927182F882399F00FC02FBFE9
S1132530D093B303C093B2038FB7F894C82FDD27A9
S11325402C2F8091D402882399F406C080E00E9445
S1132550ED0C812F99272AC081E08093D402109238
S1132560B1038EE00E94A801CFBF80E090E01EC0BE
S11325708091B4038F3F89F4E0916102EE2369F006
S113258010C01092600204C0FF27EC54FC4F10826C
S11325901092610280E090E002C085E090E02FBFDD
S11325A005C0809160028F3F79F7EBCFDF91CF9127
S11325B01F910F91FF90EF9008951F93AC0120910C
S11325C0E0022223C1F18091E1029091E2024817D6
S11325D0590789F5213071F4809184068D7F8093A9
S11325E0840683E08093660286E10E94A80180E06D
S11325F090E023C02230F9F48FB7F8949927209102
S1132600AF032F5F2093AF038FBF8091BA03815034
S1132610823010F015E00AC084E08093BA0383E0AE
S11326208093741480E10E94A80110E00E94FE11BE
S1132630812F992702C081E090E01F9108958FB700
S1132640F894282F33278091AF03882329F08068DA
S11326508093AF032FBF089581E08093AF032FBF12
S11326600E944F0E089578941F920F920FB60F9206
S113267011242F933F934F935F936F937F938F9383
S11326809F93AF93BF93EF93FF93E6E8F0E08081CD
S11326909181208131818FB7F89499273093F10388
S11326A02093F00321E0209350148FBF0E941F1346
S11326B0FF91EF91BF91AF919F918F917F916F9116
S11326C05F914F913F912F910F900FBE0F901F90EC
S11326D0189578941F920F920FB60F9211242F938E
S11326E03F934F935F936F937F938F939F93AF9396
S11326F0BF93EF93FF9380916F008D7F80936F0062
S113270078949FB7F89480915F07813019F482E040
S113271080935F07892F99278FBF0E941F13FF9112
S1132720EF91BF91AF919F918F917F916F915F9145
S11327304F913F912F910F900FBE0F901F901895BE
S11327401F938FB7F89499272091AF032F5F20939D
S1132750AF038FBF8091BA03882311F015E023C023
S11327608091F9028823E1F48091C815813049F4FD
S113277090E080915F07882309F491E0992381F028
S113278005C0853019F489E090E00CC083E08093A3
S1132790F9020E941F1385E08093BA0310E003C07E
S11327A085E090E0182F0E94FE11812F99271F9138
S11327B008951F938FB7F89499272091AF032F5F43
S11327C02093AF038FBF8091BA03882311F015E0E3
S11327D018C08091F902882389F48091C81581304A
S11327E019F489E090E00CC081E08093F9020E9422
S11327F01F1386E08093BA0310E003C085E090E0E5
S1132800182F0E94FE11812F99271F9108951F935D
S1132810CF93DF93382F80915702882309F452C055
S11328208091E7029927282F882309F44BC033238A
S113283029F480918703281708F444C0E091E50245
S1132840FF27EE0FFF1FE75FFB4EC081D181CE0152
S11328500E943E04182F8091AE029091AF02892B02
S113286089F58091D302853068F1873141F48091F4
S11328708D068D7F80938D068DE00E94A801909136
S1132880D302892F8651823010F0953011F48CE0F8
S11328900BC0963011F48DE007C09B3021F09331CA
S11328A011F0943119F48EE08093D302D093AF02E7
S11328B0C093AE0211501093050681E080937A0311
S11328C01092AD02DF91CF911F9108951F93CF9382
S11328D0DF93EC01FB014530D0F114818091DF02DC
S11328E0811738F09927811B91098F3791050CF4D2
S11328F043C18091DB029091DC0201969093DC024B
S11329008093DB02455055273596BF018BEB93E04E
S11329100E94D62C1093DF020E94FD012091BB037C
S11329203091BC03322F2227330F330F442755270E
S1132930621B730B840B950B60930103709302036A
S1132940809303039093040385E10E94A80180917E
S1132950D3028231B1F58FB7F894992740915D0283
S113296050915E028FBF8F812E819927982F8827DF
S11329703327822B932B48175907F9F08F5F9F4F0A
S113298009F409C1898528859927982F8827332731
S1132990822B932B20915802309159022817390722
S11329A009F0F9C080918D068D7F80938D068EE0AD
S11329B08093D3028DE00E94A8018091D3028231DA
S11329C029F08F3019F08E3009F08CC08FB7F8944D
S11329D0992740915D0250915E028FBF8F812E81B5
S11329E09927982F88273327822B932B4817590729
S11329F011F060E05BC0898528859927982F882786
S1132A003327822B932B2091580230915902281797
S1132A10390709F0C0C064E0CE010E944502FC0100
S1132A20908180915A02891709F0B5C02091AE02B5
S1132A303091AF021092AF021092AE0280918D06D7
S1132A408D7F80938D0640917A03E091E502FF2704
S1132A50EE0FFF1FE75FFB4E808191812817390736
S1132A60C1F4442399F4C9010E941F048091E50232
S1132A709091E702992351F08F5F8093E5028E31A4
S1132A8011F41092E50291509093E70281E00E94C4
S1132A90071480E00E94C80B80E00E946C0B8EE05B
S1132AA08093D3028DE00E94A80161E0CE010E94D0
S1132AB043042091AE023091AF02882321F0232BEE
S1132AC029F080E109C0232B09F065C080918D06AF
S1132AD08D7F80938D0683E18093D3028DE00E94E5
S1132AE0A80159C08051823008F055C089852885D5
S1132AF09927982F88273327822B932B20915802CC
S1132B00309159028217930709F045C08F812E81B5
S1132B109927582F44273327422B532B8FB7F894E8
S1132B20992720915D0230915E028FBF42175307AF
S1132B3091F14F5F5F4F51F52EC060E0CE010E94CE
S1132B404304882319F01093D302C8CF8FE08093F5
S1132B50D30221C08091AE029091AF020E94DD1297
S1132B608823C9F460E0CE010E944304882399F0CD
S1132B7081E08093B2020FC08091DD029091DE0269
S1132B8001969093DE028093DD02E1CE1091D30290
S1132B90103101F7D2CFCE01DF91CF911F9108956B
S1132BA0AF92BF92CF92DF92EF920F931F93E09177
S1132BB07902E330F9F0FF27EE0FFF1FEE0FFF1F3E
S1132BC0E259FC4FA080B180C280D380A114B1042B
S1132BD0C104D10421F487E10E94A8010BC00E9422
S1132BE0FD01AB01BC01F1E0EF2E9601850184E00B
S1132BF00E94DE011F910F91EF90DF90CF90BF9064
S1132C00AF900895AF92BF92CF92DF92EF920F935D
S1132C101F935B016C010E94FD01AB01BC01B1E09B
S1132C20EB2E9601850180E00E94DE011F910F9139
S1132C30EF90DF90CF90BF90AF9008952F923F9286
S1132C405F926F927F928F929F92AF92BF92CF9238
S1132C50DF92EF92FF920F931F93CF93DF935B0169
S1132C606C01C0E0D0E0EAE6F6E0608561FF19C2DD
S1132C702081318142815381E480F580068117816E
S1132C80D601C501821B930BA40BB50B8E159F05B2
S1132C90A007B10708F405C260FF03C06D7F608719
S1132CA008C02E0D3F1D401F511F208331834283D6
S1132CB05383C23009F4C8C0C33030F4CC2359F074
S1132CC0C13009F0F4C1A3C0C33009F489C1C430D0
S1132CD009F0EDC1E2C16CE08CE098E00E9445028D
S1132CE08C018CE098E00E94500210926C08809154
S1132CF08C0290918D02019690938D0280938C02A8
S1132D000197F8018183892F992780830E94CB043E
S1132D108550823008F470C08091EA029091EB02F1
S1132D2001969093EB028093EA028091E7028E3140
S1132D3029F00E94CE04EC01009751F48091A9027D
S1132D409091AA0201969093AA028093A90254C07A
S1132D50FC01ACE0B8E083E60D9001928150E1F70C
S1132D6089E18883CE010E94490CFC0180914902CB
S1132D7090914A028183892F992780838091A802A8
S1132D808F5F8093A80281508283138281E28483BF
S1132D900E94FD017B018C01CE010E940F04FC0105
S1132DA0E382BB27A12F902F8F2D8283C801AA27EE
S1132DB0BB278183E12EFF2400271127E082CE0167
S1132DC00E94ED04882361F48091A702882321F0F6
S1132DD08BE00E94A80110C080E00E9407140CC080
S1132DE08091A9029091AA0201969093AA028093DD
S1132DF0A902CE010E941F0460914B0270914C0203
S1132E0080914D0290914E020E94021650C10E9480
S1132E10FD019F938F937F936F93809149029091CB
S1132E204A029F938F9380E092E09F938F930E9436
S1132E30E62C0E94E60D8DB79EB708960FB6F8945F
S1132E409EBF0FBE8DBF33C150903B16C091E102AF
S1132E50D091E20220906414309065148FB7F894F6
S1132E60282F33278091E302882319F02FBF25E010
S1132E70B3C081E08093E3022FBF0E94FD013B01B8
S1132E804C0160936906CE010E940F04FC0180810D
S1132E90E1802281A380332744275527542F432FD1
S1132EA0322F22279927AA27BB27B82FAA27992789
S1132EB08827FF24002711278701FF24EE248E2969
S1132EC09F29A02BB12BBB24CC24DD248A299B2948
S1132ED0AC29BD29282B392B4A2B5B2B20936B144F
S1132EE030936C1440936D1450936E14CE010E9471
S1132EF00F04FC018081E1802281A38033274427D1
S1132F005527542F432F322F22279927AA27BB272F
S1132F10B82FAA2799278827FF240027112787017C
S1132F20FF24EE248E299F29A02BB12BBB24CC2473
S1132F30DD248A299B29AC29BD29282B392B4A2B2E
S1132F405B2B8091E402680E711C811C911C261974
S1132F503709480959092383BB27A52F942F832FA9
S1132F608283CA01AA27BB278183252F33274427BD
S1132F705527208394E0590E252DAE01B10181E837
S1132F800E943E129927D82E882311F1E0906B14E9
S1132F90F0906C1400916D1410916E14CE010E9487
S1132FA00F04FC01E382BB27A12F902F8F2D828376
S1132FB0C801AA27BB278183E12EFF2400271127FC
S1132FC0E0821092E3028D2D9927282F882321F483
S1132FD082E08093E0026BC02093660286E15EC0CB
S1132FE09091D302892F8051823008F460C09731C8
S1132FF0A1F48091AE029091AF02892B61F480918B
S1133000A702882331F4809167028F3F11F486E18F
S113301040C085E03EC08CE03CC09231A9F19F30B5
S1133020A9F5209168022F3F79F0809167028F3FC4
S113303059F099270196820F911D62E070E00E9479
S11330406A2C6093670203C08FEF809367028FEF4F
S1133050809368028091CF029091D0020196909360
S1133060D0028093CF028091A702882369F48091D3
S113307067028F3F49F48091D1029091D202019668
S11330809093D2028093D1028EE003C09A3019F457
S11330908BE08093D3028DE001C087E10E94A801F8
S11330A006C021963996C530D10509F0DECD81E000
S11330B00E94A801DF91CF911F910F91FF90EF9093
S11330C0DF90CF90BF90AF909F908F907F906F9044
S11330D05F903F902F900895AF92BF92CF92DF926E
S11330E0EF920F931F935B016C010E94FD01AB01F2
S11330F0BC01E1E0EE2E9601850183E00E94DE0131
S11331001F910F91EF90DF90CF90BF90AF900895F3
S11331106623E9F48091C5029091C602A091C7028A
S1133120B091C8020196A11DB11D8093C502909370
S1133130C602A093C702B093C80282E18093D3026F
S113314062E070E080E090E00E946C180895809145
S1133150C9029091CA0201969093CA028093C9024F
S1133160633069F48091B202813049F41092B20262
S113317080E18093D3028DE00E94A801089580919C
S11331808D0681FF02C08FE001C08EE08093D302E0
S11331900895DF92EF92FF920F931F93CF93DF93E3
S11331A0EC01D62E0E941D04FC01808199278038F1
S11331B021F0813809F07BC047C0DD20A9F58F815B
S11331C09927982F88272E813327822B932B8F5F63
S11331D09F4F99F08091B7029091B802A091B902E3
S11331E0B091BA020196A11DB11D8093B7029093CC
S11331F0B802A093B902B093BA028091B30290913D
S1133200B402A091B502B091B6020196A11DB11D00
S11332108093B3029093B402A093B502B093B60224
S11332208091D3028F5F0AC08091BB029091BC024F
S113323001969093BC028093BB0284E18093D302F5
S11332408DE00E94A80133C01092E302DD2059F4FE
S11332501091E4020E94FD0120916906621B160F81
S113326016951093E402E0906B14F0906C140091A6
S11332706D1410916E14CE010E940F04FC01E382C0
S1133280BB27A12F902F8F2D8283C801AA27BB278C
S11332908183E12EFF2400271127E0821092E002AF
S11332A06D2D8091E1029091E2020E948818DF91D5
S11332B0CF911F910F91FF90EF90DF900895CF92DF
S11332C0DF92EF92FF920F931F93CF93DF932FB769
S11332D0F89433278091B1038093620282E0809353
S11332E0D4022FBF80916202882309F053C08091D9
S11332F0B2039091B3030E941212C82EDD24CC2095
S113330009F448C080E00E94ED0CC091B203D09152
S1133310B303CE010E941D04FC01808199278038EB
S113332019F08138B9F510C08091BB029091BC02AC
S113333001969093BC028093BB0284E18093D302F4
S11333408DE00E94A80126C01092E302E0906B1465
S1133350F0906C1400916D1410916E14CE010E94C3
S11333600F04FC01E382BB27A12F902F8F2D8283B2
S1133370C801AA27BB278183E12EFF240027112738
S1133380E0821092E0026C2D8091E1029091E202C1
S11333900E948818DF91CF911F910F91FF90EF90B9
S11333A0DF90CF900895AF92BF92CF92DF92EF92C9
S11333B00F931F93CF93DF93E82E5A016B018091F3
S11333C07902CE2DDD278330A1F4FE01EE0FFF1F1D
S11333D0EE0FFF1FE259FC4F4083518362837383D6
S11333E0E0927902C954DC4F8883E81609F47CC062
S11333F047C08E01000F111F000F111F02591C4FEF
S1133400F80140835183628373838091960681FF20
S113341017C00E94FD0120918E0630918F064091C5
S1133420900650919106621B730B840B950B6A0DE9
S11334307B1D8C1D9D1DF8016083718382839383A2
S113344050917902E52FFF27EE0FFF1FEE0FFF1FAC
S1133450E259FC4F80819181A281B381A816B906FB
S1133460CA06DB0610F5C954DC4F5883E092790292
S1133470F3E0EF16C9F1F801A080B180C280D380D7
S1133480A114B104C104D10421F487E10E94A8016C
S11334902BC00E94FD01AB01BC01E1E0EE2E9601C0
S11334A0850184E00E94DE011FC0252F33272954A3
S11334B03C4FF9014081433091F0542FE42FFF2712
S11334C0EE0FFF1FEE0FFF1FE259FC4F8081918129
S11334D0A281B381A816B906CA06DB0630F7F90142
S11334E0E082C954DC4F4883DF91CF911F910F9143
S11334F0EF90DF90CF90BF90AF9008952F923F92BE
S11335004F925F926F927F928F929F92AF92BF92EF
S1133510CF92DF92EF92FF920F931F93CF93DF939B
S1133520CDB7DEB7AA970FB6F894DEBF0FBECDBFF6
S113353019A21AA21BA21CA2E82FFF27E831F10549
S113354010F00C94DC26EA59FF4FEE0FFF1F059094
S1133550F491E02D099480916F14882311F40C9454
S1133560DC2690E001E08EC08091AE03882361F5F3
S1133570209160143091611440916214509163144D
S1133580EFB7F894FF2760917B0370917C038091DF
S11335907D0390917E03E0907014F090711400917B
S11335A07214109173146E0D7F1D801F911FEFBF55
S11335B02093601430936114409362145093631405
S11335C01092AE030E948D060E94FD0144C00E9429
S11335D0FD014B015C018FB7F89499271092E40325
S11335E08FBF9FEFC92E9FEFD92E9FEFE92E9FE744
S11335F0F92E60E0EAE6F6E0808581FF1CC0808158
S11336009181A281B381A5019401281B390B4A0B36
S11336105B0BDA01C9012481358146815781281B5E
S1133620390B4A0B5B0B2C153D054E055F051CF44D
S113363069017A0161E0399636E0E739F307E1F68A
S1133640662311F40C94DC261C141D041E041F04B0
S113365034F0C501B4010E941E160C94DC26C092FD
S11336606014D0926114E0926214F092631481E0C9
S11336708093AE03A7019601C501B4010E948D0693
S11336800C94DC2620916F14802F8223C1F0E92F43
S1133690FF27EE0FFF1FE450FA4F40815181118242
S11336A01082802F8095282320936F14992339F456
S11336B063E0CA010E948E0D000F91E0E3CF9F5F8B
S11336C0983010F00C94DC26000FDCCF80914F0270
S11336D0E82FFF27EE0FFF1FE450FA4F608171813E
S11336E041E045C18FB7F89410922E1620916307DC
S11336F040E0283009F441E030E0293009F431E0B9
S1133700442311F4332351F010926307E09104062B
S1133710FF27EE0FFF1FE750FC4F108299278FBF42
S1133720442311F4332331F19FB7F89480916A1440
S11337308F5F80936A148091F403833479F4209129
S1133740F3058091F205821779F0822F8F5F8093C1
S1133750F305863048F01092F30506C0A0E0442338
S113376009F4A1E071E002C0A0E070E0892F99277C
S11337708FBF06C0222311F010E06CC0A0E070E0FF
S11337808FB7F894992720918E028FBF222341F09E
S11337908FB7F89499272AE0209363078FBF42C01C
S11337A08FB7F89499276091F9034091FB038FBF79
S11337B08FB7F894282F332750E09091F205809129
S11337C0F305981709F451E02FBF552341F56623FB
S11337D031F55FB7F89482E08093F9038FB7F894DA
S11337E0282F332740E09091F2058091F305981734
S11337F009F441E02FBF442311F080E006C0E091BA
S1133800F305FF27EE50FA4F82818093FA0383E495
S11338108093F40310920406852F99270EC041501B
S1133820423010F010E00BC08FB7F894992725E4CC
S11338302093F40321E0209304068FBF11E0772343
S113384049F08FB7F8949927A09397028FBF88E027
S11338500E94A8018FB7F894E82EFF248091630793
S11338608A3029F40E949A05EFBE0C94DC26EFBE40
S1133870112311F40C94DC262FB7F89433271092FB
S11338803816109237161092F20381E08093630782
S11338902FBF0E94ED05882311F40C94DC268FB70A
S11338A0F894992729E0209363078FBF0E94680248
S11338B00C94DC268091C1008F7B8093C1008091A1
S11338C0C1008F778093C100109262071092E003C9
S11338D08091C10088608093C1008091C1008061A3
S11338E08093C1008091C10080688093C1008FB72C
S11338F0F8949927109263071092DD03B4C587E00A
S11339000E94A8010C94DC268091C100877F8093DB
S1133910C1008091C1008F7E8093C1000C94DC268D
S113392010929402109293028FB7F89499274091C1
S113393097028FBF80919802811143E020919102F8
S11339403091920280919902882311F00C94DC2624
S113395080914F02882311F00C94DC266091FC05C1
S11339607091FD056217730711F00C94DC260E9418
S1133970A00D0C94DC268FB7F894992720919C0213
S113398030919D02409189038FBF8FB7F894E42F43
S1133990FF27EE0FFF1FEF5AFD4F31832083209145
S11339A08F02442311F02B7F01C02D7F20938F02BF
S11339B010929A0299278FBF0C94DC2640E569EC9B
S11339C075E18FEF9FEF0E94D702882311F40C94C6
S11339D0DC260E94CF010C94DC2690E08091E70263
S11339E0882309F491E0992311F00C94DC26E091EA
S11339F0E502FF27EE0FFF1FE75FFB4E80819181F9
S1133A000E941F040E94D4010C94DC2680E00E94D2
S1133A1007140C94DC268091D302853011F08C308D
S1133A2019F40E94A01306C0843111F0813041F4CE
S1133A300E94D913882369F48091D3028F5F30C028
S1133A40843059F480912F168093351685E0809345
S1133A50D3020E94D9010C94DC26833021F4109205
S1133A60D3020C94DC268631F9F40E94950560910A
S1133A70E2037091E3030091AB031091AC03060FD2
S1133A80171F660F771F6F5F7F4F0E94562C081B0E
S1133A90190B22273327C901B8010E946C1887E14A
S1133AA08093D3020C94DC268E30E9F46091E50314
S1133AB077278827992720917102309172024091CB
S1133AC0730250917402220F331F441F551F0E942A
S1133AD0372C0E946C188FE08093D30281E00E94FF
S1133AE06C0B0C94DC26893069F4609135167727C9
S1133AF06A5F7F4F882777FD8095982F0E946C1806
S1133B008AE0CECF8031B9F500910506C090AE02AF
S1133B10D090AF02E0905802F0905902C6010E9482
S1133B20610CFC018091DF0280838091E002882394
S1133B30E9F481E08093E002F0926514E092641469
S1133B40D092E202C092E1020F5F00933B16109202
S1133B5066020E94380CAA27BB27AC01BD0182E093
S1133B600E94260210927A0381E19ACF85E0809325
S1133B707A0383E16CCF873009F09AC085E093E043
S1133B800E945C0264E085E093E00E944502FC012F
S1133B908091A702882319F080E090E003C080910F
S1133BA06702992781838091351682838091B102BF
S1133BB08F5F8093B10281508083DF01139613825B
S1133BC08091A702882381F440E08091E7022EE1EE
S1133BD030E0281B31098091B5039927281739074C
S1133BE00CF041E0442319F08C9181608C93E090B7
S1133BF05B02F0905C028091D602882311F424E0E9
S1133C0045C00091DF0211270E94FD0120910103AC
S1133C10309102034091030350910403621B730B20
S1133C20840B950B60507E4F8F4F9F4F2AE09695E3
S1133C308795779567952A95D1F77093BC03609320
S1133C40BB0360E585E093E00E944502FC01048328
S1133C503596ABEBB3E082E20D9001928150E1F72F
S1133C608091D7029091D802A091D902B091DA0242
S1133C700196A11DB11D8093D7029093D802A09301
S1133C80D902B093DA021092D60227E245E053E05B
S1133C90B70180E80E943E122FEF3FEF30935C02A1
S1133CA020935B02882311F488E0FACE8BE0CFCE18
S1133CB0833151F484E18093D3020E94D90181E0DD
S1133CC00E94C80B0C94DC268B3011F00C94DC267B
S1133CD081E00E94AD0B84E1BACE0E945F190C947E
S1133CE0DC268091BA031092BA03853011F412983D
S1133CF003C0863029F4129A8091D3028F5FA7CE35
S1133D00873011F40C94DC268093BA030C94DC26DF
S1133D108FB7F89499272091AF032F5F2093AF03B7
S1133D208FBF8091BA03813009F07CC18091610713
S1133D308F5F80936107863008F074C140906407F8
S1133D40509065078091F902882309F062C180913F
S1133D50C815853009F05DC10E94C10C882309F49F
S1133D6058C180915014882309F053C1B20181E0F5
S1133D700E940104882311F490E00BC041E650E056
S1133D80440E551EF20191812FE93FEF420E531E5E
S1133D909F7080916004981781F090936004289834
S1133DA085EC8EBD0DB407FEFDCF8EB590689EBD2B
S1133DB00DB407FEFDCF8EB5289A289882EC8EBDEF
S1133DC00DB407FEFDCF8EB589E08EBD0DB407FEA0
S1133DD0FDCF8EB5289A0E94DC036B017C01B201F1
S1133DE083E00E940104882319F4E0E0F0E006C0B7
S1133DF0D2018C918550F201E80FF11D289881E8D9
S1133E008EBD0DB407FEFDCF8EB51EBC0DB407FEEE
S1133E10FDCF8EB5289A8F71893079F0289882EC7D
S1133E208EBD0DB407FEFDCF8EB586E08EBD0DB4FC
S1133E3007FEFDCF8EB5289AECC08FB7F89499276A
S1133E402F9A40918400509185008FBF2F98289815
S1133E5080E68EBDD2019C910DB407FEFDCF8EB5D8
S1133E609EBD8EEF282E290EB6E0B21510F0622DFD
S1133E7001C067E092012F5F3F4FD901962F7D91DA
S1133E800DB407FEFDCF8EB57EBD9150C1F76150D4
S1133E90260F311D6F5F2F5F3F4F3AA729A74C199B
S1133EA05D094E555F4F3A01882477FC8094982C25
S1133EB06C0C7D1C8E1C9F1C3097D1F12081E180FD
S1133EC08281A3809927AA27BB27BA2FA92F982FCD
S1133ED08827332744275527522F4427332722275F
S1133EE0FF24002711278701FF24EE242E293F29D0
S1133EF0402B512BBB24CC24DD242A293B294C29DB
S1133F005D29822B932BA42BB52B86199709A8091D
S1133F10B9098383292F3A2F4B2F552722839D01DB
S1133F204427552721838B2F9927AA27BB278083D2
S1133F30922D961B0EC0A9A5BAA52C910DB407FE0F
S1133F40FDCF49A55AA54F5F5F4F5AA749A78EB524
S1133F502EBD915080F70DB407FEFDCF8EB5289A83
S1133F60289882EC8EBD0DB407FEFDCF8EB586E099
S1133F708EBD0DB407FEFDCF8EB5289A3097D1F1D2
S1133F802081E1808281A3809927AA27BB27BA2FA9
S1133F90A92F982F8827332744275527522F4427A2
S1133FA033272227FF24002711278701FF24EE242B
S1133FB02E293F29402B512BBB24CC24DD242A2934
S1133FC03B294C295D29822B932BA42BB52B860DE1
S1133FD0971DA81DB91D8383292F3A2F4B2F5527D1
S1133FE022839D014427552721838B2F9927AA27B4
S1133FF0BB278083B401A301C2010E94C10386E0F0
S11340008093C81584E08093F9021092741483E0BD
S113401004C085E08093741482E08093BA030E9404
S1134020FE11CAC61092BA030E94FE1100917414C4
S1134030E0906407F0906507F70182858F3309F0FB
S1134040BBC60E94360D602FC7010E94C918B4C6B2
S11340502FBFB2C68FB7F894282F33278091451409
S11340608823B1F3E0916914AE2FBB27AA0FBB1FBD
S1134070A859BC4F0D90BC91A02DBA83A9832FBF22
S1134080FD0182850781F6808F3309F0A1C1898102
S11340909A810E941D04FC01108169817A81645F08
S11340A07F4F29813A81D9018D91B8A3AF8F8D506B
S11340B0482F5527802F9927B82FAA278F2D992766
S11340C0A82BB92B8FB7F894992720915D023091D2
S11340D05E028FBFA217B30721F0AF5FBF4F09F095
S11340E053C6103809F439C1113809F08BC18981DC
S11340F09A810E940F049AA789A7DC01AC90FC0165
S11341006180E28023800E94FD01FF2400271127A3
S1134110102F0F2DFE2CEE24BB24CC24DD24DA2C0E
S1134120CC24BB24AA24772488249924430177240B
S11341306624A628B728C828D9283324442455241B
S1134140A228B328C428D528EA28FB280C291D292D
S1134150E60EF71E081F191FE9A5FAA5E382BB277F
S1134160A12F902F8F2D8283C801AA27BB2781837B
S1134170E12EFF2400271127E08289819A810E9481
S1134180610CFC012091DF028081821738F09927AD
S1134190821B91098F3791050CF4FDC581E0809352
S11341A0D6028091D3028950823008F02BC18091CD
S11341B08D068D7F80938D06EF8DF8A180852781F4
S11341C09927982F88273327822B932B90935C026F
S11341D080935B0287E08093D3020E94D90180918F
S11341E0CB029091CC02A091CD02B091CE02019667
S11341F0A11DB11D8093CB029093CC02A093CD025C
S1134200B093CE0280E00E94AD0B8091EC029091BD
S1134210ED0201969093ED028093EC0289819A81DC
S11342200E94490CFC0143814F5F438380812181BB
S11342309927782F66273327622B732BE28080918E
S1134240A702882311F010E001C0142F1CA3EBA2D5
S11342507AA369A35091E802F090E902352F00E0B7
S113426025C0E32FFF27EE0FFF1FEE0FFF1FEB58B4
S1134270FB4E80819181A281B381CCA02BA1E9A1C5
S1134280FAA18E179F0709F089C5A21709F086C500
S1134290BC1508F483C58091AB029091AC020196E1
S11342A09093AC028093AB02ADC00F5F0F15C9F6BB
S11342B07BC589E08093E80203C051505093E80223
S11342C0E091E8022E2F3327220F331F220F331FD2
S11342D02B583B4E8DA19EA1AFA1B8A5F9018083B7
S11342E09183A283B3838091E9028A3018F48F5FAB
S11342F08093E9028091A702882309F083C00E9479
S1134300CE048C01892B51F48091A9029091AA02C8
S113431001969093AA028093A90212C089819A817E
S11343200E94ED04813099F48091A9029091AA022F
S113433001969093AA028093A902C8010E941F04C7
S11343408091D302873009F05DC08BE024C08CE0FB
S11343500E94A8011A83098355C089819A810E9409
S113436066149A8389834EC08091D3028031B1F45C
S1134370E981FA81878126819927982F8827332715
S1134380822B932B20915802309159028217930764
S113439009F038C08FE08093D30234C0813191F5A5
S11343A0E981FA81878126819927982F88273327E5
S11343B0822B932B20915802309159028217930734
S11343C009F58091AE029091AF020E94DD121AC0ED
S11343D0802F9927582F44278F2D9927482B592B05
S11343E08FB7F894992720915D0230915E028FBFB8
S11343F04217530719F04F5F5F4F21F48FB7F894BA
S113440099278FBF9FB7F89480916914A82FBB2771
S1134410AA0FBB1FA859BC4F29813A812D933C9305
S11344208F5F80936914833010F010926914809127
S11344304514815080934514892F99278FBF0ACE44
S11344408FB7F894992710925E0710925D07109227
S1134450C7151092C6151092FB021092FA02109220
S1134460FB051092FA05A7CA2FB7F8943327809159
S1134470F5038093650282E08093D5022FBF80917B
S11344806502882309F098C4209A289A8091C81557
S1134490882309F074C08EEF91E00197019601978B
S11344A0E1F716982F9886E090E00197019601971E
S11344B0E1F7169A289883EC8EBD0DB407FEFDCF64
S11344C08EB51EBC0DB407FEFDCF8EB5289A289874
S11344D082EC8EBD0DB407FEFDCF8EB588E08EBD97
S11344E00DB407FEFDCF8EB5289A8EEF91E00197AB
S11344F001960197E1F728988EEC8EBD0DB407FE66
S1134500FDCF8EB58DE48EBD0DB407FEFDCF8EB507
S1134510289A289889EC8EBD0DB407FEFDCF8EB580
S113452087EC8EBD0DB407FEFDCF8EB5289A289872
S113453085EC8EBD0DB407FEFDCF8EB580E88EBD33
S11345400DB407FEFDCF8EB5289A109260048DE05D
S11345508093B003289888EC8EBD0DB407FEFDCF80
S11345608EB58DE68EBD0DB407FEFDCF8EB5289AAF
S11345702F9A81E08093C8150E9421031DC40E94D4
S11345801F131AC41092E002609166028091E10246
S11345909091E2020E9488180FC44FB7F8945527EF
S11345A0809179029927FC01E954FC4F20812093E2
S11345B079024FBF60917902082F7C01EE0CFF1C39
S11345C0EE0CFF1C4EE653E0E40EF51E1DC07727EB
S11345D0FB01EE0FFF1FEE0FFF1FE259FC4FA080FF
S11345E0B180C280D380D7012D913D914D915C91D2
S11345F0A21AB30AC40AD50AA082B182C282D382A3
S113460069547C4FFB016081633009F70E94D01527
S11346100130E1F0013020F0023009F043C02CC039
S113462010927F0380E090EDA2E0B0E080938003DD
S113463090938103A0938203B093830340E050EDF1
S113464062E070E080E00E94D31940C01092070835
S113465080E090E6A9E0B0E0809308089093090810
S1134660A0930A08B0930B0840E050E669E070E0BC
S113467081E00E94D31972C01092FC0280E090E1A4
S1134680AEE0B0E08093FD029093FE02A093FF029F
S1134690B093000340E050E16EE070E082E00E94DD
S11346A0D319CBC0409101005091020060910300E6
S11346B070910400802F0E94D319013009F44EC078
S11346C0013020F0023009F077C3B7C02091EA022C
S11346D03091EB0244275527EAE0220F331F441F91
S11346E0551FEA95D1F76091690270916A02809131
S11346F06B0290916C0203EF0E943E2A6093690260
S113470070936A0280936B0290936C021092EB0296
S11347101092EA022091EC023091ED0244275527D1
S11347207AE0220F331F441F551F7A95D1F7609109
S11347306D0270916E0280916F02909170020E94DE
S11347403E2A60936D0270936E0280936F02909381
S113475070021092ED021092EC022EC300917A02C4
S113476010917B026CE0C8010E944B0E7C01C801D1
S11347700E945C028091F4029091F502019690935C
S1134780F5028093F4020197F7018183892F992719
S113479080832091690230916A0240916B025091AA
S11347A06C02233031054105510518F42FEF3FEF1A
S11347B006C060E070ED82E090E00E947D2CF7017D
S11347C02383832F9927828320916D0230916E0277
S11347D040916F025091700223303105410551051B
S11347E018F42FEF3FEF06C060E070ED82E090E038
S11347F00E947D2CF7012583832F99278483809140
S1134800710290917202A0917302B0917402818737
S1134810292F3A2F4B2F552720879D0144275527B1
S113482027838B2F9927AA27BB278683809176021B
S11348308287809178028387BFC2E0907C02F090E7
S11348407D026EE2C7010E944C028C01C7010E94E6
S11348505C028091F6029091F70201969093F70220
S11348608093F60201978C83F8018183892F99271D
S11348708B8380838091A9029091AA028E83838383
S1134880892F99278D8382838091AB029091AC020A
S113489088878583892F99278F8384838091B302A6
S11348A09091B402A091B502B091B6028C87818731
S11348B0292F3A2F4B2F55272B8720879D014427DB
S11348C055272A8727838B2F9927AA27BB278987D0
S11348D086838091B7029091B802A091B902B091F9
S11348E0BA02888B8587292F3A2F4B2F55272F877C
S11348F024879D01442755272E8723878B2F9927AB
S1134900AA27BB278D8782878091BB029091BC0226
S11349108A8B8787892F9927898B86878091BD0207
S11349209091BE02A091BF02B091C0028E8B838B86
S1134930292F3A2F4B2F55272D8B228B9D0144274E
S113494055272C8B218B8B2F9927AA27BB278B8B41
S1134950808B8091C1029091C202A091C302B09158
S1134960C4028A8F878B292F3A2F4B2F5527298FE3
S1134970268B9D0144275527288F258B8B2F99271C
S1134980AA27BB278F8B848B8091C5029091C60286
S1134990A091C702B091C8028D8F838F292F3A2F1F
S11349A04B2F55272C8F228F9D01442755272B8F62
S11349B0218F8B2F9927AA27BB27282E808F8091A0
S11349C0C9029091CA028E8F858F892F9927382E1C
S11349D0848F8091CB029091CC02A091CD02B091B2
S11349E0CE02482E81A3292F3A2F4B2F5527622E12
S11349F020A39D0144275527522E278F8B2F9927BB
S1134A00AA27BB27C82E868F8091CF029091D0020F
S1134A10D82E83A3892F9927E82E82A38091D102CF
S1134A209091D202F82E85A3892F9927A82E84A3CA
S1134A308091D7029091D802A091D902B091DA0264
S1134A4081A7292F3A2F4B2F552720A79D014427B3
S1134A50552727A38B2F9927AA27BB2786A38091A5
S1134A60DB029091DC0283A7892F992782A780918A
S1134A70DD029091DE0285A7892F992784A70091F2
S1134A807C0210917D020E94FD01BB24BA2CAA2451
S1134A902F2D3327A22AB32ABF92AF922E2D33276C
S1134AA0322F22274D2D5527242B352B3F932F931F
S1134AB0772488249924982C872C762C6624DD244A
S1134AC0EE24FF24FC2CEE24DD24CC24252D3327D6
S1134AD044275527A90133272227C22AD32AE42AA7
S1134AE0F52A242D332744275527C22AD32AE42A1A
S1134AF0F52A6C287D288E289F289F928F927F927A
S1134B006F92232D3327322F2227FE8D4F2F5527C7
S1134B10242B352B3F932F93AC8D2A2F33274427F7
S1134B205527CC24D22EE32EF42E332444245524AA
S1134B30522C442433242224BB8D2B2F3327442787
S1134B405527A90133272227222A332A442A552A02
S1134B50ED8D2E2F332744275527222A332A442A22
S1134B60552AC228D328E428F528FF92EF92DF9231
S1134B70CF92F98D2F2F3327442755278824922E3F
S1134B80A32EB42EAF892A2F332744275527522F1B
S1134B90442733272227B88DCB2EDD24EE24FF248F
S1134BA07601DD24CC242C293D294E295F29EA8D68
S1134BB0CE2EDD24EE24FF242C293D294E295F2905
S1134BC0822A932AA42AB52ABF92AF929F928F92E7
S1134BD0FD892F2F3327442755278824922EA32E6F
S1134BE0B42E2B89C22EDD24EE24FF245C2D442711
S1134BF033272227AC89CA2EDD24EE24FF24760134
S1134C00DD24CC242C293D294E295F29BE89CB2EB5
S1134C10DD24EE24FF242C293D294E295F29822AF4
S1134C20932AA42AB52ABF92AF929F928F92E989C0
S1134C302E2F3327322F2227FA894F2F5527242B43
S1134C40352B3F932F93AF852A2F3327442755279E
S1134C508824922EA32EB42EBD85CB2EDD24EE24E3
S1134C60FF245C2D442733272227EE85CE2EDD2416
S1134C70EE24FF247601DD24CC242C293D294E2961
S1134C805F29F889CF2EDD24EE24FF242C293D2929
S1134C904E295F29822A932AA42AB52ABF92AF9269
S1134CA09F928F92AB852A2F332744275527882438
S1134CB0922EA32EB42EB985CB2EDD24EE24FF2410
S1134CC05C2D442733272227EA85CE2EDD24EE24CB
S1134CD0FF247601DD24CC242C293D294E295F298B
S1134CE0FC85CF2EDD24EE24FF242C293D294E29DA
S1134CF05F29822A932AA42AB52ABF92AF929F924F
S1134D008F924F81242F3327322F2227A8854A2FB1
S1134D105527242B352B3F932F93BD812B2F3327DE
S1134D20322F2227EE814E2F5527242B352B3F93EC
S1134D302F93FB812F2F3327322F2227AC814A2F29
S1134D405527242B352B3F932F939F938F937F933A
S1134D506F938091490290914A029F938F938FE0C1
S1134D6092E09F938F930E94E62CEDB7FEB7BE9618
S1134D700FB6F894FEBF0FBEEDBF0E94E60D109370
S1134D807D0200937C0218C0103809F4E6CA113879
S1134D9009F038CBE9CA1092D60203CA3F5F3A3011
S1134DA008F483CA30E081CA18A7EFA27EA36DA3DA
S1134DB0552309F47ECA81CAAA960FB6F894DEBFB9
S1134DC00FBECDBFDF91CF911F910F91FF90EF9058
S1134DD0DF90CF90BF90AF909F908F907F906F9017
S1134DE05F904F903F902F900895809166148F3F6D
S1134DF0B1F0282F3327F901E157FC4F80818093CC
S1134E0066148F3F11F4809336168FEF80832F3F03
S1134E1031F0822F0E947E1A81E090E0089580E0B4
S1134E2090E00895EF920F931F93CF93DF93EFB623
S1134E30F89414BE88E10FB6F89480936000109241
S1134E4060000FBE48E150E06FEF70E08FE893E040
S1134E500E94DF2C8FEF8093661480933616569849
S1134E605E9854985C9880916F008F7D80936F005A
S1134E70209A289A279A2F980E9A169A8DEF93E0E3
S1134E8090938603809385031092EA038AE58093C6
S1134E90B60381E08093810080E28093B60083E0D2
S1134EA08093B10080918400909185004AE720911D
S1134EB08400309185002817390708F441504423B1
S1134EC011F0C901F4CF9091B2008091B20089171A
S1134ED0E1F320918400309185009091B20080919B
S1134EE0B2008917E1F38091840090918500821BC0
S1134EF0930B409665E0969587956A95E1F79093B4
S1134F006814809367141092B1008091B10080936B
S1134F108100809181008093B6001092B2001092BB
S1134F208500109284008FEF87BB87B386BB809186
S1134F30B6008571E1F70A9A099A089A129A119AA9
S1134F40109A18B88FEF87B90C98149810928500AE
S1134F501092840080916F00816080936F00809133
S1134F608100887F82608093810010929500109266
S1134F709400809171008160809371008091910010
S1134F80887F8260809391000E94F5268823E1F750
S1134F90E8E6F7E08FE698E0819391938D599F4F6F
S1134FA027E0E43AF207C1F78EE18093610410929E
S1134FB0EB0380E092E09093AC038093AB039AE020
S1134FC09093840388E080932F1680E28093880373
S1134FD083E08093E50311E0109387039093B50376
S1134FE083E390E09093E3038093E20380E098E20C
S1134FF0A0E0B0E08093A7039093A803A093A90333
S1135000B093AA038091490290914A020196AA277B
S1135010BB278093E6039093E703A093E803B09340
S1135020E9030FEF0093F30380E00E94760C2DE96F
S113503034E1309369032093680320E035E1309331
S11350406B0320936A0323E635E130936D032093C9
S11350506C032FEF3FEF3093561420935514309385
S113506058142093571430935A142093591430939E
S11350705C1420935B1430935E1420935D1440E021
S113508090E0882309F491E0911709F441E08091BC
S113509049022EE732E0411709F09EC18295807FD4
S11350A08093F8020093B4031092E8021092E9028C
S11350B0309344162093431612E006E0609167147F
S11350C070916814882799275CE0660F771F881F02
S11350D0991F5A95D1F720E031EE40E050E00E944C
S11350E07D2C215030402093C400832F9927809336
S11350F0C5001093C0000093C2001092C100209319
S1135100CC008093CD001093C8000093CA00109285
S1135110C90084E490E09093521480935114109247
S1135120F9031092FB038AE0809363071092F20361
S11351301092F40310926A141092381610923716D3
S113514010922E161092040610924C1410924B14C6
S113515084E08093DD031092670710925F1410922D
S1135160E10310920106109200061092F3051092CA
S1135170F2051092A6028091B60080628093B60078
S1135180249A8091B60081FDFCCF82E48093B00024
S11351908091B60080FDFCCF83E08093B1008091C4
S11351A0B60083FDFCCF86EE8093B300809170003F
S11351B08260809370000E9401060E94F526882375
S11351C0E1F78E2D99278FBF789410E007C0113036
S11351D0B1F0113018F01230C9F522C010927F03DB
S11351E080E090EDA2E0B0E080938003909381038F
S11351F0A0938203B0938303EFE7F3E0F5C010922A
S1135200070880E090E6A9E0B0E080930808909356
S11352100908A0930A08B0930B08E7E0F8E0E4C09B
S11352201092FC0280E090E1AEE0B0E08093FD02D9
S11352309093FE02A093FF02B093000340E050E17C
S11352406EE070E082E00E94D3190FC0409101002B
S1135250509102006091030070910400812F0E941C
S1135260D3191F5F133008F4B2CF8FB7F894282FE7
S11352703327922F809163078A3031F08091DD03C8
S1135280843011F02FBF04C09FBF85E00E94A801A5
S11352901092A7028091D302882331F484E0809392
S11352A0D3028DE00E94A80181E08093570280E040
S11352B00E9407140E94FD01AB01BC0121E0E22E13
S11352C000E014E020E030E081E00E94DE010E9472
S11352D00C0520914B0230914C0240914D025091AB
S11352E04E020E947D2C6F5F7F4F8F4F9F4F0E9415
S11352F002168FB7F894482F552753C08091700039
S1135300992783709070892B19F4E5E0F0E014C0BC
S11353108091B6008A71E1F78091B3009091B20058
S1135320891B8C3038F08091B200853F18F4E3E09B
S1135330F0E002C0E2E0F0E080916E008670E9F4F3
S113534080916F008E72C9F40CB407FC16C0809172
S1135350C100807E91F48091C900807E71F48091B7
S1135360BC0082FD0AC080917A0087FF03C081E0FF
S113537090E005C085E090E002C080E090E023B7B3
S11353808E1708F4E82FFF27E450FD4FE491207FA7
S11353902160E22BE3BF78948895F89483B78E7FDD
S11353A083BF809166148F3F09F4A8CF282F332739
S11353B0F901E157FC4F8081809366148F3F11F40B
S11353C0809336168FEF80832F3F09F497CF4FBF1A
S11353D0822F0E947E1A8DCF8295807F8093F8025F
S11353E08FEF8093B40360CE4181528163817481D5
S11353F0812F0E94D3191F5FEACE5527861797077E
S1135400E8F0861B970B9C013070F9014E9F9001C8
S11354104F9F300D5E9F300D1124232F3327892F8A
S11354209927FC014E9FC0014F9F900D5E9F900DE8
S11354301124860F971F280F391F1EC09B01281B9C
S1135440390BC901232F3327F9014E9F90014F9F38
S1135450300D5E9F300D11249070FC014E9FC001F1
S11354604F9F900D5E9F900D1124892F9927280F2F
S1135470391F621B730B9B01C90108956F927F92C0
S11354808F929F92AF92BF92CF92DF92EF92FF9250
S11354900F931F93CF93DF9359016A01C02FDD2728
S11354A0602E77248824992462177307840795074C
S11354B030F19B01AC012A193B094C095D09C90172
S11354C09070BC01C69FC001C79F900DD69F900DE0
S11354D01124892F99277C0100271127232F342F8A
S11354E0452F5527C401B3010E94372C6A0D7B1D3B
S11354F08C1D9D1DE60EF71E081F191F26C079017D
S11355008A01E61AF70A080B190B5527412F302F89
S11355102F2DC401B3010E94372C2FEFE222FF2468
S1135520CE9D9001CF9D300DDE9D300D1124232F93
S1135530332744275527260F371F481F591F860135
S11355407501E21AF30A040B150BC801B701DF91C8
S1135550CF911F910F91FF90EF90DF90CF90BF906C
S1135560AF909F908F907F906F900895ACE2B0E0E1
S1135570ECEBFAE20C949F2C222E332E442E552E63
S1135580662E772E882E992EFE013196A8E0119270
S1135590AA95E9F729823A824B825C826D827E82E7
S11355A08F829886FE013996B8E01192BA95E9F790
S11355B0A986BA86CB86DC86ED86FE860F87188B95
S11355C089819A81AB81BC8189A79AA7ABA7BCA723
S11355D07C018D018FEF9FEFA0E0B0E0E822F9227B
S11355E00A231B2389A59AA5ABA5BCA51D014424A8
S11355F0552489859A85AB85BC858DA39EA3AFA3CD
S1135600B8A75C016D018FEF9FEFA0E0B0E0A82286
S1135610B922CA22DB228DA19EA1AFA1B8A53D016A
S113562088249924C801B701A60195010E94372C4A
S113563069A37AA38BA39CA3C801B701A401930116
S11356400E94372C7B018C01C201B101A601950196
S11356500E94372C5B016C01C201B101A4019301CA
S11356600E94372C3B014C01EA0CFB1C0C1D1D1D38
S113567089A19AA1ABA1BCA19D01442755272E0D58
S11356803F1D401F511F2A153B054C055D0540F485
S113569080E090E0A1E0B0E0680E791E8A1E9B1EB7
S11356A0CA01AA27BB27860D971DA81DB91D8D8F7A
S11356B09E8FAF8FB8A3A9013327222789A19AA16E
S11356C0ABA1BCA1A070B070280F391F4A1F5B1F8B
S11356D0298F3A8F4B8F5C8FA98CBA8CCB8CDC8C46
S11356E0ED8CFE8C0F8D18A1FE01719698E011923D
S11356F09A95E9F7ED8AFE8A0F8B188F2D813E81EA
S11357004F8158856DA17EA18FA198A50E94372C49
S11357103B014C012D853E854F85588969A57AA5A5
S11357208BA59CA50E94372C2D893E894F89588DC5
S1135730260F371F481F591F260D371D481D591D99
S11357402D8B3E8B4F8B588F6D887E888F88988CDD
S11357502A2D3B2D4C2D5D2D662D772D882D992DD1
S1135760E2E1AC960C94BB2CA0E1B0E0EAEBFBE2E6
S11357700C949F2C222E332E442E552E662E772EDB
S1135780882E992E002309F466C088E0FE01319624
S113579011928A95E9F729833A834B835C836D835D
S11357A07E838F829887E0E2E01B1E16CCF52D8164
S11357B03E814F815885602F772767FD7095DA0108
S11357C0C901062E04C0B695A795979587950A94A6
S11357D0D2F78D879E87AF87B88B04C0220F331F03
S11357E0441F551FEA95D2F789819A81AB81BC8108
S11357F004C0B695A795979587956A95D2F7282BF7
S1135800392B4A2B5B2B29873A874B875C87298462
S11358103A844B845C846D847E848F8498881BC016
S11358201D861E861F86188A2E2F332727FD309546
S1135830309521953F4F8D819E81AF81B88504C0FD
S1135840B695A795979587952A95D2F789879A87CC
S1135850AB87BC87DCCF222D332D442D552D662DEF
S1135860772D882D992DE2E160960C94BB2C629FD4
S1135870D001739FF001829FE00DF11D649FE00D44
S1135880F11D929FF00D839FF00D749FF00D659FA5
S1135890F00D9927729FB00DE11DF91F639FB00DA4
S11358A0E11DF91FBD01CF0111240895AA1BBB1BE3
S11358B051E107C0AA1FBB1FA617B70710F0A61B0C
S11358C0B70B881F991F5A95A9F780959095BC012D
S11358D0CD01089597FB092E07260AD077FD04D041
S11358E0E5DF06D000201AF4709561957F4F089586
S11358F0F6F7909581959F4F0895A1E21A2EAA1B61
S1135900BB1BFD010DC0AA1FBB1FEE1FFF1FA2176B
S1135910B307E407F50720F0A21BB30BE40BF50B68
S1135920661F771F881F991F1A9469F760957095F1
S1135930809590959B01AC01BD01CF0108952F92F4
S11359403F924F925F926F927F928F929F92AF920B
S1135950BF92CF92DF92EF92FF920F931F93CF9358
S1135960DF93CDB7DEB7CA1BDB0B0FB6F894DEBFEF
S11359700FBECDBF09942A88398848885F846E8415
S11359807D848C849B84AA84B984C884DF80EE805F
S1135990FD800C811B81AA81B981CE0FD11D0FB668
S11359A0F894DEBF0FBECDBFED010895FB01DC010D
S11359B002C001900D9241505040D8F70895DC0187
S11359C001C06D9341505040E0F70895A2E0B0E06B
S11359D0ECEEFCE20C94AF2CFE01379661917191D0
S11359E0FA83E983AF0180914316909144160E9493
S11359F0FD2CE2E022960C94CB2CABE0B0E0E3E08B
S1135A00FDE20C94A12C3C014B016A01FC011782BC
S1135A101682838181FD03C08FEF9FEFDAC1F3010A
S1135A203381F40133FD859133FF81914F01882344
S1135A3009F4CCC1853239F433FD859133FF81916A
S1135A404F01853229F4B30199270E94032FE7CF30
S1135A5000E0442455244AE00032B0F48B3269F06B
S1135A608C3228F4803251F0833271F40BC08D32C1
S1135A7039F0803349F4016028C00260046025C015
S1135A80086023C0006121C007FD29C0282F2053CE
S1135A902A3078F406FF06C0549EC0011124522E09
S1135AA0580E13C0449EC0011124422E480E0062B9
S1135AB00CC08E3221F406FD89C1006406C08C3608
S1135AC011F4006802C0883651F4F40133FD859165
S1135AD033FF81914F01882309F46FC0BDCF982F04
S1135AE08554833018F08052833038F424E030E059
S1135AF0C20ED31E8FE389830FC0933631F09337E0
S1135B0099F0933509F05BC023C0F6018081898345
S1135B1022E030E0C20ED31E7E010894E11CF11C89
S1135B2051E0A52EB12C12C0F601E080F18006FDF3
S1135B3003C06FEF7FEF02C0652D772722E030E0CE
S1135B40C20ED31EC7010E94F82E5C010F7713C04A
S1135B50F601E080F18006FD03C06FEF7FEF02C025
S1135B60652D772722E030E0C20ED31EC7010E94C4
S1135B70ED2E5C01006803FF07C01BC0B30180E287
S1135B8090E00E94032F4A94842D9927A816B90601
S1135B90A8F30FC0F70107FD859107FF81917F01ED
S1135BA0B30199270E94032F41104A940894A10835
S1135BB0B108A114B10471F706C190E03EC0943657
S1135BC011F0993691F507FF0AC0F60160817181E1
S1135BD08281938124E030E0C20ED31E0DC0F60111
S1135BE0808191819C01B901882777FD8095982F48
S1135BF042E050E0C40ED51E4FE6B42EB02297FF0B
S1135C0009C090958095709561957F4F8F4F9F4FF8
S1135C1050E8B52A8E010F5F1F4F2AE030E0A8013B
S1135C200E94302FA82EA01A4DC0953731F43FEEB4
S1135C30F32EF0222AE030E023C029EFF22EF022E6
S1135C409F3661F0903720F4983509F0BFC012C038
S1135C50903739F0983709F0B9C005C028E030E032
S1135C600FC080E1F82AF4FE02C094E0F92A20E192
S1135C7030E006C0F4FE02C0E6E0FE2A20E132E095
S1135C80F7FE0AC0F601608171818281938144E04C
S1135C9050E0C40ED51E0BC0F60180819181AC0189
S1135CA0BA0188279927E2E0F0E0CE0EDF1E8E01CC
S1135CB00F5F1F4FA8010E94302FA82EA01A8FE754
S1135CC0B82EBF20B6FE10C0FEEFBF22A51460F4AC
S1135CD02B2D332724FF1AC022FF02C0052D09C033
S1135CE02FEEB222052D01C00A2D2B2D332724FFC0
