:100000000C9483010C94A2010C94A2010C94A20103
:100010000C94A2010C94A2010C94A2010C94A201D4
:100020000C94A2010C94A2010C94A2010C94A201C4
:100030000C94A2010C94EC0C0C94A2010C94B20749
:100040000C9424130C945A130C94330C0C943E0C03
:100050000C94490C0C94A2010C94A2010C94A201E2
:100060000C94900B0C9483090C94A2010C94060A36
:100070000C94A2010C94A2010C94A2010C945D0BAF
:100080000C943C0B0C94470B0C94520B0C94700B7F
:100090000C941F0B0C94A2010C94310B0C94A20134
:1000A0000C94A2010C94A2010C94A2010C94A20144
:1000B0000C94A2010C94A2010C94A2010C94A20134
:1000C0000C94A2010C94A2010C94A201451C491CA1
:1000D0003C1CC81CD41CD81CFD1C001D0C1D371D4D
:1000E0005A1D691D811D861D381F5D1F611F03215B
:1000F0009523F9220D23D6279B23A6239D27A027EE
:1001000000002110422063308440A550C660E77093
:10011000088129914AA16BB18CC1ADD1CEE1EFF13B
:100120003112100273325222B5529442F772D662E3
:10013000399318837BB35AA3BDD39CC3FFF3DEE38B
:100140006224433420040114E664C774A444855433
:100150006AA54BB528850995EEE5CFF5ACC58DD5DB
:100160005336722611163006D776F6669556B44683
:100170005BB77AA719973887DFF7FEE79DD7BCC72B
:10018000C448E5588668A7784008611802282338D3
:10019000CCC9EDD98EE9AFF9488969990AA92BB97B
:1001A000F55AD44AB77A966A711A500A333A122A23
:1001B000FDDBDCCBBFFB9EEB799B588B3BBB1AABCB
:1001C000A66C877CE44CC55C222C033C600C411C73
:1001D000AEED8FFDECCDCDDD2AAD0BBD688D499D1B
:1001E000977EB66ED55EF44E133E322E511E700EC3
:1001F0009FFFBEEFDDDFFCCF1BBF3AAF599F788F6B
:100200008891A981CAB1EBA10CD12DC14EF16FE14A
:100210008010A100C230E320045025404670676082
:10022000B9839893FBA3DAB33DC31CD37FE35EF39A
:10023000B1029012F322D2323542145277625672D2
:10024000EAB5CBA5A89589856EF54FE52CD50DC5EA
:10025000E234C324A0148104667447642454054422
:10026000DBA7FAB79987B8975FE77EF71DC73CD73A
:10027000D326F2369106B016576676761546345672
:100280004CD96DC90EF92FE9C899E9898AB9ABA98A
:100290004458654806782768C018E1088238A328C2
:1002A0007DCB5CDB3FEB1EFBF98BD89BBBAB9ABBDA
:1002B000754A545A376A167AF10AD01AB32A923A12
:1002C0002EFD0FED6CDD4DCDAABD8BADE89DC98D2A
:1002D000267C076C645C454CA23C832CE01CC10C62
:1002E0001FEF3EFF5DCF7CDF9BAFBABFD98FF89F7A
:1002F000176E367E554E745E932EB23ED10EF01EB2
:1003000000020E060C0411241FBECFEFD1E2DEBFA7
:10031000CDBF12E0A0E0B2E0E2EBF1E600E00BBFFF
:1003200002C007900D92A239B107D9F716E1A2E9F0
:10033000B2E001C01D92A83AB107E1F70E940C2873
:100340000C94D8300C9400008FB7F8949927089536
:100350008FBF08957FB7F8946091B2002091970302
:10036000309198034091990350919A03B99B11C021
:100370008091B3009091B200280F311D411D511D95
:100380002F5F3F4F4F4F5F4F290F311D411D511DB3
:1003900004C0260F311D411D511D872F99278FBF86
:1003A000CA01B9010895282F9FB7F894E82FFF27B5
:1003B000E456FC4F80818F3F81F4E0919716E2175D
:1003C00071F40BC02093C71404C0FF27E456FC4F00
:1003D00020832093971620E007C025E005C0809178
:1003E000C7148F3F91F7EECF892F99278FBF822FA8
:1003F000992708958AE00E94D301992708958DE0F6
:100400000E94D30199270895582F209104036091E9
:10041000FD027091FE0230E040E029C080910103AE
:10042000992787709070892BA9F4E091FF02F091D1
:10043000000381919927282FF0930003E093FF0296
:10044000109201036E177F0728F48093040381E064
:1004500090E00895330F822F881F8827881F382B3C
:10046000220F809101038F5F809301034F5F451737
:10047000A9F620930403832F992708951F931FB78C
:10048000F89480918F16882341F484E00E94D30170
:10049000882319F481E080938F16812F99278FBFCD
:1004A0001F910895382FFA01422F213518F082E06C
:1004B00090E008956683872F992785833387218766
:1004C0008091990290919A02892B19F085E090E031
:1004D00008952FB7F894332785E080939C021092FB
:1004E0009D02F0939802E093970282E090E090934F
:1004F0009A028093990210929F0210929E02445F8A
:1005000040939B022FBF8FB7F894282F33278091F9
:1005100074078A3011F42FBF19C02FBF9FB7F8940A
:1005200080910C04882311F020E006C081E08093C4
:100530000C0410920D0421E0892F99278FBF2223EC
:1005400029F00E943E0280E090E0089510929A0205
:100550001092990281E090E00895CF93DF93DB0140
:10056000FB0135968183892F9927EB018D8384E6E2
:10057000868380910D0690910E06892B19F085E0F7
:1005800090E029C070930E0660930D06448380911D
:100590005402882319F480E090E01DC08681EB01AD
:1005A0006D817727762F662721813327622B732B66
:1005B00010925402242FAD010E9452029927282F35
:1005C000882339F081E08093540210920E06109235
:1005D0000D06822F9927DF91CF910895EF920F9307
:1005E0001F93AE2D99E0899FF0011124E558F94F32
:1005F0004083518362837383048315832683378307
:10060000A17080858E7F8A2B8260808781E00E9426
:10061000D3011F910F91EF900895AF92BF92CF92A7
:10062000DF92EF92FF920F931F93F82E5A016B0106
:100630000E94AA01AB01BC0131E0E32E96018501C5
:100640008F2D0E94EE021F910F91FF90EF90DF908F
:10065000CF90BF90AF900895613518F080E090E0A2
:1006600008950C960895FC018181992780739070FC
:10067000816498688183892F9927828308950F93D5
:100680001F938C010E943303005A1F4FF801108200
:100690001F910F910895882319F08CB5806402C0D2
:1006A0008CB58F7B8CBD08950F931F931FB7F89463
:1006B0008091DB02823099F580916A02882379F576
:1006C0008091680220E030E08F3F11F421E030E0BB
:1006D000232BF1F49FEF90936A028F3F19F42FEFD1
:1006E00030E00DC0282F3327F901EC5FFB4F8081EC
:1006F000809368028F3F11F4909369029083209356
:10070000060481E08093DB0284E10E94D30105C0EE
:100710008FEF80936A021092DB0201E001C000E0DB
:10072000812F99278FBF1FB7F8948091DB02882310
:1007300011F40E944B03812F99278FBF90E0013065
:1007400009F491E081E09827892F99271F910F9153
:100750000895882319F08CB5806802C08CB58F7716
:100760008CBD08950F931F9380E00E944B030FB739
:10077000F8941127229A2398219A209A8CB58061A7
:100780008CBD80E00E94A9038CB5877F8CBD8CB5A1
:100790008B7F8CBD81E00E944B038DB581608DBD48
:1007A0008CB58C7F8CBD0FBF1F910F910895FB01FD
:1007B000E05AFF4F21E030E002C0220F331F8A953C
:1007C000E2F720958081822380830895FB01E05A1F
:1007D000FF4F21E030E002C0220F331F8A95E2F77D
:1007E0008081822B80830895CF92DF92EF92FF92D7
:1007F0000F931F938C016A017B01BC0180E00E9472
:10080000E603045A1F4FF801C082D182E282F382CC
:100810001F910F91FF90EF90DF90CF9008958FB7C9
:10082000F8942091FB033091FC034091FD0350911B
:10083000FE03E0918400F0918500B09B08C02F5F1B
:100840003F4F4F4F5F4FE0918400F0918500992713
:100850008FBFC901772766279F0144275527622B41
:10086000732B842B952B0895FB01E05AFF4F21E059
:1008700030E002C0220F331F8A95E2F78081822385
:10088000992708950F931F938C0160E50E942C0314
:10089000F80120812151820F911D1F910F91089520
:1008A0000B960895AC01209172042E3118F081E06E
:1008B00090E008958091FA03682F620F712D711DE9
:1008C000FB016E31710508F07E97EE0FFF1FE758B0
:1008D000F84F518340832F5F2093720480E090E0B3
:1008E0000895FC0180818151992708951F93CF932A
:1008F000DF93EC01162F62E00E942C03FC01918132
:100900008091AD028823F1F59F3FE1F19F5F8091D7
:100910006C02891738F480916D02981798F59093BE
:100920006D0230C0112359F190936C0228C0898563
:100930009927982F882728853327822B932B9093EC
:100940005E0280935D0282818093B60280818F5F18
:1009500080935F028091C3029091C402A091C5026E
:10096000B091C6020196A11DB11D8093C302909360
:10097000C402A093C502B093C60281E02AC083815D
:1009800080FDD5CF8091C3029091C402A091C50291
:10099000B091C6020196A11DB11D8093C302909330
:1009A000C402A093C502B093C6028091C702909181
:1009B000C802A091C902B091CA020196A11DB11D41
:1009C0008093C7029093C802A093C902B093CA0251
:1009D00080E09927DF91CF911F9108958BE490E0FB
:1009E00008950E94710486509927089520917204F9
:1009F000222319F440E050E016C08091FA03E82F5A
:100A0000FF27EE0FFF1FE758F84F408151811182F9
:100A100010822150209372048F5F8093FA038E31ED
:100A200011F41092FA03CA010895AC012091EC026E
:100A30002E3118F081E090E008958091EB02E82FCC
:100A4000FF27EE0FFF1FE659FB4E518340838F5F58
:100A50008093EB028E3111F41092EB022F5F209302
:100A6000EC0280E090E008952F923F924F925F92C7
:100A70006F927F928F929F92AF92BF92CF92DF92AE
:100A8000EF92FF920F931F93CF93DF93CDB7DEB713
:100A900029970FB6F894DEBF0FBECDBF6FB769833D
:100AA000F8942090F5033090F6034090F7035090AF
:100AB000F803662477248824EEE4AE2E73E8B72E7C
:100AC000CC24DD24EE24FF2400E010E0222D332D81
:100AD000442D552D662D772D882D90E00E94CD2B2D
:100AE0002A833B834C835D836E837F8388879987CA
:100AF000822E932EA42EB52E2401350100E20E94F1
:100B0000CB2CA22EB32EC42ED52EA3019201569526
:100B10004795379527952A0D3B1D4C1D5D1D57FFA9
:100B200005C05F772F5F3F4F4F4F5F4F2093F50317
:100B30003093F6034093F7035093F803E9818E2F27
:100B400099278FBFCA01B90129960FB6F894DEBF65
:100B50000FBECDBFDF91CF911F910F91FF90EF900E
:100B6000DF90CF90BF90AF909F908F907F906F90CD
:100B70005F904F903F902F900895809174078A3036
:100B800021F48091EC03843021F081E08093940281
:100B9000089586E00E94D3011092940208952FB721
:100BA000F89433278093C600E0ECF0E08081806405
:100BB00080832FBF0895FC016115710519F481E050
:100BC00090E008958091070490910804892B19F012
:100BD00085E090E008957093B5146093B414F09399
:100BE0000804E09307041092EE031092ED0381E0F5
:100BF0008093EF038091C00080648093C000809157
:100C0000C10080648093C100808121E030E0309396
:100C1000EE032093ED030E94CF0580E090E008955D
:100C20008FB7F89499272091A5022E7F2093A502D3
:100C30002EE72093BC038FBF61E070E08CEB93E064
:100C40000E94DB05992708951F93CF93DF938FB7F9
:100C5000F89410928F162091740740E0283009F420
:100C600041E030E0293009F431E0442311F433232A
:100C700051F010927407E0911506FF27EE0FFF1F49
:100C8000E65FFB4F108299278FBF442311F4332373
:100C900031F19FB7F8948091CB148F5F8093CB1480
:100CA00080910504833479F4209104068091030631
:100CB000821779F0822F8F5F80930406863048F088
:100CC0001092040606C0A0E0442309F4A1E071E0FC
:100CD00002C0A0E070E0892F99278FBF06C02223B1
:100CE00011F010E06CC0A0E070E08FB7F894992785
:100CF000209194028FBF222341F08FB7F894992757
:100D00002AE0209374078FBF42C08FB7F8949927C9
:100D100060910A0440910C048FBF8FB7F894282F7C
:100D2000332750E09091030680910406981709F448
:100D300051E02FBF552341F5662331F55FB7F89495
:100D400082E080930A048FB7F894282F332740E07D
:100D50009091030680910406981709F441E02FBF93
:100D6000442311F080E006C0E0910406FF27ED5F08
:100D7000F94F828180930B0483E4809305041092E1
:100D80001506852F99270EC04150423010F010E013
:100D90000BC08FB7F894992725E42093050421E030
:100DA000209315068FBF11E0772349F08FB7F89491
:100DB0009927A0939D028FBF88E00E94D3018FB72F
:100DC000F894C82FDD27809174078A3021F40E949F
:100DD000BD05CFBF1DC0CFBF1123D1F02FB7F894F1
:100DE000332710929916109298161092010481E000
:100DF000809374072FBF0E941006882349F08FB795
:100E0000F894992729E0209374078FBF0E943E022F
:100E1000DF91CF911F910895DF92EF92FF920F9390
:100E20001F938FB7F894282F3327D22E9091B300B9
:100E30008091B20047B3981711F041FF02C02FBF55
:100E400071C08091F3038823E1F10E94AA01E09030
:100E50008803F090890300918A0310918B032091FD
:100E6000D1143091D2144091D3145091D4146E19EE
:100E70007F09800B910B621773078407950720F099
:100E80001092F30371E01EC02E0D3F1D401F511F35
:100E90008091970390919803A0919903B0919A0340
:100EA000281B390B4A0B5B0B273E310541055105C9
:100EB00040F4822F223010F070E005C070E082E034
:100EC00002C070E086EE682F61508091B60083FD0D
:100ED000FCCF8091B200681709F46F5F20919703EF
:100EE000309198034091990350919A03DA01C90116
:100EF0000196A11DB11D860F911DA11DB11D821767
:100F00009307A407B50710F4622F60958091B6008F
:100F100083FDFCCF6093B300DFBE772319F080E040
:100F20000E94D3011F910F91FF90EF90DF900895E1
:100F3000AFB7F894BB27E1E0E093F3036093880335
:100F40007093890380938A0390938B032093D11429
:100F50003093D2144093D3145093D414AFBF0E9453
:100F60000C0708951F920F920FB60F9211248F93C2
:100F70008091B0008093B0008091B60081FDFCCFDD
:100F80008F910F900FBE0F901F901895E0E0F1E049
:100F90006927660FF11DE60FF11DC895982F802D6A
:100FA0003196C89590250895982F8091A0028823A6
:100FB00089F5992379F531E03093A00280915502AB
:100FC0008093A10220919502822F817080939603D5
:100FD00080915A0290915B029093A3028093A202A7
:100FE000809196028093A40232273170267EE32FEF
:100FF000FF27EE0FFF1FEA5AFD4F808191819093EA
:101000005B0280935A02232B2093950289E00E9471
:10101000D30108958091950280FF02C08B7F01C0AB
:101020008D7F8093950208950F931F93082F162F9D
:101030008091EC038130D9F0813038F0823009F4AE
:101040004AC0833009F028C159C0002309F458C1AF
:101050001092AD141092AC14109278071092C01434
:101060001092F003109212061092110639C100235B
:1010700009F046C180911106909112060E94C607A0
:10108000909312068093110682E08093EC031093F4
:10109000C014143409F000C125C18695869503C09B
:1010A000809195028695817009F0F6C08091950235
:1010B000992311F0846001C0826080939502809131
:1010C0009502877E886080939502109296028FEF3A
:1010D0008093550215C1002309F0DEC06093F00330
:1010E00080911106909112060E94C60790931206F5
:1010F0008093110683E08093EC0302C1809178070E
:101100008F3F09F4C9C0002309F461C0823008F49C
:10111000C3C0E091AC14EE2309F4EBC04E2F415054
:10112000E42FFF27E455FB4E82819927382F222791
:10113000442311F4E2E002C0E42FE150FF27E4551C
:10114000FB4E82819927282B392B80911106909193
:1011500012062817390709F09FC080E00E94D407C3
:101160003091F0038091030620910406982F9F5F31
:10117000963008F090E0921771F0E82FFF27ED5FAE
:10118000F94F32838F5F80930306863010F0109200
:1011900003060E943E021092AD141092AC1494E02B
:1011A0009093EC03109278071092C0141092F00301
:1011B00010921206109211068091A5028D7F8093E5
:1011C000A50280919402882309F49AC084C08230D9
:1011D00008F44EC0E091AD14FF27E455FB4E828128
:1011E000482F5527342F20919502822F869586957A
:1011F0008695837099278130910519F00297F9F44B
:101200000EC0277E206120939502442311F485E0CF
:1012100001C080E0809396023093550210C0809107
:101220009602833660F4E0915A02F0915B02E80F77
:10123000F11D4083809196028F5F8093960280918A
:10124000AD14E82FFF27E455FB4E62818F5F80933A
:10125000AD14833010F01092AD14772780911106F1
:10126000909112060E94C607909312068093110671
:101270008091AC14E82FFF27E455FB4E12838F5F5B
:101280008093AC14833010F01092AC1480917807E6
:101290008F5F8093780734C01092AD141092AC1415
:1012A00014E01093EC03109278071092C01410927F
:1012B000F00310921206109211068091A5028D7F04
:1012C0008093A50281E00E94D40780919402882334
:1012D00029F01093EC030E94BD0512C0002381F099
:1012E00081E009CF80919502982F917080FDD5CE35
:1012F000D7CE8091B0149927382F222742E01CCFF7
:101300001F910F9108951F920F920FB60F92112403
:101310002F933F934F935F936F937F938F939F93FD
:10132000AF93BF93EF93FF938091C00087FF42C0BC
:101330006091C600E0911306F0911406309719F100
:1013400080918D1690918E16E80FF91F608301969B
:1013500090938E1680938D1620919A1630919B163D
:101360008217930738F11092140610921306809199
:1013700073078330F9F08091C1008F778093C100AB
:101380001092730717C06E3719F460E081E010C047
:101390008091A5026D3721F482608093A5020AC076
:1013A00081FF05C08D7F8093A50280E2682780E0E1
:1013B0000E941408FF91EF91BF91AF919F918F917F
:1013C0007F916F915F914F913F912F910F900FBE41
:1013D0000F901F901895982F8D57823068F4809148
:1013E000A50281608093A50280E289278093770718
:1013F0008DE78093BC0302C09093BC0361E070E072
:101400008CEB93E00E94DB059927089578941F9256
:101410000F920FB60F921124FF920F931F932F93E9
:101420003F934F935F936F937F938F939F93AF936C
:10143000BF93CF93DF93EF93FF932091ED03309110
:10144000EE038091B4149091B5142817390780F4F5
:10145000E0910704F0910804E20FF31F80812F5FF1
:101460003F4F3093EE032093ED030E94CF05D1C090
:1014700010920804109207041092EF038091C100AB
:101480008F7B8093C100FFB6F8948091A50280FF06
:101490000EC08E7F8093A502809177078093BC0356
:1014A00061E070E08CEB93E00E94DB05AFC08091BF
:1014B0007407843009F48CC0853040F4823021F107
:1014C0008330B8F5813009F09CC00DC0863009F436
:1014D0008DC0863008F483C0873009F48EC0883010
:1014E00009F08FC091C0809105040E94EB09082F7C
:1014F00083E0809374076091050480919816909121
:1015000099160E94C60710C08091CB140E94EB0967
:10151000082F83E0809374076091CB148091981614
:10152000909199160E94C6079093991680939816E9
:1015300066C0E0911506FF27EE0FFF1FE55FFB4F2A
:1015400080810E94EB09082F10911506C12FDD271D
:10155000FE01EE0FFF1FE55FFB4F60818091981643
:10156000909199160E94C6079093991680939816A9
:10157000209101042F5F20930104113039F58091EF
:101580009C02E0919702F0919802E80FF11DE08132
:101590008F5F80939C0290919B02981730F482E0B9
:1015A00080930C0440E050E002C04E2F5527DE012E
:1015B000AA0FBB1FFD01E65FFB4F8081823031F037
:1015C0002F3F21F0A55FBB4F4C9319C084E012C0A0
:1015D000809198160E94EB09082F85E00BC080913E
:1015E00099160E94EB09082F86E004C00E9410069D
:1015F000082F87E08093740702C088E003C00023AF
:1016000029F089E0809374070E943E028F2D99276C
:101610008FBFFF91EF91DF91CF91BF91AF919F91DC
:101620008F917F916F915F914F913F912F911F917A
:101630000F91FF900F900FBE0F901F9018951F9263
:101640000F920FB60F9211248F938091C80087FFDD
:1016500002C08091CE008F910F900FBE0F901F900F
:10166000189578941F920F920FB60F9211240F9035
:101670000FBE0F901F90189578941F920F920FB67F
:101680000F9211240F900FBE0F901F901895789411
:101690001F920F920FB60F9211240F900FBE0F9052
:1016A0001F90189578941F920F920FB60F921124E5
:1016B0000F900FBE0F901F90189578941F920F9265
:1016C0000FB60F9211248F939F9380919600909163
:1016D00097009F918F910F900FBE0F901F901895BC
:1016E00078941F920F920FB60F9211242F933F936D
:1016F0008F939F932FB7F894332780910F06909183
:10170000100601969093100680930F062FBF9F91AD
:101710008F913F912F910F900FBE0F901F901895B2
:101720001F920F920FB60F9211240F931F932F93B6
:101730003F934F935F936F937F938F939F93AF9359
:10174000BF93CF93DF93EF93FF932EB5E0916E0796
:10175000F0916F07309739F080910B0690910C064D
:10176000E80FF91F208380910B0690910C060196DB
:1017700090930C0680930B0680E00E94A903C09111
:101780000B06D0910C062091070330910803C21775
:10179000D30708F042C000912716109128164091F7
:1017A0006E0750916F07CE010A962817390708F483
:1017B000C901DA01AC0FBD1FF801EC0FFD1F9C0140
:1017C0002150304015C00115110531F080818EBDCA
:1017D0000DB407FEFDCF04C01EBC0DB407FEFDCF47
:1017E0008EB54115510509F08C93219611963196CD
:1017F000C217D30740F381E00E94A9030115110528
:1018000031F00C0F1D1FF80180818EBD01C01EBC80
:10181000D0930C06C0930B0611C010926F07109264
:101820006E07109228161092271610920803109235
:10183000070310920C0610920B068EB5FF91EF91E4
:10184000DF91CF91BF91AF919F918F917F916F91D8
:101850005F914F913F912F911F910F910F900FBE6C
:101860000F901F90189578941F920F920FB60F92B9
:1018700011240F900FBE0F901F90189578941F920F
:101880000F920FB60F9211240F900FBE0F901F9062
:10189000189578941F920F920FB60F9211242F93E0
:1018A0003F938F939F93AF93BF932FB7F8943327B2
:1018B0008091FB039091FC03A091FD03B091FE0386
:1018C0000196A11DB11D8093FB039093FC03A0938F
:1018D000FD03B093FE032FBFBF91AF919F918F91F6
:1018E0003F912F910F900FBE0F901F901895CF92A0
:1018F000DF92EF92FF920F931F93182F0E94AA017D
:101900006B017C018091F702813009F58091F3022F
:101910009091F402A091F502B091F602A701960110
:10192000281B390B4A0B5B0B609176027091770292
:10193000809178029091790203EF0E94552B609379
:101940007602709377028093780290937902112344
:1019500041F0C092F302D092F402E092F502F092CC
:10196000F6021F910F91FF90EF90DF90CF900895B6
:101970006091F802882399F06623A1F07727762FEB
:10198000662743EF80917C0290917D020E94142B88
:1019900090937D0280937C021092F80208956F5F0D
:1019A0006093F80208956091F702882389F0772701
:1019B000762F662743EF80917A0290917B020E94F6
:1019C000142B90937B0280937A021092F702089571
:1019D0006F5F6093F70208951F920F920FB60F92F8
:1019E00011242F933F934F935F936F937F938F9324
:1019F0009F93AF93BF93EF93FF938091B000809339
:101A0000B0008091B60081FDFCCF8091B300992792
:101A10000196AA27BB272091970330919803409104
:101A2000990350919A03280F391F4A1F5B1F209377
:101A30009703309398034093990350939A0390919E
:101A4000B10090688091B60080FDFCCF9093B1000A
:101A50009F778091B60080FDFCCF9093B100789481
:101A60000E940C07FF91EF91BF91AF919F918F91D1
:101A70007F916F915F914F913F912F910F900FBE8A
:101A80000F901F901895665F0E942C030895EF92A7
:101A9000FF920F931F938C010E94EE048B5F682FBF
:101AA000C8010E942C037C01C8010E94F104E80EC9
:101AB000F11CC7011F910F91FF90EF9008951F93A4
:101AC000982F1FB7F8948091DA02823099F58091AF
:101AD0006702891779F58091650220E030E08F3F39
:101AE00011F421E030E0232BF1F49FEF9093670293
:101AF0008F3F19F42FEF30E00DC0282F3327F90165
:101B0000ED53FC4F8081809365028F3F11F49093D9
:101B1000660290832093C00381E08093DA028EE016
:101B20000E94D30105C08FEF809367021092DA0202
:101B300021E001C020E0812F99278FBF90E0213064
:101B400009F491E081E09827892F99271F91089542
:101B500080E00E945F0D992708950F931F93CF9304
:101B6000DF93182F0FB7F8948091DB02882311F4CC
:101B70000E94B203802F99278FBF8FB7F894C82F88
:101B8000DD272C2F8091DB02882361F481E0809394
:101B9000DB021093060484E10E94D301CFBF80E0F2
:101BA00090E021C0E12FFF27EC5FFB4F80818F3F4A
:101BB00089F4E0916902E11789F40CC0109368027E
:101BC00004C0FF27EC5FFB4F10831093690280E095
:101BD00090E002C085E090E02FBF05C080916802D0
:101BE0008F3F79F7EBCFDF91CF911F910F91089540
:101BF0008FB7F894282F3327922F80916A02882379
:101C000031F48091DB02823011F42FBF13C09FBFEB
:101C10008FB7F894282F33278091DB02882369F44B
:101C200082E08093DB0210926A022FBF0E94B2030F
:101C3000209A289A81E090E008952FBF80E00E94CA
:101C4000AD0D80E090E00895EF92FF920F931F9307
:101C50008C0160E50E942C037C01C8010E94710484
:101C60008150E80EF11CC7011F910F91FF90EF907A
:101C70000895665F0E942C030895EF92FF920F93E0
:101C80001F93CF93DF93E6E3F6E1C091AA02D091D0
:101C9000AB02C035D10510F0C0E5D0E080E5DF0132
:101CA0001D928A95E9F72091AA023091AB028091AA
:101CB000A6029091A70200E010E07F0113C0FC0192
:101CC000ED58FB4FE0812115310539F0019660E9AF
:101CD00071E00E946D2D21503040D701ED937D01C0
:101CE0000F5F1F4F0C171D0751F73093AB02209366
:101CF000AA029093A7028093A60240E56AE276E1E9
:101D00008FEF9FEF0E94AD02882319F08AE00E94B6
:101D1000D301DF91CF911F910F91FF90EF90089524
:101D2000662361F48091AA029091AB02892B19F08D
:101D30000E943D0E08951092AC0208958AE00E9420
:101D4000D3010895EF92FF920F931F93CF93DF93E8
:101D5000182F7B01042FE82FFF27EE0FFF1FE35FF3
:101D6000F94F1182108210925402A0910D06B09189
:101D70000E06109721F08091D01480FF0EC081E0F4
:101D80008093540203C083E00E94D3011123C9F45D
:101D9000602FC7010E94900E14C0FD01359624816A
:101DA0003327ED016D817727762F6627818199276B
:101DB000682B792BAD0186810E945202882331F372
:101DC000E2CFDF91CF911F910F91FF90EF90089597
:101DD0008FB7F894282F33278091AC02813021F4FB
:101DE0002FBF80E090E0089540E08091AA0290919A
:101DF000AB02892B09F441E0442321F02FBF81E09D
:101E000090E0089581E08093AC022FBF0E943D0EC8
:101E100080E090E008951F93CF93DF93182F809177
:101E2000AC02882361F48091AA029091AB02883CB5
:101E3000910528F081E08093AC020E943D0E8FB79F
:101E4000F894C82FDD272091AA023091AB0281E0DF
:101E500020393807D8F48091A8029091A902FC019A
:101E6000ED58FB4F1083019660E971E00E946D2DE3
:101E70009093A9028093A8022F5F3F4F3093AB024B
:101E80002093AA02CFBF80E090E003C0CFBF8FEFC6
:101E90009FEFDF91CF911F910895AF92BF92CF92A4
:101EA000DF92EF92FF920F931F93CF93DF93809176
:101EB000B114882309F4C4C00E94F80D882309F4E2
:101EC000BFC08FB7F8949927C091FF03D091000449
:101ED0008FBF1092B11428988FE88EBD0DB407FE05
:101EE000FDCF8EB51EBC0DB407FEFDCF8EB5289A72
:101EF000982F80910603833011F0873031F485E00C
:101F00008093291688E080930603A92EBB24A2FEA5
:101F100067C080910603863019F41092060303C04F
:101F2000882309F05DC0943009F049C0289886E8FC
:101F30008EBD0DB407FEFDCF8EB51EBC0DB407FEE1
:101F4000FDCFFEB4289A2FE1F2228091C503982F8D
:101F5000969596953F2D391B830F8093C50300916D
:101F6000920310919303B80181E00E94D703B80156
:101F700082E00E94E6030F591F4FF801F1820E9490
:101F80000F046B017C010091920310919303B8013F
:101F900080E00E94E603045A1F4FCC19DD09279701
:101FA000CE01AA2797FDA095BA2F8C0D9D1DAE1DC1
:101FB000BF1DF80180839183A283B3830EC060911B
:101FC00092037091930382E00E94D7036091920381
:101FD0007091930380E00E94D70385E0809306030D
:101FE000A3FE2EC090910603943069F485E080939F
:101FF0002916109206031092D5149093C90380E11C
:102000000E94D3011DC09530D9F42091F90328987E
:1020100086E88EBD0DB407FEFDCF8EB51EBC0DB497
:1020200007FEFDCF8EB5289A8F71922F96959695C3
:10203000891B280F2093F90389E08093060308C0C9
:1020400020910603222309F475C2293009F082C1C8
:10205000289880E28EBD0DB407FEFDCF8EB51EBC64
:102060000DB407FEFDCF8EB5482F5527433008F439
:10207000AEC2842F99278E3591050CF0A8C21EBCE4
:10208000E0919203F09193034083A42FA250A730D4
:1020900010F42A2F01C027E0BF016F5F7F4F322F5E
:1020A000FB0140E050E00DB407FEFDCF8EB51EBC35
:1020B000992781934827042E4295407F4025052E7D
:1020C000542F42954F700426469554274527440FB8
:1020D000440F440F4025315031F72150FB01E20FEE
:1020E000F11D2F5F31968FB7F894682F772790E016
:1020F0008091A614833008F491E06FBF992309F40E
:102100005EC09A2F921B18C00DB407FEFDCF8EB58E
:102110001EBC808381914827042E4295407F402534
:10212000052E542F42954F70042646955427452777
:10213000440F440F440F4025915030F70DB407FE73
:10214000FDCF8EB51EBC9A012827022E2295207F36
:102150002025032E322F22952F7002262695322716
:102160002327220F220F220F20250DB407FEFDCFBB
:102170008EB51EBC2827022E2295207F2025032EF7
:10218000322F22952F700226269532272327220FE1
:10219000220F220F20250DB407FEFDCF8EB5E09152
:1021A0009203F0919303EF59FF4F8083289A85E0C3
:1021B0008093291610920603232B31F0B7C10DB47A
:1021C00007FEFDCF8EB503C2E0909203F09093031B
:1021D00057010894A11CB11CF7018185208599271E
:1021E000582F44273327422B532B80919B03282FB2
:1021F0003327F901EE0FFF1FEA54FB4E80819181D6
:10220000609171078417950769F4F901EF56F94E4B
:102210008081861709F464C0862F8F5F80937107D1
:1022200080831BC010E000E080E090E0C6EBD4E1CA
:10223000E1E9F6E1C62EC394DF01782F9C01888185
:1022400099818417950759F420939B038C918617E5
:1022500009F446C0C0927107CC9210E828C0808172
:10226000962F981B191710F4192F022F7F5FC901A1
:10227000019611962296319685309105F1F67530CA
:10228000B1F400939B03A02FBB27FD01EE0FFF1FAE
:10229000EA54FB4E51834083862F8F5F80937107F2
:1022A000FD01EF56F94E8083A356B94E1C929091D2
:1022B0007107892F8F778F3779F41F3768F0E1E93D
:1022C000F6E1292F207880818F678913208331964A
:1022D00036E1E639F307B9F780919B03282F3327BE
:1022E000F5019281A22FBB27FD01E356F94E8081B3
:1022F00080FF07C0FD01E955FB4E8081981729F149
:1023000002C081608083A955BB4E9C93CFB6F894E0
:102310008091A6148330B0F4E091CA14E80FE33042
:1023200008F0E350FF27EE0FFF1FEB58FC4F008132
:102330001181F182E0828F5F8093A61481E10E9477
:10234000D30178018C2D99278FBFF0929303E092EF
:102350009203E3C0822F8150833008F0BCC08150CB
:10236000823008F03BC0909129169130B9F530E0E9
:1023700080917007882309F431E0332379F12F9895
:102380009093090490937007609184007091850088
:102390002FB7F8944091840050918500CA01861BA4
:1023A000970B03968B52934018F0CA01039603C013
:1023B000CB01855D9C4F009711F481E090E001977F
:1023C000909389008093880082E086BB90916F0093
:1023D000926090936F0033272FBF68C0233009F0BD
:1023E00042C080912916833009F097C00E94F80DF1
:1023F0008823C9F128988FE88EBD0DB407FEFDCF64
:102400008EB51EBC0DB407FEFDCF8EB5289A809107
:10241000810080648093810080E286BB80916F00A0
:10242000806280936F009091BF03289888EC8EBDE6
:102430000DB407FEFDCF8EB590669EBD0DB407FEB0
:10244000FDCF8EB5289A289882EC8EBD0DB407FE7C
:10245000FDCF8EB586E08EBD0DB407FEFDCF8EB5E7
:10246000289A84E023C0809106038150823000F5D1
:10247000809129168530E1F40E94F80D8823C1F07F
:10248000289882EC8EBD0DB407FEFDCF8EB583E09B
:102490008EBD0DB407FEFDCF8EB5289A80916F00DA
:1024A0008F7D80936F001092B11483E08093291682
:1024B00090910603913041F4809129168330B1F553
:1024C0002F9A9093291625C0923039F580912916BC
:1024D000833061F51EC0273001F50E94F80D882376
:1024E000E1F09091BF03289888EC8EBD0DB407FEF3
:1024F000FDCF8EB590669EBD0DB407FEFDCF8EB5A7
:10250000289A80912916853021F484E08093291639
:1025100004C088E08093060304C0809106038830DD
:1025200029F4109206038FE00E94D30180910603E4
:102530008823C9F480912916853091F48091B114D3
:10254000882371F48091C903823051F481E0809333
:10255000C90380E10E94D30180910603882319F406
:1025600082E10E94D30180917007823019F51092A8
:102570007007809109048130E9F480912916823036
:1025800021F483E08093291613C0809106038630DE
:1025900079F410920603289881E88EBD0DB407FEE9
:1025A000FDCF8EB51EBC0DB407FEFDCF8EB5289AAB
:1025B0000E9410138FB7F894282F33278091BE0301
:1025C000813061F081E08093BE032FBF70CC289AE8
:1025D00085E08093291610920603A8CF1092BE03BF
:1025E0002FBFDF91CF911F910F91FF90EF90DF9060
:1025F000CF90BF90AF9008958FB7F894282F3327CE
:102600008091BE0381508093BE03803811F02FBFAC
:10261000089581E08093BE032FBF0E944D0F08955F
:102620008FB7F894282F33278091BE03882329F091
:1026300080688093BE032FBF089581E08093BE031E
:102640002FBF0E944D0F089578941F920F920FB6DE
:102650000F9211242F933F934F935F936F937F9328
:102660008F939F93AF93BF93EF93FF93E6E8F0E0D0
:1026700080819181208131818FB7F894992730939F
:1026800000042093FF0321E02093B1148FBF0E9428
:102690001013FF91EF91BF91AF919F918F917F9117
:1026A0006F915F914F913F912F910F900FBE0F90BF
:1026B0001F90189578941F920F920FB60F921124C5
:1026C0002F933F934F935F936F937F938F939F933A
:1026D000AF93BF93EF93FF9380916F008D7F8093B3
:1026E0006F0078949FB7F89480917007813019F447
:1026F00082E080937007892F99278FBF0E94101363
:10270000FF91EF91BF91AF919F918F917F916F91C9
:102710005F914F913F912F910F900FBE0F901F909F
:1027200018951F93FC018FE38287809105038F5FCB
:102730008093050383832FB7F89433278091BE03DA
:102740008F5F8093BE032FBF8091C903882311F050
:1027500015E00DC0F0937607E093750781E0809354
:10276000C9031092720780E10E94D30110E00E9419
:10277000FC12812F99271F910895EF92FF920F93DA
:102780001F93CF93DF93082F7B01EA01122F21358E
:1027900018F086E090E089C08A81298140E099277D
:1027A000982F88273327822B932B87749C7C815406
:1027B000984809F441E0442319F4CE010E94330300
:1027C000135F18832FB7F89433278091620290919A
:1027D00063022FBF8887892F992789872FB7F8949D
:1027E0003327809164022FBF99278C831D82CE01ED
:1027F0000E945004FC010083EE828F2D99278F8365
:102800008FB7F894282F33278091DA02882371F448
:1028100082E08093DA02109267022FBFCE010E94FD
:1028200091139927182F882399F00FC02FBFD093A9
:10283000C203C093C1038FB7F894C82FDD272C2F94
:102840008091DA02882399F406C080E00E945F0D2F
:10285000812F99272AC081E08093DA021092C00369
:102860008EE00E94D301CFBF80E090E01EC0809137
:10287000C3038F3F89F4E0916602EE2369F010C034
:102880001092650204C0FF27ED53FC4F1082109296
:10289000660280E090E002C085E090E02FBF05C0B6
:1028A000809165028F3F79F7EBCFDF91CF911F9138
:1028B0000F91FF90EF9008951F93AC012091E502D6
:1028C0002223C1F18091E6029091E702481759074F
:1028D00089F5213071F4809195068D7F809395065E
:1028E00083E080936B0286E10E94D30180E090E058
:1028F00023C02230F9F48FB7F89499272091BE03B2
:102900002F5F2093BE038FBF8091C9038150823017
:1029100010F015E00AC084E08093C90383E080933F
:10292000D51480E10E94D30110E00E94FC12812F97
:10293000992702C081E090E01F9108958091C9031A
:102940001092C903853011F4129803C0863051F4F7
:10295000129A8091D9028F5F8093D9028DE00E94F4
:10296000D3010895873011F08093C90308951F9310
:10297000CF93DF93382F80915C02882309F452C0F3
:102980008091EC029927282F882309F44BC0332328
:1029900029F480919403281708F444C0E091EA02D6
:1029A000FF27EE0FFF1FE659FB4EC081D181CE01FC
:1029B0000E947104182F8091B4029091B502892B66
:1029C00089F58091D902853068F1873141F4809191
:1029D0009E068D7F80939E068DE00E94D30190918C
:1029E000D902892F8651823010F0953011F48CE095
:1029F0000BC0963011F48DE007C09B3021F093316D
:102A000011F0943119F48EE08093D902D093B5027D
:102A1000C093B40211501093160681E0809387038F
:102A20001092B302DF91CF911F9108951F93CF931E
:102A3000DF93EC01FB014530D0F114818091FC0261
:102A4000811738F09927811B91098F3791050CF474
:102A500046C18091E1029091E20201969093E202D8
:102A60008093E102455055273596BF018AEC93E0EB
:102A70000E94ED2D1093FC020E94AA012091CA032E
:102A80003091CB03322F2227330F330F44275527A2
:102A9000621B730B840B950B60930E0370930F03F3
:102AA000809310039093110389E10E94D30185E183
:102AB0000E94D3018091D9028231B1F58FB7F89489
:102AC000992740916202509163028FBF8F812E81BE
:102AD0009927982F88273327822B932B481759073C
:102AE000F9F08F5F9F4F09F409C1898528859927DF
:102AF000982F88273327822B932B20915D023091CA
:102B00005E022817390709F0F9C080919E068D7F73
:102B100080939E068EE08093D9028DE00E94D301BF
:102B20008091D902823129F08F3019F08E3009F06E
:102B30008CC08FB7F894992740916202509163023C
:102B40008FBF8F812E819927982F88273327822B3B
:102B5000932B4817590711F060E05BC089852885E1
:102B60009927982F88273327822B932B20915D025A
:102B700030915E022817390709F0C0C064E0CE0129
:102B80000E942C03FC01908180915F02891709F05B
:102B9000B5C02091B4023091B5021092B5021092E6
:102BA000B40280919E068D7F80939E06409187039C
:102BB000E091EA02FF27EE0FFF1FE659FB4E8081EE
:102BC000918128173907C1F4442399F4C9010E945F
:102BD00052048091EA029091EC02992351F08F5FA8
:102BE0008093EA028E3111F41092EA029150909390
:102BF000EC0281E00E94B71480E00E94D30C80E0D8
:102C00000E94770C8EE08093D9028DE00E94D30160
:102C100061E0CE010E9476042091B4023091B502A9
:102C2000882321F0232B29F080E109C0232B09F010
:102C300065C080919E068D7F80939E0683E1809380
:102C4000D9028DE00E94D30159C08051823008F032
:102C500055C0898528859927982F88273327822B67
:102C6000932B20915D0230915E028217930709F049
:102C700045C08F812E819927582F44273327422B17
:102C8000532B8FB7F89499272091620230916302F9
:102C90008FBF4217530791F14F5F5F4F51F52EC021
:102CA00060E0CE010E947604882319F01093D902C7
:102CB000C8CF8FE08093D90221C08091B402909157
:102CC000B5020E945C148823C9F460E0CE010E9422
:102CD0007604882399F081E08093B8020FC0809138
:102CE000E3029091E40201969093E4028093E30260
:102CF000DECE1091D902103101F7D2CFCE01DF9193
:102D0000CF911F910895AF92BF92CF92DF92EF9231
:102D10000F931F935B016C010E94AA01AB01BC01E0
:102D2000B1E0EB2E9601850183E00E94EE021F9137
:102D30000F91EF90DF90CF90BF90AF9008956623F2
:102D4000E9F48091CB029091CC02A091CD02B09198
:102D5000CE020196A11DB11D8093CB029093CC02AF
:102D6000A093CD02B093CE0282E18093D90262E0BB
:102D700070E080E090E00E94831608958091CF0279
:102D80009091D00201969093D0028093CF0263304D
:102D900069F48091B802813049F41092B80280E160
:102DA0008093D9028DE00E94D301089580919E0600
:102DB00081FF02C08FE001C08EE08093D9020895A8
:102DC000DF92EF92FF920F931F93CF93DF93EC016B
:102DD000D62E0E945004FC0180819927803821F072
:102DE000813809F07BC047C0DD20A9F58F81992784
:102DF000982F88272E813327822B932B8F5F9F4F0D
:102E000099F08091BD029091BE02A091BF02B09155
:102E1000C0020196A11DB11D8093BD029093BE0218
:102E2000A093BF02B093C0028091B9029091BA0200
:102E3000A091BB02B091BC020196A11DB11D80936F
:102E4000B9029093BA02A093BB02B093BC028091E6
:102E5000D9028F5F0AC08091C1029091C20201968F
:102E60009093C2028093C10284E18093D9028DE0E5
:102E70000E94D30133C01092E802DD2059F4109172
:102E8000E9020E94AA0120917A06621B160F16958C
:102E90001093E902E090CC14F090CD140091CE1480
:102EA0001091CF14CE010E944204FC01E382BB27A3
:102EB000A12F902F8F2D8283C801AA27BB27818342
:102EC000E12EFF2400271127E0821092E5026D2DEC
:102ED0008091E6029091E7020E949F16DF91CF91C8
:102EE0001F910F91FF90EF90DF900895AF92BF92E6
:102EF000CF92DF92EF920F931F93E0917E02E33027
:102F0000F9F0FF27EE0FFF1FEE0FFF1FE558FC4FF4
:102F1000A080B180C280D380A114B104C104D104C7
:102F200021F487E10E94D3010BC00E94AA01AB01EA
:102F3000BC01E1E0EE2E9601850184E00E94EE02E4
:102F40001F910F91EF90DF90CF90BF90AF900895B9
:102F5000AF92BF92CF92DF92EF920F931F935B01DC
:102F60006C010E94AA01AB01BC01B1E0EB2E9601FD
:102F7000850180E00E94EE021F910F91EF90DF909B
:102F8000CF90BF90AF9008952F923F925F926F9233
:102F90007F928F929F92AF92BF92CF92DF92EF92E9
:102FA000FF920F931F93CF93DF935B016C01C0E0FF
:102FB000D0E0EBE7F6E0608561FF19C22081318146
:102FC00042815381E480F58006811781D601C501D5
:102FD000821B930BA40BB50B8E159F05A007B107A1
:102FE00008F405C260FF03C06D7F608708C02E0D26
:102FF0003F1D401F511F2083318342835383C230C2
:1030000009F4C8C0C33030F4CC2359F0C13009F002
:10301000F4C1A3C0C33009F489C1C43009F0EDC1C3
:10302000E2C16CE08DE198E00E942C038C018DE1FF
:1030300098E00E94330310927D0880919202909153
:103040009302019690939302809392020197F80164
:103050008183892F992780830E94EE0485508230D6
:1030600008F470C08091EF029091F0020196909365
:10307000F0028093EF028091EC028E3129F00E94E1
:10308000F604EC01009751F48091AF029091B002E8
:1030900001969093B0028093AF0254C0FC01ADE161
:1030A000B8E083E60D9001928150E1F789E18883D1
:1030B000CE010E94470DFC0180914E0290914F027B
:1030C0008183892F992780838091AE028F5F8093BF
:1030D000AE0281508283138281E284830E94AA011E
:1030E0007B018C01CE010E944204FC01E382BB27DC
:1030F000A12F902F8F2D8283C801AA27BB27818300
:10310000E12EFF2400271127E082CE010E94150541
:10311000882361F48091AD02882321F08BE00E9426
:10312000D30110C080E00E94B7140CC08091AF02A0
:103130009091B00201969093B0028093AF02CE01BD
:103140000E9452046091500270915102809152028B
:10315000909153020E94A81750C10E94AA019F9308
:103160008F937F936F9380914E0290914F029F9324
:103170008F9380E092E09F938F930E94FD2D0E9499
:10318000E80E8DB79EB708960FB6F8949EBF0FBE97
:103190008DBF33C150909C16C091E602D091E702DA
:1031A0002090C5143090C6148FB7F894282F332779
:1031B0008091E802882319F02FBF25E0B3C081E099
:1031C0008093E8022FBF0E94AA013B014C0160934B
:1031D0007A06CE010E944204FC018081E1802281B6
:1031E000A380332744275527542F432F322F2227DC
:1031F0009927AA27BB27B82FAA2799278827FF2412
:10320000002711278701FF24EE248E299F29A02B58
:10321000B12BBB24CC24DD248A299B29AC29BD29D0
:10322000282B392B4A2B5B2B2093CC143093CD14B5
:103230004093CE145093CF14CE010E944204FC015F
:103240008081E1802281A380332744275527542F92
:10325000432F322F22279927AA27BB27B82FAA2727
:1032600099278827FF24002711278701FF24EE24B0
:103270008E299F29A02BB12BBB24CC24DD248A29A5
:103280009B29AC29BD29282B392B4A2B5B2B8091FC
:10329000E902680E711C811C911C26193709480926
:1032A00059092383BB27A52F942F832F8283CA011B
:1032B000AA27BB278183252F33274427552720831F
:1032C00094E0590E252DAE01B10181E80E94BD1395
:1032D0009927D82E882311F1E090CC14F090CD14CA
:1032E0000091CE141091CF14CE010E944204FC0133
:1032F000E382BB27A12F902F8F2D8283C801AA279D
:10330000BB278183E12EFF2400271127E082109242
:10331000E8028D2D9927282F882321F482E08093BD
:10332000E5026BC020936B0286E15EC09091D902EA
:10333000892F8051823008F460C09731A1F48091C8
:10334000B4029091B502892B61F48091AD0288237B
:1033500031F480916C028F3F11F486E140C085E02A
:103360003EC08CE03CC09231A9F19F30A9F520917C
:103370006D022F3F79F080916C028F3F59F09927B1
:103380000196820F911D62E070E00E94812D609392
:103390006C0203C08FEF80936C028FEF80936D02FD
:1033A0008091D5029091D60201969093D602809397
:1033B000D5028091AD02882369F480916C028F3F21
:1033C00049F48091D7029091D80201969093D80247
:1033D0008093D7028EE003C09A3019F48BE080937B
:1033E000D9028DE001C087E10E94D30106C0219679
:1033F0003996C530D10509F0DECD81E00E94D301B8
:10340000DF91CF911F910F91FF90EF90DF90CF90C0
:10341000BF90AF909F908F907F906F905F903F9004
:103420002F900895EF92FF920F931F938091BD0309
:10343000882361F52091C1143091C2144091C314C6
:103440005091C414EFB7F894FF27609188037091EE
:10345000890380918A0390918B03E090D114F090BE
:10346000D2140091D3141091D4146E0D7F1D801FBF
:10347000911FEFBF2093C1143093C2144093C31423
:103480005093C4141092BD030E9498070E94AA0191
:103490000E94C4171F910F91FF90EF9008959F9283
:1034A000AF92BF92CF92DF92EF92FF920F931F9352
:1034B000CF93DF93CDB7DEB7C155D0400FB6F894A8
:1034C000DEBF0FBECDBF0091020410910304F801CE
:1034D0002081622F772722952695277033272F5F2B
:1034E0003F4FE3E075956795EA95E1F7637070707B
:1034F0006F5F7F4F88E190E00E94812D269FC00181
:10350000279F900D369F900D11248E83893410F0E3
:1035100088E48E830E94AA0169837A838B839C83CB
:103520000E5F1F4F109300030093FF02035E1F4FB7
:103530001093FE020093FD020F5110401092010300
:10354000F80180818770880F880F21812295269548
:1035500026952370282B33272F83818199279595D2
:1035600087958F719070982E8887C22EAA24BB24CD
:1035700064C01C1529F458E1C52EC10E81E006C0B7
:10358000191519F448E1942E910E80E09C1408F06E
:103590004CC0882311F095E004C0FE01E10FF11D3D
:1035A0009085112309F495E0DD2404C0D394F3E061
:1035B000DF1689F081E062969FAF62970E94040255
:1035C00062969FAD6297882389F7DD2021F4FE0182
:1035D000E10FF11D07C081E0D81631F4FE01E10FC3
:1035E000F11D9F5F918715C0E12EFF248E01075FBB
:1035F0001F4FE2E0DE1631F40E0D1F1D9150F80151
:10360000908307C084E00E9404020E0D1F1DF80184
:1036100080832091FF02309100038091FD02909100
:10362000FE028217930730F43CC0FE01E10FF11D4A
:1036300089E081870894A11CB11C1A2D8E81A816DF
:1036400008F497CF1FC0FF27E058F74F80859927D0
:103650009F938F938FE092E09F938F930E94FD2D15
:103660000F900F900F900F90E02F0F5F1F4F8091E2
:103670008508E81740F382E192E00E94142E0E9430
:10368000E80E0FC0A0E8B8E0FE01319680E5019099
:103690000D928150E1F781E08093FB0200E010E0A1
:1036A000E3CFCF5ADF4F0FB6F894DEBF0FBECDBFCA
:1036B000DF91CF911F910F91FF90EF90DF90CF900E
:1036C000BF90AF909F900895AF92BF92CF92DF923C
:1036D000EF920F931F93CF93DF93E82E5A016B0164
:1036E00080917E02CE2DDD278330A1F4FE01EE0F06
:1036F000FF1FEE0FFF1FE558FC4F4083518362838D
:103700007383E0927E02CA53DC4F8883E81609F483
:103710007CC047C08E01000F111F000F111F0558FC
:103720001C4FF80140835183628373838091A70605
:1037300081FF17C00E94AA0120919F063091A00628
:103740004091A1065091A206621B730B840B950B4E
:103750006A0D7B1D8C1D9D1DF80160837183828322
:10376000938350917E02E52FFF27EE0FFF1FEE0F90
:10377000FF1FE558FC4F80819181A281B381A8167B
:10378000B906CA06DB0610F5CA53DC4F5883E0922F
:103790007E02F3E0EF16C9F1F801A080B180C2808B
:1037A000D380A114B104C104D10421F487E10E94A3
:1037B000D3012BC00E94AA01AB01BC01B1E0EB2EEA
:1037C0009601850184E00E94EE021FC0252F332759
:1037D0002A533C4FF9014081433091F0542FE42F9C
:1037E000FF27EE0FFF1FEE0FFF1FE558FC4F8081F4
:1037F0009181A281B381A816B906CA06DB0630F70B
:10380000F901E082CA53DC4F4883DF91CF911F91C9
:103810000F91EF90DF90CF90BF90AF9008952F92CF
:103820003F924F925F926F927F928F929F92AF9250
:10383000BF92CF92DF92EF92FF920F931F93CF939D
:10384000DF93CDB7DEB7AA970FB6F894DEBF0FBEF1
:10385000CDBF19A21AA21BA21CA2E82FFF27EA3192
:10386000F10510F00C94D627EA59FF4FEE0FFF1F19
:103870000590F491E02D09948091D014882311F4DF
:103880000C94D62790E001E05FC00E94121A0C94BD
:10389000D6270E94AA014B015C018FB7F8949927A3
:1038A0001092F3038FBF9FEFC92E9FEFD92E9FEF8A
:1038B000E92E9FE7F92E60E0EBE7F6E0808581FFD7
:1038C0001CC080819181A281B381A5019401281B34
:1038D000390B4A0B5B0BDA01C90124813581468122
:1038E0005781281B390B4A0B5B0B2C153D054E05E8
:1038F0005F051CF469017A0161E0399636E0E83A27
:10390000F307E1F6662311F40C94D6271C141D046A
:103910001E041F0434F0C501B4010E94C4170C94A6
:10392000D627C092C114D092C214E092C314F09270
:10393000C41481E08093BD03A7019601C501B401C1
:103940000E9498070C94D6272091D014802F8223B0
:10395000C1F0E92FFF27EE0FFF1FE35FF94F408112
:10396000518111821082802F809528232093D014BA
:10397000992339F463E0CA010E94900E000F91E090
:10398000E3CF9F5F983010F00C94D627000FDCCF68
:1039900080915402E82FFF27EE0FFF1FE35FF94FDE
:1039A0006081718141E05FC00E9424060C94D6279B
:1039B0008091C1008F7B8093C1008091C1008F777F
:1039C0008093C100109273071092EF038091C100A1
:1039D00088608093C1008091C10080618093C100A4
:1039E0008091C10080688093C1008FB7F8949927B7
:1039F000109274071092EC030FC687E00C94BB275B
:103A00008091C100877F8093C1008091C1008F7E2B
:103A10008093C1000C94D62710929A0210929902BA
:103A20008FB7F894992740919D028FBF80919E0295
:103A3000811143E0209197023091980280919F027A
:103A4000882311F00C94D62780915402882311F01A
:103A50000C94D62760910D0670910E0662177307BD
:103A600011F00C94D6270E94A20E0C94D6278FB783
:103A7000F89499272091A2023091A30240919603D5
:103A80008FBF8FB7F894E42FFF27EE0FFF1FEA5A7E
:103A9000FD4F3183208320919502442311F02B7F29
:103AA00001C02D7F209395021092A00299278FBF0D
:103AB0000C94D62740E56AE276E18FEF9FEF0E94F3
:103AC000AD02882311F40C94D6270E94FA010C94BD
:103AD000D62790E08091EC02882309F491E09923A5
:103AE00011F00C94D627E091EA02FF27EE0FFF1F9A
:103AF000E659FB4E808191810E9452048BE00C9428
:103B0000BB2780E00E94B7140C94D6278091D9027D
:103B1000853011F08C3049F58FB7F89499272091B2
:103B2000BE032F5F2093BE038FBF8091C9038823FC
:103B300009F045C080910603882309F040C08091B8
:103B40002916813049F490E080917007882309F4A8
:103B500091E09923A1F102C0853089F183E080933F
:103B600006030E94101385E01FC0843111F08130DC
:103B700049F58FB7F89499272091BE032F5F2093C2
:103B8000BE038FBF8091C9038823C9F480910603C7
:103B90008823A9F480912916813089F081E08093EF
:103BA00006030E94101386E08093C9030E94FC1252
:103BB0008091D9028F5F8093D9020C94D6270E94FE
:103BC000FC1209C0843059F48091901680939616A7
:103BD00085E08093D9020E94FF010C94D6278330A0
:103BE00021F41092D9020C94D6278631F1F40E9468
:103BF0003405DC01CB016091F1037091F203009177
:103C0000BA031091BB03060F171F660F771F6F5F74
:103C10007F4F0E946D2D081B190B22273327C901E6
:103C2000B8010E94831687E1C6CF8E30E9F4609117
:103C3000F40377278827992720917602309177021D
:103C40004091780250917902220F331F441F551F73
:103C50000E944E2D0E9483168FE08093D90281E04E
:103C60000E94770C0C94D627893069F460919616DF
:103C700077276A5F7F4F882777FD8095982F0E946E
:103C800083168AE098CF803109F040C00091160673
:103C9000C090B402D090B502E0905D02F0905E0258
:103CA000C6010E94240EFC018091FC028083809159
:103CB000E502882331F581E08093E502F092C61495
:103CC000E092C514D092E702C092E6020F5F009323
:103CD0009C1610926B020E943405DC01CB016091AE
:103CE000B60277276F5F7F4F0E946D2DAA27BB27F3
:103CF000AC01BD0182E00E940D031092870381E1B7
:103D00005ACF85E08093870383E163CF873009F042
:103D10009AC082E193E00E943F0364E082E193E075
:103D20000E942C03FC018091AD02882319F080E0F1
:103D300090E003C080916C02992781838091961650
:103D400082838091B7028F5F8093B7028150808316
:103D5000DF01139613828091AD02882381F440E045
:103D60008091EC022EE130E0281B31098091C403E0
:103D70009927281739070CF041E0442319F08C915A
:103D800081608C93E0906002F09061028091DC028F
:103D9000882311F424E045C00091FC0211270E9401
:103DA000AA0120910E0330910F034091100350910E
:103DB0001103621B730B840B950B60507E4F8F4F6A
:103DC0009F4F2AE096958795779567952A95D1F725
:103DD0007093CB036093CA0360E582E193E00E9495
:103DE0002C03FC0104833596AAECB3E082E20D902B
:103DF00001928150E1F78091DD029091DE02A09165
:103E0000DF02B091E0020196A11DB11D8093DD0299
:103E10009093DE02A093DF02B093E0021092DC02E6
:103E200027E242E153E0B70180E80E94BD132FEF83
:103E30003FEF3093610220936002882311F488E001
:103E4000BACE8BE0C6CE833151F484E18093D9029F
:103E50000E94FF0181E00E94D30C0C94D6278B3086
:103E600011F00C94D62781E00E94B80C84E1B1CE09
:103E70002FB7F89433278091C0038093670282E0C4
:103E80008093DA022FBF80916702882311F00C948F
:103E9000D6278091C1039091C2030E949113082FED
:103EA0001127002311F40C94D6270E94A80D602F2F
:103EB0008091C1039091C203A1C10E949E140C94F1
:103EC000D6278FB7F89499272091BE032F5F2093B0
:103ED000BE038FBF8091C903813009F07CC18091FE
:103EE00072078F5F80937207863008F074C140902C
:103EF00075075090760780910603882309F062C108
:103F000080912916853009F05DC10E94F80D882343
:103F100009F458C18091B114882309F053C1B2014A
:103F200081E00E943404882311F490E00BC041E644
:103F300050E0440E551EF20191812FE93FEF420EF1
:103F4000531E9F7080917104981781F090937104B3
:103F5000289885EC8EBD0DB407FEFDCF8EB5906818
:103F60009EBD0DB407FEFDCF8EB5289A289882EC31
:103F70008EBD0DB407FEFDCF8EB589E08EBD0DB4AC
:103F800007FEFDCF8EB5289A0E940F046B017C01BD
:103F9000B20183E00E943404882319F4E0E0F0E0E9
:103FA00006C0D2018C918550F201E80FF11D2898CE
:103FB00081E88EBD0DB407FEFDCF8EB51EBC0DB4DD
:103FC00007FEFDCF8EB5289A8F71893079F0289839
:103FD00082EC8EBD0DB407FEFDCF8EB586E08EBDA2
:103FE0000DB407FEFDCF8EB5289AECC08FB7F894BC
:103FF00099272F9A40918400509185008FBF2F9868
:10400000289880E68EBDD2019C910DB407FEFDCFAD
:104010008EB59EBD8EEF282E290EB6E0B21510F09B
:10402000622D01C067E092012F5F3F4FD901962FAB
:104030007D910DB407FEFDCF8EB57EBD9150C1F7C9
:104040006150260F311D6F5F2F5F3F4F3AA729A7A1
:104050004C195D094E555F4F3A01882477FC8094D6
:10406000982C6C0C7D1C8E1C9F1C3097D1F12081EC
:10407000E1808281A3809927AA27BB27BA2FA92F85
:10408000982F8827332744275527522F4427332733
:104090002227FF24002711278701FF24EE242E2941
:1040A0003F29402B512BBB24CC24DD242A293B293A
:1040B0004C295D29822B932BA42BB52B86199709AC
:1040C000A809B9098383292F3A2F4B2F552722831B
:1040D0009D014427552721838B2F9927AA27BB278A
:1040E0008083922D961B0EC0A9A5BAA52C910DB464
:1040F00007FEFDCF49A55AA54F5F5F4F5AA749A7B5
:104100008EB52EBD915080F70DB407FEFDCF8EB554
:10411000289A289882EC8EBD0DB407FEFDCF8EB58F
:1041200086E08EBD0DB407FEFDCF8EB5289A309780
:10413000D1F12081E1808281A3809927AA27BB2722
:10414000BA2FA92F982F8827332744275527522F76
:10415000442733272227FF24002711278701FF2424
:10416000EE242E293F29402B512BBB24CC24DD24C7
:104170002A293B294C295D29822B932BA42BB52B73
:10418000860D971DA81DB91D8383292F3A2F4B2F0C
:10419000552722839D014427552721838B2F99275B
:1041A000AA27BB278083B401A301C2010E94F403A4
:1041B00086E08093291684E0809306031092D5143C
:1041C00083E004C085E08093D51482E08093C90326
:1041D0000E94FC12EBC61092C9030E94FC120091CF
:1041E000D514E0907507F0907607F70182858F333C
:1041F00009F0DCC60E94A80D602FC7010E94E016DE
:10420000D5C62FBFD3C68FB7F894282F33278091F8
:10421000A6148823B1F3E091CA14AE2FBB27AA0FCE
:10422000BB1FAB58BC4F0D90BC91A02DBA83A98386
:104230002FBFFD0182850781F6808F3309F0A1C170
:1042400089819A810E945004FC01108169817A81E0
:10425000645F7F4F29813A81D9018D91B8A3AF8FD7
:104260008D50482F5527802F9927B82FAA278F2D9B
:104270009927A82BB92B8FB7F89499272091620220
:10428000309163028FBFA217B30721F0AF5FBF4F1A
:1042900009F074C6103809F439C1113809F08BC11E
:1042A00089819A810E9442049AA789A7DC01AC9077
:1042B000FC016180E28023800E94AA01FF24002784
:1042C0001127102F0F2DFE2CEE24BB24CC24DD242F
:1042D000DA2CCC24BB24AA247724882499244301F3
:1042E00077246624A628B728C828D928332444244C
:1042F0005524A228B328C428D528EA28FB280C294D
:104300001D29E60EF71E081F191FE9A5FAA5E3826D
:10431000BB27A12F902F8F2D8283C801AA27BB27EF
:104320008183E12EFF2400271127E08289819A8171
:104330000E94240EFC012091FC028081821738F03B
:104340009927821B91098F3791050CF41EC681E0D5
:104350008093DC028091D9028950823008F02BC111
:1043600080919E068D7F80939E06EF8DF8A18085BB
:1043700027819927982F88273327822B932B909377
:1043800061028093600287E08093D9020E94FF015E
:104390008091D1029091D202A091D302B091D40227
:1043A0000196A11DB11D8093D1029093D202A093DA
:1043B000D302B093D40280E00E94B80C8091F10245
:1043C0009091F20201969093F2028093F10289811A
:1043D0009A810E94470DFC0143814F5F4383808196
:1043E00021819927782F66273327622B732BE28050
:1043F0008091AD02882311F010E001C0142F1CA39E
:10440000EBA27AA369A35091ED02F090EE02352F52
:1044100000E025C0E32FFF27EE0FFF1FEE0FFF1F69
:10442000EA52FB4E80819181A281B381CCA02BA165
:10443000E9A1FAA18E179F0709F0AAC5A21709F0F2
:10444000A7C5BC1508F4A4C58091B1029091B20231
:1044500001969093B2028093B102ADC00F5F0F1529
:10446000C9F69CC589E08093ED0203C0515050937A
:10447000ED02E091ED022E2F3327220F331F220F82
:10448000331F2A523B4E8DA19EA1AFA1B8A5F901C1
:1044900080839183A283B3838091EE028A3018F4E3
:1044A0008F5F8093EE028091AD02882309F083C074
:1044B0000E94F6048C01892B51F48091AF029091F7
:1044C000B00201969093B0028093AF0212C089812E
:1044D0009A810E941505813099F48091AF029091E4
:1044E000B00201969093B0028093AF02C8010E947F
:1044F00052048091D902873009F05DC08BE024C05E
:104500008CE00E94D3011A83098355C089819A8166
:104510000E9416159A8389834EC08091D9028031FA
:10452000B1F4E981FA81878126819927982F88271C
:104530003327822B932B20915D0230915E028217EC
:10454000930709F038C08FE08093D90234C08131DD
:1045500091F5E981FA81878126819927982F88270B
:104560003327822B932B20915D0230915E028217BC
:10457000930709F58091B4029091B5020E945C14F2
:104580001AC0802F9927582F44278F2D9927482B01
:10459000592B8FB7F89499272091620230916302CA
:1045A0008FBF4217530719F04F5F5F4F21F48FB74A
:1045B000F89499278FBF9FB7F8948091CA14A82FB9
:1045C000BB27AA0FBB1FAB58BC4F29813A812D9343
:1045D0003C938F5F8093CA14833010F01092CA14FA
:1045E0008091A61481508093A614892F99278FBF9C
:1045F0000ACE8FB7F894992710926F0710926E0722
:104600001092281610922716109208031092070392
:1046100010920C0610920B064ACA2FB7F894332753
:104620008091060480936A0282E08093DB022FBFB0
:1046300080916A02882309F0B9C4209A289A80914F
:104640002916882309F074C08EEF91E00197019636
:104650000197E1F716982F9886E090E00197019670
:104660000197E1F7169A289883EC8EBD0DB407FEEA
:10467000FDCF8EB51EBC0DB407FEFDCF8EB5289ABA
:10468000289882EC8EBD0DB407FEFDCF8EB588E074
:104690008EBD0DB407FEFDCF8EB5289A8EEF91E04A
:1046A000019701960197E1F728988EEC8EBD0DB425
:1046B00007FEFDCF8EB58DE48EBD0DB407FEFDCF98
:1046C0008EB5289A289889EC8EBD0DB407FEFDCFD3
:1046D0008EB587EC8EBD0DB407FEFDCF8EB5289A42
:1046E000289885EC8EBD0DB407FEFDCF8EB580E811
:1046F0008EBD0DB407FEFDCF8EB5289A10927104C1
:104700008DE08093BF03289888EC8EBD0DB407FE22
:10471000FDCF8EB58DE68EBD0DB407FEFDCF8EB5F7
:10472000289A2F9A81E0809329160E9454033EC450
:104730000E9410133BC41092E50260916B028091BD
:10474000E6029091E7020E949F1630C44FB7F8949A
:10475000552780917E029927FC01EA53FC4F208166
:1047600020937E024FBF60917E02082F7C01EE0CE9
:10477000FF1CEE0CFF1C4BE753E0E40EF51E1DC0C2
:104780007727FB01EE0FFF1FEE0FFF1FE558FC4FD1
:10479000A080B180C280D380D7012D913D914D91F1
:1047A0005C91A21AB30AC40AD50AA082B182C2825D
:1047B000D3826A537C4FFB016081633009F70E940A
:1047C00076170130E1F0013020F0023009F043C0EB
:1047D0002CC010928C0380E090EDA2E0B0E08093BA
:1047E0008D0390938E03A0938F03B093900340E0CA
:1047F00050ED62E070E080E00E94641B40C01092C7
:10480000180880E090E6A9E0B0E080931908909342
:104810001A08A0931B08B0931C0840E050E669E01A
:1048200070E081E00E94641B72C01092090380E076
:1048300090E1AEE0B0E080930A0390930B03A09365
:104840000C03B0930D0340E050E16EE070E082E0B5
:104850000E94641BCBC04091010050910200609106
:10486000030070910400802F0E94641B013009F442
:104870004EC0013020F0023009F098C3B7C020913B
:10488000EF023091F00244275527EAE0220F331F50
:10489000441F551FEA95D1F760916E0270916F0227
:1048A000809170029091710203EF0E94552B6093EA
:1048B0006E0270936F028093700290937102109257
:1048C000F0021092EF022091F1023091F20244279F
:1048D00055277AE0220F331F441F551F7A95D1F7D1
:1048E00060917202709173028091740290917502CE
:1048F0000E94552B6093720270937302809374022E
:10490000909375021092F2021092F1024FC300913F
:104910007F02109180026CE0C8010E94390E7C0178
:10492000C8010E943F038091F9029091FA0201961A
:104930009093FA028093F9020197F7018183892FFE
:104940009927808320916E0230916F02409170020E
:1049500050917102233031054105510518F42FEFB4
:104960003FEF06C060E070ED82E090E00E94942D81
:10497000F7012383832F992782832091720230913C
:104980007302409174025091750223303105410544
:10499000510518F42FEF3FEF06C060E070ED82E0A4
:1049A00090E00E94942DF7012583832F992784831B
:1049B0008091760290917702A0917802B09179026D
:1049C0008187292F3A2F4B2F552720879D01442778
:1049D000552727838B2F9927AA27BB27868380916A
:1049E0007B02828780917D028387E0C2E090810212
:1049F000F09082026EE2C7010E94430D8C01C70154
:104A00000E943F03809102039091030301969093CB
:104A100003038093020301978C83F8018183892F1C
:104A200099278B8380838091AF029091B0028E830F
:104A30008383892F99278D8382838091B1029091FE
:104A4000B20288878583892F99278F8384838091F9
:104A5000B9029091BA02A091BB02B091BC028C87BE
:104A60008187292F3A2F4B2F55272B8720879D0190
:104A7000442755272A8727838B2F9927AA27BB27C7
:104A8000898786838091BD029091BE02A091BF026A
:104A9000B091C002888B8587292F3A2F4B2F55273D
:104AA0002F8724879D01442755272E8723878B2F07
:104AB0009927AA27BB278D8782878091C102909171
:104AC000C2028A8B8787892F9927898B8687809155
:104AD000C3029091C402A091C502B091C6028E8B10
:104AE000838B292F3A2F4B2F55272D8B228B9D01FE
:104AF000442755272C8B218B8B2F9927AA27BB273F
:104B00008B8B808B8091C7029091C802A091C902C3
:104B1000B091CA028A8F878B292F3A2F4B2F5527A6
:104B2000298F268B9D0144275527288F258B8B2F76
:104B30009927AA27BB278F8B848B8091CB029091DA
:104B4000CC02A091CD02B091CE028D8F838F292F00
:104B50003A2F4B2F55272C8F228F9D014427552705
:104B60002B8F218F8B2F9927AA27BB27282E808F49
:104B70008091CF029091D0028E8F858F892F9927B7
:104B8000382E848F8091D1029091D202A091D302CD
:104B9000B091D402482E81A3292F3A2F4B2F5527AD
:104BA000622E20A39D0144275527522E278F8B2F3D
:104BB0009927AA27BB27C82E868F8091D50290916E
:104BC000D602D82E83A3892F9927E82E82A380911D
:104BD000D7029091D802F82E85A3892F9927A82E65
:104BE00084A38091DD029091DE02A091DF02B0915A
:104BF000E00281A7292F3A2F4B2F552720A79D018F
:104C00004427552727A38B2F9927AA27BB2786A39D
:104C10008091E1029091E20283A7892F992782A7D0
:104C20008091E3029091E40285A7892F992784A7B8
:104C300000918102109182020E94AA01BB24BA2C29
:104C4000AA242F2D3327A22AB32ABF92AF922E2D4A
:104C50003327322F22274D2D5527242B352B3F93D9
:104C60002F93772488249924982C872C762C6624DB
:104C7000DD24EE24FF24FC2CEE24DD24CC24252D81
:104C8000332744275527A90133272227C22AD32AAD
:104C9000E42AF52A242D332744275527C22AD32A6C
:104CA000E42AF52A6C287D288E289F289F928F92CF
:104CB0007F926F92232D3327322F2227FE8D4F2F85
:104CC0005527242B352B3F932F93AC8D2A2F332739
:104CD00044275527CC24D22EE32EF42E332444240B
:104CE0005524522C442433242224BB8D2B2F3327CC
:104CF00044275527A90133272227222A332A442A69
:104D0000552AED8D2E2F332744275527222A332A63
:104D1000442A552AC228D328E428F528FF92EF9286
:104D2000DF92CF92F98D2F2F3327442755278824E0
:104D3000922EA32EB42EAF892A2F3327442755272E
:104D4000522F442733272227B88DCB2EDD24EE2483
:104D5000FF247601DD24CC242C293D294E295F290E
:104D6000EA8DCE2EDD24EE24FF242C293D294E2968
:104D70005F29822A932AA42AB52ABF92AF929F92D2
:104D80008F92FD892F2F3327442755278824922E71
:104D9000A32EB42E2B89C22EDD24EE24FF245C2DFD
:104DA000442733272227AC89CA2EDD24EE24FF2492
:104DB0007601DD24CC242C293D294E295F29BE898A
:104DC000CB2EDD24EE24FF242C293D294E295F29FA
:104DD000822A932AA42AB52ABF92AF929F928F92D9
:104DE000E9892E2F3327322F2227FA894F2F552773
:104DF000242B352B3F932F93AF852A2F332744271E
:104E000055278824922EA32EB42EBD85CB2EDD24CB
:104E1000EE24FF245C2D442733272227EE85CE2E57
:104E2000DD24EE24FF247601DD24CC242C293D2929
:104E30004E295F29F889CF2EDD24EE24FF242C296A
:104E40003D294E295F29822A932AA42AB52ABF9296
:104E5000AF929F928F92AB852A2F332744275527F5
:104E60008824922EA32EB42EB985CB2EDD24EE24D9
:104E7000FF245C2D442733272227EA85CE2EDD240C
:104E8000EE24FF247601DD24CC242C293D294E2953
:104E90005F29FC85CF2EDD24EE24FF242C293D291B
:104EA0004E295F29822A932AA42AB52ABF92AF925B
:104EB0009F928F924F81242F3327322F2227A8854C
:104EC0004A2F5527242B352B3F932F93BD812B2F12
:104ED0003327322F2227EE814E2F5527242B352BB7
:104EE0003F932F93FB812F2F3327322F2227AC8123
:104EF0004A2F5527242B352B3F932F939F938F9326
:104F00007F936F9380914E0290914F029F938F9366
:104F100084E192E09F938F930E94FD2DEDB7FEB741
:104F2000BE960FB6F894FEBF0FBEEDBF0E94E80E0E
:104F3000109382020093810239C00E944F1A36C03A
:104F40000E94AA012091CA033091CB034427552720
:104F5000621B730B840B950B609380087093810820
:104F600080938208909383088CEC93E090930304E1
:104F70008093020488E10E94D30118C0103809F41C
:104F8000C5CA113809F017CBC8CA1092DC02E2C9B1
:104F90003F5F3A3008F462CA30E060CA18A7EFA257
:104FA0007EA36DA3552309F45DCA60CAAA960FB605
:104FB000F894DEBF0FBECDBFDF91CF911F910F914F
:104FC000FF90EF90DF90CF90BF90AF909F908F9029
:104FD0007F906F905F904F903F902F9008958091B9
:104FE000C7148F3FB1F0282F3327F901E456FC4F47
:104FF00080818093C7148F3F11F4809397168FEFB1
:1050000080832F3F31F0822F0E940F1C81E090E0BF
:10501000089580E090E00895EF920F931F93CF934F
:10502000DF93EFB6F89414BE88E10FB6F89480933E
:105030006000109260000FBE4AE150E06FEF70E038
:105040008CE993E00E94F62D8FEF8093C714809334
:10505000971656985E9854985C9880916F008F7D53
:1050600080936F00209A289A279A2F980E9A169A62
:105070008EE094E090939303809392031092F9034F
:105080008AE58093C50381E08093810080E280936C
:10509000B60083E08093B1008091840090918500F8
:1050A0004AE720918400309185002817390708F4D9
:1050B0004150442311F0C901F4CF9091B200809186
:1050C000B2008917E1F3209184003091850090911E
:1050D000B2008091B2008917E1F380918400909131
:1050E0008500821B930B409665E0969587956A959F
:1050F000E1F79093C9148093C8141092B100809185
:10510000B10080938100809181008093B60010925D
:10511000B20010928500109284008FEF87BB87B396
:1051200086BB8091B6008571E1F70A9A099A089AC0
:10513000129A119A109A18B88FEF87B90C98149890
:10514000109285001092840080916F00816080939E
:105150006F0080918100887F82608093810010922F
:10516000950010929400809171008160809371008D
:1051700080919100887F8260809391000E94EF2748
:105180008823E1F7E9E7F7E080ED98E081939193D8
:105190008D599F4F27E0E53BF207C1F78EE18093E1
:1051A00072041092FA0380E092E09093BB03809324
:1051B000BA039AE09093910388E08093901680E27E
:1051C0008093950383E08093F40311E0109394039C
:1051D0009093C40383E390E09093F2038093F103F0
:1051E00080E098E2A0E0B0E08093B6039093B7032C
:1051F000A093B803B093B90380914E0290914F02EF
:105200000196AA27BB278093F5039093F603A093FA
:10521000F703B093F8030FEF0093040480E00E94BB
:10522000AD0D2EEF34E1309376032093750321E624
:1052300035E1309378032093770324EC35E1309304
:105240007A03209379032FEF3FEF3093B714209325
:10525000B6143093B9142093B8143093BB14209330
:10526000BA143093BD142093BC143093BF14209310
:10527000BE1440E090E0882309F491E0911709F40E
:1052800041E080914E0223E832E0411709F0BBC1B2
:105290008295807F809305030093C3031092ED02F3
:1052A0001092EE023093A5162093A41612E006E0A9
:1052B0006091C8147091C914882799275CE0660F23
:1052C000771F881F991F5A95D1F720E031EE40E0F3
:1052D00050E00E94942D215030402093C400832F31
:1052E00099278093C5001093C0000093C2001092CC
:1052F000C1002093CC008093CD001093C800009390
:10530000CA001092C90084E490E09093B314809393
:10531000B21410920A0410920C048AE0809374076D
:1053200010920104109205041092CB141092991659
:105330001092981610928F16109215061092AD14B6
:105340001092AC1484E08093EC03109278071092D2
:10535000C0141092F00310921206109211061092CF
:105360000406109203061092AC028091B60080628F
:105370008093B600249A8091B60081FDFCCF82E430
:105380008093B0008091B60080FDFCCF83E08093D5
:10539000B1008091B60083FDFCCF86EE8093B30010
:1053A000809170008260809370000E940C070E94C0
:1053B000EF278823E1F78E2D99278FBF789410E08F
:1053C00007C01130B1F0113018F01230C9F522C009
:1053D00010928C0380E090EDA2E0B0E080938D030A
:1053E00090938E03A0938F03B0939003ECE8F3E0C7
:1053F00012C11092180880E090E6A9E0B0E0809316
:10540000190890931A08A0931B08B0931C08E8E1B0
:10541000F8E001C11092090380E090E1AEE0B0E055
:1054200080930A0390930B03A0930C03B0930D0396
:1054300040E050E16EE070E082E00E94641B0FC02B
:1054400040910100509102006091030070910400AE
:10545000812F0E94641B1F5F133008F4B2CF8FB7F7
:10546000F894282F3327922F809174078A3031F0D7
:105470008091EC03843011F02FBF04C09FBF85E002
:105480000E94D3011092AD028091D902882331F499
:1054900084E08093D9028DE00E94D30111E0109343
:1054A0005C0280E00E94B71480E093E09093BB031D
:1054B0008093BA036091910377278827992720E08A
:1054C00033E040E050E00E944E2D24E630E040E022
:1054D00050E00E94942D3093F2032093F103109337
:1054E00094030E94AA01AB01BC0121E0E22E00E07E
:1054F00014E020E030E081E00E94EE020E943405DA
:105500002091500230915102409152025091530229
:105510000E94942D6F5F7F4F8F4F9F4F0E94A8175F
:105520008FB7F894482F552753C080917000992762
:1055300083709070892B19F4E5E0F0E014C080913D
:10554000B6008A71E1F78091B3009091B200891B97
:105550008C3038F08091B200853F18F4E3E0F0E041
:1055600002C0E2E0F0E080916E008670E9F4809184
:105570006F008E72C9F40CB407FC16C08091C10094
:10558000807E91F48091C900807E71F48091BC008E
:1055900082FD0AC080917A0087FF03C081E090E01D
:1055A00005C085E090E002C080E090E023B78E1750
:1055B00008F4E82FFF27E050FD4FE491207F2160A1
:1055C000E22BE3BF78948895F89483B78E7F83BFEE
:1055D0008091C7148F3F09F4A8CF282F3327F901F2
:1055E000E456FC4F80818093C7148F3F11F4809361
:1055F00097168FEF80832F3F09F497CF4FBF822FED
:105600000E940F1C8DCF8295807F809305038FEFC2
:105610008093C30343CE4181528163817481812F82
:105620000E94641B1F5FCDCE552786179707E8F0B1
:10563000861B970B9C013070F9014E9F90014F9F84
:10564000300D5E9F300D1124232F3327892F99278A
:10565000FC014E9FC0014F9F900D5E9F900D112445
:10566000860F971F280F391F1EC09B01281B390B5F
:10567000C901232F3327F9014E9F90014F9F300D11
:105680005E9F300D11249070FC014E9FC0014F9F12
:10569000900D5E9F900D1124892F9927280F391F97
:1056A000621B730B9B01C90108956F927F928F92C9
:1056B0009F92AF92BF92CF92DF92EF92FF920F93A1
:1056C0001F93CF93DF9359016A01C02FDD27602E0E
:1056D000772488249924621773078407950730F18B
:1056E0009B01AC012A193B094C095D09C901907065
:1056F000BC01C69FC001C79F900DD69F900D11247D
:10570000892F99277C0100271127232F342F452F1C
:105710005527C401B3010E944E2D6A0D7B1D8C1DBF
:105720009D1DE60EF71E081F191F26C079018A016C
:10573000E61AF70A080B190B5527412F302F2F2D8A
:10574000C401B3010E944E2D2FEFE222FF24CE9D13
:105750009001CF9D300DDE9D300D1124232F332776
:1057600044275527260F371F481F591F86017501EB
:10577000E21AF30A040B150BC801B701DF91CF91B0
:105780001F910F91FF90EF90DF90CF90BF90AF905F
:105790009F908F907F906F900895ACE2B0E0E3ED22
:1057A000FBE20C94B62D222E332E442E552E662E5F
:1057B000772E882E992EFE013196A8E01192AA9597
:1057C000E9F729823A824B825C826D827E828F82E7
:1057D0009886FE013996B8E01192BA95E9F7A98644
:1057E000BA86CB86DC86ED86FE860F87188B89818C
:1057F0009A81AB81BC8189A79AA7ABA7BCA77C0182
:105800008D018FEF9FEFA0E0B0E0E822F9220A239C
:105810001B2389A59AA5ABA5BCA51D01442455242D
:1058200089859A85AB85BC858DA39EA3AFA3B8A7B8
:105830005C016D018FEF9FEFA0E0B0E0A822B922DC
:10584000CA22DB228DA19EA1AFA1B8A53D0188246B
:105850009924C801B701A60195010E944E2D69A3A4
:105860007AA38BA39CA3C801B701A40193010E9452
:105870004E2D7B018C01C201B101A60195010E9450
:105880004E2D5B016C01C201B101A40193010E9484
:105890004E2D3B014C01EA0CFB1C0C1D1D1D89A16A
:1058A0009AA1ABA1BCA19D01442755272E0D3F1DF8
:1058B000401F511F2A153B054C055D0540F480E053
:1058C00090E0A1E0B0E0680E791E8A1E9B1ECA011E
:1058D000AA27BB27860D971DA81DB91D8D8F9E8FEA
:1058E000AF8FB8A3A9013327222789A19AA1ABA121
:1058F000BCA1A070B070280F391F4A1F5B1F298FF1
:105900003A8F4B8F5C8FA98CBA8CCB8CDC8CED8C56
:10591000FE8C0F8D18A1FE01719698E011929A9558
:10592000E9F7ED8AFE8A0F8B188F2D813E814F811A
:1059300058856DA17EA18FA198A50E944E2D3B0197
:105940004C012D853E854F85588969A57AA58BA583
:105950009CA50E944E2D2D893E894F89588D260F7A
:10596000371F481F591F260D371D481D591D2D8BE8
:105970003E8B4F8B588F6D887E888F88988C2A2D10
:105980003B2D4C2D5D2D662D772D882D992DE2E137
:10599000AC960C94D22DA0E1B0E0E1EDFCE20C94C9
:1059A000B62D222E332E442E552E662E772E882E7F
:1059B000992E002309F466C088E0FE013196119209
:1059C0008A95E9F729833A834B835C836D837E83D1
:1059D0008F829887E0E2E01B1E16CCF52D813E8178
:1059E0004F815885602F772767FD7095DA01C901CF
:1059F000062E04C0B695A795979587950A94D2F779
:105A00008D879E87AF87B88B04C0220F331F441F3A
:105A1000551FEA95D2F789819A81AB81BC8104C078
:105A2000B695A795979587956A95D2F7282B392B28
:105A30004A2B5B2B29873A874B875C8729843A84DA
:105A40004B845C846D847E848F8498881BC01D8603
:105A50001E861F86188A2E2F332727FD30953095F6
:105A600021953F4F8D819E81AF81B88504C0B69549
:105A7000A795979587952A95D2F789879A87AB87B7
:105A8000BC87DCCF222D332D442D552D662D772D4F
:105A9000882D992DE2E160960C94D22D629FD00161
:105AA000739FF001829FE00DF11D649FE00DF11DD9
:105AB000929FF00D839FF00D749FF00D659FF00D88
:105AC0009927729FB00DE11DF91F639FB00DE11D75
:105AD000F91FBD01CF0111240895AA1BBB1B51E181
