S01700006275696C642F697269732F6D61696E2E7372656343
S11300000C9481010C94A0010C94A0010C94A00107
S11300100C94A0010C94A0010C94A0010C94A001D8
S11300200C94A0010C94A0010C94A0010C94A001C8
S11300300C94A0010C942A0D0C94A0010C94BA0BFE
S11300400C9467140C949D140C94710C0C947C0CFB
S11300500C94870C0C94A0010C94A0010C94A001A6
S11300600C94CE0B0C94AD090C94A0010C94300AA2
S11300700C94A0010C94A0010C94A0010C94870B87
S11300800C94660B0C94710B0C947C0B0C949A0BD3
S11300900C94490B0C94A0010C945B0B0C94A001E0
S11300A00C94A0010C94A0010C94A0010C94A00148
S11300B00C94A0010C94A0010C94A0010C94A00138
S11300C00C94A0010C94A0010C94A001061B0A1B23
S11300D00E1B121B371B391B451B701BEC1BFB1B18
S11300E02E1C891CA31CA81CC21DE71DFE1DA01FDD
S11300F08722EB21FF21BE268D22982200002110A9
S1130100422063308440A550C660E770088129917D
S11301104AA16BB18CC1ADD1CEE1EFF13112100225
S113012073325222B5529442F772D66239931883CD
S11301307BB35AA3BDD39CC3FFF3DEE362244334F1
S113014020040114E664C774A44485546AA54BB51D
S113015028850995EEE5CFF5ACC58DD553367226C5
S113016011163006D776F6669556B4465BB77AA76D
S113017019973887DFF7FEE79DD7BCC7C448E55811
S11301808668A7784008611802282338CCC9EDD9BD
S11301908EE9AFF9488969990AA92BB9F55AD44A65
S11301A0B77A966A711A500A333A122AFDDBDCCB0D
S11301B0BFFB9EEB799B588B3BBB1AABA66C877C31
S11301C0E44CC55C222C033C600C411CAEED8FFD5D
S11301D0ECCDCDDD2AAD0BBD688D499D977EB66E05
S11301E0D55EF44E133E322E511E700E9FFFBEEFAD
S11301F0DDDFFCCF1BBF3AAF599F788F8891A9816F
S1130200CAB1EBA10CD12DC14EF16FE18010A10058
S1130210C230E3200450254046706760B983989348
S1130220FBA3DAB33DC31CD37FE35EF3B1029012A8
S1130230F322D2323542145277625672EAB5CBA514
S1130240A89589856EF54FE52CD50DC5E234C324F8
S1130250A01481046674476424540544DBA7FAB7E8
S11302609987B8975FE77EF71DC73CD7D326F23648
S11302709106B01657667676154634564CD96DC934
S11302800EF92FE9C899E9898AB9ABA94458654898
S113029006782768C018E1088238A3287DCB5CDB88
S11302A03FEB1EFBF98BD89BBBAB9ABB754A545AE8
S11302B0376A167AF10AD01AB32A923A2EFD0FED54
S11302C06CDD4DCDAABD8BADE89DC98D267C076C38
S11302D0645C454CA23C832CE01CC10C1FEF3EFF28
S11302E05DCF7CDF9BAFBABFD98FF89F176E367E88
S11302F0554E745E932EB23ED10EF01E00020E06D1
S11303000C0411241FBECFEFD1E2DEBFCDBF12E03B
S1130310A0E0B2E0ECEEFEE500E00BBF02C0079007
S11303200D92AC39B107D9F71AE0ACE9B2E001C0DB
S11303301D92A836B107E1F70E94F4260C94752F9C
S11303400C9400008FB7F894992708958FBF0895EF
S1130350CF93DF93EC01DB0183E0B695A7958A95F3
S1130360E1F767707070E42FFF27CF01860F971FA6
S11303700997D8F4AC0FBD1F2C91332788279927F0
S1130380861B970B8E1B9F0B089602C035952795ED
S11303908A95E2F781E090E002C0880F991FEA9500
S11303A0E2F781508223992744C06115710511F445
S11303B050E01CC0460F4850FE01EA0FFB1F28E026
S11303C030E0261B370B81E090E002C0880F991FB4
S11303D02A95E2F78150208182239927042E02C0B6
S11303E0880F991F0A94E2F7582F1196FE01EA0F1D
S11303F0FB1F0BC0485081919927042E02C0880F1F
S1130400991F0A94E2F7582B1196483098F7442321
S113041071F0AC0FBD1F2C91332788E090E0841B52
S1130420910902C0359527958A95E2F7522B852FBD
S11304309927DF91CF910895282F9FB7F894E82F3B
S1130440FF27E356FC4F80818F3F81F4E091570AE8
S1130450E21771F40BC02093870804C0FF27E3560A
S1130460FC4F20832093570A20E007C025E005C0F5
S1130470809187088F3F91F7EECF892F99278FBFFF
S1130480822F9927089588E00E941C0299270895D5
S11304908DE00E941C02992708957FB7F89460911B
S11304A0B200209198033091990340919A0350919E
S11304B09B03B99B11C08091B3009091B200280FA7
S11304C0311D411D511D2F5F3F4F4F4F5F4F290F6E
S11304D0311D411D511D04C0260F311D411D511DEB
S11304E0872F99278FBFCA01B9010895613518F084
S11304F080E090E008950C960895665F0E9476026D
S11305000895FC01818199278073907081649868B3
S11305108183892F9927828308950F931F938C01D8
S11305200E948102005A1F4FF80110821F910F91FF
S113053008951F931FB7F89480914F0A882341F4BC
S113054082E00E941C02882319F481E080934F0A00
S1130550812F99278FBF1F910895382FFA01422FB9
S1130560213518F082E090E008956683872F99275B
S11305708583338721878091A2029091A302892BDE
S113058019F085E090E008952FB7F894332785E0BB
S11305908093A5021092A602F093A102E093A00218
S11305A082E090E09093A3028093A2021092A802AA
S11305B01092A702445F4093A4022FBF8FB7F89410
S11305C0282F3327809192078A3011F42FBF19C046
S11305D02FBF9FB7F89480910A04882311F020E07C
S11305E006C081E080930A0410920B0421E0892F55
S11305F099278FBF222329F00E94990280E090E07E
S113060008951092A3021092A20281E090E008954E
S1130610CF93DF93DB01FB0135968183892F9927E3
S1130620EB018D8384E6868380910B0690910C0602
S1130630892B19F085E090E029C070930C06609333
S11306400B06448380915E02882319F480E090E0D5
S11306501DC08681EB016D817727762F6627218166
S11306603327622B732B10925E02242FAD010E945C
S1130670AD029927282F882339F081E080935E0208
S113068010920C0610920B06822F9927DF91CF91BE
S11306900895882319F08CB5806402C08CB58F7BD3
S11306A08CBD0895882319F08CB5806802C08CB580
S11306B08F778CBD08950F931F9380E00E944903A8
S11306C00FB7F8941127229A2398219A209A8CB56F
S11306D080618CBD80E00E9452038CB5877F8CBD05
S11306E08CB58B7F8CBD81E00E9449038DB5816000
S11306F08DBD8CB58C7F8CBD0FBF1F910F9108955C
S11307000F931F93CF93DF93182F0FB7F894809113
S1130710E302882311F40E945B03802F99278FBF83
S11307208FB7F894C82FDD272C2F8091E3028823FC
S113073061F481E08093E3021093040484E10E9455
S11307401C02CFBF80E090E021C0E12FFF27EE5FC5
S1130750FB4F80818F3F89F4E0917302E11789F4A4
S11307600CC01093720204C0FF27EE5FFB4F10838E
S11307701093730280E090E002C085E090E02FBF08
S113078005C0809172028F3F79F7EBCFDF91CF9153
S11307901F910F910895FB01E05AFF4F21E030E0D3
S11307A002C0220F331F8A95E2F7209580818223AD
S11307B080830895FB01E05AFF4F21E030E002C03E
S11307C0220F331F8A95E2F78081822B808308955C
S11307D0CF92DF92EF92FF920F931F938C016A01E5
S11307E07B01BC0180E00E94DA03045A1F4FF80128
S11307F0C082D182E282F3821F910F91FF90EF9029
S1130800DF90CF9008958FB7F8942091FB03309137
S1130810FC034091FD035091FE03E0918400F091AC
S11308208500B09B08C02F5F3F4F4F4F5F4FE09153
S11308308400F091850099278FBFC9017727662727
S11308409F0144275527622B732B842B952B0895E6
S1130850FB01E05AFF4F21E030E002C0220F331FBA
S11308608A95E2F780818223992708951F93982F10
S11308701FB7F8948091E202823099F58091710259
S1130880891779F580916F0220E030E08F3F11F4F1
S113089021E030E0232BF1F49FEF909371028F3F1E
S11308A019F42FEF30E00DC0282F3327F901ED5351
S11308B0FC4F808180936F028F3F11F490937002FC
S11308C090832093C00381E08093E2028EE00E9433
S11308D01C0205C08FEF809371021092E20221E0A6
S11308E001C020E0812F99278FBF90E0213009F4C7
S11308F091E081E09827892F99271F91089580E03E
S11309000E943604992708950F931F938C0160E584
S11309100E947602F80120812151820F911D1F91BE
S11309200F9108950B9608959C018091700488237B
S113093019F081E090E008958091FA03882319F476
S1130940E0E0F0E003C0E82FFF273197EE0FFF1F30
S1130950E956F84F3183208381E08093700480E06E
S113096090E00895FC0180818151992708951F9397
S1130970CF93DF93EC01162F62E00E947602FC0114
S113098091818091B6028823F1F59F3FE1F19F5F49
S113099080917602891738F480917702981798F538
S11309A09093770230C0112359F19093760228C0B6
S11309B089859927982F882728853327822B932B7D
S11309C0909368028093670282818093BE02808143
S11309D08F5F809369028091CB029091CC02A091A9
S11309E0CD02B091CE020196A11DB11D8093CB0220
S11309F09093CC02A093CD02B093CE0281E02AC0A2
S1130A00838180FDD5CF8091CB029091CC02A091BF
S1130A10CD02B091CE020196A11DB11D8093CB02EF
S1130A209093CC02A093CD02B093CE028091CF02DA
S1130A309091D002A091D102B091D2020196A11D51
S1130A40B11D8093CF029093D002A093D102B093B2
S1130A50D20280E09927DF91CF911F9108952F92C0
S1130A603F924F925F926F927F928F929F92AF923A
S1130A70BF92CF92DF92EF92FF920F931F93CF9387
S1130A80DF93CDB7DEB729970FB6F894DEBF0FBE5C
S1130A90CDBF6FB76983F8942090F5033090F603C7
S1130AA04090F7035090F8036624772488240EE4DA
S1130AB0A02E13E8B12ECC24DD24EE24FF2400E084
S1130AC010E0222D332D442D552D662D772D882DA4
S1130AD090E00E949D2A2A833B834C835D836E832E
S1130AE07F8388879987822E932EA42EB52E240186
S1130AF0350100E20E949B2BA22EB32EC42ED52ECC
S1130B00A301920156954795379527952A0D3B1DCC
S1130B104C1D5D1D57FF05C05F772F5F3F4F4F4F43
S1130B205F4F2093F5033093F6034093F7035093FC
S1130B30F803E9818E2F99278FBFC90129960FB633
S1130B40F894DEBF0FBECDBFDF91CF911F910F91FF
S1130B50FF90EF90DF90CF90BF90AF909F908F90D9
S1130B607F906F905F904F903F902F900895DF9209
S1130B70EF92FF920F931F938FB7F894282F332788
S1130B80D22E9091B3008091B20047B3981711F020
S1130B9041FF02C02FBF71C08091F3038823E1F1AC
S1130BA00E944D02E0908903F0908A0300918B0328
S1130BB010918C03209191083091920840919308F0
S1130BC0509194086E197F09800B910B621773077B
S1130BD08407950720F01092F30371E01EC02E0DD8
S1130BE03F1D401F511F8091980390919903A0913C
S1130BF09A03B0919B03281B390B4A0B5B0B273ECE
S1130C0031054105510540F4822F223010F070E087
S1130C1005C070E082E002C070E086EE682F61508B
S1130C208091B60083FDFCCF8091B200681709F46F
S1130C306F5F209198033091990340919A035091EA
S1130C409B03DA01C9010196A11DB11D860F911DF7
S1130C50A11DB11D82179307A407B50710F4622FD5
S1130C6060958091B60083FDFCCF6093B300DFBE36
S1130C70772319F089E00E941C021F910F91FF90C5
S1130C80EF90DF900895AFB7F894BB27E1E0E093CD
S1130C90F3036093890370938A0380938B03909387
S1130CA08C032093910830939208409393085093B7
S1130CB09408AFBF0E94B7050895CF93DF931092B5
S1130CC05E02A0910B06B0910C06109721F0809162
S1130CD0900880FF08C081E080935E0217C081E025
S1130CE00E941C0213C0FD01359624813327ED01B7
S1130CF06D817727762F662781819927682B792B39
S1130D00AD0186810E94AD02882349F7DF91CF911E
S1130D100895809192078A3021F48091EC03843005
S1130D2021F081E080939D02089584E00E941C02DA
S1130D3010929D0208952FB7F89433278093C6002C
S1130D40E0ECF0E08081806480832FBF0895FC0193
S1130D506115710519F481E090E00895809105040E
S1130D6090910604892B19F085E090E00895709322
S1130D70750860937408F0930604E09305041092D8
S1130D80EE031092ED0381E08093EF038091C000A5
S1130D9080648093C0008091C10080648093C1000E
S1130DA0808121E030E03093EE032093ED030E9434
S1130DB09B0680E090E008958FB7F89499272091DE
S1130DC0AE022E7F2093AE022EE72093BC038FBF8A
S1130DD061E070E08CEB93E00E94A70699270895E8
S1130DE01F93CF93DF938FB7F89410924F0A2091FB
S1130DF0920740E0283009F441E030E0293009F45A
S1130E0031E0442311F4332351F010929207E0911E
S1130E101306FF27EE0FFF1FE85FFB4F1082992791
S1130E208FBF442311F4332331F19FB7F894809199
S1130E308B088F5F80938B0880910304833479F44B
S1130E402091020680910106821779F0822F8F5F2C
S1130E5080930206863048F01092020606C0A0E095
S1130E60442309F4A1E071E002C0A0E070E0892FFE
S1130E7099278FBF06C0222311F010E06CC0A0E0B8
S1130E8070E08FB7F894992720919D028FBF222399
S1130E9041F08FB7F89499272AE0209392078FBFE7
S1130EA042C08FB7F89499276091080440910A04CE
S1130EB08FBF8FB7F894282F332750E09091010605
S1130EC080910206981709F451E02FBF552341F58C
S1130ED0662331F55FB7F89482E0809308048FB7F6
S1130EE0F894282F332740E0909101068091020660
S1130EF0981709F441E02FBF442311F080E006C0A5
S1130F00E0910206FF27EF5FF94F82818093090485
S1130F1083E48093030410921306852F99270EC04F
S1130F204150423010F010E00BC08FB7F89499276D
S1130F3025E42093030421E0209313068FBF11E0DE
S1130F40772349F08FB7F8949927A093A6028FBF0F
S1130F5086E00E941C028FB7F894C82FDD27809189
S1130F6092078A3021F40E948906CFBF1DC0CFBFEB
S1130F701123D1F02FB7F89433271092590A109205
S1130F80580A1092010481E0809392072FBF0E94B7
S1130F90DC06882349F08FB7F894992729E0209339
S1130FA092078FBF0E949902DF91CF911F910895FC
S1130FB08FB7F894282F3327922F809192078A3085
S1130FC041F08091EC03843021F02FBF89E090E060
S1130FD008959FBF83E00E941C0280E090E0089582
S1130FE0ECEFF0E06927660FF11DE60FF11DC895DF
S1130FF0982F802D3196C89590250895982F80912B
S1131000A902882389F5992379F531E03093A9025F
S113101080915F028093AA0220919E02822F8170A8
S11310208093970380916402909165029093AC023F
S11310308093AB0280919F028093AD02322731707E
S1131040267EE32FFF27EE0FFF1FE05AFD4F80811E
S113105091819093650280936402232B20939E02D6
S113106087E00E941C02089580919E0280FF02C0C6
S11310708B7F01C08D7F80939E0208950F931F93F1
S1131080082F162F8091EC038130D9F0813038F08D
S1131090823009F44AC0833009F028C159C00023C2
S11310A009F458C110926D0810926C0810929607BA
S11310B0109280081092F0031092100610920F06FE
S11310C039C1002309F046C180910F0690911006A2
S11310D00E94F0079093100680930F0682E080939D
S11310E0EC0310938008143409F000C125C18695DF
S11310F0869503C080919E028695817009F0F6C0A2
S113110080919E02992311F0846001C082608093D3
S11311109E0280919E02877E886080939E02109238
S11311209F028FEF80935F0215C1002309F0DEC098
S11311306093F00380910F06909110060E94F007CF
S11311409093100680930F0683E08093EC0302C112
S1131150809196078F3F09F4C9C0002309F461C048
S1131160823008F4C3C0E0916C08EE2309F4EBC0AC
S11311704E2F4150E42FFF27E459F74F82819927DE
S1131180382F2227442311F4E2E002C0E42FE15077
S1131190FF27E459F74F82819927282B392B809117
S11311A00F06909110062817390709F09FC080E0B8
S11311B00E94FE073091F0038091010620910206FF
S11311C0982F9F5F963008F090E0921771F0E82F07
S11311D0FF27EF5FF94F32838F5F809301068630DC
S11311E010F0109201060E94990210926D0810925C
S11311F06C0894E09093EC03109296071092800888
S11312001092F0031092100610920F068091AE0215
S11312108D7F8093AE0280919D02882309F49AC049
S113122084C0823008F44EC0E0916D08FF27E45971
S1131230F74F8281482F5527342F20919E02822F09
S1131240869586958695837099278130910519F046
S11312500297F9F40EC0277E206120939E02442356
S113126011F485E001C080E080939F0230935F0217
S113127010C080919F02833660F4E0916402F09183
S11312806502E80FF11D408380919F028F5F809378
S11312909F0280916D08E82FFF27E459F74F628180
S11312A08F5F80936D08833010F010926D0877275C
S11312B080910F06909110060E94F00790931006FB
S11312C080930F0680916C08E82FFF27E459F74FAD
S11312D012838F5F80936C08833010F010926C0837
S11312E0809196078F5F8093960734C010926D08A3
S11312F010926C0814E01093EC031092960710926D
S113130080081092F0031092100610920F0680913C
S1131310AE028D7F8093AE0281E00E94FE07809131
S11313209D02882329F01093EC030E94890612C0C1
S1131330002381F081E009CF80919E02982F917063
S113134080FDD5CED7CE809170089927382F2227DB
S113135042E01CCF1F910F9108951F920F920FB678
S11313600F9211242F933F934F935F936F937F9327
S11313708F939F93AF93BF93EF93FF938091C0009C
S113138087FF42C06091C600E0911106F0911206F9
S1131390309719F180914D0A90914E0AE80FF91F88
S11313A06083019690934E0A80934D0A20915A0AC5
S11313B030915B0A8217930738F11092120610924B
S11313C01106809191078330F9F08091C1008F77E5
S11313D08093C1001092910717C06E3719F460E032
S11313E081E010C08091AE026D3721F48260809359
S11313F0AE020AC081FF05C08D7F8093AE0280E2F9
S1131400682780E00E943E08FF91EF91BF91AF9161
S11314109F918F917F916F915F914F913F912F9108
S11314200F900FBE0F901F901895982F8D578230F4
S113143068F48091AE0281608093AE0280E28927D5
S1131440809395078DE78093BC0302C09093BC03FF
S113145061E070E08CEB93E00E94A7069927089561
S113146078941F920F920FB60F921124FF920F934C
S11314701F932F933F934F935F936F937F938F9318
S11314809F93AF93BF93CF93DF93EF93FF932091F9
S1131490ED033091EE03809174089091750828173C
S11314A0390780F4E0910504F0910604E20FF31F7C
S11314B080812F5F3F4F3093EE032093ED030E9412
S11314C09B06D1C010920604109205041092EF03FB
S11314D08091C1008F7B8093C100FFB6F894809106
S11314E0AE0280FF0EC08E7F8093AE02809195077E
S11314F08093BC0361E070E08CEB93E00E94A7064C
S1131500AFC080919207843009F48CC0853040F4D8
S1131510823021F18330B8F5813009F09CC00DC0D0
S1131520863009F48DC0863008F483C0873009F40E
S11315308EC0883009F08FC091C0809103040E944E
S1131540150A082F83E08093920760910304809129
S1131550580A9091590A0E94F00710C080918B0894
S11315600E94150A082F83E08093920760918B08EC
S11315708091580A9091590A0E94F0079093590A51
S11315808093580A66C0E0911306FF27EE0FFF1FF1
S1131590E75FFB4F80810E94150A082F1091130604
S11315A0C12FDD27FE01EE0FFF1FE75FFB4F6081B8
S11315B08091580A9091590A0E94F0079093590A11
S11315C08093580A209101042F5F20930104113065
S11315D039F58091A502E091A002F091A102E80FF3
S11315E0F11DE0818F5F8093A5029091A40298176A
S11315F030F482E080930A0440E050E002C04E2FB1
S11316005527DE01AA0FBB1FFD01E85FFB4F808158
S1131610823031F02F3F21F0A75FBB4F4C9319C0AC
S113162084E012C08091580A0E94150A082F85E0B0
S11316300BC08091590A0E94150A082F86E004C045
S11316400E94DC06082F87E08093920702C088E09E
S113165003C0002329F089E0809392070E94990235
S11316608F2D99278FBFFF91EF91DF91CF91BF917C
S1131670AF919F918F917F916F915F914F913F9126
S11316802F911F910F91FF900F900FBE0F901F90FD
S113169018951F920F920FB60F9211248F93809179
S11316A0C80087FF02C08091CE008F910F900FBEBB
S11316B00F901F90189578941F920F920FB60F9267
S11316C011240F900FBE0F901F90189578941F92BD
S11316D00F920FB60F9211240F900FBE0F901F9010
S11316E0189578941F920F920FB60F9211240F90B1
S11316F00FBE0F901F90189578941F920F920FB6FB
S11317000F9211240F900FBE0F901F90189578948C
S11317101F920F920FB60F9211248F939F93809173
S11317209600909197009F918F910F900FBE0F900C
S11317301F90189578941F920F920FB60F92112450
S11317402F933F938F939F932FB7F89433278091D0
S11317500D0690910E06019690930E0680930D0649
S11317602FBF9F918F913F912F910F900FBE0F909C
S11317701F9018951F920F920FB60F9211248F93FA
S11317808091B0008093B0008091B60081FDFCCFC1
S11317908F910F900FBE0F901F9018951F920F926C
S11317A00FB60F9211240F931F932F933F934F93D0
S11317B05F936F937F938F939F93AF93BF93CF93D5
S11317C0DF93EF93FF932EB5E0918C07F0918D0793
S11317D0309739F08091090690910A06E80FF91FB5
S11317E020838091090690910A06019690930A0637
S11317F08093090680E00E945203C0910906D091AB
S11318000A062091080330910903C217D30708F090
S113181042C00091E7091091E80940918C0750916A
S11318208D07CE010A962817390708F4C901DA0191
S1131830AC0FBD1FF801EC0FFD1F9C01215030407F
S113184015C00115110531F080818EBD0DB407FE60
S1131850FDCF04C01EBC0DB407FEFDCF8EB54115EF
S1131860510509F08C93219611963196C217D3072E
S113187040F381E00E9452030115110531F00C0F71
S11318801D1FF80180818EBD01C01EBCD0930A06C5
S1131890C093090611C010928D0710928C07109204
S11318A0E8091092E70910920903109208031092B4
S11318B00A06109209068EB5FF91EF91DF91CF9140
S11318C0BF91AF919F918F917F916F915F914F9154
S11318D03F912F911F910F910F900FBE0F901F906A
S11318E0189578941F920F920FB60F9211240F90AF
S11318F00FBE0F901F90189578941F920F920FB6F9
S11319000F9211240F900FBE0F901F90189578948A
S11319101F920F920FB60F9211242F933F938F9320
S11319209F93AF93BF932FB7F89433278091FB0312
S11319309091FC03A091FD03B091FE030196A11DBB
S1131940B11D8093FB039093FC03A093FD03B0931C
S1131950FE032FBFBF91AF919F918F913F912F9124
S11319600F900FBE0F901F901895CF92DF92EF92B9
S1131970FF920F931F93182F0E944D026B017C015D
S11319808091FF02813009F58091FB029091FC0265
S1131990A091FD02B091FE02A7019601281B390B0C
S11319A04A0B5B0B609180027091810280918202EC
S11319B09091830203EF0E94252A60938002709322
S11319C081028093820290938302112341F0C0929A
S11319D0FB02D092FC02E092FD02F092FE021F9103
S11319E00F91FF90EF90DF90CF90089560910003E6
S11319F0882399F06623A1F07727762F662743EF93
S1131A0080918602909187020E94E4299093870234
S1131A10809386021092000308956F5F6093000321
S1131A2008956091FF02882389F07727762F66272F
S1131A3043EF80918402909185020E94E42990935F
S1131A408502809384021092FF0208956F5F609371
S1131A50FF0208951F920F920FB60F9211242F9335
S1131A603F934F935F936F937F938F939F93AF9322
S1131A70BF93EF93FF938091B0008093B000809167
S1131A80B60081FDFCCF8091B30099270196AA2767
S1131A90BB27209198033091990340919A03509168
S1131AA09B03280F391F4A1F5B1F20939803309311
S1131AB0990340939A0350939B039091B1009068CB
S1131AC08091B60080FDFCCF9093B1009F77809108
S1131AD0B60080FDFCCF9093B10078940E94B705C6
S1131AE0FF91EF91BF91AF919F918F917F916F91F2
S1131AF05F914F913F912F910F900FBE0F901F90C8
S1131B0018958FB7F894282F3327922F8091740259
S1131B10882331F48091E302823011F42FBF13C083
S1131B209FBF8FB7F894282F33278091E30288232F
S1131B3069F482E08093E302109274022FBF0E9442
S1131B405B03209A289A81E090E008952FBF80E0FB
S1131B500E94800380E090E008950F931F931FB7C5
S1131B60F8948091E302823099F58091740288237D
S1131B7079F58091720220E030E08F3F11F421E08A
S1131B8030E0232BF1F49FEF909374028F3F19F40C
S1131B902FEF30E00DC0282F3327F901EE5FFB4F04
S1131BA08081809372028F3F11F49093730290832B
S1131BB02093040481E08093E30284E10E941C02E8
S1131BC005C08FEF809374021092E30201E001C01C
S1131BD000E0812F99278FBF1FB7F8948091E3020B
S1131BE0882311F40E944903812F99278FBF90E025
S1131BF0013009F491E081E09827892F99271F91FA
S1131C000F910895EF920F931F93AE2D99E0899F42
S1131C10F0011124E758F94F4083518362837383A1
S1131C200483158326833783A17080858E7F8A2B56
S1131C30826080878AE00E941C021F910F91EF90BE
S1131C400895AF92BF92CF92DF92EF92FF920F93DB
S1131C501F93F82E5A016B010E944D02AB01BC0187
S1131C6021E0E22E960185018F2D0E94020E1F9124
S1131C700F91FF90EF90DF90CF90BF90AF900895B9
S1131C80665F0E94760208950E94B20486509927E6
S1131C900895EF92FF920F931F937C0160E50E94D9
S1131CA076028C01C7010E94440E080F111DC80161
S1131CB01F910F91FF90EF900895EF92FF920F9371
S1131CC01F938C0160E50E9476027C01C8010E948A
S1131CD0B2048150E80EF11CC7011F910F91FF90CF
S1131CE0EF900895EF92FF920F931F93CF93DF939A
S1131CF0E6EFF9E0C091B302D091B402C035D1054A
S1131D0010F0C0E5D0E080E5DF011D928A95E9F787
S1131D102091B3023091B4028091AF029091B0024D
S1131D2000E010E07F0113C0FC01EF58FB4FE0819D
S1131D302115310539F0019660E971E00E943D2CCE
S1131D4021503040D701ED937D010F5F1F4F0C17D9
S1131D501D0751F73093B4022093B3029093B0025D
S1131D608093AF0240E56AEE79E08FEF9FEF0E9427
S1131D700803882319F088E00E941C02DF91CF91A8
S1131D801F910F91FF90EF900895662361F4809165
S1131D90B3029091B402892B19F00E94720E089537
S1131DA01092B502089588E00E941C0208951F93C2
S1131DB080919008882321F111E090E0209190080F
S1131DC0822F8123C1F0E92FFF27EE0FFF1FE55F6C
S1131DD0F94F4081518111821082812F80952823EF
S1131DE020939008992339F463E0CA010E94C50E38
S1131DF0110F91E0E3CF9F5F983010F4110FDECF05
S1131E001F9108950F931F93CF93DF93182FEB0126
S1131E10042FE82FFF27EE0FFF1FE55FF94F118214
S1131E2010820E945D06112321F4602FCE010E94CE
S1131E30C50EDF91CF911F910F9108958FB7F8943C
S1131E40282F33278091B502813021F42FBF80E001
S1131E5090E0089540E08091B3029091B402892B00
S1131E6009F441E0442321F02FBF81E090E008957C
S1131E7081E08093B5022FBF0E94720E80E090E053
S1131E8008951F93CF93DF93182F8091B502882371
S1131E9061F48091B3029091B402883C910528F0DA
S1131EA081E08093B5020E94720E8FB7F894C82F18
S1131EB0DD272091B3023091B40281E02039380744
S1131EC0D8F48091B1029091B202FC01EF58FB4F1B
S1131ED01083019660E971E00E943D2C9093B20258
S1131EE08093B1022F5F3F4F3093B4022093B3022B
S1131EF0CFBF80E090E003C0CFBF8FEF9FEFDF91B3
S1131F00CF911F910895AF92BF92CF92DF92EF923B
S1131F10FF920F931F93CF93DF93809171088823CF
S1131F2009F4C4C00E94810D882309F4BFC08FB78F
S1131F30F8949927C091FF03D09100048FBF1092A9
S1131F40710828988FE88EBD0DB407FEFDCF8EB5BD
S1131F501EBC0DB407FEFDCF8EB5289A982F809134
S1131F600703833011F0873031F485E08093E90969
S1131F7088E080930703A92EBB24A2FE67C080914A
S1131F800703863019F41092070303C0882309F06D
S1131F905DC0943009F049C0289886E88EBD0DB420
S1131FA007FEFDCF8EB51EBC0DB407FEFDCFFEB4FB
S1131FB0289A2FE1F2228091C503982F9695969541
S1131FC03F2D391B830F8093C50300919303109118
S1131FD09403B80181E00E94CB03B80182E00E941F
S1131FE0DA030F591F4FF801F1820E9403046B01B9
S1131FF07C010091930310919403B80180E00E9446
S1132000DA03045A1F4FCC19DD092797CE01AA27FA
S113201097FDA095BA2F8C0D9D1DAE1DBF1DF80117
S113202080839183A283B3830EC0609193037091E4
S1132030940382E00E94CB03609193037091940314
S113204080E00E94CB0385E080930703A3FE2EC0AB
S113205090910703943069F485E08093E909109224
S11320600703109295089093C90380E10E941C0213
S11320701DC09530D9F42091F903289886E88EBDC7
S11320800DB407FEFDCF8EB51EBC0DB407FEFDCF0B
S11320908EB5289A8F71922F96959695891B280F45
S11320A02093F90389E08093070308C02091070374
S11320B0222309F475C2293009F082C1289880E2EC
S11320C08EBD0DB407FEFDCF8EB51EBC0DB407FE4C
S11320D0FDCF8EB5482F5527433008F4AEC2842F68
S11320E099278E3591050CF0A8C21EBCE09193038C
S11320F0F09194034083A42FA250A73010F42A2F08
S113210001C027E0BF016F5F7F4F322FFB0140E02A
S113211050E00DB407FEFDCF8EB51EBC9927819308
S11321204827042E4295407F4025052E542F429582
S11321304F700426469554274527440F440F440FF7
S11321404025315031F72150FB01E20FF11D2F5F83
S113215031968FB7F894682F772790E080916608BE
S1132160833008F491E06FBF992309F45EC09A2F7D
S1132170921B18C00DB407FEFDCF8EB51EBC808324
S113218081914827042E4295407F4025052E542FE7
S113219042954F700426469554274527440F440F13
S11321A0440F4025915030F70DB407FEFDCF8EB596
S11321B01EBC9A012827022E2295207F2025032E5B
S11321C0322F22952F700226269532272327220F9D
S11321D0220F220F20250DB407FEFDCF8EB51EBCA5
S11321E02827022E2295207F2025032E322F229588
S11321F02F700226269532272327220F220F220F23
S113220020250DB407FEFDCF8EB5E0919303F09128
S11322109403EF59FF4F8083289A85E08093E9095E
S113222010920703232B31F0B7C10DB407FEFDCF85
S11322308EB503C2E0909303F09094035701089481
S1132240A11CB11CF701818520859927582F4427AB
S11322503327422B532B80919C03282F3327F901DA
S1132260EE0FFF1FEA58F74F8081918160918F072D
S11322708417950769F4F901EF5AF54F80818617A1
S113228009F464C0862F8F5F80938F0780831BC0FF
S113229010E000E080E090E0C6E7D8E0E1E5FAE095
S11322A0C62EC394DF01782F9C01888199818417FD
S11322B0950759F420939C038C91861709F446C022
S11322C0C0928F07CC9210E828C08081962F981B6B
S11322D0191710F4192F022F7F5FC9010196119667
S11322E02296319685309105F1F67530B1F400935C
S11322F09C03A02FBB27FD01EE0FFF1FEA58F74FE9
S113230051834083862F8F5F80938F07FD01EF5A9F
S1132310F54F8083A35AB54F1C9290918F07892F54
S11323208F778F3779F41F3768F0E1E5FAE0292FCA
S1132330207880818F678913208331963AE0E635CF
S1132340F307B9F780919C03282F3327F501928175
S1132350A22FBB27FD01E35AF54F808180FF07C000
S1132360FD01E959F74F8081981729F102C0816076
S11323708083A959B74F9C93CFB6F894809166088F
S11323808330B0F4E0918A08E80FE33008F0E350BA
S1132390FF27EE0FFF1FEA58FC4F00811181F182E5
S11323A0E0828F5F8093660881E10E941C027801BD
S11323B08C2D99278FBFF0929403E0929303E3C08E
S11323C0822F8150833008F0BCC08150823008F0E5
S11323D03BC09091E9099130B9F530E080918E07C6
S11323E0882309F431E0332379F12F98909307047B
S11323F090938E0760918400709185002FB7F894B4
S11324004091840050918500CA01861B970B039666
S11324108B52934018F0CA01039603C0CB01855D2B
S11324209C4F009711F481E090E00197909389000C
S11324308093880082E086BB90916F0092609093B5
S11324406F0033272FBF68C0233009F042C080914A
S1132450E909833009F097C00E94810D8823C9F1EE
S113246028988FE88EBD0DB407FEFDCF8EB51EBC37
S11324700DB407FEFDCF8EB5289A8091810080644B
S11324808093810080E286BB80916F00806280939C
S11324906F009091BF03289888EC8EBD0DB407FEA1
S11324A0FDCF8EB590669EBD0DB407FEFDCF8EB5F3
S11324B0289A289882EC8EBD0DB407FEFDCF8EB508
S11324C086E08EBD0DB407FEFDCF8EB5289A84E05C
S11324D023C0809107038150823000F58091E9097F
S11324E08530E1F40E94810D8823C1F0289882ECA4
S11324F08EBD0DB407FEFDCF8EB583E08EBD0DB449
S113250007FEFDCF8EB5289A80916F008F7D809352
S11325106F001092710883E08093E909909107039A
S1132520913041F48091E9098330B1F52F9A909369
S1132530E90925C0923039F58091E909833061F5C4
S11325401EC0273001F50E94810D8823E1F090918F
S1132550BF03289888EC8EBD0DB407FEFDCF8EB561
S113256090669EBD0DB407FEFDCF8EB5289A80916E
S1132570E909853021F484E08093E90904C088E006
S11325808093070304C080910703883029F41092D4
S113259007038FE00E941C02809107038823C9F47B
S11325A08091E909853091F480917108882371F450
S11325B08091C903823051F481E08093C90380E1A2
S11325C00E941C0280910703882319F482E10E946F
S11325D01C0280918E07823019F510928E0780912B
S11325E007048130E9F48091E909823021F483E021
S11325F08093E90913C080910703863079F410921F
S11326000703289881E88EBD0DB407FEFDCF8EB573
S11326101EBC0DB407FEFDCF8EB5289A0E9453143C
S11326208FB7F894282F33278091BE03813061F04F
S113263081E08093BE032FBF70CC289A85E08093FD
S1132640E90910920703A8CF1092BE032FBFDF91B0
S1132650CF911F910F91FF90EF90DF90CF90BF909B
S1132660AF9008958FB7F894282F33278091BE0335
S113267081508093BE03803811F02FBF089581E00C
S11326808093BE032FBF0E94830F08951F93FC0104
S11326908FE38287809106038F5F80930603838391
S11326A02FB7F89433278091BE038F5F8093BE03C6
S11326B02FBF8091C903882311F015E00DC0F0935A
S11326C09407E093930781E08093C90310929007E5
S11326D080E10E941C0210E00E943213812F99278E
S11326E01F910895EF92FF920F931F93CF93DF935F
S11326F0082F7B01EA01122F213518F086E090E0C3
S113270089C08A81298140E09927982F8827332717
S1132710822B932B87749C7C8154984809F441E064
S1132720442319F4CE010E948102135F18832FB74A
S1132730F894332780916C0290916D022FBF8887A3
S1132740892F992789872FB7F894332780916E02B0
S11327502FBF99278C831D82CE010E949204FC0115
S11327600083EE828F2D99278F838FB7F894282FBB
S113277033278091E202882371F482E08093E2029D
S1132780109271022FBFCE010E9446139927182F71
S1132790882399F00FC02FBFD093C203C093C10305
S11327A08FB7F894C82FDD272C2F8091E20288235D
S11327B099F406C080E00E943604812F99272AC02C
S11327C081E08093E2021092C0038EE00E941C021A
S11327D0CFBF80E090E01EC08091C3038F3F89F497
S11327E0E0917002EE2369F010C010926F0204C0F1
S11327F0FF27ED53FC4F10821092700280E090E0AE
S113280002C085E090E02FBF05C080916F028F3F2A
S113281079F7EBCFDF91CF911F910F91FF90EF905C
S113282008951F93AC012091ED022223C1F1809100
S1132830EE029091EF024817590789F5213071F49F
S1132840809193068D7F8093930683E08093750235
S113285086E10E941C0280E090E023C02230F9F45B
S11328608FB7F89499272091BE032F5F2093BE035E
S11328708FBF8091C9038150823010F015E00AC0E7
S113288084E08093C90383E08093950880E10E94EB
S11328901C0210E00E943213812F992702C081E0AC
S11328A090E01F9108958FB7F894282F33278091D3
S11328B0BE03882329F080688093BE032FBF089548
S11328C081E08093BE032FBF0E94830F0895789404
S11328D01F920F920FB60F9211242F933F934F9391
S11328E05F936F937F938F939F93AF93BF93EF9374
S11328F0FF93E6E8F0E080819181208131818FB7F8
S1132900F8949927309300042093FF0321E0209347
S113291071088FBF0E945314FF91EF91BF91AF9143
S11329209F918F917F916F915F914F913F912F91E3
S11329300F900FBE0F901F90189578941F920F92CE
S11329400FB60F9211242F933F934F935F936F937E
S11329507F938F939F93AF93BF93EF93FF93809154
S11329606F008D7F80936F0078949FB7F894809167
S11329708E07813019F482E080938E07892F99277E
S11329808FBF0E945314FF91EF91BF91AF919F911C
S11329908F917F916F915F914F913F912F910F9004
S11329A00FBE0F901F9018950F931F93CF93DF9333
S11329B083E193E00E9481021092730364E083E157
S11329C093E00E947602FC018091B602882319F0FC
S11329D080E090E003C08091760299278183809102
S11329E0560A82838091BF028F5F8093BF02815019
S11329F08083DF01139613828091B602882381F4C9
S1132A0040E08091F40221E030E0281B31098091FC
S1132A10C4039927281739070CF041E0442319F01F
S1132A208C9181608C93C0916A02D0916B028091E9
S1132A30E402882311F424E045C000910103112726
S1132A400E944D0220910F03309110034091110315
S1132A5050911203621B730B840B950B60507E4FD5
S1132A608F4F9F4F4AE096958795779567954A953E
S1132A70D1F77093CB036093CA0360E583E193E0DD
S1132A800E947602FC0104833596AAECB3E082E24C
S1132A900D9001928150E1F78091E5029091E60258
S1132AA0A091E702B091E8020196A11DB11D8093A7
S1132AB0E5029093E602A093E702B093E802109235
S1132AC0E40227E243E153E0BE0180E80E9472136E
S1132AD02FEF3FEF30936B0220936A029927DF9127
S1132AE0CF911F910F9108951F93CF93DF9310916E
S1132AF05E02E12FFF27EE0FFF1FE55FF94FC08154
S1132B00D181118210820E945D06112321F461E0BB
S1132B10CE010E94C50EDF91CF911F9108951F939E
S1132B20CF93DF93382F80916602882309F452C033
S1132B308091F4029927282F882309F44BC033236A
S1132B4029F480919503281708F444C0E091F20217
S1132B50FF27EE0FFF1FEC59F74FC081D181CE0143
S1132B600E94B204182F8091BC029091BD02892B5F
S1132B7089F58091E102853068F1873141F48091D3
S1132B809C068D7F80939C068DE00E941C02909190
S1132B90E102892F8651823010F0953011F48CE0D7
S1132BA00BC0963011F48DE007C09B3021F09331B7
S1132BB011F0943119F48EE08093E102D093BD02B8
S1132BC0C093BC0211501093140681E080938803D3
S1132BD01092BB02DF91CF911F9108951F93CF9361
S1132BE0DF93EC01FB014530D0F1148180910103A6
S1132BF0811738F09927811B91098F3791050CF4BF
S1132C0046C18091E9029091EA0201969093EA020A
S1132C108093E902455055273596BF018AEC93E02D
S1132C200E94BD2C109301030E944D022091CA03FF
S1132C303091CB03322F2227330F330F44275527EC
S1132C40621B730B840B950B60930F03709310033B
S1132C50809311039093120388E10E941C0285E182
S1132C600E941C028091E1028231B1F58FB7F89481
S1132C70992740916C0250916D028FBF8F812E81F4
S1132C809927982F88273327822B932B4817590786
S1132C90F9F08F5F9F4F09F409C189852885992729
S1132CA0982F88273327822B932B2091670230910A
S1132CB068022817390709F0F9C080919C068D7FB6
S1132CC080939C068EE08093E1028DE00E941C02BA
S1132CD08091E102823129F08F3019F08E3009F0B1
S1132CE08CC08FB7F894992740916C0250916D0273
S1132CF08FBF8F812E819927982F88273327822B86
S1132D00932B4817590711F060E05BC0898528852B
S1132D109927982F88273327822B932B209167029A
S1132D20309168022817390709F0C0C064E0CE0169
S1132D300E947602FC01908180916902891709F052
S1132D40B5C02091BC023091BD021092BD02109218
S1132D50BC0280919C068D7F80939C0640918803E1
S1132D60E091F202FF27EE0FFF1FEC59F74F80812D
S1132D70918128173907C1F4442399F4C9010E94A9
S1132D8094048091F2029091F402992351F08F5FA0
S1132D908093F202813011F41092F20291509093D8
S1132DA0F40281E00E948F1580E00E94110D80E002
S1132DB00E94B50C8EE08093E1028DE00E941C021B
S1132DC061E0CE010E94B7042091BC023091BD02A3
S1132DD0882321F0232B29F080E109C0232B09F05B
S1132DE065C080919C068D7F80939C0683E18093CF
S1132DF0E1028DE00E941C0259C08051823008F02B
S1132E0055C0898528859927982F88273327822BB1
S1132E10932B20916702309168028217930709F07F
S1132E2045C08F812E819927582F44273327422B61
S1132E30532B8FB7F894992720916C0230916D022F
S1132E408FBF4217530791F14F5F5F4F51F52EC06B
S1132E5060E0CE010E94B704882319F01093E102C8
S1132E60C8CF8FE08093E10221C08091BC02909191
S1132E70BD020E9411148823C9F460E0CE010E94AF
S1132E80B704882399F081E08093C0020FC0809139
S1132E90EB029091EC0201969093EC028093EB028A
S1132EA0DECE1091E102103101F7D2CFCE01DF91D5
S1132EB0CF911F9108952F923F925F926F927F92CC
S1132EC08F929F92AF92BF92CF92DF92EF92FF9236
S1132ED00F931F93CF93DF935B016C01C0E0D0E0AD
S1132EE0E9E7F6E0608561FF79C1208131814281A3
S1132EF05381E480F58006811781D601C501821BC8
S1132F00930BA40BB50B8E159F05A007B10708F40E
S1132F1065C160FF03C06D7F608708C02E0D3F1D33
S1132F20401F511F2083318342835383C23049F1B0
S1132F30C33018F4CC2341F057C1C33009F4EDC0B9
S1132F40C43009F051C146C100915C0210915D0288
S1132F500E944D021F930F939F938F937F936F93C0
S1132F6080E092E09F938F930E94CD2C0E941E0FCD
S1132F708DB79EB708960FB6F8949EBF0FBE8DBF4F
S1132F8033C150905C0AC091EE02D091EF022090C0
S1132F908508309086088FB7F894282F33278091BE
S1132FA0F002882319F02FBF25E0B3C081E080939D
S1132FB0F0022FBF0E944D023B014C016093780642
S1132FC0CE010E948404FC018081E1802281A380DF
S1132FD0332744275527542F432F322F222799274D
S1132FE0AA27BB27B82FAA2799278827FF240027B9
S1132FF011278701FF24EE248E299F29A02BB12BB2
S1133000BB24CC24DD248A299B29AC29BD29282B67
S1133010392B4A2B5B2B20938C0830938D084093DB
S11330208E0850938F08CE010E948404FC01808195
S1133030E1802281A380332744275527542F432F2F
S1133040322F22279927AA27BB27B82FAA279927E7
S11330508827FF24002711278701FF24EE248E29C7
S11330609F29A02BB12BBB24CC24DD248A299B29A6
S1133070AC29BD29282B392B4A2B5B2B8091F102DB
S1133080680E711C811C911C2619370948095909BD
S11330902383BB27A52F942F832F8283CA01AA27BA
S11330A0BB278183252F332744275527208394E08A
S11330B0590E252DAE01B10181E80E9472139927A2
S11330C0D82E882311F1E0908C08F0908D0800919F
S11330D08E0810918F08CE010E948404FC01E382C3
S11330E0BB27A12F902F8F2D8283C801AA27BB272E
S11330F08183E12EFF2400271127E0821092F00241
S11331008D2D9927282F882321F482E08093ED02C6
S11331106BC02093750286E15EC09091E102892F15
S11331208051823008F460C09731A1F48091BC02D0
S11331309091BD02892B61F48091B602882331F409
S1133140809176028F3F11F486E140C085E03EC055
S11331508CE03CC09231A9F19F30A9F5209177020F
S11331602F3F79F0809176028F3F59F0992701968D
S1133170820F911D62E070E00E94512C60937602F0
S113318003C08FEF809376028FEF80937702809154
S1133190DD029091DE0201969093DE028093DD02BF
S11331A08091B602882369F4809176028F3F49F4B6
S11331B08091DF029091E00201969093E002809367
S11331C0DF028EE003C09A3019F48BE08093E102B1
S11331D08DE001C087E10E941C0206C02196399649
S11331E0C530D10509F07ECE8AE00E941C02DF9131
S11331F0CF911F910F91FF90EF90DF90CF90BF90F0
S1133200AF909F908F907F906F905F903F902F90A2
S11332100895AF92BF92CF92DF92EF920F931F93D4
S11332205B016C010E944D02AB01BC01F1E0EF2E89
S11332309601850183E00E94020E1F910F91EF9089
S1133240DF90CF90BF90AF9008956623E9F480910A
S1133250D3029091D402A091D502B091D6020196E6
S1133260A11DB11D8093D3029093D402A093D502E3
S1133270B093D60282E18093E10262E070E080E0E4
S113328090E00E94091908958091D7029091D80284
S113329001969093D8028093D702633069F48091A9
S11332A0C002813049F41092C00280E18093E102AF
S11332B08DE00E941C02089580919C0681FF02C04B
S11332C08FE001C08EE08093E1020895DF92EF92D7
S11332D0FF920F931F93CF93DF93EC01D62E0E949E
S11332E09204FC0180819927803821F0813809F00B
S11332F07BC047C0DD20A9F58F819927982F8827A7
S11333002E813327822B932B8F5F9F4F99F08091CF
S1133310C5029091C602A091C702B091C80201965D
S1133320A11DB11D8093C5029093C602A093C7024C
S1133330B093C8028091C1029091C202A091C302CD
S1133340B091C4020196A11DB11D8093C102909356
S1133350C202A093C302B093C4028091E1028F5FC2
S11333600AC08091C9029091CA0201969093CA0240
S11333708093C90284E18093E1028DE00E941C02E3
S113338033C01092F002DD2059F41091F1020E9432
S11333904D0220917806621B160F16951093F102C8
S11333A0E0908C08F0908D0800918E0810918F08A1
S11333B0CE010E948404FC01E382BB27A12F902F3D
S11333C08F2D8283C801AA27BB278183E12EFF2486
S11333D000271127E0821092ED026D2D8091EE02FC
S11333E09091EF020E942519DF91CF911F910F91C7
S11333F0FF90EF90DF900895AF92BF92CF92DF924B
S1133400EF920F931F93E0918802E330F9F0FF27C6
S1133410EE0FFF1FEE0FFF1FE458FC4FA080B1809A
S1133420C280D380A114B104C104D10421F487E182
S11334300E941C020BC00E944D02AB01BC0131E092
S1133440E32E9601850184E00E94020E1F910F91E4
S1133450EF90DF90CF90BF90AF900895AF92BF925E
S1133460CF92DF92EF920F931F93CF93DF93E82EC7
S11334705A016B0180918802CE2DDD278330A1F49F
S1133480FE01EE0FFF1FEE0FFF1FE458FC4F4083B9
S1133490518362837383E0928802CA53DC4F88832A
S11334A0E81609F47CC047C08E01000F111F000FFD
S11334B0111F04581C4FF8014083518362837383A6
S11334C08091A50681FF17C00E944D0220919D06A0
S11334D030919E0640919F065091A006621B730B8B
S11334E0840B950B6A0D7B1D8C1D9D1DF80160835B
S11334F071838283938350918802E52FFF27EE0F17
S1133500FF1FEE0FFF1FE458FC4F80819181A281C1
S1133510B381A816B906CA06DB0610F5CA53DC4FF8
S11335205883E0928802F3E0EF16C9F1F801A08015
S1133530B180C280D380A114B104C104D10421F4A8
S113354087E10E941C022BC00E944D02AB01BC010A
S1133550E1E0EE2E9601850184E00E94020E1FC078
S1133560252F33272A533C4FF9014081433091F0F2
S1133570542FE42FFF27EE0FFF1FEE0FFF1FE45819
S1133580FC4F80819181A281B381A816B906CA0635
S1133590DB0630F7F901E082CA53DC4F4883DF9140
S11335A0CF911F910F91EF90DF90CF90BF90AF908C
S11335B008952F923F924F925F926F927F928F92D3
S11335C09F92AF92BF92CF92DF92EF92FF920F93AE
S11335D01F93CF93DF93CDB7DEB7AA970FB6F894B6
S11335E0DEBF0FBECDBF19A21AA21BA21CA2E82FD8
S11335F0FF27E831F10510F00C94BE26EA59FF4F7D
S1133600EE0FFF1F0590F491E02D09940E94D70E50
S11336100C94BE260E9474150C94BE260E94F006DB
S11336200C94BE268091C1008F7B8093C100809151
S1133630C1008F778093C100109291071092EF031D
S11336408091C10088608093C1008091C100806135
S11336508093C1008091C10080688093C1008FB7BE
S1133660F8949927109292071092EC03C7C685E04C
S113367066C18091C100877F8093C1008091C100A1
S11336808F7E8093C1000C94BE261092A3021092E8
S1133690A2028FB7F89499274091A6028FBF809118
S11336A0A702811143E02091A0023091A1028091F0
S11336B0A802882311F00C94BE2680915E02882310
S11336C011F00C94BE2660910B0670910C066217E3
S11336D0730711F00C94BE260E94020F0C94BE26B0
S11336E08FB7F89499272091AA02E090AB02F0904A
S11336F0AC02D09097038FBF222309F054C0F70186
S11337008385883C09F04FC00CE0A02EB12CAE0C90
S1133710BF1C80919C02882329F4109881E0809337
S11337209C0203C0109A10929C0243E060E070E097
S1133730C5010E94A801082F42E063E070E0C501C2
S11337400E94A8010F5F682F77276F5F7F4F88E182
S113375090E00E94512C069F002D112411270C5F2C
S11337601F4FA801B50186EA96E00E94BD2CACEC7F
S1133770B3E0E6EAF6E080E201900D928150E1F7D1
S11337801092CB031092CA03809101038F5F809340
S113379001030E944D0260930F0370931003809302
S11337A01103909312038FB7F894ED2DFF27EE0FBA
S11337B0FF1FE05AFD4FF182E08220919E02DD203E
S11337C011F02B7F01C02D7F20939E021092A9023D
S11337D099278FBF0C94BE2640E56AEE79E08FEFFF
S11337E09FEF0E940803882311F40C94BE260E94C4
S11337F043020C94BE268091BD03882361F5209179
S11338008108309182084091830850918408EFB771
S1133810F894FF276091890370918A0380918B0348
S113382090918C03E0909108F09092080091930895
S1133830109194086E0D7F1D801F911FEFBF209380
S1133840810830938208409383085093840810922F
S1133850BD030E9443060E944D0244C00E944D02D3
S11338604B015C018FB7F89499271092F3038FBF33
S1133870BFEFCB2EBFEFDB2EBFEFEB2EBFE7FB2E50
S113388060E0E9E7F6E0808581FF1CC080819181DA
S1133890A281B381A5019401281B390B4A0B5B0B50
S11338A0DA01C9012481358146815781281B390BEE
S11338B04A0B5B0B2C153D054E055F051CF4690195
S11338C07A0161E0399636E0E63AF307E1F66623D9
S11338D011F40C94BE261C141D041E041F0434F0A1
S11338E0C501B4010E945B170C94BE26C0928108E6
S11338F0D0928208E0928308F092840881E0809359
S1133900BD03A7019601C501B4010E9443060C94AE
S1133910BE2690E08091F402882309F491E0992373
S113392011F00C94BE26E091F202FF27EE0FFF1F68
S1133930EC59F74F808191810E9494048BE00E949E
S11339401C020C94BE2680E00E948F150C94BE26A7
S11339508091E102853011F08C3049F58FB7F894ED
S113396099272091BE032F5F2093BE038FBF8091C0
S1133970C903882309F045C080910703882309F00F
S113398040C08091E909813049F490E080918E072C
S1133990882309F491E09923A1F102C0853089F1CB
S11339A083E0809307030E94531485E01FC0843191
S11339B011F0813049F58FB7F89499272091BE030F
S11339C02F5F2093BE038FBF8091C9038823C9F45E
S11339D0809107038823A9F48091E909813089F053
S11339E081E0809307030E94531486E08093C90307
S11339F00E9432138091E1028F5F8093E1020C9464
S1133A00BE260E94321309C0843059F48091500AB2
S1133A108093560A85E08093E1020E9448020C9448
S1133A20BE26833021F41092E1020C94BE26863126
S1133A30E1F40E942F056091F1037091F20300916B
S1133A40BA031091BB03060F171F660F771F6F5F32
S1133A507F4F0E943D2C081B190B22273327C901D5
S1133A60B8010E94091987E1C8CF8E30E9F460914A
S1133A70F4037727882799272091800230918102C7
S1133A804091820250918302220F331F441F551F1D
S1133A900E941E2C0E9409198FE08093E10281E0AC
S1133AA00E94B50C0C94BE26893069F46091560AC4
S1133AB077276A5F7F4F882777FD8095982F0E942C
S1133AC009198AE09ACF8031F1F500911406C0906B
S1133AD0BC02D090BD02E0906702F0906802C6017B
S1133AE00E945D0EFC018091010380838091ED02B0
S1133AF0882321F581E08093ED02F0928608E0921C
S1133B008508D092EF02C092EE020F5F00935C0A28
S1133B10109275020E942F056091BE0277276F5F95
S1133B207F4F0E943D2CAA27BB27AC01BD0182E038
S1133B300E94210E1092880381E15FCF85E080937B
S1133B40880383E168CF873041F40E94D41488232A
S1133B5011F488E052CF8BE05ECF833151F484E1DD
S1133B608093E1020E94480281E00E94110D0C94AE
S1133B70BE268B3011F00C94BE2681E00E94F60C18
S1133B8084E149CF2FB7F89433278091C003809301
S1133B90710282E08093E2022FBF80917102882338
S1133BA011F00C94BE268091C1039091C2030E942F
S1133BB04613082F1127002311F40C94BE260E94EB
S1133BC07F04602F8091C1039091C203B4C180919E
S1133BD0C9031092C903853011F4129803C08630CA
S1133BE029F4129A8091E1028F5F15CF873011F486
S1133BF00C94BE268093C9030C94BE268FB7F89408
S1133C0099272091BE032F5F2093BE038FBF80911D
S1133C10C903813009F07CC1809190078F5F809344
S1133C209007863008F074C1409093075090940731
S1133C3080910703882309F062C18091E9098530E6
S1133C4009F05DC10E94810D882309F458C1809157
S1133C507108882309F053C1B20181E00E9428044D
S1133C60882311F490E00BC041E650E0440E551E49
S1133C70F20191812FE93FEF420E531E9F70809114
S1133C806F04981781F090936F04289885EC8EBD8B
S1133C900DB407FEFDCF8EB590689EBD0DB407FE32
S1133CA0FDCF8EB5289A289882EC8EBD0DB407FE00
S1133CB0FDCF8EB589E08EBD0DB407FEFDCF8EB568
S1133CC0289A0E9403046B017C01B20183E00E94E4
S1133CD02804882319F4E0E0F0E006C0D2018C91B6
S1133CE08550F201E80FF11D289881E88EBD0DB4CE
S1133CF007FEFDCF8EB51EBC0DB407FEFDCF8EB5FD
S1133D00289A8F71893079F0289882EC8EBD0DB491
S1133D1007FEFDCF8EB586E08EBD0DB407FEFDCF48
S1133D208EB5289AECC08FB7F89499272F9A4091B2
S1133D308400509185008FBF2F98289880E68EBD0F
S1133D40D2019C910DB407FEFDCF8EB59EBD8EEFC2
S1133D50282E290EB6E0B21510F0622D01C067E0DE
S1133D6092012F5F3F4FD901962F7D910DB407FE2D
S1133D70FDCF8EB57EBD9150C1F76150260F311D28
S1133D806F5F2F5F3F4F3AA729A74C195D094E5526
S1133D905F4F3A01882477FC8094982C6C0C7D1C2E
S1133DA08E1C9F1C3097D1F12081E1808281A380F9
S1133DB09927AA27BB27BA2FA92F982F88273327FB
S1133DC044275527522F442733272227FF2400272F
S1133DD011278701FF24EE242E293F29402B512B44
S1133DE0BB24CC24DD242A293B294C295D29822BA0
S1133DF0932BA42BB52B86199709A809B90983839A
S1133E00292F3A2F4B2F552722839D0144275527CD
S1133E1021838B2F9927AA27BB278083922D961B5A
S1133E200EC0A9A5BAA52C910DB407FEFDCF49A5D6
S1133E305AA54F5F5F4F5AA749A78EB52EBD915023
S1133E4080F70DB407FEFDCF8EB5289A289882EC32
S1133E508EBD0DB407FEFDCF8EB586E08EBD0DB4CC
S1133E6007FEFDCF8EB5289A3097D1F12081E180ED
S1133E708281A3809927AA27BB27BA2FA92F982F1D
S1133E808827332744275527522F442733272227AF
S1133E90FF24002711278701FF24EE242E293F2920
S1133EA0402B512BBB24CC24DD242A293B294C292B
S1133EB05D29822B932BA42BB52B860D971DA81D52
S1133EC0B91D8383292F3A2F4B2F552722839D0118
S1133ED04427552721838B2F9927AA27BB27808323
S1133EE0B401A301C2010E94E80386E08093E909BA
S1133EF084E0809307031092950883E004C085E072
S1133F008093950882E08093C9030E94321336C7D8
S1133F101092C9030E94321300919508E090930710
S1133F20F0909407F70182858F3309F027C70E9428
S1133F307F04602FC7010E94661920C72FBF1EC7C8
S1133F408FB7F894282F3327809166088823B1F31C
S1133F50E0918A08AE2FBB27AA0FBB1FAA58BC4FFB
S1133F600D90BC91A02DBA83A9832FBFFD0182853A
S1133F700781F6808F3309F0F6C189819A810E9406
S1133F809204FC01108169817A81645F7F4F2981E9
S1133F903A81D9018D91B8A3AF8F8D50482F552701
S1133FA0802F9927B82FAA278F2D9927A82BB92BB3
S1133FB08FB7F894992720916C0230916D028FBFCE
S1133FC0A217B30721F0AF5FBF4F09F0ADC6103899
S1133FD009F48EC1113809F0E0C189819A810E94E7
S1133FE084049AA789A7DC01AC90FC016180E2807B
S1133FF023800E944D02FF2400271127102F0F2D2C
S1134000FE2CEE24BB24CC24DD24DA2CCC24BB24CB
S1134010AA24772488249924430177246624A62893
S1134020B728C828D928332444245524A228B328DF
S1134030C428D528EA28FB280C291D29E60EF71EDA
S1134040081F191FE9A5FAA5E382BB27A12F902F0A
S11340508F2D8283C801AA27BB278183E12EFF24E9
S113406000271127E08289819A810E945D0EFC015C
S1134070209101038081821738F09927821B9109CE
S11340808F3791050CF457C681E08093E402809148
S1134090E1028950823008F080C180919C068D7FB6
S11340A080939C06EF8DF8A1808527819927982F0E
S11340B088273327822B932B90936B0280936A0279
S11340C087E08093E1020E9448028091D902909196
S11340D0DA02A091DB02B091DC020196A11DB11DB0
S11340E08093D9029093DA02A093DB02B093DC02AE
S11340F080E00E94F60C8091F9029091FA020196F8
S11341009093FA028093F90289819A810E94490E60
S11341104C01FC0103810F5F038389819A810E9412
S1134120440ED82ED4018C91F40121819927582F63
S113413044273327422B532BE2808091B6028823F5
S113414011F010E001C0102F1CA3EBA25AA349A345
S11341507091F502F090F602372F00E025C0E32FAE
S1134160FF27EE0FFF1FEE0FFF1FEA56F74F808168
S11341709181A281B381BCA02BA1E9A1FAA18E17E0
S11341809F0709F0DBC5A21709F0D8C5BB1508F4D1
S1134190D5C58091B9029091BA0201969093BA0262
S11341A08093B902FAC00F5F0F15C9F6CDC589E037
S11341B08093F50203C071507093F502E091F5020B
S11341C02E2F3327220F331F220F331F2A56374F28
S11341D08DA19EA1AFA1B8A5F90180839183A2838B
S11341E0B3838091F6028A3018F48F5F8093F602CD
S11341F08091B602882391F1F401E4806D2D8981C8
S11342009A810E947D02FC01ED0DF11D03818981DB
S11342109A810E94490EFC018081218111271F93FC
S11342200F93FF24FF92EF929927982F8827332723
S1134230822B932B9F938F938FE092E09F938F9386
S11342400E94CD2C0E941E0F2DB73EB7285F3F4F12
S11342500FB6F8943EBF0FBE2DBF9FC0909170045F
S11342609923C9F08091FA03E82FFF27EE0FFF1F6F
S1134270E956F84F00811181118210829150909378
S113428070048F5F8093FA03813011F41092FA0363
S11342900115110551F48091B7029091B80201966D
S11342A09093B8028093B70263C59091F402992366
S11342B009F052C58091F302A82FBB27AA0FBB1F98
S11342C0AC59B74F49815A814D935C938F5F80936A
S11342D0F302813011F41092F3029F5F9093F40281
S11342E08CE00E941C021A83098357C08BE01EC015
S11342F089819A810E94EE159A8389834EC08091A8
S1134300E1028031B1F4E981FA818781268199271C
S1134310982F88273327822B932B20916702309183
S113432068028217930709F038C08FE08093E10296
S113433034C0813191F5E981FA81878126819927F9
S1134340982F88273327822B932B20916702309153
S113435068028217930709F58091BC029091BD020F
S11343600E9411141AC0802F9927582F44278F2D8B
S11343709927482B592B8FB7F894992720916C02D1
S113438030916D028FBF4217530719F04F5F5F4F93
S113439021F48FB7F89499278FBF9FB7F894809131
S11343A08A08A82FBB27AA0FBB1FAA58BC4F298174
S11343B03A812D933C938F5F80938A08833010F069
S11343C010928A0880916608815080936608892F2C
S11343D099278FBFB5CD8FB7F894992710928D0781
S11343E010928C071092E8091092E70910920903C1
S11343F01092080310920A0610920906EAC92FB710
S1134400F8943327809104048093740282E08093AB
S1134410E3022FBF80917402882309F0AFC4209A6D
S1134420289A8091E909882309F074C08EEF91E0FD
S1134430019701960197E1F716982F9886E090E08E
S1134440019701960197E1F7169A289883EC8EBD9F
S11344500DB407FEFDCF8EB51EBC0DB407FEFDCF17
S11344608EB5289A289882EC8EBD0DB407FEFDCF38
S11344708EB588E08EBD0DB407FEFDCF8EB5289AAB
S11344808EEF91E0019701960197E1F728988EEC61
S11344908EBD0DB407FEFDCF8EB58DE48EBD0DB47B
S11344A007FEFDCF8EB5289A289889EC8EBD0DB4F1
S11344B007FEFDCF8EB587EC8EBD0DB407FEFDCF94
S11344C08EB5289A289885EC8EBD0DB407FEFDCFD5
S11344D08EB580E88EBD0DB407FEFDCF8EB5289A4B
S11344E010926F048DE08093BF03289888EC8EBDF2
S11344F00DB407FEFDCF8EB58DE68EBD0DB407FE5F
S1134500FDCF8EB5289A2F9A81E08093E9090E9405
S1134510AD0D34C40E94531431C41092ED02609165
S113452075028091EE029091EF020E94251926C433
S11345304FB7F8945527809188029927FC01EA53D4
S1134540FC4F2081209388024FBF60918802082F7E
S11345507C01EE0CFF1CEE0CFF1C4CE753E0E40E58
S1134560F51E1DC07727FB01EE0FFF1FEE0FFF1F87
S1134570E458FC4FA080B180C280D380D7012D9134
S11345803D914D915C91A21AB30AC40AD50AA08246
S1134590B182C282D3826A537C4FFB016081633053
S11345A009F70E94FC190130E1F0013020F00230DB
S11345B009F043C02CC010928D0380E090EDA2E07E
S11345C0B0E080938E0390938F03A0939003B093F5
S11345D0910340E050ED62E070E080E00E942E1A0A
S11345E040C01092FC0780E090E6A9E0B0E0809320
S11345F0FD079093FE07A093FF07B093000840E0E7
S113460050E669E070E081E00E942E1A72C01092B8
S11346100A0380E090E1AEE0B0E080930B03909356
S11346200C03A0930D03B0930E0340E050E16EE041
S113463070E082E00E942E1ACBC04091010050919C
S113464002006091030070910400802F0E942E1AD2
S1134650013009F44EC0013020F0023009F08EC35D
S1134660B7C02091F7023091F80244275527EAE0B9
S1134670220F331F441F551FEA95D1F7609178022A
S11346807091790280917A0290917B0203EF0E94EB
S1134690252A609378027093790280937A0290932A
S11346A07B021092F8021092F7022091F9023091E5
S11346B0FA02442755277AE0220F331F441F551F5F
S11346C07A95D1F760917C0270917D0280917E028F
S11346D090917F020E94252A60937C0270937D0250
S11346E080937E0290937F021092FA021092F90254
S11346F045C30091890210918A026CE0C8010E94AE
S1134700400E7C01C8010E948D02809102039091A9
S11347100303019690930303809302030197F70127
S11347208183892F9927808320917802309179029F
S113473040917A0250917B022330310541055105A5
S113474018F42FEF3FEF06C060E070ED82E090E0D8
S11347500E94642CF7012383832F9927828320915D
S11347607C0230917D0240917E0250917F02233081
S113477031054105510518F42FEF3FEF06C060E005
S113478070ED82E090E00E94642CF7012583832F72
S1134790992784838091800290918102A091820262
S11347A0B09183028187292F3A2F4B2F55272087D9
S11347B09D014427552727838B2F9927AA27BB2799
S11347C08683809185028287809187028387D6C2FF
S11347D0E0908B02F0908C026EE2C7010E947D0291
S11347E08C01C7010E948D028091040390910503FE
S11347F00196909305038093040301978C83F80139
S11348008183892F99278B8380838091B70290912C
S1134810B8028E838383892F99278D838283809125
S1134820B9029091BA0288878583892F99278F834B
S113483084838091C1029091C202A091C302B0917D
S1134840C4028C878187292F3A2F4B2F55272B871A
S113485020879D01442755272A8727838B2F992753
S1134860AA27BB27898786838091C5029091C602B7
S1134870A091C702B091C802888B8587292F3A2F4F
S11348804B2F55272F8724879D01442755272E8793
S113489023878B2F9927AA27BB278D87828780910F
S11348A0C9029091CA028A8B8787892F9927898B9D
S11348B086878091CB029091CC02A091CD02B091D9
S11348C0CE028E8B838B292F3A2F4B2F55272D8B7E
S11348D0228B9D01442755272C8B218B8B2F9927C5
S11348E0AA27BB278B8B808B8091CF029091D0021B
S11348F0A091D102B091D2028A8F878B292F3A2FAF
S11349004B2F5527298F268B9D0144275527288F08
S1134910258B8B2F9927AA27BB278F8B848B80917C
S1134920D3029091D402A091D502B091D6028D8F7A
S1134930838F292F3A2F4B2F55272C8F228F9D01A0
S1134940442755272B8F218F8B2F9927AA27BB27E5
S1134950282E808F8091D7029091D8028E8F858FD8
S1134960892F9927382E848F8091D9029091DA0269
S1134970A091DB02B091DC02482E81A3292F3A2FAB
S11349804B2F5527622E20A39D0144275527522ED5
S1134990278F8B2F9927AA27BB27C82E868F809114
S11349A0DD029091DE02D82E83A3892F9927E82E69
S11349B082A38091DF029091E002F82E85A3892FD3
S11349C09927A82E84A38091E5029091E602A091F4
S11349D0E702B091E80281A7292F3A2F4B2F5527E0
S11349E020A79D014427552727A38B2F9927AA2762
S11349F0BB2786A38091E9029091EA0283A7892FBD
S1134A00992782A78091EB029091EC0285A7892FC8
S1134A10992784A720918B0230918C023AA729A769
S1134A2000915C0210915D020E944D02BB24BA2CDD
S1134A30AA242F2D3327A22AB32ABF92AF922E2D58
S1134A403327322F22274D2D5527242B352B3F93E7
S1134A502F93772488249924982C872C762C6624E9
S1134A60DD24EE24FF24FC2CEE24DD24CC24252D8F
S1134A70332744275527A90133272227C22AD32ABB
S1134A80E42AF52A242D332744275527C22AD32A7A
S1134A90E42AF52A6C287D288E289F289F928F92DD
S1134AA07F926F92232D3327322F2227AE8D4A2FE8
S1134AB05527242B352B3F932F93BC8D2B2F332736
S1134AC044275527CC24D22EE32EF42E3324442419
S1134AD05524522C442433242224EB8D2E2F3327A7
S1134AE044275527A90133272227222A332A442A77
S1134AF0552AFD8D2F2F332744275527222A332A61
S1134B00442A552AC228D328E428F528FF92EF9294
S1134B10DF92CF92A98D2A2F332744275527882443
S1134B20922EA32EB42EBF892B2F3327442755272B
S1134B30522F442733272227E88DCE2EDD24EE245E
S1134B40FF247601DD24CC242C293D294E295F291C
S1134B50FA8DCF2EDD24EE24FF242C293D294E2965
S1134B605F29822A932AA42AB52ABF92AF929F92E0
S1134B708F92AD892A2F3327442755278824922ED4
S1134B80A32EB42EBB89CB2EDD24EE24FF245C2D72
S1134B90442733272227EC89CE2EDD24EE24FF245C
S1134BA07601DD24CC242C293D294E295F29FE8958
S1134BB0CF2EDD24EE24FF242C293D294E295F2904
S1134BC0822A932AA42AB52ABF92AF929F928F92E7
S1134BD04989242F3327322F2227AA894A2F552780
S1134BE0242B352B3F932F93BF852B2F332744271B
S1134BF055278824922EA32EB42EED85CE2EDD24A7
S1134C00EE24FF245C2D442733272227FE85CF2E54
S1134C10DD24EE24FF247601DD24CC242C293D2937
S1134C204E295F29A889CA2EDD24EE24FF242C29CD
S1134C303D294E295F29822A932AA42AB52ABF92A4
S1134C40AF929F928F92BB852B2F332744275527F2
S1134C508824922EA32EB42EE985CE2EDD24EE24B4
S1134C60FF245C2D442733272227FA85CF2EDD2409
S1134C70EE24FF247601DD24CC242C293D294E2961
S1134C805F29AC85CA2EDD24EE24FF242C293D297E
S1134C904E295F29822A932AA42AB52ABF92AF9269
S1134CA09F928F92BF812B2F3327322F2227E885A3
S1134CB04E2F5527242B352B3F932F93FD812F2FD8
S1134CC03327322F2227AE814A2F5527242B352B09
S1134CD03F932F93BB812B2F3327322F2227EC8135
S1134CE04E2F5527242B352B3F932F931F930F9330
S1134CF09F938F937F936F9382E292E09F938F931E
S1134D000E94CD2C2DB73EB7225D3F4F0FB6F894CD
S1134D103EBF0FBE2DBF0E941E0F49A55AA550933A
S1134D208C0240938B022AC0103809F4E1CA11386E
S1134D3009F033CBE4CA1092E402A9C93F5F3A30C8
S1134D4008F431CA30E02FCA18A7EFA25EA34DA31E
S1134D50772309F42CCA2FCA8091B7029091B80224
S1134D6001969093B8028093B702C8010E949404FC
S1134D708091E102873009F010CBB8CAAA960FB629
S1134D80F894DEBF0FBECDBFDF91CF911F910F917D
S1134D90FF90EF90DF90CF90BF90AF909F908F9057
S1134DA07F906F905F904F903F902F9008958091E7
S1134DB087088F3FB1F0282F3327F901E356FC4FC2
S1134DC08081809387088F3F11F48093570A8FEF77
S1134DD080832F3F31F0822F0E94D91A81E090E026
S1134DE0089580E090E00895EF920F931F93CF937E
S1134DF0DF93EFB6F89414BE88E10FB6F89480936D
S1134E006000109260000FBE49E150E06FEF70E067
S1134E108DE993E00E94C62C8FEF809387088093DE
S1134E20570A56985E9854985C9880916F008F7DCD
S1134E3080936F00209A289A279A2F980E9A169A90
S1134E408CE094E090939403809393031092F9037D
S1134E508AE58093C50381E08093810080E280939A
S1134E60B60083E08093B100809184009091850026
S1134E704AE720918400309185002817390708F407
S1134E804150442311F0C901F4CF9091B2008091B4
S1134E90B2008917E1F3209184003091850090914C
S1134EA0B2008091B2008917E1F38091840090915F
S1134EB08500821B930B409665E0969587956A95CD
S1134EC0E1F790938908809388081092B10080914B
S1134ED0B10080938100809181008093B60010928C
S1134EE0B20010928500109284008FEF87BB87B3C5
S1134EF086BB8091B6008571E1F70A9A099A089AEF
S1134F00129A119A109A18B88FEF87B90C981498BE
S1134F10109285001092840080916F0081608093CC
S1134F206F0080918100887F82608093810010925D
S1134F3095001092940080917100816080937100BB
S1134F4080919100887F8260809391000E94D7268F
S1134F508823E1F781E098E090939807809397077E
S1134F6011E0109370041092FA0380E092E09093A1
S1134F70BB038093BA038AE08093920388E0809312
S1134F80500A80E28093960383E08093F4031093A5
S1134F9095031092C40383E390E09093F20380930B
S1134FA0F10380E098E2A0E0B0E08093B603909330
S1134FB0B703A093B803B093B90380915C029091B6
S1134FC05D020196AA27BB278093F5039093F6030D
S1134FD0A093F703B093F8030FEF0093020480E06B
S1134FE00E9480032EEB38E03093770320937603FE
S1134FF021E239E0309379032093780324E839E0FF
S113500030937B0320937A032FEF3FEF309377089D
S113501020937608309379082093780830937B089E
S113502020937A0830937D0820937C0830937F087E
S113503020937E0820E090E0882309F491E0911702
S113504009F421E080915C02211709F0A6C1829540
S1135050807F809306030093C3031092F50210929D
S1135060F60200E010E08091B60080628093B60002
S1135070249A8091B60081FDFCCF82E48093B00035
S11350808091B60080FDFCCF83E08093B1008091D5
S1135090B60083FDFCCF86EE8093B3008091700050
S11350A08260809370000E94B7058DE892E090932F
S11350B0650A8093640A12E006E0609188087091A2
S11350C08908882799275CE0660F771F881F991F36
S11350D05A95D1F720E031EE40E050E00E94642C74
S11350E0215030402093C400832F99278093C5001A
S11350F01093C0000093C2001092C1002093CC0012
S11351008093CD001093C8000093CA001092C90088
S113511084E490E0909373088093720810920804DA
S113512010920A048AE0809392071092010410926C
S1135130030410928B081092590A1092580A109284
S11351404F0A1092130610926D0810926C0884E0B6
S11351508093EC0310929607109280081092F0034B
S11351601092100610920F06109202061092010679
S11351701092B5020E94D7268823E1F78E2D992735
S11351808FBF789410E007C01130B1F0113018F0DF
S11351901230C9F522C010928D0380E090EDA2E098
S11351A0B0E080938E0390938F03A0939003B09309
S11351B09103EDE8F3E0FFC01092FC0780E090E675
S11351C0A9E0B0E08093FD079093FE07A093FF074A
S11351D0B0930008ECEFF7E0EEC010920A0380E011
S11351E090E1AEE0B0E080930B0390930C03A093A6
S11351F00D03B0930E0340E050E16EE070E082E0F6
S11352000E942E1A0FC0409101005091020060913B
S1135210030070910400812F0E942E1A1F5F133027
S113522008F4B2CF0E94D80780E091E09093BB03CA
S11352308093BA0360919203772788279927982F40
S1135240872F762F662724E630E040E050E00E9466
S1135250642C3093F2032093F10381E08093B6022F
S11352608093660280E00E948F158091E10288237A
S113527031F484E08093E1028DE00E941C020E94DC
S1135280D8070E944D02AB01BC0181E0E82E00E08A
S113529014E020E030E080E00E94020E0E944D0203
S11352A0AB01BC01EE2400E010EB24E030E081E02F
S11352B00E94020E8FB7F894482F552753C080914F
S11352C07000992783709070892B19F4E5E0F0E061
S11352D014C08091B6008A71E1F78091B300909177
S11352E0B200891B8C3038F08091B200853F18F4ED
S11352F0E3E0F0E002C0E2E0F0E080916E0086704E
S1135300E9F480916F008E72C9F40CB407FC16C0E6
S11353108091C100807E91F48091C900807E71F4F7
S11353208091BC0082FD0AC080917A0087FF03C08F
S113533081E090E005C085E090E002C080E090E06C
S113534023B78E1708F4E82FFF27E450FD4FE491AC
S1135350207F2160E22BE3BF78948895F89483B78B
S11353608E7F83BF809187088F3F09F4A8CF282FB1
S11353703327F901E356FC4F8081809387088F3FE0
S113538011F48093570A8FEF80832F3F09F497CF4E
S11353904FBF822F0E94D91A8DCF8295807F809330
S11353A006038FEF8093C3031092F5021092F60266
S11353B001E010E058CE4181528163817481812FD4
S11353C00E942E1A1F5FE0CE552786179707E8F034
S11353D0861B970B9C013070F9014E9F90014F9FE3
S11353E0300D5E9F300D1124232F3327892F9927E9
S11353F0FC014E9FC0014F9F900D5E9F900D1124A4
S1135400860F971F280F391F1EC09B01281B390BBD
S1135410C901232F3327F9014E9F90014F9F300D6F
S11354205E9F300D11249070FC014E9FC0014F9F70
S1135430900D5E9F900D1124892F9927280F391FF5
S1135440621B730B9B01C90108956F927F928F9227
S11354509F92AF92BF92CF92DF92EF92FF920F93FF
S11354601F93CF93DF9359016A01C02FDD27602E6C
S1135470772488249924621773078407950730F1E9
S11354809B01AC012A193B094C095D09C9019070C3
S1135490BC01C69FC001C79F900DD69F900D1124DB
S11354A0892F99277C0100271127232F342F452F7B
S11354B05527C401B3010E941E2C6A0D7B1D8C1D4F
S11354C09D1DE60EF71E081F191F26C079018A01CB
S11354D0E61AF70A080B190B5527412F302F2F2DE9
S11354E0C401B3010E941E2C2FEFE222FF24CE9DA3
S11354F09001CF9D300DDE9D300D1124232F3327D5
S113550044275527260F371F481F591F8601750149
S1135510E21AF30A040B150BC801B701DF91CF910E
S11355201F910F91FF90EF90DF90CF90BF90AF90BD
S11355309F908F907F906F900895ACE2B0E0E3EA83
S1135540FAE20C94862C222E332E442E552E662EEF
S1135550772E882E992EFE013196A8E01192AA95F5
S1135560E9F729823A824B825C826D827E828F8245
S11355709886FE013996B8E01192BA95E9F7A986A2
S1135580BA86CB86DC86ED86FE860F87188B8981EA
S11355909A81AB81BC8189A79AA7ABA7BCA77C01E0
S11355A08D018FEF9FEFA0E0B0E0E822F9220A23FB
S11355B01B2389A59AA5ABA5BCA51D01442455248C
S11355C089859A85AB85BC858DA39EA3AFA3B8A717
S11355D05C016D018FEF9FEFA0E0B0E0A822B9223B
S11355E0CA22DB228DA19EA1AFA1B8A53D018824CA
S11355F09924C801B701A60195010E941E2C69A334
S11356007AA38BA39CA3C801B701A40193010E94B0
S11356101E2C7B018C01C201B101A60195010E94DF
S11356201E2C5B016C01C201B101A40193010E9413
S11356301E2C3B014C01EA0CFB1C0C1D1D1D89A1F9
S11356409AA1ABA1BCA19D01442755272E0D3F1D56
S1135650401F511F2A153B054C055D0540F480E0B1
S113566090E0A1E0B0E0680E791E8A1E9B1ECA017C
S1135670AA27BB27860D971DA81DB91D8D8F9E8F48
S1135680AF8FB8A3A9013327222789A19AA1ABA17F
S1135690BCA1A070B070280F391F4A1F5B1F298F4F
S11356A03A8F4B8F5C8FA98CBA8CCB8CDC8CED8CB5
S11356B0FE8C0F8D18A1FE01719698E011929A95B7
S11356C0E9F7ED8AFE8A0F8B188F2D813E814F8179
S11356D058856DA17EA18FA198A50E941E2C3B0127
S11356E04C012D853E854F85588969A57AA58BA5E2
S11356F09CA50E941E2C2D893E894F89588D260F0A
S1135700371F481F591F260D371D481D591D2D8B46
S11357103E8B4F8B588F6D887E888F88988C2A2D6E
S11357203B2D4C2D5D2D662D772D882D992DE2E195
S1135730AC960C94A22CA0E1B0E0E1EAFBE20C945C
S1135740862C222E332E442E552E662E772E882E0E
S1135750992E002309F466C088E0FE013196119267
S11357608A95E9F729833A834B835C836D837E832F
S11357708F829887E0E2E01B1E16CCF52D813E81D6
S11357804F815885602F772767FD7095DA01C9012D
S1135790062E04C0B695A795979587950A94D2F7D7
S11357A08D879E87AF87B88B04C0220F331F441F99
S11357B0551FEA95D2F789819A81AB81BC8104C0D7
S11357C0B695A795979587956A95D2F7282B392B87
S11357D04A2B5B2B29873A874B875C8729843A8439
S11357E04B845C846D847E848F8498881BC01D8662
S11357F01E861F86188A2E2F332727FD3095309555
S113580021953F4F8D819E81AF81B88504C0B695A7
S1135810A795979587952A95D2F789879A87AB8715
S1135820BC87DCCF222D332D442D552D662D772DAD
S1135830882D992DE2E160960C94A22C629FD001F0
S1135840739FF001829FE00DF11D649FE00DF11D37
S1135850929FF00D839FF00D749FF00D659FF00DE6
S11358609927729FB00DE11DF91F639FB00DE11DD3
S1135870F91FBD01CF0111240895AA1BBB1B51E1DF
S113588007C0AA1FBB1FA617B70710F0A61BB70BAC
S1135890881F991F5A95A9F780959095BC01CD0151
S11358A0089597FB092E07260AD077FD04D0E5DF7B
S11358B006D000201AF4709561957F4F0895F6F78D
S11358C0909581959F4F0895A1E21A2EAA1BBB1BA8
S11358D0FD010DC0AA1FBB1FEE1FFF1FA217B307B8
S11358E0E407F50720F0A21BB30BE40BF50B661FCE
S11358F0771F881F991F1A9469F760957095809592
S113590090959B01AC01BD01CF0108952F923F9268
S11359104F925F926F927F928F929F92AF92BF92BB
S1135920CF92DF92EF92FF920F931F93CF93DF9367
S1135930CDB7DEB7CA1BDB0B0FB6F894DEBF0FBEC4
S1135940CDBF09942A88398848885F846E847D8411
S11359508C849B84AA84B984C884DF80EE80FD8013
S11359600C811B81AA81B981CE0FD11D0FB6F89489
S1135970DEBF0FBECDBFED010895FB01DC0102C007
S113598001900D9241505040D8F70895DC0101C0B8
S11359906D9341505040E0F70895A2E0B0E0E3ED8C
S11359A0FCE20C94962CFE01379661917191FA8376
S11359B0E983AF018091640A9091650A0E94E42C06
S11359C0E2E022960C94B22CABE0B0E0EAEEFCE20A
S11359D00C94882C3C014B016A01FC01178216824D
S11359E0838181FD03C08FEF9FEFDAC1F30133811F
S11359F0F40133FD859133FF81914F01882309F42C
S1135A00CCC1853239F433FD859133FF81914F0147
S1135A10853229F4B30199270E94EA2EE7CF00E0EA
S1135A20442455244AE00032B0F48B3269F08C32BD
S1135A3028F4803251F0833271F40BC08D3239F086
S1135A40803349F4016028C00260046025C0086006
S1135A5023C0006121C007FD29C0282F20532A300C
S1135A6078F406FF06C0549EC0011124522E580E2D
S1135A7013C0449EC0011124422E480E00620CC083
S1135A808E3221F406FD89C1006406C08C3611F4FF
S1135A90006802C0883651F4F40133FD859133FF68
S1135AA081914F01882309F46FC0BDCF982F85548D
S1135AB0833018F08052833038F424E030E0C20E92
S1135AC0D31E8FE389830FC0933631F0933799F057
S1135AD0933509F05BC023C0F6018081898322E0FD
S1135AE030E0C20ED31E7E010894E11CF11C51E08B
S1135AF0A52EB12C12C0F601E080F18006FD03C092
S1135B006FEF7FEF02C0652D772722E030E0C20EF1
S1135B10D31EC7010E94DF2E5C010F7713C0F6016C
S1135B20E080F18006FD03C06FEF7FEF02C0652DBA
S1135B30772722E030E0C20ED31EC7010E94D42E84
S1135B405C01006803FF07C01BC0B30180E290E062
S1135B500E94EA2E4A94842D9927A816B906A8F320
S1135B600FC0F70107FD859107FF81917F01B30104
S1135B7099270E94EA2E41104A940894A108B1087A
S1135B80A114B10471F706C190E03EC0943611F03F
S1135B90993691F507FF0AC0F6016081718182810F
S1135BA0938124E030E0C20ED31E0DC0F601808143
S1135BB091819C01B901882777FD8095982F42E057
S1135BC050E0C40ED51E4FE6B42EB02297FF09C094
S1135BD090958095709561957F4F8F4F9F4F50E8BA
S1135BE0B52A8E010F5F1F4F2AE030E0A8010E9402
S1135BF0172FA82EA01A4DC0953731F43FEEF32E7F
S1135C00F0222AE030E023C029EFF22EF0229F3662
S1135C1061F0903720F4983509F0BFC012C0903776
S1135C2039F0983709F0B9C005C028E030E00FC05A
S1135C3080E1F82AF4FE02C094E0F92A20E130E081
S1135C4006C0F4FE02C0E6E0FE2A20E132E0F7FEE0
S1135C500AC0F601608171818281938144E050E041
S1135C60C40ED51E0BC0F60180819181AC01BA012E
S1135C7088279927E2E0F0E0CE0EDF1E8E010F5F49
S1135C801F4FA8010E94172FA82EA01A8FE7B82E25
S1135C90BF20B6FE10C0FEEFBF22A51460F42B2D6A
S1135CA0332724FF1AC022FF02C0052D09C02FEE9E
S1135CB0B222052D01C00A2D2B2D332724FF0EC03F
S1135CC0FE01EA0DF11D8081803319F439EEB3220F
S1135CD009C00F5F22FF06C004C0052D822F8678FD
S1135CE009F00F5FEB2CFF24E3FC14C0E0FE0FC0AF
