:100000000C9482010C94A1010C94A1010C94A10107
:100010000C94A1010C94A1010C94A1010C94A101D8
:100020000C94A1010C94A1010C94A1010C94A101C8
:100030000C94A1010C94610C0C94A1010C94390A4C
:100040000C9488120C94BE120C94F00A0C94FB0AC7
:100050000C94060B0C94A1010C94A1010C94A10129
:100060000C944D0A0C942C080C94A1010C94AF082C
:100070000C94A1010C94A1010C94A1010C94060A0A
:100080000C94E5090C94F0090C94FB090C94190AE2
:100090000C94C8090C94A1010C94DA090C94A101E8
:1000A0000C94A1010C94A1010C94A1010C94A10148
:1000B0000C94A1010C94A1010C94A1010C94A10138
:1000C0000C94A1010C94A1010C94A101941CC01CDE
:1000D000D41CBC1DE21DE41DF01D231E991EA91E8B
:1000E000DC1E341F4A1F4E1FF8201E2130215B23C7
:1000F00017267B258F25582658261E2629260000E0
:100100002110422063308440A550C660E77008810A
:1001100029914AA16BB18CC1ADD1CEE1EFF1311281
:10012000100273325222B5529442F772D66239935A
:1001300018837BB35AA3BDD39CC3FFF3DEE36224D1
:10014000433420040114E664C774A44485546AA5AA
:100150004BB528850995EEE5CFF5ACC58DD5533661
:10016000722611163006D776F6669556B4465BB7FA
:100170007AA719973887DFF7FEE79DD7BCC7C44831
:10018000E5588668A7784008611802282338CCC94A
:10019000EDD98EE9AFF9488969990AA92BB9F55AC1
:1001A000D44AB77A966A711A500A333A122AFDDB9A
:1001B000DCCBBFFB9EEB799B588B3BBB1AABA66C91
:1001C000877CE44CC55C222C033C600C411CAEEDEA
:1001D0008FFDECCDCDDD2AAD0BBD688D499D977EA1
:1001E000B66ED55EF44E133E322E511E700E9FFF3A
:1001F000BEEFDDDFFCCF1BBF3AAF599F788F8891F0
:10020000A981CAB1EBA10CD12DC14EF16FE18010D3
:10021000A100C230E3200450254046706760B983D6
:100220009893FBA3DAB33DC31CD37FE35EF3B10223
:100230009012F322D2323542145277625672EAB5E6
:10024000CBA5A89589856EF54FE52CD50DC5E23473
:10025000C324A01481046674476424540544DBA7B6
:10026000FAB79987B8975FE77EF71DC73CD7D326C3
:10027000F2369106B01657667676154634564CD946
:100280006DC90EF92FE9C899E9898AB9ABA9445813
:10029000654806782768C018E1088238A3287DCB16
:1002A0005CDB3FEB1EFBF98BD89BBBAB9ABB754A63
:1002B000545A376A167AF10AD01AB32A923A2EFDA6
:1002C0000FED6CDD4DCDAABD8BADE89DC98D267CB3
:1002D000076C645C454CA23C832CE01CC10C1FEFF6
:1002E0003EFF5DCF7CDF9BAFBABFD98FF89F176E03
:1002F000367E554E745E932EB23ED10EF01E000235
:100300000E060C0411241FBECFEFD1E2DEBFCDBF1D
:1003100012E0A0E0B2E0E0E2FEE500E00BBF02C0C8
:1003200007900D92A838B107D9F71AE0A8E8B2E013
:1003300001C01D92A435B107E1F70E948E260C94EE
:100340000F2F0C9400008FB7F894992708958FBF52
:100350000895282F9FB7F894E82FFF27E757FC4F01
:1003600080818F3F81F4E091430AE21771F40BC062
:100370002093730804C0FF27E757FC4F2083209386
:10038000430A20E007C025E005C0809173088F3F35
:1003900091F7EECF892F99278FBF822F9927089544
:1003A000EF920F931F93AE2D99E0899FF0011124D6
:1003B000EB59F94F40835183628373830483158320
:1003C00026833783A17080858E7F8A2B8260808709
:1003D0008AE00E94A9011F910F91EF9008957FB7C5
:1003E000F8946091B200209184033091850340918C
:1003F000860350918703B99B11C08091B3009091FF
:10040000B200280F311D411D511D2F5F3F4F4F4F2F
:100410005F4F290F311D411D511D04C0260F311D95
:10042000411D511D872F99278FBFCA01B90108951A
:10043000AF92BF92CF92DF92EF92FF920F931F93F2
:10044000F82E5A016B010E94EF01AB01BC0181E063
:10045000E82E960185018F2D0E94D0011F910F91EA
:10046000FF90EF90DF90CF90BF90AF9008956135EF
:1004700018F080E090E008950C960895FC018181C9
:10048000992780739070816498688183892F992758
:10049000828308951F931FB7F89480913B0A8823A5
:1004A00041F482E00E94A901882319F481E080933D
:1004B0003B0A812F99278FBF1F910895382FFA018A
:1004C000422F213518F082E090E008956683872F4F
:1004D000992785833387218780918E0290918F029F
:1004E000892B19F085E090E008952FB7F894332711
:1004F00085E08093910210929202F0938D02E09336
:100500008C0282E090E090938F0280938E02109292
:10051000940210929302445F409390022FBF8FB7D2
:10052000F894282F332780917E078A3011F42FBF4B
:1005300019C02FBF9FB7F8948091F603882311F05C
:1005400020E006C081E08093F6031092F70321E0DB
:10055000892F99278FBF222329F00E944A0280E029
:1005600090E0089510928F0210928E0281E090E048
:100570000895CF93DF93DB01FB0135968183892FAB
:100580009927EB018D8384E686838091F70590910E
:10059000F805892B19F085E090E029C07093F805E3
:1005A0006093F705448380914B02882319F480E01F
:1005B00090E01DC08681EB016D817727762F66273D
:1005C00021813327622B732B10924B02242FAD0114
:1005D0000E945E029927282F882339F081E08093BA
:1005E0004B021092F8051092F705822F9927DF91A0
:1005F000CF910895882319F08CB5806402C08CB522
:100600008F7B8CBD08950F931F93982F1FB7F8947D
:100610008091CF02823099F580916102891779F536
:1006200080915F0220E030E08F3F11F421E030E064
:10063000232BF1F49FEF909361028F3F19F42FEF7A
:1006400030E00DC0282F3327F901E251FC4F8081A3
:1006500080935F028F3F11F4909360029083209308
:10066000F00381E08093CF0284E10E94A90105C0DC
:100670008FEF809361021092CF0201E001C000E091
:10068000812F99278FBF1FB7F8948091CF028823BD
:1006900011F40E94FA02812F99278FBF90E0013058
:1006A00009F491E081E09827892F99271F910F91F4
:1006B0000895882319F08CB5806802C08CB58F77B7
:1006C0008CBD08950F931F9380E00E94FA020FB72C
:1006D000F8941127229A2398219A209A8CB5806148
:1006E0008CBD80E00E9459038CB5877F8CBD8CB592
:1006F0008B7F8CBD81E00E94FA028DB581608DBD3B
:100700008CB58C7F8CBD0FBF1F910F910895FB019D
:10071000E05AFF4F21E030E002C0220F331F8A95DC
:10072000E2F720958081822380830895FB01E05ABF
:10073000FF4F21E030E002C0220F331F8A95E2F71D
:100740008081822B808308958FB7F8942091E703EE
:100750003091E8034091E9035091EA03E09184006D
:10076000F0918500B09B08C02F5F3F4F4F4F5F4F08
:10077000E0918400F091850099278FBFC901772708
:1007800066279F0144275527622B732B842B952BBB
:100790000895FB01E05AFF4F21E030E002C0220F34
:1007A000331F8A95E2F780818223992708950F935A
:1007B0001F938C0160E50E943702F80120812151CE
:1007C000820F911D1F910F9108950B9608959C0122
:1007D00080915C04882319F081E090E00895809175
:1007E000E603882319F4E0E0F0E003C0E82FFF27D8
:1007F0003197EE0FFF1FED57F84F3183208381E0D3
:1008000080935C0480E090E00895FC018081815138
:10081000992708951F93CF93DF93EC01162F62E081
:100820000E943702FC0191818091A202882309F085
:100830004DC09F3F09F44AC09F5F20916302291772
:1008400040F480916402981708F040C090936402CD
:100850003DC01123C1F130E0CF59DF4F8881C1562F
:10086000D040893C08F031E0332311F42F3F59F593
:100870009093630228C089859927982F8827288517
:100880003327822B932B90935502809354028281BD
:100890008093AA0280818F5F809356028091B70275
:1008A0009091B802A091B902B091BA020196A11D2F
:1008B000B11D8093B7029093B802A093B902B09390
:1008C000BA0281E02AC0838180FDD5CF8091B70232
:1008D0009091B802A091B902B091BA020196A11DFF
:1008E000B11D8093B7029093B802A093B902B09360
:1008F000BA028091BB029091BC02A091BD02B0915E
:10090000BE020196A11DB11D8093BB029093BC0253
:10091000A093BD02B093BE0280E09927DF91CF91F2
:100920001F9108958BE490E008952F923F924F928B
:100930005F926F927F928F929F92AF92BF92CF926F
:10094000DF92EF92FF920F931F93CF93DF93CDB778
:10095000DEB729970FB6F894DEBF0FBECDBF6FB7D5
:100960006983F8942090E1033090E2034090E30320
:100970005090E4036624772488240EE4A02E13E824
:10098000B12ECC24DD24EE24FF2400E010E0222D43
:10099000332D442D552D662D772D882D90E00E9406
:1009A000372A2A833B834C835D836E837F838887CA
:1009B0009987822E932EA42EB52E2401350100E2B4
:1009C0000E94352BA22EB32EC42ED52EA301920148
:1009D00056954795379527952A0D3B1D4C1D5D1D56
:1009E00057FF05C05F772F5F3F4F4F4F5F4F2093FB
:1009F000E1033093E2034093E3035093E403E9817E
:100A00008E2F99278FBFCA01B90129960FB6F89486
:100A1000DEBF0FBECDBFDF91CF911F910F91FF9031
:100A2000EF90DF90CF90BF90AF909F908F907F908E
:100A30006F905F904F903F902F900895DF92EF92CC
:100A4000FF920F931F938FB7F894282F3327D22E3E
:100A50009091B3008091B20047B3981711F041FF15
:100A600002C02FBF71C08091DF038823E1F10E9493
:100A7000EF01E0907503F0907603009177031091F9
:100A8000780320917D0830917E0840917F08509135
:100A900080086E197F09800B910B6217730784071A
:100AA000950720F01092DF0371E01EC02E0D3F1D50
:100AB000401F511F8091840390918503A09186036C
:100AC000B0918703281B390B4A0B5B0B273E31057E
:100AD0004105510540F4822F223010F070E005C02E
:100AE00070E082E002C070E086EE682F6150809175
:100AF000B60083FDFCCF8091B200681709F46F5FE8
:100B0000209184033091850340918603509187039F
:100B1000DA01C9010196A11DB11D860F911DA11D0C
:100B2000B11D82179307A407B50710F4622F6095D3
:100B30008091B60083FDFCCF6093B300DFBE7723C6
:100B400019F089E00E94A9011F910F91FF90EF9089
:100B5000DF900895AFB7F894BB27E1E0E093DF039F
:100B60006093750370937603809377039093780373
:100B700020937D0830937E0840937F08509380082F
:100B8000AFBF0E941E050895CF93DF9310924B02D2
:100B9000A091F705B091F805109721F080917C089D
:100BA00080FF08C081E080934B0217C081E00E9463
:100BB000A90113C0FD01359624813327ED016D8114
:100BC0007727762F662781819927682B792BAD01AE
:100BD00086810E945E02882349F7DF91CF910895B4
:100BE00080917E078A3021F48091D803843021F0EF
:100BF00081E080938902089584E00E94A901109207
:100C0000890208952FB7F89433278093C600E0EC4B
:100C1000F0E08081806480832FBF0895FC0161151E
:100C2000710519F481E090E008958091F1039091AD
:100C3000F203892B19F085E090E008957093610824
:100C400060936008F093F203E093F1031092DA03EB
:100C50001092D90381E08093DB038091C00080640F
:100C60008093C0008091C10080648093C100808126
:100C700021E030E03093DA032093D9030E9402068A
:100C800080E090E008958FB7F894992720919A0218
:100C90002E7F20939A022EE72093A8038FBF61E056
:100CA00070E088EA93E00E940E06992708958FB7B6
:100CB000F894282F3327922F80917E078A3041F0B5
:100CC0008091D803843021F02FBF89E090E008950F
:100CD0009FBF83E00E94A90180E090E00895EEEFBD
:100CE000F0E06927660FF11DE60FF11DC895982FFA
:100CF000802D3196C89590250895982F8091950262
:100D0000882389F5992379F531E030939502809114
:100D10004C028093960220918A02822F81708093E8
:100D20008303809151029091520290939802809394
:100D3000970280918B028093990232273170267E30
:100D4000E32FFF27EE0FFF1FE35BFD4F80819181B3
:100D50009093520280935102232B20938A0287E0C2
:100D60000E94A901089580918A0280FF02C08B7FB2
:100D700001C08D7F80938A0208950F931F93082FDF
:100D8000162F8091D8038130D9F0813038F082302D
:100D900009F44AC0833009F028C159C0002309F47E
:100DA00058C1109259081092580810928207109258
:100DB0006C081092DC031092FC051092FB0539C1FF
:100DC000002309F046C18091FB059091FC050E942B
:100DD0006F069093FC058093FB0582E08093D80317
:100DE00010936C08143409F000C125C186958695CE
:100DF00003C080918A028695817009F0F6C08091C7
:100E00008A02992311F0846001C0826080938A0273
:100E100080918A02877E886080938A0210928B027A
:100E20008FEF80934C0215C1002309F0DEC0609360
:100E3000DC038091FB059091FC050E946F06909366
:100E4000FC058093FB0583E08093D80302C1809169
:100E500082078F3F09F4C9C0002309F461C08230C2
:100E600008F4C3C0E0915808EE2309F4EBC04E2FFC
:100E70004150E42FFF27E85AF74F82819927382FF6
:100E80002227442311F4E2E002C0E42FE150FF27BF
:100E9000E85AF74F82819927282B392B8091FB053F
:100EA0009091FC052817390709F09FC080E00E9447
:100EB0007D063091DC038091ED052091EE05982FA1
:100EC0009F5F963008F090E0921771F0E82FFF27AF
:100ED000E351FA4F32838F5F8093ED05863010F037
:100EE0001092ED050E944A0210925908109258087B
:100EF00094E09093D8031092820710926C0810929D
:100F0000DC031092FC051092FB0580919A028D7F04
:100F100080939A0280918902882309F49AC084C040
:100F2000823008F44EC0E0915908FF27E85AF74F85
:100F30008281482F5527342F20918A02822F86954F
:100F400086958695837099278130910519F00297CF
:100F5000F9F40EC0277E206120938A02442311F405
:100F600085E001C080E080938B0230934C0210C07A
:100F700080918B02833660F4E0915102F09152022D
:100F8000E80FF11D408380918B028F5F80938B026D
:100F900080915908E82FFF27E85AF74F62818F5F49
:100FA00080935908833010F0109259087727809168
:100FB000FB059091FC050E946F069093FC058093C1
:100FC000FB0580915808E82FFF27E85AF74F128356
:100FD0008F5F80935808833010F0109258088091EA
:100FE00082078F5F8093820734C010925908109255
:100FF000580814E01093D8031092820710926C08DE
:101000001092DC031092FC051092FB0580919A026D
:101010008D7F80939A0281E00E947D0680918902F3
:10102000882329F01093D8030E94F00512C00023F2
:1010300081F081E009CF80918A02982F917080FD24
:10104000D5CED7CE80915C089927382F222742E051
:101050001CCF1F910F9108951F920F920FB60F9200
:1010600011242F933F934F935F936F937F938F93AD
:101070009F93AF93BF93EF93FF938091C00087FF3F
:1010800042C06091C600E091FD05F091FE053097E9
:1010900019F18091390A90913A0AE80FF91F60839B
:1010A000019690933A0A8093390A2091460A30912A
:1010B000470A8217930738F11092FE051092FD053A
:1010C00080917D078330F9F08091C1008F77809304
:1010D000C10010927D0717C06E3719F460E081E0FF
:1010E00010C080919A026D3721F4826080939A0239
:1010F0000AC081FF05C08D7F80939A0280E2682735
:1011000080E00E94BD06FF91EF91BF91AF919F914A
:101110008F917F916F915F914F913F912F910F90A0
:101120000FBE0F901F901895982F8D57823068F43E
:1011300080919A02816080939A0280E2892780934D
:1011400081078DE78093A80302C09093A80361E014
:1011500070E088EA93E00E940E069927089578943B
:101160001F920F920FB60F921124FF920F931F93AD
:101170002F933F934F935F936F937F938F939F939F
:10118000AF93BF93CF93DF93EF93FF932091D90356
:101190003091DA038091600890916108281739072F
:1011A00080F4E091F103F091F203E20FF31F8081EC
:1011B0002F5F3F4F3093DA032093D9030E9402063A
:1011C000D1C01092F2031092F1031092DB038091D0
:1011D000C1008F7B8093C100FFB6F89480919A0282
:1011E00080FF0EC08E7F80939A028091810780934A
:1011F000A80361E070E088EA93E00E940E06AFC0A9
:1012000080917E07843009F48CC0853040F48230B0
:1012100021F18330B8F5813009F09CC00DC08630D3
:1012200009F48DC0863008F483C0873009F48EC07D
:10123000883009F08FC091C08091EF030E9494081C
:10124000082F83E080937E076091EF038091440A2A
:101250009091450A0E946F0610C0809177080E9405
:101260009408082F83E080937E076091770880912F
:10127000440A9091450A0E946F069093450A809314
:10128000440A66C0E091FF05FF27EE0FFF1FEB50F9
:10129000FC4F80810E949408082F1091FF05C12FF8
:1012A000DD27FE01EE0FFF1FEB50FC4F60818091A8
:1012B000440A9091450A0E946F069093450A8093D4
:1012C000440A2091ED032F5F2093ED03113039F58F
:1012D00080919102E0918C02F0918D02E80FF11D56
:1012E000E0818F5F8093910290919002981730F483
:1012F00082E08093F60340E050E002C04E2F552775
:10130000DE01AA0FBB1FFD01EC50FC4F8081823033
:1013100031F02F3F21F0AB50BC4F4C9319C084E00B
:1013200012C08091440A0E949408082F85E00BC0E7
:101330008091450A0E949408082F86E004C00E940C
:101340004306082F87E080937E0702C088E003C031
:10135000002329F089E080937E070E944A028F2DA6
:1013600099278FBFFF91EF91DF91CF91BF91AF91FF
:101370009F918F917F916F915F914F913F912F91AD
:101380001F910F91FF900F900FBE0F901F90189517
:101390001F920F920FB60F9211248F938091C80065
:1013A00087FF02C08091CE008F910F900FBE0F90EB
:1013B0001F90189578941F920F920FB60F921124D8
:1013C0000F900FBE0F901F90189578941F920F9258
:1013D0000FB60F9211240F900FBE0F901F9018950B
:1013E00078941F920F920FB60F9211240F900FBE98
:1013F0000F901F90189578941F920F920FB60F922E
:1014000011240F900FBE0F901F90189578941F9283
:101410000F920FB60F9211248F939F938091960095
:10142000909197009F918F910F900FBE0F901F90FA
:10143000189578941F920F920FB60F9211242F9344
:101440003F938F939F932FB7F89433278091F9059B
:101450009091FA0501969093FA058093F9052FBFB4
:101460009F918F913F912F910F900FBE0F901F90E2
:1014700018951F920F920FB60F9211248F9380919F
:10148000B0008093B0008091B60081FDFCCF8F91B9
:101490000F900FBE0F901F9018951F920F920FB6CE
:1014A0000F9211240F931F932F933F934F935F93AA
:1014B0006F937F938F939F93AF93BF93CF93DF935C
:1014C000EF93FF932EB5E0917807F091790730976D
:1014D00039F08091F5059091F605E80FF91F20830A
:1014E0008091F5059091F60501969093F60580930D
:1014F000F50580E00E945903C091F505D091F605ED
:101500002091F4023091F502C217D30708F042C0CF
:101510000091D3091091D40940917807509179072F
:10152000CE010A962817390708F4C901DA01AC0F71
:10153000BD1FF801EC0FFD1F9C012150304015C06C
:101540000115110531F080818EBD0DB407FEFDCF70
:1015500004C01EBC0DB407FEFDCF8EB5411551056C
:1015600009F08C93219611963196C217D30740F358
:1015700081E00E9459030115110531F00C0F1D1F68
:10158000F80180818EBD01C01EBCD093F605C093CA
:10159000F50511C010927907109278071092D409BE
:1015A0001092D3091092F5021092F4021092F605EF
:1015B0001092F5058EB5FF91EF91DF91CF91BF911C
:1015C000AF919F918F917F916F915F914F913F91DB
:1015D0002F911F910F910F900FBE0F901F90189594
:1015E00078941F920F920FB60F9211240F900FBE96
:1015F0000F901F90189578941F920F920FB60F922C
:1016000011240F900FBE0F901F90189578941F9281
:101610000F920FB60F9211242F933F938F939F93A6
:10162000AF93BF932FB7F89433278091E70390913E
:10163000E803A091E903B091EA030196A11DB11D51
:101640008093E7039093E803A093E903B093EA0340
:101650002FBFBF91AF919F918F913F912F910F908D
:101660000FBE0F901F901895EF92FF920F931F934C
:10167000CF93DF93E2EEF9E0C0919F02D091A002F8
:10168000C035D10510F0C0E5D0E080E5DF011D9246
:101690008A95E9F720919F023091A00280919B02E8
:1016A00090919C0200E010E07F0113C0FC01E35A1E
:1016B000FB4FE0812115310539F0019660E971E0B9
:1016C0000E94D72B21503040D701ED937D010F5F51
:1016D0001F4F0C171D0751F73093A00220939F0254
:1016E00090939C0280939B0240E566ED79E08FEF3A
:1016F0009FEF0E94B902882319F088E00E94A90197
:10170000DF91CF911F910F91FF90EF9008958FB7C8
:10171000F894282F33278091A102813021F42FBF24
:1017200080E090E0089540E080919F029091A002B7
:10173000892B09F441E0442321F02FBF81E090E0A0
:10174000089581E08093A1022FBF0E94340B80E0B6
:1017500090E008951F93CF93DF93182F8091A102FB
:10176000882361F480919F029091A002883C9105AA
:1017700028F081E08093A1020E94340B8FB7F89487
:10178000C82FDD2720919F023091A00281E02039EF
:101790003807D8F480919D0290919E02FC01E35A93
:1017A000FB4F1083019660E971E00E94D72B909364
:1017B0009E0280939D022F5F3F4F3093A0022093A3
:1017C0009F02CFBF80E090E003C0CFBF8FEF9FEFBD
:1017D000DF91CF911F910895CF92DF92EF92FF9208
:1017E0000F931F93182F0E94EF016B017C018091D2
:1017F000EC02813009F58091E8029091E902A09114
:10180000EA02B091EB02A7019601281B390B4A0BA3
:101810005B0B60916D0270916E0280916F029091EE
:10182000700203EF0E94BF2960936D0270936E02F5
:1018300080936F0290937002112341F0C092E802EE
:10184000D092E902E092EA02F092EB021F910F912E
:10185000FF90EF90DF90CF9008956091ED02882384
:1018600099F06623A1F07727762F662743EF8091C2
:101870007302909174020E947E2990937402809367
:1018800073021092ED0208956F5F6093ED02089568
:101890006091EC02882389F07727762F662743EF43
:1018A00080917102909172020E947E29909372023F
:1018B000809371021092EC0208956F5F6093EC02C6
:1018C00008951F920F920FB60F9211242F933F93FA
:1018D0004F935F936F937F938F939F93AF93BF9338
:1018E000EF93FF938091B0008093B0008091B60099
:1018F00081FDFCCF8091B30099270196AA27BB27D1
:101900002091840330918503409186035091870391
:10191000280F391F4A1F5B1F2093840330938503D0
:1019200040938603509387039091B1009068809113
:10193000B60080FDFCCF9093B1009F778091B600F8
:1019400080FDFCCF9093B10078940E941E05FF911A
:10195000EF91BF91AF919F918F917F916F915F9127
:101960004F913F912F910F900FBE0F901F901895A0
:101970001F93982F1FB7F8948091CE02823099F56B
:1019800080915E02891779F580915C0220E030E059
:101990008F3F11F421E030E0232BF1F49FEF90937F
:1019A0005E028F3F19F42FEF30E00DC0282F332750
:1019B000F901E155FC4F808180935C028F3F11F467
:1019C00090935D0290832093AC0381E08093CE02DC
:1019D0008EE00E94A90105C08FEF80935E021092F5
:1019E000CE0221E001C020E0812F99278FBF90E037
:1019F000213009F491E081E09827892F99271F91E0
:101A000008950F931F93CF93DF93182F0FB7F89478
:101A10008091CF02882311F40E946203802F9927BE
:101A20008FBF8FB7F894C82FDD272C2F8091CF025E
:101A3000882361F481E08093CF021093F00384E166
:101A40000E94A901CFBF80E090E021C0E12FFF27D5
:101A5000E251FC4F80818F3F89F4E0916002E117F1
:101A600089F40CC010935F0204C0FF27E251FC4FC1
:101A700010831093600280E090E002C085E090E067
:101A80002FBF05C080915F028F3F79F7EBCFDF91C9
:101A9000CF911F910F9108950E94050486509927B8
:101AA0000895EF92FF920F931F938C0160E50E94BF
:101AB00037027C01C8010E9405048150E80EF11C28
:101AC000C7011F910F91FF90EF9008958FB7F89481
:101AD000282F3327922F80916102882331F480913F
:101AE000CF02823011F42FBF13C09FBF8FB7F8947D
:101AF000282F33278091CF02882369F482E08093D6
:101B0000CF02109261022FBF0E946203209A289A8E
:101B100081E090E008952FBF80E00E94010D80E0F9
:101B200090E00895662361F480919F029091A00255
:101B3000892B19F00E94340B08951092A102089588
:101B400088E00E94A9010895AF92BF92CF92DF92E0
:101B5000EF92FF920F931F93CF93DF9380915D08D5
:101B6000882309F4C4C00E94660D882309F4BFC00D
:101B70008FB7F8949927C091EB03D091EC038FBFF6
:101B800010925D0828988FE88EBD0DB407FEFDCF3A
:101B90008EB51EBC0DB407FEFDCF8EB5289A982FCA
:101BA0008091F302833011F0873031F485E0809327
:101BB000D50988E08093F302A92EBB24A2FE67C05A
:101BC0008091F302863019F41092F30203C0882347
:101BD00009F05DC0943009F049C0289886E88EBDB0
:101BE0000DB407FEFDCF8EB51EBC0DB407FEFDCFB4
:101BF000FEB4289A2FE1F2228091B103982F969596
:101C000096953F2D391B830F8093B10300917F037D
:101C100010918003B80181E00E948703B80182E03F
:101C20000E9496030F591F4FF801F1820E94A403EE
:101C30006B017C0100917F0310918003B80180E06B
:101C40000E949603045A1F4FCC19DD092797CE0135
:101C5000AA2797FDA095BA2F8C0D9D1DAE1DBF1D07
:101C6000F80180839183A283B3830EC060917F03C8
:101C70007091800382E00E94870360917F037091DE
:101C8000800380E00E94870385E08093F302A3FE37
:101C90002EC09091F302943069F485E08093D509C9
:101CA0001092F302109281089093B50380E10E9494
:101CB000A9011DC09530D9F42091E503289886E844
:101CC0008EBD0DB407FEFDCF8EB51EBC0DB407FE54
:101CD000FDCF8EB5289A8F71922F96959695891B78
:101CE000280F2093E50389E08093F30208C0209138
:101CF000F302222309F475C2293009F082C1289821
:101D000080E28EBD0DB407FEFDCF8EB51EBC0DB4B6
:101D100007FEFDCF8EB5482F5527433008F4AEC2DD
:101D2000842F99278E3591050CF0A8C21EBCE09136
:101D30007F03F09180034083A42FA250A73010F4BA
:101D40009A2F01C097E0BF016F5F7F4F292FFB01E2
:101D500040E050E00DB407FEFDCF8EB51EBC808381
:101D600081914827042E4295407F4025052E542F0F
:101D700042954F700426469554274527440F440F3B
:101D8000440F4025215031F79150FB01E90FF11D1F
:101D90009F5F31968FB7F894282F332760E08091AA
:101DA0005208833008F461E02FBF662309F45EC057
:101DB000A91B9A2F18C00DB407FEFDCF8EB51EBC0F
:101DC000808381914827042E4295407F4025052E2F
:101DD000542F42954F700426469554274527440FAB
:101DE000440F440F4025915030F70DB407FEFDCF4E
:101DF0008EB51EBC9A012827022E2295207F202511
:101E0000032E322F22952F70022626953227232764
:101E1000220F220F220F20250DB407FEFDCF8EB515
:101E20001EBC2827022E2295207F2025032E322F2C
:101E300022952F700226269532272327220F220F64
:101E4000220F20250DB407FEFDCF8EB5E0917F0354
:101E5000F0918003EF59FF4F8083289A85E08093AB
:101E6000D5091092F302232B31F0B7C10DB407FE50
:101E7000FDCF8EB503C2E0907F03F0908003570141
:101E80000894A11CB11CF701818520859927582F42
:101E900044273327422B532B80918803282F332745
:101EA000F901EE0FFF1FEE59F74F8081918160918C
:101EB0007B078417950769F4F901E35CF54F80818E
:101EC000861709F464C0862F8F5F80937B07808319
:101ED0001BC010E000E080E090E0C2E6D8E0EDE357
:101EE000FAE0C62EC394DF01782F9C018881998186
:101EF0008417950759F4209388038C91861709F469
:101F000046C0C0927B07CC9210E828C08081962FF3
:101F1000981B191710F4192F022F7F5FC901019622
:101F200011962296319685309105F1F67530B1F40F
:101F300000938803A02FBB27FD01EE0FFF1FEE5972
:101F4000F74F51834083862F8F5F80937B07FD017E
:101F5000E35CF54F8083A75BB54F1C9290917B07A4
:101F6000892F8F778F3779F41F3768F0EDE3FAE028
:101F7000292F207880818F678913208331963AE05A
:101F8000E234F307B9F780918803282F3327F5014E
:101F90009281A22FBB27FD01E75BF54F808180FF77
:101FA00007C0FD01ED5AF74F8081981729F102C053
:101FB00081608083AD5AB74F9C93CFB6F8948091DF
:101FC00052088330B0F4E0917608E80FE33008F06F
:101FD000E350FF27EE0FFF1FEE59FC4F00811181E8
:101FE000F182E0828F5F8093520881E10E94A90113
:101FF00078018C2D99278FBFF0928003E0927F03A8
:10200000E3C0822F8150833008F0BCC08150823001
:1020100008F03BC09091D5099130B9F530E080913E
:102020007A07882309F431E0332379F12F989093CC
:10203000F30390937A0760918400709185002FB725
:10204000F8944091840050918500CA01861B970B3B
:1020500003968B52934018F0CA01039603C0CB013C
:10206000855D9C4F009711F481E090E0019790937B
:1020700089008093880082E086BB90916F00926017
:1020800090936F0033272FBF68C0233009F042C000
:102090008091D509833009F097C00E94660D88238E
:1020A000C9F128988FE88EBD0DB407FEFDCF8EB51F
:1020B0001EBC0DB407FEFDCF8EB5289A809181001D
:1020C00080648093810080E286BB80916F00806293
:1020D00080936F009091AB03289888EC8EBD0DB46F
:1020E00007FEFDCF8EB590669EBD0DB407FEFDCFF9
:1020F0008EB5289A289882EC8EBD0DB407FEFDCFD0
:102100008EB586E08EBD0DB407FEFDCF8EB5289A44
:1021100084E023C08091F3028150823000F58091E9
:10212000D5098530E1F40E94660D8823C1F0289816
:1021300082EC8EBD0DB407FEFDCF8EB583E08EBD63
:102140000DB407FEFDCF8EB5289A80916F008F7D6C
:1021500080936F0010925D0883E08093D509909181
:10216000F302913041F48091D5098330B1F52F9A73
:102170009093D50925C0923039F58091D5098330E7
:1021800061F51EC0273001F50E94660D8823E1F03D
:102190009091AB03289888EC8EBD0DB407FEFDCF5F
:1021A0008EB590669EBD0DB407FEFDCF8EB5289A04
:1021B0008091D509853021F484E08093D50904C04D
:1021C00088E08093F30204C08091F302883029F400
:1021D0001092F3028FE00E94A9018091F3028823FC
:1021E000C9F48091D509853091F480915D088823E8
:1021F00071F48091B503823051F481E08093B5038E
:1022000080E10E94A9018091F302882319F482E100
:102210000E94A90180917A07823019F510927A07FD
:102220008091F3038130E9F48091D509823021F463
:1022300083E08093D50913C08091F302863079F44E
:102240001092F302289881E88EBD0DB407FEFDCFF1
:102250008EB51EBC0DB407FEFDCF8EB5289A0E9428
:1022600074128FB7F894282F33278091AA038130F6
:1022700061F081E08093AA032FBF70CC289A85E09B
:102280008093D5091092F302A8CF1092AA032FBF12
:10229000DF91CF911F910F91FF90EF90DF90CF9042
:1022A000BF90AF9008958FB7F894282F332780916F
:1022B000AA0381508093AA03803811F02FBF08959C
:1022C00081E08093AA032FBF0E94A40D08951F935D
:1022D000FC018FE382878091F2028F5F8093F2028C
:1022E00083832FB7F89433278091AA038F5F80935D
:1022F000AA032FBF8091B503882311F015E00DC00C
:10230000F0938007E0937F0781E08093B5031092FC
:102310007C0780E10E94A90110E00E945311812FE7
:1023200099271F910895EF92FF920F931F93CF93D8
:10233000DF93082F7B01EA01122F213518F086E088
:1023400090E089C08A81298140E09927982F8827C9
:102350003327822B932B87749C7C8154984809F4F3
:1023600041E0442319F4CE010E943E02135F18831A
:102370002FB7F89433278091590290915A022FBFBA
:102380008887892F992789872FB7F89433278091D9
:102390005B022FBF99278C831D82CE010E94E5032B
:1023A000FC010083EE828F2D99278F838FB7F894DD
:1023B000282F33278091CE02882371F482E0809306
:1023C000CE0210925E022FBFCE010E9467119927A4
:1023D000182F882399F00FC02FBFD093AE03C0935E
:1023E000AD038FB7F894C82FDD272C2F8091CE0234
:1023F000882399F406C080E00E94B80C812F9927A9
:102400002AC081E08093CE021092AC038EE00E943D
:10241000A901CFBF80E090E01EC08091AF038F3F45
:1024200089F4E0915D02EE2369F010C010925C0225
:1024300004C0FF27E155FC4F108210925D0280E03E
:1024400090E002C085E090E02FBF05C080915C0263
:102450008F3F79F7EBCFDF91CF911F910F91FF90D5
:10246000EF9008951F93AC012091DA022223C1F16D
:102470008091DB029091DC024817590789F52130E1
:1024800071F480917F068D7F80937F0683E0809337
:10249000620287E10E94A90180E090E023C022301F
:1024A000F9F48FB7F89499272091AA032F5F20930E
:1024B000AA038FBF8091B5038150823010F015E0E0
:1024C0000AC084E08093B50383E08093810880E1B3
:1024D0000E94A90110E00E945311812F992702C088
:1024E00081E090E01F9108958FB7F894282F33274B
:1024F0008091AA03882329F080688093AA032FBFC4
:10250000089581E08093AA032FBF0E94A40D08952F
:1025100078941F920F920FB60F9211242F933F932E
:102520004F935F936F937F938F939F93AF93BF93DB
:10253000EF93FF93E6E8F0E0808191812081318183
:102540008FB7F89499273093EC032093EB0321E0A5
:1025500020935D088FBF0E947412FF91EF91BF918D
:10256000AF919F918F917F916F915F914F913F912B
:102570002F910F900FBE0F901F90189578941F9277
:102580000F920FB60F9211242F933F934F935F93A7
:102590006F937F938F939F93AF93BF93EF93FF932B
:1025A00080916F008D7F80936F0078949FB7F8942F
:1025B00080917A07813019F482E080937A07892F1D
:1025C00099278FBF0E947412FF91EF91BF91AF9135
:1025D0009F918F917F916F915F914F913F912F913B
:1025E0000F900FBE0F901F9018952F923F925F9201
:1025F0006F927F928F929F92AF92BF92CF92DF9213
:10260000EF92FF920F931F93CF93DF935B016C01C7
:10261000C0E0D0E0E5E6F6E0608561FF79C12081A9
:10262000318142815381E480F58006811781D60192
:10263000C501821B930BA40BB50B8E159F05A0073C
:10264000B10708F465C160FF03C06D7F608708C0F3
:102650002E0D3F1D401F511F208331834283538322
:10266000C23049F1C33018F4CC2341F057C1C33014
:1026700009F4EDC0C43009F051C146C100914902CE
:1026800010914A020E94EF011F930F939F938F9323
:102690007F936F9380E092E09F938F930E94672CCB
:1026A0000E94870B8DB79EB708960FB6F8949EBF11
:1026B0000FBE8DBF33C15090480AC091DB02D0914C
:1026C000DC0220907108309072088FB7F894282FA0
:1026D00033278091DD02882319F02FBF25E0B3C096
:1026E00081E08093DD022FBF0E94EF013B014C018E
:1026F00060936406CE010E94D703FC018081E180D3
:102700002281A380332744275527542F432F322F6C
:1027100022279927AA27BB27B82FAA2799278827D6
:10272000FF24002711278701FF24EE248E299F29EB
:10273000A02BB12BBB24CC24DD248A299B29AC29D6
:10274000BD29282B392B4A2B5B2B209378083093FB
:10275000790840937A0850937B08CE010E94D703F2
:10276000FC018081E1802281A38033274427552703
:10277000542F432F322F22279927AA27BB27B82F60
:10278000AA2799278827FF24002711278701FF24DC
:10279000EE248E299F29A02BB12BBB24CC24DD2431
:1027A0008A299B29AC29BD29282B392B4A2B5B2B45
:1027B0008091DE02680E711C811C911C261937095C
:1027C000480959092383BB27A52F942F832F828380
:1027D000CA01AA27BB278183252F332744275527E2
:1027E000208394E0590E252DAE01B10181E80E94AD
:1027F00093119927D82E882311F1E0907808F09052
:10280000790800917A0810917B08CE010E94D703C5
:10281000FC01E382BB27A12F902F8F2D8283C8015B
:10282000AA27BB278183E12EFF2400271127E082FE
:102830001092DD028D2D9927282F882321F482E024
:102840008093DA026BC02093620287E15EC09091B0
:10285000CD02892F8051823008F460C09731A1F4F5
:102860008091A8029091A902892B61F48091A20223
:10287000882331F4809163028F3F11F486E140C0D8
:1028800085E03EC08CE03CC09231A9F19F30A9F5B3
:10289000209164022F3F79F0809163028F3F59F0BD
:1028A00099270196820F911D62E070E00E94EB2B48
:1028B0006093630203C08FEF809363028FEF809376
:1028C00064028091C9029091CA0201969093CA0253
:1028D0008093C9028091A202882369F480916302E7
:1028E0008F3F49F48091CB029091CC020196909356
:1028F000CC028093CB028EE003C09A3019F48BE0B7
:102900008093CD028DE001C088E10E94A90106C03C
:1029100021963996C530D10509F07ECE8AE00E9415
:10292000A901DF91CF911F910F91FF90EF90DF9060
:10293000CF90BF90AF909F908F907F906F905F905F
:102940003F902F9008951F93CF93DF93382F80915E
:102950005302882309F452C08091E1029927282F5D
:10296000882309F44BC0332329F48091810328176D
:1029700008F444C0E091DF02FF27EE0FFF1FE05B89
:10298000F74FC081D181CE010E940504182F80919C
:10299000A8029091A902892B89F58091CD028530FA
:1029A00068F1873141F4809188068D7F8093880695
:1029B0008DE00E94A9019091CD02892F865182302D
:1029C00010F0953011F48CE00BC0963011F48DE0CE
:1029D00007C09B3021F0933111F0943119F48EE04F
:1029E0008093CD02D093A902C093A80211501093F6
:1029F000000681E0809374031092A702DF91CF91CB
:102A00001F9108951F93CF93DF93EC01FB01453095
:102A1000D0F114818091D902811738F09927811B58
:102A200091098F3791050CF446C18091D5029091A0
:102A3000D60201969093D6028093D5024550552731
:102A40003596BF0186EB93E00E94572C1093D90274
:102A50000E94EF012091B6033091B703322F222755
:102A6000330F330F44275527621B730B840B950BD1
:102A70006093FB027093FC028093FD029093FE0230
:102A800086E10E94A90185E10E94A9018091CD0201
:102A90008231B1F58FB7F89499274091590250913E
:102AA0005A028FBF8F812E819927982F882733272D
:102AB000822B932B48175907F9F08F5F9F4F09F42A
:102AC00009C1898528859927982F88273327822B44
:102AD000932B20915402309155022817390709F0A1
:102AE000F9C0809188068D7F809388068EE0809360
:102AF000CD028DE00E94A9018091CD02823129F0A2
:102B00008F3019F08E3009F08CC08FB7F894992768
:102B10004091590250915A028FBF8F812E8199277F
:102B2000982F88273327822B932B4817590711F0AA
:102B300060E05BC0898528859927982F88273327EF
:102B4000822B932B2091540230915502281739077C
:102B500009F0C0C064E0CE010E943702FC01908100
:102B600080915602891709F0B5C02091A8023091D2
:102B7000A9021092A9021092A802809188068D7F66
:102B80008093880640917403E091DF02FF27EE0FE7
:102B9000FF1FE05BF74F8081918128173907C1F44F
:102BA000442399F4C9010E94E7038091DF029091C8
:102BB000E102992351F08F5F8093DF02813011F49D
:102BC0001092DF0291509093E10281E00E94A314E1
:102BD00080E00E94480C80E00E94EC0B8EE0809325
:102BE000CD028DE00E94A90161E0CE010E940A049D
:102BF0002091A8023091A902882321F0232B29F0EB
:102C000080E109C0232B09F065C0809188068D7F83
:102C10008093880683E18093CD028DE00E94A90114
:102C200059C08051823008F055C089852885992780
:102C3000982F88273327822B932B20915402309191
:102C400055028217930709F045C08F812E8199277D
:102C5000582F44273327422B532B8FB7F8949927AB
:102C60002091590230915A028FBF4217530791F1B8
:102C70004F5F5F4F51F52EC060E0CE010E940A0405
:102C8000882319F01093CD02C8CF8FE08093CD0236
:102C900021C08091A8029091A9020E94321288233B
:102CA000C9F460E0CE010E940A04882399F081E013
:102CB0008093AC020FC08091D7029091D802019608
:102CC0009093D8028093D702DECE1091CD021031BE
:102CD00001F7D2CFCE01DF91CF911F910895AF922E
:102CE000BF92CF92DF92EF920F931F935B016C0123
:102CF0000E94EF01AB01BC01A1E0EA2E9601850123
:102D000083E00E94D0011F910F91EF90DF90CF9050
:102D1000BF90AF9008956623E9F48091BF0290912F
:102D2000C002A091C102B091C2020196A11DB11DC5
:102D30008093BF029093C002A093C102B093C202DD
:102D400082E18093CD0262E070E080E090E00E943A
:102D50006F1608958091C3029091C40201969093DA
:102D6000C4028093C302633069F48091AC02813065
:102D700049F41092AC0280E18093CD028DE00E9474
:102D8000A90108958091880681FF02C08FE001C0EB
:102D90008EE08093CD020895DF92EF92FF920F9321
:102DA0001F93CF93DF93EC01D62E0E94E503FC0125
:102DB00080819927803821F0813809F07BC047C095
:102DC000DD20A9F58F819927982F88272E81332719
:102DD000822B932B8F5F9F4F99F08091B10290913E
:102DE000B202A091B302B091B4020196A11DB11D2F
:102DF0008093B1029093B202A093B302B093B40255
:102E00008091AD029091AE02A091AF02B091B0025C
:102E10000196A11DB11D8093AD029093AE02A093C7
:102E2000AF02B093B0028091CD028F5F0AC0809153
:102E3000B5029091B60201969093B6028093B502C6
:102E400084E18093CD028DE00E94A90133C01092ED
:102E5000DD02DD2059F41091DE020E94EF01209185
:102E60006406621B160F16951093DE02E090780838
:102E7000F090790800917A0810917B08CE010E94A9
:102E8000D703FC01E382BB27A12F902F8F2D8283D4
:102E9000C801AA27BB278183E12EFF240027112721
:102EA000E0821092DA026D2D8091DB029091DC02BB
:102EB0000E948B16DF91CF911F910F91FF90EF90A1
:102EC000DF900895AF92BF92CF92DF92EF920F936F
:102ED0001F93CF93DF93E82E5A016B018091750207
:102EE000CE2DDD278330A1F4FE01EE0FFF1FEE0F84
:102EF000FF1FE859FC4F4083518362837383E09244
:102F00007502CE54DC4F8883E81609F47CC047C0B4
:102F10008E01000F111F000F111F08591C4FF801DF
:102F200040835183628373838091910681FF17C030
:102F30000E94EF012091890630918A0640918B060C
:102F400050918C06621B730B840B950B6A0D7B1DD5
:102F50008C1D9D1DF8016083718382839383509142
:102F60007502E52FFF27EE0FFF1FEE0FFF1FE85939
:102F7000FC4F80819181A281B381A816B906CA064F
:102F8000DB0610F5CE54DC4F5883E0927502F3E077
:102F9000EF16C9F1F801A080B180C280D380A114DE
:102FA000B104C104D10421F488E10E94A9012BC01D
:102FB0000E94EF01AB01BC01E1E0EE2E960185011C
:102FC00084E00E94D0011FC0252F33272E543C4F90
:102FD000F9014081433091F0542FE42FFF27EE0F89
:102FE000FF1FEE0FFF1FE859FC4F80819181A281E6
:102FF000B381A816B906CA06DB0630F7F901E082EC
:10300000CE54DC4F4883DF91CF911F910F91EF9009
:10301000DF90CF90BF90AF9008952F923F924F9244
:103020005F926F927F928F929F92AF92BF92CF9258
:10303000DF92EF92FF920F931F93CF93DF93CDB761
:10304000DEB76E970FB6F894DEBF0FBECDBF4FB799
:10305000F8945527809175029927FC01EE54FC4F96
:103060002081209375024FBF60917502F82E8C016C
:10307000000F111F000F111F08591C4F1DC077278B
:10308000FB01EE0FFF1FEE0FFF1FE859FC4FA08062
:10309000B180C280D380D8012D913D914D915C913A
:1030A000A21AB30AC40AD50AA082B182C282D3820C
:1030B0006E547C4FFB016081633009F7E09175022B
:1030C000E330F9F0FF27EE0FFF1FEE0FFF1FE85967
:1030D000FC4FA080B180C280D380A114B104C10490
:1030E000D10421F488E10E94A9010BC00E94EF01E4
:1030F000AB01BC01F1E0EF2E9601850184E00E9456
:10310000D001F1E0FF16E9F0FF1628F022E0F216F8
:1031100009F043C02CC01092790380E090EDA2E04A
:10312000B0E080937A0390937B03A0937C03B093E9
:103130007D0340E050ED62E070E080E00E946217A5
:1031400042C01092E80780E090E6A9E0B0E08093EA
:10315000E9079093EA07A093EB07B093EC0740E0F0
:1031600050E669E070E081E00E94621774C010923E
:10317000F60280E090E1AEE0B0E08093F702909339
:10318000F802A093F902B093FA0240E050E16EE039
:1031900070E082E00E946217D1C04091010050911E
:1031A000020060910300709104008F2D0E9462174D
:1031B00041E0F41609F44FC0F41628F082E0F81646
:1031C00009F06CC3BBC02091E4023091E5024427B2
:1031D0005527EAE0220F331F441F551FEA95D1F708
:1031E0006091650270916602809167029091680219
:1031F00003EF0E94BF29609365027093660280937B
:103200006702909368021092E5021092E402209106
:10321000E6023091E702442755277AE0220F331F58
:10322000441F551F7A95D1F76091690270916A0227
:1032300080916B0290916C020E94BF296093690299
:1032400070936A0280936B0290936C021092E70273
:103250001092E60223C3009176021091770266E194
:10326000C8010E9437027C01C8010E943E02005A38
:103270001F4FD8011C928091EE029091EF020196AF
:103280009093EF028093EE020197F7018183892FDB
:1032900099278083209165023091660240916702F0
:1032A00050916802233031054105510518F42FEF84
:1032B0003FEF06C060E070ED82E090E00E94FE2BE0
:1032C000F7012383832F992782832091690230910C
:1032D0006A0240916B0250916C0223303105410526
:1032E000510518F42FEF3FEF06C060E070ED82E06B
:1032F00090E00E94FE2BF7012583832F992784837A
:1033000080916D0290916E02A0916F02B091700257
:103310008187292F3A2F4B2F552720879D0144273E
:10332000552727838B2F9927AA27BB278683809130
:1033300072028287809174028387B0C2E090780223
:10334000F090790268E3C7010E9437028C01C7013F
:103350000E943E0280E690E0E80EF91ED7011C9222
:103360008091F0029091F10201969093F102809386
:10337000F00201978A83F8018183892F9927898335
:1033800080838091A3029091A4028C838383892FF0
:1033900099278B8382838091A5029091A6028E83C8
:1033A0008583892F99278D8384838091AD029091A5
:1033B000AE02A091AF02B091B0028A878187292F17
:1033C0003A2F4B2F5527298720879D0144275527C2
:1033D000288727838B2F9927AA27BB278F8386834C
:1033E0008091B1029091B202A091B302B091B40267
:1033F0008E878587292F3A2F4B2F55272D87248796
:103400009D01442755272C8723878B2F9927AA278F
:10341000BB278B8782878091B5029091B602888BFB
:103420008787892F99278F8786878091B702909108
:10343000B802A091B902B091BA028C8B838B292F6C
:103440003A2F4B2F55272B8B228B9D014427552735
:103450002A8B218B8B2F9927AA27BB27898B808BBF
:103460008091BB029091BC02A091BD02B091BE02BE
:10347000888F878B292F3A2F4B2F55272F8B268B01
:103480009D01442755272E8B258B8B2F9927AA2703
:10349000BB278D8B848B8091BF029091C002A0913D
:1034A000C102B091C2028B8F838F292F3A2F4B2FED
:1034B00055272A8F228F9D0144275527298F218F39
:1034C0008B2F9927AA27BB27282E808F8091C30294
:1034D0009091C4028C8F858F892F9927382E848FE5
:1034E0008091C5029091C602A091C702B091C80216
:1034F000482E81A3292F3A2F4B2F5527622E20A328
:103500009D0144275527522E278F8B2F9927AA27B5
:10351000BB27C82E868F8091C9029091CA02D82EEF
:1035200083A3892F9927E82E82A38091CB029091C3
:10353000CC02F82E85A3892F9927A82E84A38091E9
:10354000D1029091D202A091D302B091D40281A76E
:10355000292F3A2F4B2F552720A79D014427552768
:1035600027A38B2F9927AA27BB2786A38091D50253
:103570009091D60283A7892F992782A78091D7029D
:103580009091D80285A7892F992784A780917802E6
:10359000909179029E8F8D8F0091490210914A027D
:1035A0000E94EF01BB24BA2CAA242F2D3327A22A74
:1035B000B32ABF92AF922E2D3327322F22274D2DC3
:1035C0005527242B352B3F932F9377248824992438
:1035D000982C872C762C6624DD24EE24FF24FC2CEA
:1035E000EE24DD24CC24252D332744275527A9019B
:1035F00033272227C22AD32AE42AF52A242D332767
:1036000044275527C22AD32AE42AF52A6C287D2884
:103610008E289F289F928F927F926F92232D33271F
:10362000322F2227AC8D4A2F5527242B352B3F9341
:103630002F93BA8D2B2F332744275527CC24D22EF6
:10364000E32EF42E332444245524522C44243324D2
:103650002224E98D2E2F332744275527A90133270C
:103660002227222A332A442A552AFB8D2F2F33273B
:1036700044275527222A332A442A552AC228D328E8
:10368000E428F528FF92EF92DF92CF92AF892A2F9C
:103690003327442755278824922EA32EB42EBD8984
:1036A0002B2F332744275527522F442733272227F0
:1036B000EE89CE2EDD24EE24FF247601DD24CC24F9
:1036C0002C293D294E295F29F88DCF2EDD24EE24AB
:1036D000FF242C293D294E295F29822A932AA42AD6
:1036E000B52ABF92AF929F928F92AB892A2F332730
:1036F000442755278824922EA32EB42EB989CB2E89
:10370000DD24EE24FF245C2D442733272227EA8979
:10371000CE2EDD24EE24FF247601DD24CC242C29BA
:103720003D294E295F29FC89CF2EDD24EE24FF247C
:103730002C293D294E295F29822A932AA42AB52AB9
:10374000BF92AF929F928F924F85242F3327322FB3
:103750002227A8894A2F5527242B352B3F932F93B7
:10376000BD852B2F3327442755278824922EA32E3F
:10377000B42EEB85CE2EDD24EE24FF245C2D4427D1
:1037800033272227FC85CF2EDD24EE24FF2476016B
:10379000DD24CC242C293D294E295F29AE85CA2E53
:1037A000DD24EE24FF242C293D294E295F29822A7D
:1037B000932AA42AB52ABF92AF929F928F92B9857D
:1037C0002B2F3327442755278824922EA32EB42E3F
:1037D000EF81CE2EDD24EE24FF245C2D44273327F9
:1037E0002227F885CF2EDD24EE24FF247601DD2468
:1037F000CC242C293D294E295F29AA85CA2EDD24F7
:10380000EE24FF242C293D294E295F29822A932A60
:10381000A42AB52ABF92AF929F928F92BD812B2F7F
:103820003327322F2227EE814E2F5527242B352B7D
:103830003F932F93FB812F2F3327322F2227AC81E9
:103840004A2F5527242B352B3F932F93B9812B2FAC
:103850003327322F2227EA814E2F5527242B352B51
:103860003F932F931F930F939F938F937F936F9308
:103870008FE092E09F938F930E94672C8DB79EB745
:103880008E960FB6F8949EBF0FBE8DBF0E94870B19
:10389000AD8DBE8DB0937902A09378026E960FB66F
:1038A000F894DEBF0FBECDBFDF91CF911F910F9176
:1038B000FF90EF90DF90CF90BF90AF909F908F9050
:1038C0007F906F905F904F903F902F9008952F9230
:1038D0003F924F925F926F927F928F929F92AF92A0
:1038E000BF92CF92DF92EF92FF920F931F93CF93ED
:1038F000DF93CDB7DEB72E970FB6F894DEBF0FBEBD
:10390000CDBF1D821E821F821886E82FFF27E93156
:10391000F10510F00C945826EA59FF4FEE0FFF1FE7
:103920000590F491E02D099480917C08882311F48E
:103930000C94582690E011E020917C08812F82237E
:10394000C1F0E92FFF27EE0FFF1FE950FA4F40812A
:10395000518111821082812F8095282320937C0829
:10396000992339F463E0CA010E94920D110F91E08E
:10397000E3CF9F5F983010F00C945826110FDCCFE6
:1039800010914B02E12FFF27EE0FFF1FE950FA4F76
:10399000E080F180118210820E94C405112311F091
:1039A0000C94582661E04AC18FB7F89410923B0AF4
:1039B00020917E0740E0283009F441E030E02930D2
:1039C00009F431E0442311F4332351F010927E07BF
:1039D000E091FF05FF27EE0FFF1FEC50FC4F108218
:1039E00099278FBF442311F4332331F19FB7F89403
:1039F000809177088F5F809377088091EF038334FD
:103A000079F42091EE058091ED05821779F0822FEF
:103A10008F5F8093EE05863048F01092EE0506C069
:103A2000A0E0442309F4A1E071E002C0A0E070E04E
:103A3000892F99278FBF06C0222311F010E06CC098
:103A4000A0E070E08FB7F8949927209189028FBF8A
:103A5000222341F08FB7F89499272AE020937E071C
:103A60008FBF42C08FB7F89499276091F4034091BB
:103A7000F6038FBF8FB7F894282F332750E090912B
:103A8000ED058091EE05981709F451E02FBF5523FD
:103A900041F5662331F55FB7F89482E08093F40333
:103AA0008FB7F894282F332740E09091ED0580914F
:103AB000EE05981709F441E02FBF442311F080E090
:103AC00006C0E091EE05FF27E351FA4F8281809313
:103AD000F50383E48093EF031092FF05852F992768
:103AE0000EC04150423010F010E00BC08FB7F89478
:103AF000992725E42093EF0321E02093FF058FBF52
:103B000011E0772349F08FB7F8949927A093920298
:103B10008FBF86E00E94A9018FB7F894E82EFF249A
:103B200080917E078A3029F40E94F005EFBE0C9444
:103B30005826EFBE112311F40C9458262FB7F89491
:103B400033271092450A1092440A1092ED0381E047
:103B500080937E072FBF0E944306882311F40C94A4
:103B600058268FB7F894992729E020937E078FBFB6
:103B70000E944A020C9458268091C1008F7B80934A
:103B8000C1008091C1008F778093C10010927D07A2
:103B90001092DB038091C10088608093C100809106
:103BA000C10080618093C1008091C10080688093D2
:103BB000C1008FB7F894992710927E071092D8030E
:103BC0000C948E2585E0C1C08091C100877F8093D1
:103BD000C1008091C1008F7E8093C1000C94582653
:103BE00010928F0210928E028FB7F894992710913D
:103BF00092028FBF80919302811113E020918C0279
:103C000030918D0280919402882311F00C945826F3
:103C100080914B02882311F00C945826E090F70510
:103C2000F090F805E216F30611F00C945826109265
:103C3000F8051092F7050E94C405612FC7010E9484
:103C4000920D0C9458268FB7F894992720919602DC
:103C5000E0909702F0909802109183038FBF222387
:103C600009F04EC0F7018385883C09F049C03C96B5
:103C700080918802882329F4109881E0809388023B
:103C800003C0109A109288022081622F7727229514
:103C9000269527702F5F83E0759567958A95E1F7E4
:103CA000637070706F5F7F4F88E190E00E94EB2B34
:103CB000269F202D112433272C5F3F4FA901BF01E0
:103CC00082E996E00E94572CA8EBB3E0E2E9F6E027
:103CD00080E201900D928150E1F71092B7031092AB
:103CE000B6038091D9028F5F8093D9020E94EF01C1
:103CF0006093FB027093FC028093FD029093FE029E
:103D00008FB7F894E12FFF27EE0FFF1FE35BFD4F06
:103D1000F182E08220918A02112311F02B7F01C0F1
:103D20002D7F20938A021092950299278FBF0C94C1
:103D3000582640E566ED79E08FEF9FEF0E94B902CB
:103D4000882311F40C94582688E00E94A9010C9451
:103D500058268091A903882361F520916D08309140
:103D60006E0840916F0850917008EFB7F894FF27E4
:103D70006091750370917603809177039091780339
:103D8000E0907D08F0907E0800917F0810918008F7
:103D90006E0D7F1D801F911FEFBF20936D08309324
:103DA0006E0840936F08509370081092A9030E9408
:103DB000AA050E94EF0143C00E94EF015B016C0164
:103DC0008FB7F89499271092DF038FBFBFEFEB2EC8
:103DD000BFEFFB2EBFEF0B2FBFE71B2F60E0E5E629
:103DE000F6E0808581FF1CC080819181A281B38132
:103DF000A6019501281B390B4A0B5B0BDA01C9019F
:103E00002481358146815781281B390B4A0B5B0B76
:103E10002E153F05400751071CF479018A0161E026
:103E2000399636E0E239F307E1F6662309F440C734
:103E30001E141F04100611062CF0C601B5010E94C5
:103E4000F51236C7E0926D08F0926E0800936F0885
:103E50001093700881E08093A903A8019701C6011F
:103E6000B5010E94AA0524C790E08091E102882351
:103E700009F491E0992309F01BC7E091DF02FF27C5
:103E8000EE0FFF1FE05BF74F808191810E94E703F7
:103E90008BE05BCF80E00E94A3140AC78091CD0223
:103EA000853011F08C3049F58FB7F894992720911F
:103EB000AA032F5F2093AA038FBF8091B5038823A5
:103EC00009F044C08091F302882309F03FC080913B
:103ED000D509813049F490E080917A07882309F46C
:103EE00091E0992399F102C0853081F183E08093BC
:103EF000F3020E94741285E01FC0843111F08130FA
:103F000041F58FB7F89499272091AA032F5F20934A
:103F1000AA038FBF8091B5038823C1F48091F30277
:103F20008823A1F48091D509813081F081E08093CC
:103F3000F3020E94741286E08093B5030E9453112D
:103F40008091CD028F5F8093CD02B2C60E94531143
:103F500080C3843031F480913C0A8093420A85E02A
:103F600076C3833019F41092CD02A2C68631F1F4E3
:103F70000E949504DC01CB016091DD037091DE03AA
:103F80000091A6031091A703060F171F660F771F56
:103F90006F5F7F4F0E94D72B081B190B22273327F7
:103FA000C901B8010E946F1687E1CDCF8E30E1F4D0
:103FB0006091E00377278827992720916D0230913F
:103FC0006E0240916F0250917002220F331F441F06
:103FD000551F0E94B82B0E946F168FE08093CD0270
:103FE00081E00E94EC0B64C6893069F46091420A5A
:103FF00077276A5F7F4F882777FD8095982F0E94EB
:104000006F168AE0A0CF803109F040C01091000601
:10401000C090A802D090A902E0905402F0905502FE
:10402000C6010E94510DFC018091D90280838091CC
:10403000DA02882331F581E08093DA02F092720887
:10404000E0927108D092DC02C092DB021F5F1093F5
:10405000480A109262020E949504DC01CB01609133
:10406000AA0277276F5F7F4F0E94D72BAA27BB2713
:10407000AC01BD0182E00E9418021092740381E13C
:1040800062CF85E08093740383E1E1C2873009F059
:104090009CC08FEF92E00E943E0210925F0364E0AA
:1040A0008FEF92E00E943702FC018091A2028823E8
:1040B00019F080E090E003C080916302992781832A
:1040C0008091420A82838091AB028F5F8093AB0222
:1040D00081508083DF01139613828091A20288238E
:1040E00081F440E08091E10221E030E0281B3109B9
:1040F0008091B0039927281739070CF041E0442339
:1041000019F08C9181608C93E0905702F0905802E6
:104110008091D002882311F424E045C00091D90297
:1041200011270E94EF012091FB023091FC02409187
:10413000FD025091FE02621B730B840B950B6050C5
:104140007E4F8F4F9F4F2AE096958795779567957D
:104150002A95D1F77093B7036093B60360E58FEFAC
:1041600092E00E943702FC0104833596A6EBB3E08F
:1041700082E20D9001928150E1F78091D1029091FD
:10418000D202A091D302B091D4020196A11DB11D1B
:104190008093D1029093D202A093D302B093D40221
:1041A0001092D00227E24FEF52E0B70180E80E9460
:1041B00093112FEF3FEF309358022093570288233B
:1041C00011F488E0C0CE8BE042C2833151F484E127
:1041D0008093CD028DE00E94A90181E00E94480CED
:1041E00067C58B3009F064C581E00E942D0C2EC29A
:1041F0002FB7F89433278091AC0380935E0282E05E
:104200008093CE022FBF80915E02882309F050C5B3
:104210008091AD039091AE030E946711082F112782
:10422000002309F445C580E00E94B80C602F8091FE
:10423000AD039091AE030E94CC163AC58091B503B0
:104240001092B503853011F41298F3C1863011F441
:10425000129AEFC1873009F42BC58093B50328C5A6
:104260008FB7F89499272091AA032F5F2093AA0370
:104270008FBF8091B503813009F089C180917C079F
:104280008F5F80937C07863008F081C140917F0763
:10429000509180075E874D878091F302882309F053
:1042A0006DC18091D509853009F068C10E94660D05
:1042B000882309F463C180915D08882309F05EC1F9
:1042C0006D857E8581E00E94C903882311F490E00A
:1042D0000DC08D859E858F599F4F9E878D87FC01D0
:1042E0009181E156F040FE87ED879F7080915B04DD
:1042F000981781F090935B04289885EC8EBD0DB4DF
:1043000007FEFDCF8EB590689EBD0DB407FEFDCFB4
:104310008EB5289A289882EC8EBD0DB407FEFDCF8D
:104320008EB589E08EBD0DB407FEFDCF8EB5289AFF
:104330000E94A4037B018C016D857E8583E00E9431
:10434000C903882319F4E0E0F0E007C0AD85BE851D
:104350008C918550FD01E80FF11D289881E88EBDF4
:104360000DB407FEFDCF8EB51EBC0DB407FEFDCF0C
:104370008EB5289A8F71893079F0289882EC8EBD9D
:104380000DB407FEFDCF8EB586E08EBD0DB407FEE1
:10439000FDCF8EB5289AF2C08FB7F89499272F9A3F
:1043A00020918400309185008FBF2F98289880E657
:1043B0008EBDAD85BE859C910DB407FEFDCF8EB53B
:1043C0009EBD8EEF282E290EB6E0B21510F0622D9C
:1043D00001C067E04D855E854F5F5F4FDA01962F24
:1043E0007D910DB407FEFDCF8EB57EBD9150C1F716
:1043F00061502A01460E511C6F5F0894411C511CEC
:104400002E193F092E553F4F3901882477FC80949F
:10441000982C6E0C7F1C801E911E3097D1F120814C
:10442000E1808281A3809927AA27BB27BA2FA92FD1
:10443000982F8827332744275527522F442733277F
:104440002227FF24002711278701FF24EE242E298D
:104450003F29402B512BBB24CC24DD242A293B2986
:104460004C295D29822B932BA42BB52B86199709F8
:10447000A809B9098383292F3A2F4B2F5527228367
:104480009D014427552721838B2F9927AA27BB27D6
:104490008083922D961B0AC0D2012C910DB407FE89
:1044A000FDCF0894411C511C8EB52EBD9150A0F734
:1044B0000DB407FEFDCF8EB5289A289882EC8EBDEC
:1044C0000DB407FEFDCF8EB586E08EBD0DB407FEA0
:1044D000FDCF8EB5289A3097D1F12081E18082817D
:1044E000A3809927AA27BB27BA2FA92F982F8827FF
:1044F000332744275527522F442733272227FF24C9
:10450000002711278701FF24EE242E293F29402B65
:10451000512BBB24CC24DD242A293B294C295D299D
:10452000822B932BA42BB52B860D971DA81DB91D8F
:104530008383292F3A2F4B2F552722839D01442710
:10454000552721838B2F9927AA27BB2780836D8529
:104550007E8580E00E949603ED85FE85E45AFF4F3C
:10456000608271828282938286E08093D50984E0A2
:104570008093F3021092810883E004C085E0809369
:10458000810882E08093B5030E94531191C3109279
:10459000B5030E945311D0908108A0907F07B0907E
:1045A0008007F50182858F3309F082C380E00E9485
:1045B000B80CC5010E94E503FC0180819927803871
:1045C00021F0813809F074C346C0DD20B1F5F50152
:1045D000878126819927982F88273327822B932B31
:1045E0008F5F9F4F99F08091B1029091B202A0919C
:1045F000B302B091B4020196A11DB11D8093B10226
:104600009093B202A093B302B093B4028091AD0232
:104610009091AE02A091AF02B091B0020196A11D9F
:10462000B11D8093AD029093AE02A093AF02B09300
:10463000B0028091CD028F5F0AC08091B502909147
:10464000B60201969093B6028093B50284E18093FE
:10465000CD028DE07ACB1092DD02DD2059F410916D
:10466000DE020E94EF0120916406621B160F169570
:104670001093DE02E0907808F090790800917A08B3
:1046800010917B08C5010E94D703FC01E382BB2780
:10469000A12F902F8F2D8283C801AA27BB2781834A
:1046A000E12EFF2400271127E0821092DA026D2DFF
:1046B000C9C22FBFFDC28FB7F894282F332780912E
:1046C00052088823B1F3E0917608AE2FBB27AA0FDA
:1046D000BB1FAE59BC4F0D90BC91A02DBA83A983CE
:1046E0002FBFFD018285178106818F3309F0CBC171
:1046F00089819A810E94E503FC01F08069817A81B9
:10470000645F7F4F29813A81D9018D91BC83AB834E
:104710008D50482F5527812F9927B82FAA27802FF2
:104720009927A82BB92B8FB7F89499272091590274
:1047300030915A028FBFA217B30721F0AF5FBF4F6E
:1047400009F08AC2F0E8FF1609F462C121E8F21606
:1047500009F0B3C189819A810E94D7039E878D8712
:10476000DC01AC90FC016180E28023800E94EF01BB
:10477000FF2400271127102F0F2DFE2CEE24BB2421
:10478000CC24DD24DA2CCC24BB24AA24772488244E
:104790009924430177246624A628B728C828D92855
:1047A000332444245524A228B328C428D528EA2831
:1047B000FB280C291D29E60EF71E081F191FED8581
:1047C000FE85E382BB27A12F902F8F2D8283C80106
:1047D000AA27BB278183E12EFF2400271127E0822F
:1047E00089819A810E94510DFC012091D90280811A
:1047F000821738F09927821B91098F3791050CF4A5
:1048000034C281E08093D0028091CD028950823001
:1048100008F053C1809188068D7F80938806EB81D4
:10482000FC81808527819927982F88273327822B21
:10483000932B909358028093570287E08093CD0288
:104840008DE00E94A9018091C5029091C602A091BD
:10485000C702B091C8020196A11DB11D8093C50287
:104860009093C602A093C702B093C80280E00E9452
:104870002D0C8091E6029091E70201969093E70259
:104880008093E6020E9492048B5F682F89819A814F
:104890000E9437028C0189819A810E944C0D080F79
:1048A000111DF80143814F5F438380812181992746
:1048B000782F66273327622B732BE2808091A20228
:1048C000882311F000E001C0042F0887EF827E8367
:1048D0006D835091E202F090E302352F10E025C085
:1048E000E32FFF27EE0FFF1FEE0FFF1FEE57F74FCF
:1048F00080819181A281B381C8842F81ED81FE8165
:104900008E179F0709F0B4C1A21709F0B1C1BC15F9
:1049100008F4AEC18091A5029091A60201969093F1
:10492000A6028093A502C9C01F5F1F15C9F6A6C1C4
:1049300089E08093E20203C051505093E202E0917B
:10494000E2022E2F3327220F331F220F331F2E5741
:10495000374F89859A85AB85BC85F9018083918322
:10496000A283B3838091E3028A3018F48F5F80932F
:10497000E3028091A202882309F09FC090915C0419
:104980009923C9F08091E603E82FFF27EE0FFF1F60
:10499000ED57F84F00811181118210829150909350
:1049A0005C048F5F8093E603813011F41092E6037C
:1049B0000115110551F48091A3029091A402019672
:1049C0009093A4028093A3026DC19091E102992378
:1049D00009F05CC18091E002A82FBB27AA0FBB1F82
:1049E000A05BB74F29813A812D933C938F5F8093D1
:1049F000E002813011F41092E0029F5F9093E10297
:104A00008CE00E94A9011A83098357C08BE01EC065
:104A100089819A810E9402159A8389834EC0809170
:104A2000CD028031B1F4E981FA818781268199270D
:104A3000982F88273327822B932B20915402309173
:104A400055028217930709F038C08FE08093CD029A
:104A500034C0813191F5E981FA81878126819927D6
:104A6000982F88273327822B932B20915402309143
:104A700055028217930709F58091A8029091A90227
:104A80000E9432121AC0812F9927582F4427802F55
:104A90009927482B592B8FB7F894992720915902C1
:104AA00030915A028FBF4217530719F04F5F5F4F83
:104AB00021F48FB7F89499278FBF9FB7F89480910E
:104AC0007608A82FBB27AA0FBB1FAE59BC4F298160
:104AD0003A812D933C938F5F80937608833010F05A
:104AE0001092760880915208815080935208892F45
:104AF00099278FBFE0CD8FB7F89499271092790747
:104B0000109278071092D4091092D3091092F502EE
:104B10001092F4021092F6051092F50507C92FB70E
:104B2000F89433278091F0038093610282E08093B0
:104B3000CF022FBF80916102882309F0B9C0209A6B
:104B4000289A8091D509882309F075C08EEF91E0ED
:104B5000019701960197E1F716982F9886E090E06B
:104B6000019701960197E1F7169A289883EC8EBD7C
:104B70000DB407FEFDCF8EB51EBC0DB407FEFDCFF4
:104B80008EB5289A289882EC8EBD0DB407FEFDCF15
:104B90008EB588E08EBD0DB407FEFDCF8EB5289A88
:104BA0008EEF91E0019701960197E1F728988EEC3E
:104BB0008EBD0DB407FEFDCF8EB58DE48EBD0DB458
:104BC00007FEFDCF8EB5289A289889EC8EBD0DB4CE
:104BD00007FEFDCF8EB587EC8EBD0DB407FEFDCF71
:104BE0008EB5289A289885EC8EBD0DB407FEFDCFB2
:104BF0008EB580E88EBD0DB407FEFDCF8EB5289A28
:104C000010925B048DE08093AB03289888EC8EBDF6
:104C10000DB407FEFDCF8EB58DE68EBD0DB407FE3B
:104C2000FDCF8EB5289A2F9A81E08093D50980E038
:104C30000E9403033DC00E9474123AC01092DA022F
:104C4000609162028091DB029091DC020E948B16DF
:104C50002FC00E940D182CC030E8F31609F4D8CEEE
:104C600041E8F41609F029CFDACE1092D002CCCD6B
:104C70003F5F3A3008F458CE30E056CE0C87EB86D2
:104C80007A876987552309F453CE56CE8091A302C3
:104C90009091A40201969093A4028093A302C8016C
:104CA0000E94E7038091CD02873009F006CFAECE97
:104CB0002E960FB6F894DEBF0FBECDBFDF91CF9119
:104CC0001F910F91FF90EF90DF90CF90BF90AF902A
:104CD0009F908F907F906F905F904F903F902F901C
:104CE0000895809173088F3FB1F0282F3327F90181
:104CF000E757FC4F8081809373088F3F11F48093B6
:104D0000430A8FEF80832F3F31F0822F0E94671C70
:104D100081E090E0089580E090E00895EF920F9395
:104D20001F93CF93DF93EFB6F89414BE88E10FB6CC
:104D3000F89480936000109260000FBE49E150E04B
:104D40006FEF70E089E893E00E94602C8FEF809312
:104D500073088093430A56985E9854985C988091A3
:104D60006F008F7D80936F00209A289A279A2F9842
:104D70000E9A169A88EF93E09093800380937F03B6
:104D80001092E5038AE58093B10381E0809381006E
:104D900080E28093B60083E08093B100809184002C
:104DA000909185004AE72091840030918500281772
:104DB000390708F44150442311F0C901F4CF909110
:104DC000B2008091B2008917E1F320918400309104
:104DD00085009091B2008091B2008917E1F3809133
:104DE000840090918500821B930B409615E0969568
:104DF00087951A95E1F7909375088093740810923F
:104E0000B1008091B10080938100809181008093F6
:104E1000B6001092B20010928500109284008FEFBD
:104E200087BB87B386BB8091B6008571E1F70A9A8C
:104E3000099A089A129A119A109A18B88FEF87B99E
:104E40000C981498109285001092840080916F0045
:104E5000816080936F0080918100887F8260809361
:104E600081001092950010929400809171008160F1
:104E70008093710080919100887F8260809391007F
:104E80000E9471268823E1F78DEE97E090938407C6
:104E90008093830711E010935C041092E60380E096
:104EA00092E09093A7038093A6038AE080937E0309
:104EB00088E080933C0A80E28093820383E08093C1
:104EC000E003109381031092B00383E390E090938A
:104ED000DE038093DD0380E098E2A0E0B0E0809301
:104EE000A2039093A303A093A403B093A50380917E
:104EF000490290914A020196AA27BB278093E103B9
:104F00009093E203A093E303B093E4030FEF0093C5
:104F1000EE0380E00E94010D2AEA38E0309363033B
:104F2000209362032DE039E03093650320936403FE
:104F300020E739E030936703209366032FEF3FEFBC
:104F400030936308209362083093650820936408C7
:104F500030936708209366083093690820936808A7
:104F600030936B0820936A0820E090E0882309F4CE
:104F700091E0911709F421E080914902211709F08D
:104F8000A6C18295807F8093F2020093AF031092B6
:104F9000E2021092E30200E010E08091B60080622D
:104FA0008093B600249A8091B60081FDFCCF82E404
:104FB0008093B0008091B60080FDFCCF83E08093A9
:104FC000B1008091B60083FDFCCF86EE8093B300E4
:104FD000809170008260809370000E941E058AE7B5
:104FE00092E09093510A8093500A12E006E060919B
:104FF00074087091750888279927BCE0660F771FA1
:10500000881F991FBA95D1F720E031EE40E050E0BB
:105010000E94FE2B215030402093C400832F9927FB
:105020008093C5001093C0000093C2001092C1008D
:105030002093CC008093CD001093C8000093CA0049
:105040001092C90084E490E090935F0880935E081A
:105050001092F4031092F6038AE080937E07109278
:10506000ED031092EF03109277081092450A109208
:10507000440A10923B0A1092FF05109259081092B0
:10508000580884E08093D8031092820710926C082D
:105090001092DC031092FC051092FB051092EE05B5
:1050A0001092ED051092A1020E9471268823E1F76B
:1050B0008E2D99278FBF789410E007C01130B1F082
:1050C000113018F01230C9F522C01092790380E037
:1050D00090EDA2E0B0E080937A0390937B03A093DD
:1050E0007C03B0937D03E9E7F3E0FFC01092E8078B
:1050F00080E090E6A9E0B0E08093E9079093EA07AA
:10510000A093EB07B093EC07E8EEF7E0EEC0109247
:10511000F60280E090E1AEE0B0E08093F702909379
:10512000F802A093F902B093FA0240E050E16EE079
:1051300070E082E00E9462170FC040910100509120
:1051400002006091030070910400812F0E94621799
:105150001F5F133008F4B2CF0E94570680E091E041
:105160009093A7038093A60360917E0377278827F7
:105170009927982F872F762F662724E630E040E086
:1051800050E00E94FE2B3093DE032093DD0381E08C
:105190008093A2028093530280E00E94A314809126
:1051A000CD02882331F484E08093CD028DE00E940B
:1051B000A9010E9457060E94EF01AB01BC01E1E08A
:1051C000EE2E00E014E020E030E080E00E94D0010C
:1051D0000E94EF01AB01BC01EE2400E010EB24E0E3
:1051E00030E081E00E94D0018FB7F894482F552716
:1051F00053C080917000992783709070892B19F4A7
:10520000E5E0F0E014C08091B6008A71E1F780918A
:10521000B3009091B200891B8C3038F08091B200BD
:10522000853F18F4E3E0F0E002C0E2E0F0E08091B6
:105230006E008670E9F480916F008E72C9F40CB430
:1052400007FC16C08091C100807E91F48091C90056
:10525000807E71F48091BC0082FD0AC080917A004A
:1052600087FF03C081E090E005C085E090E002C0C8
:1052700080E090E023B78E1708F4E82FFF27E25074
:10528000FD4FE491207F2160E22BE3BF7894889565
:10529000F89483B78E7F83BF809173088F3F09F4A2
:1052A000A8CF282F3327F901E757FC4F808180933F
:1052B00073088F3F11F48093430A8FEF80832F3F51
:1052C00009F497CF4FBF822F0E94671C8DCF829524
:1052D000807F8093F2028FEF8093AF031092E202FF
:1052E0001092E30201E010E058CE418152816381C7
:1052F0007481812F0E9462171F5FE0CE55278617A9
:105300009707E8F0861B970B9C013070F9014E9FC0
:1053100090014F9F300D5E9F300D1124232F3327B6
:10532000892F9927FC014E9FC0014F9F900D5E9FD2
:10533000900D1124860F971F280F391F1EC09B0147
:10534000281B390BC901232F3327F9014E9F9001E8
:105350004F9F300D5E9F300D11249070FC014E9FC9
:10536000C0014F9F900D5E9F900D1124892F9927AA
:10537000280F391F621B730B9B01C90108956F929F
:105380007F928F929F92AF92BF92CF92DF92EF92D5
:10539000FF920F931F93CF93DF9359016A01C02FA0
:1053A000DD27602E772488249924621773078407E9
:1053B000950730F19B01AC012A193B094C095D09A5
:1053C000C9019070BC01C69FC001C79F900DD69FB8
:1053D000900D1124892F99277C0100271127232F55
:1053E000342F452F5527C401B3010E94B82B6A0DF5
:1053F0007B1D8C1D9D1DE60EF71E081F191F26C064
:1054000079018A01E61AF70A080B190B5527412F73
:10541000302F2F2DC401B3010E94B82B2FEFE222B1
:10542000FF24CE9D9001CF9D300DDE9D300D1124C7
:10543000232F332744275527260F371F481F591F6F
:1054400086017501E21AF30A040B150BC801B701B6
:10545000DF91CF911F910F91FF90EF90DF90CF9050
:10546000BF90AF909F908F907F906F900895ACE227
:10547000B0E0EDE3FAE20C94202C222E332E442EE1
:10548000552E662E772E882E992EFE013196A8E095
:105490001192AA95E9F729823A824B825C826D8249
:1054A0007E828F829886FE013996B8E01192BA9575
:1054B000E9F7A986BA86CB86DC86ED86FE860F875D
:1054C000188B89819A81AB81BC8189A79AA7ABA7E8
:1054D000BCA77C018D018FEF9FEFA0E0B0E0E82238
:1054E000F9220A231B2389A59AA5ABA5BCA51D01FA
:1054F0004424552489859A85AB85BC858DA39EA3BC
:10550000AFA3B8A75C016D018FEF9FEFA0E0B0E003
:10551000A822B922CA22DB228DA19EA1AFA1B8A5E3
:105520003D0188249924C801B701A60195010E9474
:10553000B82B69A37AA38BA39CA3C801B701A401CC
:1055400093010E94B82B7B018C01C201B101A6011D
:1055500095010E94B82B5B016C01C201B101A4014D
:1055600093010E94B82B3B014C01EA0CFB1C0C1D63
:105570001D1D89A19AA1ABA1BCA19D01442755275E
:105580002E0D3F1D401F511F2A153B054C055D0583
:1055900040F480E090E0A1E0B0E0680E791E8A1E41
:1055A0009B1ECA01AA27BB27860D971DA81DB91DE2
:1055B0008D8F9E8FAF8FB8A3A9013327222789A192
:1055C0009AA1ABA1BCA1A070B070280F391F4A1FCF
:1055D0005B1F298F3A8F4B8F5C8FA98CBA8CCB8C39
:1055E000DC8CED8CFE8C0F8D18A1FE01719698E07D
:1055F00011929A95E9F7ED8AFE8A0F8B188F2D810B
:105600003E814F8158856DA17EA18FA198A50E94F2
:10561000B82B3B014C012D853E854F85588969A5E6
:105620007AA58BA59CA50E94B82B2D893E894F8910
:10563000588D260F371F481F591F260D371D481D2F
:10564000591D2D8B3E8B4F8B588F6D887E888F8890
:10565000988C2A2D3B2D4C2D5D2D662D772D882D78
:10566000992DE2E1AC960C943C2CA0E1B0E0EBE388
:10567000FBE20C94202C222E332E442E552E662E27
:10568000772E882E992E002309F466C088E0FE014B
:10569000319611928A95E9F729833A834B835C838B
:1056A0006D837E838F829887E0E2E01B1E16CCF527
:1056B0002D813E814F815885602F772767FD70953A
:1056C000DA01C901062E04C0B695A795979587956E
:1056D0000A94D2F78D879E87AF87B88B04C0220FBC
:1056E000331F441F551FEA95D2F789819A81AB81F8
:1056F000BC8104C0B695A795979587956A95D2F712
:10570000282B392B4A2B5B2B29873A874B875C87C1
:1057100029843A844B845C846D847E848F84988849
:105720001BC01D861E861F86188A2E2F332727FD35
:105730003095309521953F4F8D819E81AF81B88501
:1057400004C0B695A795979587952A95D2F789872E
:105750009A87AB87BC87DCCF222D332D442D552D66
:10576000662D772D882D992DE2E160960C943C2CC6
:10577000629FD001739FF001829FE00DF11D649F35
:10578000E00DF11D929FF00D839FF00D749FF00DC1
:10579000659FF00D9927729FB00DE11DF91F639F62
:1057A000B00DE11DF91FBD01CF0111240895AA1B01
:1057B000BB1B51E107C0AA1FBB1FA617B70710F0FC
:1057C000A61BB70B881F991F5A95A9F7809590952E
:1057D000BC01CD01089597FB092E07260AD077FD5D
:1057E00004D0E5DF06D000201AF4709561957F4F54
:1057F0000895F6F7909581959F4F0895A1E21A2E8E
:10580000AA1BBB1BFD010DC0AA1FBB1FEE1FFF1F64
:10581000A217B307E407F50720F0A21BB30BE40BB4
:10582000F50B661F771F881F991F1A9469F76095FB
:105830007095809590959B01AC01BD01CF010895B5
:105840002F923F924F925F926F927F928F929F9290
:10585000AF92BF92CF92DF92EF92FF920F931F937E
:10586000CF93DF93CDB7DEB7CA1BDB0B0FB6F8942F
:10587000DEBF0FBECDBF09942A88398848885F846F
:105880006E847D848C849B84AA84B984C884DF80E0
:10589000EE80FD800C811B81AA81B981CE0FD11DC4
:1058A0000FB6F894DEBF0FBECDBFED010895FB012A
:1058B000DC0102C001900D9241505040D8F708958C
:1058C000DC0101C06D9341505040E0F70895A2E023
:1058D000B0E0EDE6FCE20C94302CFE0137966191CD
:1058E0007191FA83E983AF018091500A9091510A36
:1058F0000E947E2CE2E022960C944C2CABE0B0E0AF
:10590000E4E8FCE20C94222C3C014B016A01FC010E
:1059100017821682838181FD03C08FEF9FEFDAC16A
:10592000F3013381F40133FD859133FF81914F0100
:10593000882309F4CCC1853239F433FD859133FFD6
:1059400081914F01853229F4B30199270E94842E59
:10595000E7CF00E0442455244AE00032B0F48B3213
:1059600069F08C3228F4803251F0833271F40BC02C
:105970008D3239F0803349F4016028C00260046040
:1059800025C0086023C0006121C007FD29C0282F61
:1059900020532A3078F406FF06C0549EC00111241B
:1059A000522E580E13C0449EC0011124422E480EA0
:1059B00000620CC08E3221F406FD89C1006406C06D
:1059C0008C3611F4006802C0883651F4F40133FDBE
:1059D000859133FF81914F01882309F46FC0BDCFBA
:1059E000982F8554833018F08052833038F424E0A7
:1059F00030E0C20ED31E8FE389830FC0933631F09F
:105A0000933799F0933509F05BC023C0F60180818C
:105A1000898322E030E0C20ED31E7E010894E11C8F
:105A2000F11C51E0A52EB12C12C0F601E080F180EE
:105A300006FD03C06FEF7FEF02C0652D772722E0E0
:105A400030E0C20ED31EC7010E94792E5C010F7791
:105A500013C0F601E080F18006FD03C06FEF7FEF19
:105A600002C0652D772722E030E0C20ED31EC701A9
:105A70000E946E2E5C01006803FF07C01BC0B301CB
:105A800080E290E00E94842E4A94842D9927A816E3
:105A9000B906A8F30FC0F70107FD859107FF8191B3
:105AA0007F01B30199270E94842E41104A940894E3
:105AB000A108B108A114B10471F706C190E03EC07D
:105AC000943611F0993691F507FF0AC0F60160810E
:105AD00071818281938124E030E0C20ED31E0DC01B
