:100000000C9481010C94A0010C94A0010C94A0010B
:100010000C94A0010C94A0010C94A0010C94A001DC
:100020000C94A0010C94A0010C94A0010C94A001CC
:100030000C94A0010C947E0C0C94A0010C94560A14
:100040000C9458130C948E130C940D0B0C94180BE9
:100050000C94230B0C94A0010C94A0010C94A0010F
:100060000C946A0A0C9449080C94A0010C94CC08D6
:100070000C94A0010C94A0010C94A0010C94230AF0
:100080000C94020A0C940D0A0C94180A0C94360A6B
:100090000C94E5090C94A0010C94F7090C94A001B0
:1000A0000C94A0010C94A0010C94A0010C94A0014C
:1000B0000C94A0010C94A0010C94A0010C94A0013C
:1000C0000C94A0010C94A0010C94A001791A7D1A43
:1000D000811A681B6C1B701B7C1BA71BAB1BAF1B07
:1000E000B31BB71BD11BD61B711D961DAD1D4F1F1A
:1000F00009226C21812140260F221A2200002110A2
:10010000422063308440A550C660E7700881299181
:100110004AA16BB18CC1ADD1CEE1EFF13112100229
:1001200073325222B5529442F772D66239931883D1
:100130007BB35AA3BDD39CC3FFF3DEE362244334F5
:1001400020040114E664C774A44485546AA54BB521
:1001500028850995EEE5CFF5ACC58DD553367226C9
:1001600011163006D776F6669556B4465BB77AA771
:1001700019973887DFF7FEE79DD7BCC7C448E55815
:100180008668A7784008611802282338CCC9EDD9C1
:100190008EE9AFF9488969990AA92BB9F55AD44A69
:1001A000B77A966A711A500A333A122AFDDBDCCB11
:1001B000BFFB9EEB799B588B3BBB1AABA66C877C35
:1001C000E44CC55C222C033C600C411CAEED8FFD61
:1001D000ECCDCDDD2AAD0BBD688D499D977EB66E09
:1001E000D55EF44E133E322E511E700E9FFFBEEFB1
:1001F000DDDFFCCF1BBF3AAF599F788F8891A98173
:10020000CAB1EBA10CD12DC14EF16FE18010A1005C
:10021000C230E3200450254046706760B98398934C
:10022000FBA3DAB33DC31CD37FE35EF3B1029012AC
:10023000F322D2323542145277625672EAB5CBA518
:10024000A89589856EF54FE52CD50DC5E234C324FC
:10025000A01481046674476424540544DBA7FAB7EC
:100260009987B8975FE77EF71DC73CD7D326F2364C
:100270009106B01657667676154634564CD96DC938
:100280000EF92FE9C899E9898AB9ABA9445865489C
:1002900006782768C018E1088238A3287DCB5CDB8C
:1002A0003FEB1EFBF98BD89BBBAB9ABB754A545AEC
:1002B000376A167AF10AD01AB32A923A2EFD0FED58
:1002C0006CDD4DCDAABD8BADE89DC98D267C076C3C
:1002D000645C454CA23C832CE01CC10C1FEF3EFF2C
:1002E0005DCF7CDF9BAFBABFD98FF89F176E367E8C
:1002F000554E745E932EB23ED10EF01E00020E06D5
:100300000C0411241FBECFEFD1E2DEBFCDBF12E03F
:10031000A0E0B2E0E6E5FEE500E00BBF02C007901A
:100320000D92AE38B107D9F71AE0AEE8B2E001C0DD
:100330001D92A935B107E1F70E9476260C942A2F69
:100340000C9400008FB7F894992708958FBF0895F3
:10035000E1ECF0E080818F7B808380818F778083E8
:10036000109282071092E0038081886080838081F0
:10037000806180838081806880838FB7F89499271B
:10038000109283071092DD038FBF0895282F9FB727
:10039000F894E82FFF27E157FC4F80818F3F81F4CD
:1003A000E091480AE21771F40BC02093780804C06A
:1003B000FF27E157FC4F20832093480A20E007C025
:1003C00025E005C0809178088F3F91F7EECF892F07
:1003D00099278FBF822F9927089586E00E94C60132
:1003E0009927089585E00E94C601992708958DE018
:1003F0000E94C601992708957FB7F8946091B200D2
:1004000020918A0330918B0340918C0350918D038E
:10041000B99B11C08091B3009091B200280F311D9B
:10042000411D511D2F5F3F4F4F4F5F4F290F311D12
:10043000411D511D04C0260F311D411D511D872F27
:1004400099278FBFCA01B9010895613518F080E07E
:1004500090E008950C960895665F0E942502089525
:10046000FC018181992780739070816498688183F1
:10047000892F9927828308950F931F938C010E94DF
:100480003002005A1F4FF80110821F910F910895FA
:100490001F931FB7F8948091400A882341F482E0AB
:1004A0000E94C601882319F481E08093400A812FBD
:1004B00099278FBF1F910895382FFA01422F2135B8
:1004C00018F082E090E008956683872F992785834E
:1004D000338721878091940290919502892B19F09E
:1004E00085E090E008952FB7F894332785E0809356
:1004F000970210929802F0939302E093920282E0A6
:1005000090E0909395028093940210929A02109238
:100510009902445F409396022FBF8FB7F894282F1B
:100520003327809183078A3011F42FBF19C02FBF62
:100530009FB7F8948091FB03882311F020E006C058
:1005400081E08093FB031092FC0321E0892F99271F
:100550008FBF222329F00E94480280E090E0089596
:10056000109295021092940281E090E00895CF934A
:10057000DF93DB01FB0135968183892F9927EB01FE
:100580008D8384E686838091FC059091FD05892BFF
:1005900019F085E090E029C07093FD056093FC059B
:1005A000448380915002882319F480E090E01DC0BC
:1005B0008681EB016D817727762F6627218133278E
:1005C000622B732B10925002242FAD010E945C020B
:1005D0009927282F882339F081E0809350021092C8
:1005E000FD051092FC05822F9927DF91CF91089588
:1005F000882319F08CB5806402C08CB58F7B8CBDCC
:1006000008950F931F931FB7F8948091D5028230FD
:1006100099F580916602882379F58091640220E043
:1006200030E08F3F11F421E030E0232BF1F49FEF15
:10063000909366028F3F19F42FEF30E00DC0282F02
:100640003327F901ED50FC4F8081809364028F3F86
:1006500011F49093650290832093F50381E08093D9
:10066000D50284E10E94C60105C08FEF8093660227
:100670001092D50201E001C000E0812F99278FBFC1
:100680001FB7F8948091D502882311F40E94F802D4
:10069000812F99278FBF90E0013009F491E081E02C
:1006A0009827892F99271F910F910895882319F072
:1006B0008CB5806802C08CB58F778CBD08950F9380
:1006C0001F9380E00E94F8020FB7F8941127229A36
:1006D0002398219A209A8CB580618CBD80E00E947D
:1006E00056038CB5877F8CBD8CB58B7F8CBD81E02C
:1006F0000E94F8028DB581608DBD8CB58C7F8CBD5C
:100700000FBF1F910F910895FB01E05AFF4F21E0A9
:1007100030E002C0220F331F8A95E2F720958081D6
:10072000822380830895FB01E05AFF4F21E030E0EF
:1007300002C0220F331F8A95E2F78081822B8083CB
:100740000895CF92DF92EF92FF920F931F938C0147
:100750006A017B01BC0180E00E949303045A1F4F91
:10076000F801C082D182E282F3821F910F91FF9043
:10077000EF90DF90CF9008958FB7F8942091EC031D
:100780003091ED034091EE035091EF03E09184002E
:10079000F0918500B09B08C02F5F3F4F4F4F5F4FD8
:1007A000E0918400F091850099278FBFC9017727D8
:1007B00066279F0144275527622B732B842B952B8B
:1007C0000895FB01E05AFF4F21E030E002C0220F04
:1007D000331F8A95E2F780818223992708950F932A
:1007E0001F938C0160E50E942502F80120812151B0
:1007F000820F911D1F910F9108950B9608959C01F2
:1008000080916104882319F081E090E0089580913F
:10081000EB03882319F4E0E0F0E003C0E82FFF27A2
:100820003197EE0FFF1FE857F84F3183208381E0A7
:100830008093610480E090E00895FC018081815103
:10084000992708951F93CF93DF93EC01162F62E051
:100850000E942502FC0191818091A802882309F061
:100860004DC09F3F09F44AC09F5F2091680229173D
:1008700040F480916902981708F040C09093690293
:100880003DC01123C1F130E0CF59DF4F8881C156FF
:10089000D040893C08F031E0332311F42F3F59F563
:1008A0009093680228C089859927982F88272885E2
:1008B0003327822B932B90935A0280935902828183
:1008C0008093B00280818F5F80935B028091BD0234
:1008D0009091BE02A091BF02B091C0020196A11DED
:1008E000B11D8093BD029093BE02A093BF02B0934E
:1008F000C00281E02AC0838180FDD5CF8091BD02F6
:100900009091BE02A091BF02B091C0020196A11DBC
:10091000B11D8093BD029093BE02A093BF02B0931D
:10092000C0028091C1029091C202A091C302B09115
:10093000C4020196A11DB11D8093C1029093C20211
:10094000A093C302B093C40280E09927DF91CF91B6
:100950001F9108958BE490E008952F923F924F925B
:100960005F926F927F928F929F92AF92BF92CF923F
:10097000DF92EF92FF920F931F93CF93DF93CDB748
:10098000DEB729970FB6F894DEBF0FBECDBF6FB7A5
:100990006983F8942090E6033090E7034090E803E1
:1009A0005090E9036624772488240EE4A02E13E8EF
:1009B000B12ECC24DD24EE24FF2400E010E0222D13
:1009C000332D442D552D662D772D882D90E00E94D6
:1009D0001F2A2A833B834C835D836E837F838887B2
:1009E0009987822E932EA42EB52E2401350100E284
:1009F0000E941D2BA22EB32EC42ED52EA301920130
:100A000056954795379527952A0D3B1D4C1D5D1D25
:100A100057FF05C05F772F5F3F4F4F4F5F4F2093CA
:100A2000E6033093E7034093E8035093E903E98139
:100A30008E2F99278FBFCA01B90129960FB6F89456
:100A4000DEBF0FBECDBFDF91CF911F910F91FF9001
:100A5000EF90DF90CF90BF90AF909F908F907F905E
:100A60006F905F904F903F902F9008950E94AD043B
:100A7000DC01CB010895DF92EF92FF920F931F9359
:100A80008FB7F894282F3327D22E9091B3008091FE
:100A9000B20047B3981711F041FF02C02FBF71C0D9
:100AA0008091E4038823E1F10E94FC01E0907B0344
:100AB000F0907C0300917D0310917E0320918208C9
:100AC0003091830840918408509185086E197F0900
:100AD000800B910B621773078407950720F0109223
:100AE000E40371E01EC02E0D3F1D401F511F809179
:100AF0008A0390918B03A0918C03B0918D03281BE6
:100B0000390B4A0B5B0B273E31054105510540F47B
:100B1000822F223010F070E005C070E082E002C049
:100B200070E086EE682F61508091B60083FDFCCFA7
:100B30008091B200681709F46F5F20918A033091A9
:100B40008B0340918C0350918D03DA01C90101960A
:100B5000A11DB11D860F911DA11DB11D8217930707
:100B6000A407B50710F4622F60958091B60083FD4D
:100B7000FCCF6093B300DFBE772319F089E00E94B9
:100B8000C6011F910F91FF90EF90DF900895AFB7CE
:100B9000F894BB27E1E0E093E40360937B03709358
:100BA0007C0380937D0390937E032093820830938F
:100BB00083084093840850938508AFBF0E943B058B
:100BC0000895CF93DF9310925002A091FC05B0914D
:100BD000FD05109721F08091810880FF08C081E019
:100BE0008093500217C081E00E94C60113C0FD012E
:100BF000359624813327ED016D817727762F66277F
:100C000081819927682B792BAD0186810E945C0236
:100C1000882349F7DF91CF910895809183078A3027
:100C200021F48091DD03843021F081E080938F02F4
:100C3000089584E00E94C60110928F0208952FB794
:100C4000F89433278093C600E0ECF0E08081806464
:100C500080832FBF0895FC016115710519F481E0AF
:100C600090E008958091F6039091F703892B19F095
:100C700085E090E008957093660860936508F093AE
:100C8000F703E093F6031092DF031092DE0381E096
:100C90008093E0038091C00080648093C0008091C5
:100CA000C10080648093C100808121E030E03093F6
:100CB000DF032093DE030E941F0680E090E008958A
:100CC0008FB7F89499272091A0022E7F2093A0023D
:100CD0002EE72093AD038FBF61E070E08DEA93E0D3
:100CE0000E942B06992708958FB7F894282F332751
:100CF000922F809183078A3041F08091DD03843008
:100D000021F02FBF89E090E008959FBF83E00E940B
:100D1000C60180E090E00895ECEFF0E06927660FEF
:100D2000F11DE60FF11DC895982F802D3196C895BD
:100D300090250895982F80919B02882389F5992307
:100D400079F531E030939B028091510280939C02AF
:100D500020919002822F81708093890380915602A6
:100D60009091570290939E0280939D0280919102F0
:100D700080939F0232273170267EE32FFF27EE0FEC
:100D8000FF1FEE5AFD4F808191819093570280930F
:100D90005602232B2093900287E00E94C6010895FB
:100DA0008091900280FF02C08B7F01C08D7F809375
:100DB000900208950F931F93082F162F8091DD0343
:100DC0008130D9F0813038F0823009F44AC0833064
:100DD00009F028C159C0002309F458C110925E08D7
:100DE00010925D0810928707109271081092E1032B
:100DF000109201061092000639C1002309F046C185
:100E000080910006909101060E948C069093010645
:100E10008093000682E08093DD0310937108143400
:100E200009F000C125C18695869503C08091900286
:100E30008695817009F0F6C080919002992311F097
:100E4000846001C082608093900280919002877ECE
:100E5000886080939002109291028FEF80935102EC
:100E600015C1002309F0DEC06093E1038091000604
:100E7000909101060E948C069093010680930006D3
:100E800083E08093DD0302C1809187078F3F09F4DF
:100E9000C9C0002309F461C0823008F4C3C0E091E6
:100EA0005D08EE2309F4EBC04E2F4150E42FFF27DD
:100EB000E35AF74F82819927382F2227442311F4D0
:100EC000E2E002C0E42FE150FF27E35AF74F8281AE
:100ED0009927282B392B809100069091010628171D
:100EE000390709F09FC080E00E949A063091E10323
:100EF0008091F2052091F305982F9F5F963008F0BE
:100F000090E0921771F0E82FFF27EE50FA4F3283EE
:100F10008F5F8093F205863010F01092F2050E94E8
:100F2000480210925E0810925D0894E09093DD03F1
:100F300010928707109271081092E1031092010637
:100F4000109200068091A0028D7F8093A002809174
:100F50008F02882309F49AC084C0823008F44EC0FE
:100F6000E0915E08FF27E35AF74F8281482F55270B
:100F7000342F20919002822F8695869586958370D6
:100F800099278130910519F00297F9F40EC0277E58
:100F9000206120939002442311F485E001C080E099
:100FA000809391023093510210C080919102833658
:100FB00060F4E0915602F0915702E80FF11D408372
:100FC000809191028F5F8093910280915E08E82F5B
:100FD000FF27E35AF74F62818F5F80935E0883306B
:100FE00010F010925E08772780910006909101061C
:100FF0000E948C06909301068093000680915D0804
:10100000E82FFF27E35AF74F12838F5F80935D0825
:10101000833010F010925D08809187078F5F809376
:10102000870734C010925E0810925D0814E0109398
:10103000DD0310928707109271081092E10310925D
:101040000106109200068091A0028D7F8093A0027D
:1010500081E00E949A0680918F02882329F01093E4
:10106000DD030E940D0612C0002381F081E009CF4C
:1010700080919002982F917080FDD5CED7CE80912F
:1010800061089927382F222742E01CCF1F910F912A
:1010900008951F920F920FB60F9211242F933F9332
:1010A0004F935F936F937F938F939F93AF93BF9370
:1010B000EF93FF938091C00087FF42C06091C6000C
:1010C000E0910206F0910306309719F180913E0AF3
:1010D00090913F0AE80FF91F6083019690933F0AB1
:1010E00080933E0A20914B0A30914C0A8217930755
:1010F00038F1109203061092020680918207833025
:10110000F9F08091C1008F778093C100109282071F
:1011100017C06E3719F460E081E010C08091A00222
:101120006D3721F482608093A0020AC081FF05C060
:101130008D7F8093A00280E2682780E00E94DA061B
:10114000FF91EF91BF91AF919F918F917F916F919F
:101150005F914F913F912F910F900FBE0F901F9075
:101160001895982F8D57823068F48091A002816085
:101170008093A00280E28927809386078DE7809381
:10118000AD0302C09093AD0361E070E08DEA93E09F
:101190000E942B069927089578941F920F920FB6FC
:1011A0000F921124FF920F931F932F933F934F930E
:1011B0005F936F937F938F939F93AF93BF93CF93DF
:1011C000DF93EF93FF932091DE033091DF03809153
:1011D0006508909166082817390780F4E091F603B6
:1011E000F091F703E20FF31F80812F5F3F4F3093A1
:1011F000DF032093DE030E941F06D1C01092F70385
:101200001092F6031092E0038091C1008F7B8093CF
:10121000C100FFB6F8948091A00280FF0EC08E7FBF
:101220008093A002809186078093AD0361E070E017
:101230008DEA93E00E942B06AFC080918307843033
:1012400009F48CC0853040F4823021F18330B8F548
:10125000813009F09CC00DC0863009F48DC0863005
:1012600008F483C0873009F48EC0883009F08FC03D
:1012700091C08091F4030E94B108082F83E080930D
:1012800083076091F4038091490A90914A0A0E9471
:101290008C0610C080917C080E94B108082F83E062
:1012A0008093830760917C088091490A90914A0A53
:1012B0000E948C0690934A0A8093490A66C0E09186
:1012C0000406FF27EE0FFF1FE650FC4F80810E94AF
:1012D000B108082F10910406C12FDD27FE01EE0F83
:1012E000FF1FE650FC4F60818091490A90914A0AA5
:1012F0000E948C0690934A0A8093490A2091F20337
:101300002F5F2093F203113039F580919702E0911D
:101310009202F0919302E80FF11DE0818F5F8093BC
:10132000970290919602981730F482E08093FB0325
:1013300040E050E002C04E2F5527DE01AA0FBB1F30
:10134000FD01E750FC4F8081823031F02F3F21F0CA
:10135000A650BC4F4C9319C084E012C08091490A3A
:101360000E94B108082F85E00BC080914A0A0E94B4
:10137000B108082F86E004C00E946006082F87E0AD
:101380008093830702C088E003C0002329F089E02E
:10139000809383070E9448028F2D99278FBFFF916A
:1013A000EF91DF91CF91BF91AF919F918F917F91FD
:1013B0006F915F914F913F912F911F910F91FF90EE
:1013C0000F900FBE0F901F9018951F920F920FB69F
:1013D0000F9211248F938091C80087FF02C08091E3
:1013E000CE008F910F900FBE0F901F90189578949C
:1013F0001F920F920FB60F9211240F900FBE0F90F5
:101400001F90189578941F920F920FB60F92112487
:101410000F900FBE0F901F90189578941F920F9207
:101420000FB60F9211240F900FBE0F901F901895BA
:1014300078941F920F920FB60F9211240F900FBE47
:101440000F901F90189578941F920F920FB60F92DD
:1014500011248F939F9380919600909197009F9174
:101460008F910F900FBE0F901F90189578941F9238
:101470000F920FB60F9211242F933F938F939F9348
:101480002FB7F89433278091FE059091FF050196C0
:101490009093FF058093FE052FBF9F918F913F9101
:1014A0002F910F900FBE0F901F9018951F920F92C3
:1014B0000FB60F9211248F938091B0008093B000EB
:1014C0008091B60081FDFCCF8F910F900FBE0F90E1
:1014D0001F9018951F920F920FB60F9211240F9321
:1014E0001F932F933F934F935F936F937F938F93AC
:1014F0009F93AF93BF93CF93DF93EF93FF932EB55B
:10150000E0917D07F0917E07309739F08091FA05E0
:101510009091FB05E80FF91F20838091FA059091C7
:10152000FB0501969093FB058093FA0580E00E94ED
:101530005603C091FA05D091FB052091FA02309133
:10154000FB02C217D30708F042C00091D8091091DE
:10155000D90940917D0750917E07CE010A96281740
:10156000390708F4C901DA01AC0FBD1FF801EC0F0F
:10157000FD1F9C012150304015C00115110531F0AF
:1015800080818EBD0DB407FEFDCF04C01EBC0DB41E
:1015900007FEFDCF8EB54115510509F08C932196BC
:1015A00011963196C217D30740F381E00E9456038B
:1015B0000115110531F00C0F1D1FF80180818EBD42
:1015C00001C01EBCD093FB05C093FA0511C0109258
:1015D0007E0710927D071092D9091092D8091092B7
:1015E000FB021092FA021092FB051092FA058EB5DA
:1015F000FF91EF91DF91CF91BF91AF919F918F912B
:101600007F916F915F914F913F912F911F910F911A
:101610000F900FBE0F901F90189578941F920F9205
:101620000FB60F9211240F900FBE0F901F901895B8
:1016300078941F920F920FB60F9211240F900FBE45
:101640000F901F90189578941F920F920FB60F92DB
:1016500011242F933F938F939F93AF93BF932FB7F3
:10166000F89433278091EC039091ED03A091EE0361
:10167000B091EF030196A11DB11D8093EC039093EF
:10168000ED03A093EE03B093EF032FBFBF91AF9193
:101690009F918F913F912F910F900FBE0F901F90B0
:1016A0001895EF92FF920F931F93CF93DF93E7EE7E
:1016B000F9E0C091A502D091A602C035D10510F085
:1016C000C0E5D0E080E5DF011D928A95E9F7209121
:1016D000A5023091A6028091A1029091A20200E0A1
:1016E00010E07F0113C0FC01EE59FB4FE081211592
:1016F000310539F0019660E971E00E94BF2B21505D
:101700003040D701ED937D010F5F1F4F0C171D0770
:1017100051F73093A6022093A5029093A2028093E2
:10172000A10240E56BED79E08FEF9FEF0E94B702D9
:10173000882319F088E00E94C601DF91CF911F91A4
:101740000F91FF90EF9008958FB7F894282F3327CB
:101750008091A702813021F42FBF80E090E00895AE
:1017600040E08091A5029091A602892B09F441E006
:10177000442321F02FBF81E090E0089581E0809321
:10178000A7022FBF0E94510B80E090E008951F93A5
:10179000CF93DF93182F8091A702882361F4809163
:1017A000A5029091A602883C910528F081E08093E3
:1017B000A7020E94510B8FB7F894C82FDD27209104
:1017C000A5023091A60281E020393807D8F4809133
:1017D000A3029091A402FC01EE59FB4F10830196E5
:1017E00060E971E00E94BF2B9093A4028093A30252
:1017F0002F5F3F4F3093A6022093A502CFBF80E01A
:1018000090E003C0CFBF8FEF9FEFDF91CF911F918B
:101810000895CF92DF92EF92FF920F931F93182FAC
:101820000E94FC016B017C018091F202813009F57C
:101830008091EE029091EF02A091F002B091F1023E
:10184000A7019601281B390B4A0B5B0B60917202B2
:1018500070917302809174029091750203EF0E945F
:10186000A72960937202709373028093740290931D
:101870007502112341F0C092EE02D092EF02E09285
:10188000F002F092F1021F910F91FF90EF90DF9024
:10189000CF9008956091F302882399F06623A1F018
:1018A0007727762F662743EF80917802909179020F
:1018B0000E94662990937902809378021092F30235
:1018C00008956F5F6093F30208956091F202882398
:1018D00089F07727762F662743EF809176029091E3
:1018E00077020E9466299093770280937602109285
:1018F000F20208956F5F6093F20208951F920F92B3
:101900000FB60F9211242F933F934F935F936F93D2
:101910007F938F939F93AF93BF93EF93FF938091A8
:10192000B0008093B0008091B60081FDFCCF809123
:10193000B30099270196AA27BB2720918A033091EB
:101940008B0340918C0350918D03280F391F4A1F40
:101950005B1F20938A0330938B0340938C03509337
:101960008D039091B10090688091B60080FDFCCF0E
:101970009093B1009F778091B60080FDFCCF90934B
:10198000B10078940E943B05FF91EF91BF91AF9118
:101990009F918F917F916F915F914F913F912F9187
:1019A0000F900FBE0F901F901895EF92FF920F931C
:1019B0001F938C0160E50E9425027C01C8010E94F2
:1019C0001D048150E80EF11CC7011F910F91FF907B
:1019D000EF900895665F0E9425020895EF920F939D
:1019E0001F93AE2D99E0899FF0011124E659F94F1C
:1019F00040835183628373830483158326833783F3
:101A0000A17080858E7F8A2B826080878AE00E9409
:101A1000C6011F910F91EF900895AF92BF92CF92A0
:101A2000DF92EF92FF920F931F93F82E5A016B01F2
:101A30000E94FC01AB01BC01A1E0EA2E96018501E8
:101A40008F2D0E94EE0C1F910F91FF90EF90DF9071
:101A5000CF90BF90AF9008950F931F93CF93DF93D4
:101A6000182F0FB7F8948091D502882311F40E94A3
:101A70005F03802F99278FBF8FB7F894C82FDD277A
:101A80002C2F8091D502882361F481E08093D502C8
:101A90001093F50384E10E94C601CFBF80E090E07F
:101AA00021C0E12FFF27ED50FC4F80818F3F89F44B
:101AB000E0916502E11789F40CC01093640204C040
:101AC000FF27ED50FC4F10831093650280E090E0FB
:101AD00002C085E090E02FBF05C0809164028F3F77
:101AE00079F7EBCFDF91CF911F910F9108958FB7C9
:101AF000F894282F3327922F80916602882331F49F
:101B00008091D502823011F42FBF13C09FBF8FB7D1
:101B1000F894282F33278091D502882369F482E036
:101B20008093D502109266022FBF0E945F03209A15
:101B3000289A81E090E008952FBF80E00E942C0D4C
:101B400080E090E008950E941D0486509927089532
:101B50001F93982F1FB7F8948091D402823099F583
:101B600080916302891779F58091610220E030E06D
:101B70008F3F11F421E030E0232BF1F49FEF90939D
:101B800063028F3F19F42FEF30E00DC0282F332769
:101B9000F901EC54FC4F8081809361028F3F11F476
:101BA0009093620290832093B10381E08093D402EA
:101BB0008EE00E94C60105C08FEF809363021092F1
:101BC000D40221E001C020E0812F99278FBF90E04F
:101BD000213009F491E081E09827892F99271F91FE
:101BE000089580E00E94A80D992708950E94AD04F1
:101BF000DC01CB016091E2037091E3032091AB0320
:101C00003091AC03260F371F660F771F6F5F7F4F32
:101C10000E94BF2B281B390BC901089540E56BEDCD
:101C200079E08FEF9FEF0E94B702882319F088E0D8
:101C30000E94C6010895662361F48091A5029091E7
:101C4000A602892B19F00E94510B08951092A70249
:101C5000089588E00E94C60108951F93809181082D
:101C6000882321F190E011E020918108822F8123C7
:101C7000C1F0E92FFF27EE0FFF1FE450FA4F40811C
:101C8000518111821082812F809528232093810811
:101C9000992339F463E0CA010E941B0E110F91E0F1
:101CA000E3CF9F5F983010F4110FDECF1F9108959E
:101CB0000F931F93CF93DF93182FEB01042FE82F7F
:101CC000FF27EE0FFF1FE450FA4F118210820E948F
:101CD000E105112321F4602FCE010E941B0EDF913C
:101CE000CF911F910F910895AF92BF92CF92DF9243
:101CF000EF92FF920F931F93CF93DF93809162082F
:101D0000882309F4C4C00E94770D882309F4BFC05A
:101D10008FB7F8949927C091F003D091F1038FBF4A
:101D20001092620828988FE88EBD0DB407FEFDCF93
:101D30008EB51EBC0DB407FEFDCF8EB5289A982F28
:101D40008091F902833011F0873031F485E080937F
:101D5000DA0988E08093F902A92EBB24A2FE67C0AD
:101D60008091F902863019F41092F90203C0882399
:101D700009F05DC0943009F049C0289886E88EBD0E
:101D80000DB407FEFDCF8EB51EBC0DB407FEFDCF12
:101D9000FEB4289A2FE1F2228091B603982F9695EF
:101DA00096953F2D391B830F8093B60300918503D1
:101DB00010918603B80181E00E948403B80182E09B
:101DC0000E9493030F591F4FF801F1820E94BC0338
:101DD0006B017C010091850310918603B80180E0BE
:101DE0000E949303045A1F4FCC19DD092797CE0197
:101DF000AA2797FDA095BA2F8C0D9D1DAE1DBF1D66
:101E0000F80180839183A283B3830EC06091850320
:101E10007091860382E00E94840360918503709133
:101E2000860380E00E94840385E08093F902A3FE8C
:101E30002EC09091F902943069F485E08093DA091C
:101E40001092F902109286089093BA0380E10E94E2
:101E5000C6011DC09530D9F42091EA03289886E880
:101E60008EBD0DB407FEFDCF8EB51EBC0DB407FEB2
:101E7000FDCF8EB5289A8F71922F96959695891BD6
:101E8000280F2093EA0389E08093F90208C020918B
:101E9000F902222309F475C2293009F082C1289879
:101EA00080E28EBD0DB407FEFDCF8EB51EBC0DB415
:101EB00007FEFDCF8EB5482F5527433008F4AEC23C
:101EC000842F99278E3591050CF0A8C21EBCE09195
:101ED0008503F09186034083A42FA250A73010F40D
:101EE0009A2F01C097E0BF016F5F7F4F292FFB0141
:101EF00040E050E00DB407FEFDCF8EB51EBC8083E0
:101F000081914827042E4295407F4025052E542F6D
:101F100042954F700426469554274527440F440F99
:101F2000440F4025215031F79150FB01E90FF11D7D
:101F30009F5F31968FB7F894282F332760E0809108
:101F40005708833008F461E02FBF662309F45EC0B0
:101F5000A91B9A2F18C00DB407FEFDCF8EB51EBC6D
:101F6000808381914827042E4295407F4025052E8D
:101F7000542F42954F700426469554274527440F09
:101F8000440F440F4025915030F70DB407FEFDCFAC
:101F90008EB51EBC9A012827022E2295207F20256F
:101FA000032E322F22952F700226269532272327C3
:101FB000220F220F220F20250DB407FEFDCF8EB574
:101FC0001EBC2827022E2295207F2025032E322F8B
:101FD00022952F700226269532272327220F220FC3
:101FE000220F20250DB407FEFDCF8EB5E0918503AD
:101FF000F0918603EF59FF4F8083289A85E0809304
:10200000DA091092F902232B31F0B7C10DB407FEA3
:10201000FDCF8EB503C2E0908503F0908603570193
:102020000894A11CB11CF701818520859927582FA0
:1020300044273327422B532B80918E03282F33279D
:10204000F901EE0FFF1FE959F74F808191816091EF
:1020500080078417950769F4F901EE5BF54F8081DD
:10206000861709F464C0862F8F5F80938007808372
:102070001BC010E000E080E090E0C7E6D8E0E2E4BA
:10208000FAE0C62EC394DF01782F9C0188819981E4
:102090008417950759F420938E038C91861709F4C1
:1020A00046C0C0928007CC9210E828C08081962F4D
:1020B000981B191710F4192F022F7F5FC901019681
:1020C00011962296319685309105F1F67530B1F46E
:1020D00000938E03A02FBB27FD01EE0FFF1FE959D0
:1020E000F74F51834083862F8F5F80938007FD01D8
:1020F000EE5BF54F8083A25BB54F1C9290918007F9
:10210000892F8F778F3779F41F3768F0E2E4FAE090
:10211000292F207880818F678913208331963AE0B8
:10212000E734F307B9F780918E03282F3327F501A1
:102130009281A22FBB27FD01E25BF54F808180FFDA
:1021400007C0FD01E85AF74F8081981729F102C0B6
:1021500081608083A85AB74F9C93CFB6F894809142
:1021600057088330B0F4E0917B08E80FE33008F0C3
:10217000E350FF27EE0FFF1FE859FC4F008111814C
:10218000F182E0828F5F8093570881E10E94C6014F
:1021900078018C2D99278FBFF0928603E0928503FA
:1021A000E3C0822F8150833008F0BCC08150823060
:1021B00008F03BC09091DA099130B9F530E0809198
:1021C0007F07882309F431E0332379F12F98909326
:1021D000F80390937F0760918400709185002FB77A
:1021E000F8944091840050918500CA01861B970B9A
:1021F00003968B52934018F0CA01039603C0CB019B
:10220000855D9C4F009711F481E090E001979093D9
:1022100089008093880082E086BB90916F00926075
:1022200090936F0033272FBF68C0233009F042C05E
:102230008091DA09833009F097C00E94770D8823D6
:10224000C9F128988FE88EBD0DB407FEFDCF8EB57D
:102250001EBC0DB407FEFDCF8EB5289A809181007B
:1022600080648093810080E286BB80916F008062F1
:1022700080936F009091B003289888EC8EBD0DB4C8
:1022800007FEFDCF8EB590669EBD0DB407FEFDCF57
:102290008EB5289A289882EC8EBD0DB407FEFDCF2E
:1022A0008EB586E08EBD0DB407FEFDCF8EB5289AA3
:1022B00084E023C08091F9028150823000F5809142
:1022C000DA098530E1F40E94770D8823C1F028985F
:1022D00082EC8EBD0DB407FEFDCF8EB583E08EBDC2
:1022E0000DB407FEFDCF8EB5289A80916F008F7DCB
:1022F00080936F001092620883E08093DA099091D6
:10230000F902913041F48091DA098330B1F52F9AC6
:102310009093DA0925C0923039F58091DA0983303B
:1023200061F51EC0273001F50E94770D8823E1F08A
:102330009091B003289888EC8EBD0DB407FEFDCFB8
:102340008EB590669EBD0DB407FEFDCF8EB5289A62
:102350008091DA09853021F484E08093DA0904C0A1
:1023600088E08093F90204C08091F902883029F452
:102370001092F9028FE00E94C6018091F902882331
:10238000C9F48091DA09853091F48091620888233C
:1023900071F48091BA03823051F481E08093BA03E2
:1023A00080E10E94C6018091F902882319F482E13C
:1023B0000E94C60180917F07823019F510927F0735
:1023C0008091F8038130E9F48091DA09823021F4B8
:1023D00083E08093DA0913C08091F902863079F4A2
:1023E0001092F902289881E88EBD0DB407FEFDCF4A
:1023F0008EB51EBC0DB407FEFDCF8EB5289A0E9487
:1024000044138FB7F894282F33278091AF0381307E
:1024100061F081E08093AF032FBF70CC289A85E0F4
:102420008093DA091092F902A8CF1092AF032FBF60
:10243000DF91CF911F910F91FF90EF90DF90CF90A0
:10244000BF90AF9008958FB7F894282F33278091CD
:10245000AF0381508093AF03803811F02FBF0895F0
:1024600081E08093AF032FBF0E94740E08951F93E5
:10247000FC018FE382878091F8028F5F8093F802DE
:1024800083832FB7F89433278091AF038F5F8093B6
:10249000AF032FBF8091BA03882311F015E00DC060
:1024A000F0938507E093840781E08093BA0310924C
:1024B000810780E10E94C60110E00E942312812F53
:1024C00099271F910895EF92FF920F931F93CF9337
:1024D000DF93082F7B01EA01122F213518F086E0E7
:1024E00090E089C08A81298140E09927982F882728
:1024F0003327822B932B87749C7C8154984809F452
:1025000041E0442319F4CE010E943002135F188386
:102510002FB7F894332780915E0290915F022FBF0E
:102520008887892F992789872FB7F8943327809137
:1025300060022FBF99278C831D82CE010E94FD036C
:10254000FC010083EE828F2D99278F838FB7F8943B
:10255000282F33278091D402882371F482E080935E
:10256000D402109263022FBFCE010E943712992726
:10257000182F882399F00FC02FBFD093B303C093B7
:10258000B2038FB7F894C82FDD272C2F8091D40287
:10259000882399F406C080E00E94A80D812F992716
:1025A0002AC081E08093D4021092B1038EE00E9491
:1025B000C601CFBF80E090E01EC08091B4038F3F82
:1025C00089F4E0916202EE2369F010C0109261027A
:1025D00004C0FF27EC54FC4F10821092620280E08E
:1025E00090E002C085E090E02FBF05C080916102BD
:1025F0008F3F79F7EBCFDF91CF911F910F91FF9034
:10260000EF9008951F93AC012091E0022223C1F1C5
:102610008091E1029091E2024817590789F5213033
:1026200071F4809184068D7F8093840683E080938B
:10263000670286E10E94C60180E090E023C022305C
:10264000F9F48FB7F89499272091AF032F5F209367
:10265000AF038FBF8091BA038150823010F015E034
:102660000AC084E08093BA0383E08093860880E107
:102670000E94C60110E00E942312812F992702C0F8
:1026800081E090E01F9108958FB7F894282F3327A9
:102690008091AF03882329F080688093AF032FBF18
:1026A000089581E08093AF032FBF0E94740E0895B8
:1026B00078941F920F920FB60F9211242F933F938D
:1026C0004F935F936F937F938F939F93AF93BF933A
:1026D000EF93FF93E6E8F0E08081918120813181E2
:1026E0008FB7F89499273093F1032093F00321E0FA
:1026F000209362088FBF0E944413FF91EF91BF9116
:10270000AF919F918F917F916F915F914F913F9189
:102710002F910F900FBE0F901F90189578941F92D5
:102720000F920FB60F9211242F933F934F935F9305
:102730006F937F938F939F93AF93BF93EF93FF9389
:1027400080916F008D7F80936F0078949FB7F8948D
:1027500080917F07813019F482E080937F07892F71
:1027600099278FBF0E944413FF91EF91BF91AF91C2
:102770009F918F917F916F915F914F913F912F9199
:102780000F900FBE0F901F9018951F93CF93DF935C
:1027900010915002E12FFF27EE0FFF1FE450FA4F78
:1027A000C081D181118210820E94E105112321F4A0
:1027B00061E0CE010E941B0EDF91CF911F91089521
:1027C0001F93CF93DF93382F80915802882309F409
:1027D00052C08091E7029927282F882309F44BC023
:1027E000332329F480918703281708F444C0E0912B
:1027F000E502FF27EE0FFF1FEB5AF74FC081D18193
:10280000CE010E941D04182F8091AE029091AF025C
:10281000892B89F58091D302853068F1873141F4A5
:1028200080918D068D7F80938D068DE00E94C6017C
:102830009091D302892F8651823010F0953011F497
:102840008CE00BC0963011F48DE007C09B3021F076
:10285000933111F0943119F48EE08093D302D09328
:10286000AF02C093AE0211501093050681E0809331
:102870007A031092AD02DF91CF911F9108951F93BB
:10288000CF93DF93EC01FB014530D0F114818091AF
:10289000DF02811738F09927811B91098F37910545
:1028A0000CF443C18091DB029091DC02019690937D
:1028B000DC028093DB02455055273596BF018BEB38
:1028C00093E00E943F2C1093DF020E94FC012091B4
:1028D000BB033091BC03322F2227330F330F442721
:1028E0005527621B730B840B950B60930103709348
:1028F0000203809303039093040385E10E94C601C1
:102900008091D3028231B1F58FB7F8949927409125
:102910005E0250915F028FBF8F812E819927982F81
:1029200088273327822B932B48175907F9F08F5F9D
:102930009F4F09F409C1898528859927982F8827F1
:102940003327822B932B2091590230915A0228175A
:10295000390709F0F9C080918D068D7F80938D062F
:102960008EE08093D3028DE00E94C6018091D30255
:10297000823129F08F3019F08E3009F08CC08FB77A
:10298000F894992740915E0250915F028FBF8F812A
:102990002E819927982F88273327822B932B48172E
:1029A000590711F060E05BC0898528859927982F29
:1029B00088273327822B932B2091590230915A027A
:1029C0002817390709F0C0C064E0CE010E94250233
:1029D000FC01908180915B02891709F0B5C02091BC
:1029E000AE023091AF021092AF021092AE0280910F
:1029F0008D068D7F80938D0640917A03E091E502EC
:102A0000FF27EE0FFF1FEB5AF74F808191812817A8
:102A10003907C1F4442399F4C9010E94FF0380914E
:102A2000E5029091E702992351F08F5F8093E502D0
:102A3000813011F41092E50291509093E70281E009
:102A40000E94E01380E00E94650C80E00E94090C67
:102A50008EE08093D3028DE00E94C60161E0CE013A
:102A60000E9422042091AE023091AF02882321F00F
:102A7000232B29F080E109C0232B09F065C0809148
:102A80008D068D7F80938D0683E18093D3028DE048
:102A90000E94C60159C08051823008F055C0898516
:102AA00028859927982F88273327822B932B2091CD
:102AB000590230915A028217930709F045C08F815D
:102AC0002E819927582F44273327422B532B8FB71A
:102AD000F894992720915E0230915F028FBF4217D0
:102AE000530791F14F5F5F4F51F52EC060E0CE016B
:102AF0000E942204882319F01093D302C8CF8FE0DC
:102B00008093D30221C08091AE029091AF020E94C7
:102B100002138823C9F460E0CE010E9422048823B6
:102B200099F081E08093B2020FC08091DD02909114
:102B3000DE0201969093DE028093DD02E1CE1091D9
:102B4000D302103101F7D2CFCE01DF91CF911F9187
:102B500008952F923F925F926F927F928F929F92F1
:102B6000AF92BF92CF92DF92EF92FF920F931F939B
:102B7000CF93DF935B016C01C0E0D0E0EAE6F6E0C2
:102B8000608561FF79C12081318142815381E48078
:102B9000F58006811781D601C501821B930BA40B1A
:102BA000B50B8E159F05A007B10708F465C160FF3E
:102BB00003C06D7F608708C02E0D3F1D401F511F51
:102BC0002083318342835383C23049F1C33018F4E8
:102BD000CC2341F057C1C33009F4EDC0C43009F033
:102BE00051C146C100914E0210914F020E94FC015A
:102BF0001F930F939F938F937F936F9380E092E047
:102C00009F938F930E944F2C0E94A40B8DB79EB769
:102C100008960FB6F8949EBF0FBE8DBF33C150907B
:102C20004D0AC091E102D091E202209076083090E6
:102C300077088FB7F894282F33278091E3028823F1
:102C400019F02FBF25E0B3C081E08093E3022FBFCE
:102C50000E94FC013B014C0160936906CE010E9479
:102C6000EF03FC018081E1802281A3803327442788
:102C70005527542F432F322F22279927AA27BB27C6
:102C8000B82FAA2799278827FF2400271127870113
:102C9000FF24EE248E299F29A02BB12BBB24CC240A
:102CA000DD248A299B29AC29BD29282B392B4A2BC5
:102CB0005B2B20937D0830937E0840937F085093D0
:102CC0008008CE010E94EF03FC018081E180228117
:102CD000A380332744275527542F432F322F2227F1
:102CE0009927AA27BB27B82FAA2799278827FF2427
:102CF000002711278701FF24EE248E299F29A02B6E
:102D0000B12BBB24CC24DD248A299B29AC29BD29E5
:102D1000282B392B4A2B5B2B8091E402680E711C07
:102D2000811C911C26193709480959092383BB279F
:102D3000A52F942F832F8283CA01AA27BB278183C3
:102D4000252F332744275527208394E0590E252D1E
:102D5000AE01B10181E80E9463129927D82E882321
:102D600011F1E0907D08F0907E0800917F081091AD
:102D70008008CE010E94EF03FC01E382BB27A12F54
:102D8000902F8F2D8283C801AA27BB278183E12E34
:102D9000FF2400271127E0821092E3028D2D99274E
:102DA000282F882321F482E08093E0026BC02093D7
:102DB000670286E15EC09091D302892F80518230F4
:102DC00008F460C09731A1F48091AE029091AF02F7
:102DD000892B61F48091A802882331F480916802E4
:102DE0008F3F11F486E140C085E03EC08CE03CC0DE
:102DF0009231A9F19F30A9F5209169022F3F79F016
:102E0000809168028F3F59F099270196820F911D9A
:102E100062E070E00E94D32B6093680203C08FEFE2
:102E2000809368028FEF809369028091CF02909126
:102E3000D00201969093D0028093CF028091A80295
:102E4000882369F4809168028F3F49F48091D10210
:102E50009091D20201969093D2028093D1028EE09B
:102E600003C09A3019F48BE08093D3028DE001C047
:102E700087E10E94C60106C021963996C530D1056A
:102E800009F07ECE8AE00E94C601DF91CF911F91AA
:102E90000F91FF90EF90DF90CF90BF90AF909F90F9
:102EA0008F907F906F905F903F902F900895EF925A
:102EB000FF920F931F938091AE03882361F52091B9
:102EC0007208309173084091740850917508EFB7FB
:102ED000F894FF2760917B0370917C0380917D03C0
:102EE00090917E03E0908208F0908308009184081E
:102EF000109185086E0D7F1D801F911FEFBF2093DD
:102F000072083093730840937408509375081092B8
:102F1000AE030E94C7050E94FC010E94A9151F91E3
:102F20000F91FF90EF900895AF92BF92CF92DF92F2
:102F3000EF92FF920F931F930E94FC015B016C01C3
:102F40008FB7F89499271092E4038FBFFFEFEF2E0D
:102F5000FFEFFF2EFFEF0F2FFFE71F2F60E0EAE6E6
:102F6000F6E0808581FF1CC080819181A281B381C0
:102F7000A6019501281B390B4A0B5B0BDA01C9012D
:102F80002481358146815781281B390B4A0B5B0B05
:102F90002E153F05400751071CF479018A0161E0B5
:102FA000399636E0E739F307E1F66623D9F01E14C7
:102FB0001F04100611062CF0C601B5010E94A915C8
:102FC00011C0E0927208F092730800937408109395
:102FD000750881E08093AE03A8019701C601B50191
:102FE0000E94C7051F910F91FF90EF90DF90CF9047
:102FF000BF90AF9008951F93CF93DF938FB7F8944E
:10300000992720919C02C0919D02D0919E0210911F
:1030100089038FBF222309F054C08B85883C09F0B7
:1030200050C0FE013C9680918E02882329F41098AE
:1030300081E080938E0203C0109A10928E0220814C
:10304000622F77272295269527702F5FB3E075951D
:103050006795BA95E1F7637070706F5F7F4F88E195
:1030600090E00E94D32B269F202D112433272C5F24
:103070003F4FA901BF0187E996E00E943F2CADEBCD
:10308000B3E0E7E9F6E080E201900D928150E1F7CC
:103090001092BC031092BB038091DF028F5F80937C
:1030A000DF020E94FC01609301037093020380938E
:1030B0000303909304038FE092E00E94662C0E9429
:1030C000A40B8FB7F894E12FFF27EE0FFF1FEE5AE6
:1030D000FD4FD183C08320919002112311F02B7FEB
:1030E00001C02D7F2093900210929B0299278FBFE1
:1030F000DF91CF911F910895AF92BF92CF92DF924F
:10310000EF920F931F935B016C010E94FC01AB01D6
:10311000BC0111E0E12E9601850183E00E94EE0CD6
:103120001F910F91EF90DF90CF90BF90AF900895D7
:103130006623E9F48091C5029091C602A091C7026E
:10314000B091C8020196A11DB11D8093C502909354
:10315000C602A093C702B093C80282E18093D30253
:1031600062E070E080E090E00E947C180895809119
:10317000C9029091CA0201969093CA028093C90233
:10318000633069F48091B202813049F41092B20246
:1031900080E18093D3028DE00E94C6010895809162
:1031A0008D0681FF02C08FE001C08EE08093D302C4
:1031B0000895DF92EF92FF920F931F93CF93DF93C7
:1031C000EC01D62E0E94FD03FC01808199278038F6
:1031D00021F0813809F07BC047C0DD20A9F58F813F
:1031E0009927982F88272E813327822B932B8F5F47
:1031F0009F4F99F08091B7029091B802A091B902C7
:10320000B091BA020196A11DB11D8093B7029093AF
:10321000B802A093B902B093BA028091B302909120
:10322000B402A091B502B091B6020196A11DB11DE4
:103230008093B3029093B402A093B502B093B60208
:103240008091D3028F5F0AC08091BB029091BC0233
:1032500001969093BC028093BB0284E18093D302D9
:103260008DE00E94C60133C01092E302DD2059F4C4
:103270001091E4020E94FC0120916906621B160F66
:1032800016951093E402E0907D08F0907E0800917E
:103290007F0810918008CE010E94EF03FC01E382B9
:1032A000BB27A12F902F8F2D8283C801AA27BB2770
:1032B0008183E12EFF2400271127E0821092E00293
:1032C0006D2D8091E1029091E2020E949818DF91A9
:1032D000CF911F910F91FF90EF90DF900895AF92E3
:1032E000BF92CF92DF92EF920F931F93E0917A02F9
:1032F000E330F9F0FF27EE0FFF1FEE0FFF1FE2593B
:10330000FC4FA080B180C280D380A114B104C1045D
:10331000D10421F487E10E94C6010BC00E94FC0188
:10332000AB01BC01E1E0EE2E9601850184E00E9434
:10333000EE0C1F910F91EF90DF90CF90BF90AF9068
:103340000895AF92BF92CF92DF92EF920F931F93A7
:10335000CF93DF93E82E5A016B0180917A02CE2D34
:10336000DD278330A1F4FE01EE0FFF1FEE0FFF1FDC
:10337000E259FC4F4083518362837383E0927A0267
:10338000C954DC4F8883E81609F47CC047C08E011D
:10339000000F111F000F111F02591C4FF80140832D
:1033A0005183628373838091960681FF17C00E94C8
:1033B000FC0120918E0630918F064091900650912D
:1033C0009106621B730B840B950B6A0D7B1D8C1D84
:1033D0009D1DF801608371838283938350917A02EB
:1033E000E52FFF27EE0FFF1FEE0FFF1FE259FC4FE7
:1033F00080819181A281B381A816B906CA06DB0635
:1034000010F5C954DC4F5883E0927A02F3E0EF16CE
:10341000C9F1F801A080B180C280D380A114B104A9
:10342000C104D10421F487E10E94C6012BC00E948F
:10343000FC01AB01BC0111E0E12E9601850184E0A5
:103440000E94EE0C1FC0252F332729543C4FF90151
:103450004081433091F0542FE42FFF27EE0FFF1FE0
:10346000EE0FFF1FE259FC4F80819181A281B38151
:10347000A816B906CA06DB0630F7F901E082C9547E
:10348000DC4F4883DF91CF911F910F91EF90DF9038
:10349000CF90BF90AF9008952F923F924F925F923E
:1034A0006F927F928F929F92AF92BF92CF92DF9254
:1034B000EF92FF920F931F93CF93DF93CDB7DEB7B9
:1034C000AA970FB6F894DEBF0FBECDBF19A21AA2FD
:1034D0001BA21CA2E82FFF27E831F10510F00C9485
:1034E0004026EA59FF4FEE0FFF1F0590F491E02DA3
:1034F00009940E942D0E0C9440260E94C5130C9432
:1035000040268FB7F8941092400A2091830740E03C
:10351000283009F441E030E0293009F431E0442357
:1035200011F4332351F010928307E0910406FF2732
:10353000EE0FFF1FE750FC4F108299278FBF4423E7
:1035400011F4332331F19FB7F89480917C088F5F99
:1035500080937C088091F403833479F42091F305FF
:103560008091F205821779F0822F8F5F8093F305A7
:10357000863048F01092F30506C0A0E0442309F419
:10358000A1E071E002C0A0E070E0892F99278FBF11
:1035900006C0222311F010E06BC0A0E070E08FB7EE
:1035A000F894992720918F028FBF222341F08FB783
:1035B000F89499272AE0209383078FBF42C08FB7E2
:1035C000F89499276091F9034091FB038FBF8FB75F
:1035D000F894282F332750E09091F2058091F3055D
:1035E000981709F451E02FBF552341F5662331F5B3
:1035F0005FB7F89482E08093F9038FB7F894282F8F
:10360000332740E09091F2058091F305981709F473
:1036100041E02FBF442311F080E006C0E091F305A4
:10362000FF27EE50FA4F82818093FA0383E4809360
:10363000F40310920406852F99270EC041504230A2
:1036400010F010E00BC08FB7F894992725E4209371
:10365000F40321E0209304068FBF11E0772341F0AB
:103660008FB7F8949927A09398028FBF0E94ED011D
:103670008FB7F894E82EFF24809183078A3029F4CD
:103680000E940D06EFBE0C944026EFBE112311F4EC
:103690000C9440262FB7F894332710924A0A1092C0
:1036A000490A1092F20381E0809383072FBF0E94A2
:1036B0006006882311F40C9440268FB7F89499275C
:1036C00029E0209383078FBF0E9448020C94402674
:1036D0000E94A8010C9440260E94F2010C944026FE
:1036E0008091C100877F8093C1008091C1008F7E4F
:1036F0008093C1000C94402610929502109294027F
:103700008FB7F8949927409198028FBF80919902C2
:10371000811143E0209192023091930280919A02AC
:10372000882311F00C94402680915002882311F0D8
:103730000C9440266091FC057091FD05621773079B
:1037400011F00C9440260E94580E0C9440260E94C2
:10375000FB170C9440260E940E0E0C9440260E94EB
:1037600057170C9440260E9494170C94402690E022
:103770008091E702882309F491E0992311F00C94D9
:103780004026E091E502FF27EE0FFF1FEB5AF74FAF
:10379000808191810E94FF038BE00E94C6010C94FE
:1037A000402680E00E94E0130C9440268091D302D2
:1037B000853011F08C3049F58FB7F8949927209116
:1037C000AF032F5F2093AF038FBF8091BA0388238D
:1037D00009F045C08091F902882309F040C080912A
:1037E000DA09813049F490E080917F07882309F459
:1037F00091E09923A1F102C0853089F183E08093A3
:10380000F9020E94441385E01FC0843111F0813019
:1038100049F58FB7F89499272091AF032F5F209334
:10382000AF038FBF8091BA038823C9F48091F90256
:103830008823A9F48091DA09813089F081E08093AE
:10384000F9020E94441386E08093BA030E94231277
:103850008091D3028F5F8093D3020C9440260E9404
:10386000231209C0843059F48091410A8093470A99
:1038700085E08093D3020E94F7010C9440268330A8
:1038800021F41092D3020C944026863151F40E9408
:10389000F60DAA27BB27BC01CD010E947C1887E149
:1038A000DACF8E30E9F46091E503772788279927EE
:1038B000209172023091730240917402509175020E
:1038C000220F331F441F551F0E94A02B0E947C18FB
:1038D0008FE08093D30281E00E94090C0C94402673
:1038E000893069F46091470A77276A5F7F4F88279C
:1038F00077FD8095982F0E947C188AE0ACCF8031AC
:10390000F1F500910506C090AE02D090AF02E090B4
:103910005902F0905A02C6010E94D50CFC01809118
:10392000DF0280838091E002882321F581E080938B
:10393000E002F0927708E0927608D092E202C0921C
:10394000E1020F5F00934D0A109267020E94360554
:103950006091B00277276F5F7F4F0E94BF2BAA272D
:10396000BB27AC01BD0182E00E940D0D10927A03CD
:1039700081E171CF85E080937A0383E17ACF87304C
:1039800009F09AC085E093E00E943C0264E085E083
:1039900093E00E942502FC018091A802882319F07F
:1039A00080E090E003C08091680299278183809134
:1039B000470A82838091B1028F5F8093B102815068
:1039C0008083DF01139613828091A802882381F4FB
:1039D00040E08091E70221E030E0281B310980912E
:1039E000B5039927281739070CF041E0442319F053
:1039F0008C9181608C93E0905C02F0905D028091EC
:103A0000D602882311F424E045C00091DF0211277B
:103A10000E94FC01209101033091020340910303B5
:103A200050910403621B730B840B950B60507E4F07
:103A30008F4F9F4F2AE096958795779567952A95A2
:103A4000D1F77093BC036093BB0360E585E093E01E
:103A50000E942502FC0104833596ABEBB3E082E2C1
:103A60000D9001928150E1F78091D7029091D80298
:103A7000A091D902B091DA020196A11DB11D8093E7
:103A8000D7029093D802A093D902B093DA02109291
:103A9000D60227E245E053E0B70180E80E946312B6
:103AA0002FEF3FEF30935D0220935C02882311F4E7
:103AB00088E0D1CE8BE0DDCE833151F484E1809378
:103AC000D3020E94F70181E00E94650C0C9440260D
:103AD0008B3011F00C94402681E00E944A0C84E166
:103AE000C8CE2FB7F89433278091B1038093630237
:103AF00082E08093D4022FBF80916302882311F06B
:103B00000C9440268091B2039091B3030E94371227
:103B1000082F1127002311F40C9440260E94F10D68
:103B2000602F8091B2039091B303B4C18091BA0326
:103B30001092BA03853011F4129803C0863029F42C
:103B4000129A8091D3028F5F94CE873011F40C9437
:103B500040268093BA030C9440268FB7F894992797
:103B60002091AF032F5F2093AF038FBF8091BA03E3
:103B7000813009F07CC1809181078F5F809381073C
:103B8000863008F074C1409084075090850780917A
:103B9000F902882309F062C18091DA09853009F0C1
:103BA0005DC10E94770D882309F458C18091620895
:103BB000882309F053C1B20181E00E94E103882308
:103BC00011F490E00BC021E630E0420E531EF201EA
:103BD00091812FE93FEF420E531E9F708091600448
:103BE000981781F090936004289885EC8EBD0DB4F1
:103BF00007FEFDCF8EB590689EBD0DB407FEFDCFCC
:103C00008EB5289A289882EC8EBD0DB407FEFDCFA4
:103C10008EB589E08EBD0DB407FEFDCF8EB5289A16
:103C20000E94BC036B017C01B20183E00E94E103AE
:103C3000882319F4E0E0F0E006C0D2018C918550B1
:103C4000F201E80FF11D289881E88EBD0DB407FE42
:103C5000FDCF8EB51EBC0DB407FEFDCF8EB5289AE4
:103C60008F71893079F0289882EC8EBD0DB407FEF3
:103C7000FDCF8EB586E08EBD0DB407FEFDCF8EB5AF
:103C8000289AECC08FB7F89499272F9A4091840016
:103C9000509185008FBF2F98289880E68EBDD20165
:103CA0009C910DB407FEFDCF8EB59EBD8EEF282EE4
:103CB000290EB6E0B21510F0622D01C067E0920146
:103CC0002F5F3F4FD901962F7D910DB407FEFDCF99
:103CD0008EB57EBD9150C1F76150260F311D6F5FCB
:103CE0002F5F3F4F3AA729A74C195D094E555F4FEB
:103CF0003A01882477FC8094982C6C0C7D1C8E1CD7
:103D00009F1C3097D1F12081E1808281A380992787
:103D1000AA27BB27BA2FA92F982F882733274427F4
:103D20005527522F442733272227FF240027112706
:103D30008701FF24EE242E293F29402B512BBB2441
:103D4000CC24DD242A293B294C295D29822B932B65
:103D5000A42BB52B86199709A809B9098383292FA4
:103D60003A2F4B2F552722839D0144275527218326
:103D70008B2F9927AA27BB278083922D961B0EC0D5
:103D8000A9A5BAA52C910DB407FEFDCF49A55AA54A
:103D90004F5F5F4F5AA749A78EB52EBD915080F750
:103DA0000DB407FEFDCF8EB5289A289882EC8EBD03
:103DB0000DB407FEFDCF8EB586E08EBD0DB407FEB7
:103DC000FDCF8EB5289A3097D1F12081E180828194
:103DD000A3809927AA27BB27BA2FA92F982F882716
:103DE000332744275527522F442733272227FF24E0
:103DF000002711278701FF24EE242E293F29402B7D
:103E0000512BBB24CC24DD242A293B294C295D29B4
:103E1000822B932BA42BB52B860D971DA81DB91DA6
:103E20008383292F3A2F4B2F552722839D01442727
:103E3000552721838B2F9927AA27BB278083B4017D
:103E4000A301C2010E94A10386E08093DA0984E005
:103E50008093F9021092860883E004C085E0809385
:103E6000860882E08093BA030E94231209C7109249
:103E7000BA030E94231200918608E0908407F09014
:103E80008507F70182858F3309F0FAC60E94F10D8C
:103E9000602FC7010E94D918F3C62FBFF1C68FB794
:103EA000F894282F3327809157088823B1F3E091A5
:103EB0007B08AE2FBB27AA0FBB1FA859BC4F0D9084
:103EC000BC91A02DBA83A9832FBFFD0182850781F4
:103ED000F6808F3309F0C8C189819A810E94FD0361
:103EE000FC01108169817A81645F7F4F29813A8169
:103EF000D9018D91B8A3AF8F8D50482F5527802FB2
:103F00009927B82FAA278F2D9927A82BB92B8FB7C0
:103F1000F894992720915E0230915F028FBFA2171B
:103F2000B30721F0AF5FBF4F09F080C6103809F426
:103F300060C1113809F0B2C189819A810E94EF03F2
:103F40009AA789A7DC01AC90FC016180E280238004
:103F50000E94FC01FF2400271127102F0F2DFE2C9B
:103F6000EE24BB24CC24DD24DA2CCC24BB24AA24CC
:103F7000772488249924430177246624A628B72827
:103F8000C828D928332444245524A228B328C42877
:103F9000D528EA28FB280C291D29E60EF71E081F44
:103FA000191FE9A5FAA5E382BB27A12F902F8F2D1A
:103FB0008283C801AA27BB278183E12EFF24002723
:103FC0001127E08289819A810E94D50CFC01209101
:103FD000DF028081821738F09927821B91098F3781
:103FE00091050CF42AC681E08093D6028091D30219
:103FF0008950823008F052C180918D068D7F809368
:104000008D06EF8DF8A1808527819927982F882725
:104010003327822B932B90935D0280935C0287E081
:104020008093D3020E94F7018091CB029091CC0241
:10403000A091CD02B091CE020196A11DB11D809339
:10404000CB029093CC02A093CD02B093CE0280E03D
:104050000E944A0C8091EC029091ED02019690939F
:10406000ED028093EC020E94AA048B5F682F898185
:104070009A810E9425028C0189819A810E94A30D58
:10408000080F111DF80143814F5F43838081218117
:104090009927782F66273327622B732BE280809134
:1040A000A802882311F010E001C0142F1CA3EBA27A
:1040B0007AA369A35091E802F090E902352F00E05D
:1040C00025C0E32FFF27EE0FFF1FEE0FFF1FE9575D
:1040D000F74F80819181A281B381CCA02BA1E9A16E
:1040E000FAA18E179F0709F0ABC5A21709F0A8C562
:1040F000BC1508F4A5C58091AB029091AC02019665
:104100009093AC028093AB02C9C00F5F0F15C9F644
:104110009DC589E08093E80203C051505093E802A6
:10412000E091E8022E2F3327220F331F220F331F77
:104130002957374F8DA19EA1AFA1B8A5F901808362
:104140009183A283B3838091E9028A3018F48F5F50
:104150008093E9028091A802882309F09FC0909182
:1041600061049923C9F08091EB03E82FFF27EE0F3C
:10417000FF1FE857F84F0081118111821082915082
:10418000909361048F5F8093EB03813011F4109260
:10419000EB030115110551F48091A9029091AA0237
:1041A00001969093AA028093A90264C59091E702B8
:1041B000992309F053C58091E602A82FBB27AA0FC7
:1041C000BB1FAB5AB74F29813A812D933C938F5F28
:1041D0008093E602813011F41092E6029F5F909383
:1041E000E7028CE00E94C6011A83098357C08BE066
:1041F0001EC089819A810E943F149A8389834EC090
:104200008091D3028031B1F4E981FA8187812681DE
:104210009927982F88273327822B932B2091590297
:1042200030915A028217930709F038C08FE08093CB
:10423000D30234C0813191F5E981FA8187812681E9
:104240009927982F88273327822B932B2091590267
:1042500030915A028217930709F58091AE0290912E
:10426000AF020E9402131AC0802F9927582F4427AB
:104270008F2D9927482B592B8FB7F8949927209188
:104280005E0230915F028FBF4217530719F04F5FF4
:104290005F4F21F48FB7F89499278FBF9FB7F89499
:1042A00080917B08A82FBB27AA0FBB1FA859BC4F22
:1042B00029813A812D933C938F5F80937B088330D3
:1042C00010F010927B088091570881508093570816
:1042D000892F99278FBFE3CD8FB7F8949927109234
:1042E0007E0710927D071092D9091092D80910927A
:1042F000FB021092FA021092FB051092FA058FBF92
:10430000BFC42FB7F89433278091F50380936602DA
:1043100082E08093D5022FBF80916602882309F046
:10432000AFC4209A289A8091DA09882309F074C0D2
:104330008EEF91E0019701960197E1F716982F987B
:1043400086E090E0019701960197E1F7169A289888
:1043500083EC8EBD0DB407FEFDCF8EB51EBC0DB433
:1043600007FEFDCF8EB5289A289882EC8EBD0DB43D
:1043700007FEFDCF8EB588E08EBD0DB407FEFDCFE4
:104380008EB5289A8EEF91E0019701960197E1F79B
:1043900028988EEC8EBD0DB407FEFDCF8EB58DE452
:1043A0008EBD0DB407FEFDCF8EB5289A289889ECF6
:1043B0008EBD0DB407FEFDCF8EB587EC8EBD0DB45E
:1043C00007FEFDCF8EB5289A289885EC8EBD0DB4DA
:1043D00007FEFDCF8EB580E88EBD0DB407FEFDCF84
:1043E0008EB5289A109260048DE08093B0032898CF
:1043F00088EC8EBD0DB407FEFDCF8EB58DE68EBD6B
:104400000DB407FEFDCF8EB5289A2F9A81E08093D8
:10441000DA090E94010334C40E94441331C410928B
:10442000E002609167028091E1029091E2020E94B5
:10443000981826C44FB7F894552780917A02992787
:10444000FC01E954FC4F208120937A024FBF609118
:104450007A02082F7C01EE0CFF1CEE0CFF1C4EE6CE
:1044600053E0E40EF51E1DC07727FB01EE0FFF1F82
:10447000EE0FFF1FE259FC4FA080B180C280D380B5
:10448000D7012D913D914D915C91A21AB30AC40AB6
:10449000D50AA082B182C282D38269547C4FFB01CB
:1044A0006081633009F70E946F190130E1F001303B
:1044B00020F0023009F043C02CC010927F0380E04E
:1044C00090EDA2E0B0E08093800390938103A093ED
:1044D0008203B093830340E050ED62E070E080E03F
:1044E0000E94A11940C01092ED0780E090E6A9E07B
:1044F000B0E08093EE079093EF07A093F007B0939E
:10450000F10740E050E669E070E081E00E94A11907
:1045100072C01092FC0280E090E1AEE0B0E08093C7
:10452000FD029093FE02A093FF02B093000340E0CF
:1045300050E16EE070E082E00E94A119CBC0409192
:104540000100509102006091030070910400802FDF
:104550000E94A119013009F44EC0013020F0023050
:1045600009F08EC3B7C02091EA023091EB024427D4
:104570005527EAE0220F331F441F551FEA95D1F754
:1045800060916A0270916B0280916C0290916D0251
:1045900003EF0E94A72960936A0270936B028093D5
:1045A0006C0290936D021092EB021092EA0220913D
:1045B000EC023091ED02442755277AE0220F331F99
:1045C000441F551F7A95D1F760916E0270916F026A
:1045D00080917002909171020E94A72960936E02EF
:1045E00070936F0280937002909371021092ED02AB
:1045F0001092EC0245C300917B0210917C026CE0AA
:10460000C8010E94EA0C7C01C8010E943C02809112
:10461000F4029091F50201969093F5028093F402D2
:104620000197F7018183892F9927808320916A025E
:1046300030916B0240916C0250916D022330310534
:104640004105510518F42FEF3FEF06C060E070ED13
:1046500082E090E00E94E62BF7012383832F9927C5
:10466000828320916E0230916F02409170025091CE
:104670007102233031054105510518F42FEF3FEF4A
:1046800006C060E070ED82E090E00E94E62BF7014A
:104690002583832F992784838091720290917302DE
:1046A000A0917402B09175028187292F3A2F4B2F68
:1046B000552720879D014427552727838B2F99272E
:1046C000AA27BB278683809177028287809179020F
:1046D0008387D6C2E0907D02F0907E026EE2C70131
:1046E0000E942C028C01C7010E943C028091F602BC
:1046F0009091F70201969093F7028093F60201974A
:104700008C83F8018183892F99278B838083809103
:10471000A9029091AA028E838383892F99278D8382
:1047200082838091AB029091AC0288878583892F28
:1047300099278F8384838091B3029091B402A091D2
:10474000B502B091B6028C878187292F3A2F4B2F63
:1047500055272B8720879D01442755272A872783A4
:104760008B2F9927AA27BB27898786838091B70239
:104770009091B802A091B902B091BA02888B858756
:10478000292F3A2F4B2F55272F8724879D01442708
:1047900055272E8723878B2F9927AA27BB278D87FD
:1047A00082878091BB029091BC028A8B8787892F78
:1047B0009927898B86878091BD029091BE02A09136
:1047C000BF02B091C0028E8B838B292F3A2F4B2FC3
:1047D00055272D8B228B9D01442755272C8B218B10
:1047E0008B2F9927AA27BB278B8B808B8091C102A7
:1047F0009091C202A091C302B091C4028A8F878BAC
:10480000292F3A2F4B2F5527298F268B9D0144277F
:104810005527288F258B8B2F9927AA27BB278F8B6E
:10482000848B8091C5029091C602A091C702B0917D
:10483000C8028D8F838F292F3A2F4B2F55272C8F0E
:10484000228F9D01442755272B8F218F8B2F99274E
:10485000AA27BB27282E808F8091C9029091CA0277
:104860008E8F858F892F9927382E848F8091CB0248
:104870009091CC02A091CD02B091CE02482E81A39E
:10488000292F3A2F4B2F5527622E20A39D01442715
:104890005527522E278F8B2F9927AA27BB27C82E43
:1048A000868F8091CF029091D002D82E83A3892F3A
:1048B0009927E82E82A38091D1029091D202F82EFE
:1048C00085A3892F9927A82E84A38091D702909140
:1048D000D802A091D902B091DA0281A7292F3A2FEC
:1048E0004B2F552720A79D014427552727A38B2F02
:1048F0009927AA27BB2786A38091DB029091DC022F
:1049000083A7892F992782A78091DD029091DE02EB
:1049100085A7892F992784A720917D0230917E0257
:104920003AA729A700914E0210914F020E94FC0164
:10493000BB24BA2CAA242F2D3327A22AB32ABF9234
:10494000AF922E2D3327322F22274D2D5527242B82
:10495000352B3F932F93772488249924982C872CE8
:10496000762C6624DD24EE24FF24FC2CEE24DD24AA
:10497000CC24252D332744275527A9013327222767
:10498000C22AD32AE42AF52A242D3327442755277F
:10499000C22AD32AE42AF52A6C287D288E289F284B
:1049A0009F928F927F926F92232D3327322F22274F
:1049B000AE8D4A2F5527242B352B3F932F93BC8D3B
:1049C0002B2F332744275527CC24D22EE32EF42E29
:1049D000332444245524522C442433242224EB8DA4
:1049E0002E2F332744275527A90133272227222A90
:1049F000332A442A552AFD8D2F2F33274427552744
:104A0000222A332A442A552AC228D328E428F52802
:104A1000FF92EF92DF92CF92A98D2A2F332744275E
:104A200055278824922EA32EB42EBF892B2F3327EF
:104A300044275527522F442733272227E88DCE2E8F
:104A4000DD24EE24FF247601DD24CC242C293D290D
:104A50004E295F29FA8DCF2EDD24EE24FF242C2948
:104A60003D294E295F29822A932AA42AB52ABF927A
:104A7000AF929F928F92AD892A2F332744275527D3
:104A80008824922EA32EB42EBB89CB2EDD24EE24B7
:104A9000FF245C2D442733272227EC89CE2EDD24EA
:104AA000EE24FF247601DD24CC242C293D294E2937
:104AB0005F29FE89CF2EDD24EE24FF242C293D29F9
:104AC0004E295F29822A932AA42AB52ABF92AF923F
:104AD0009F928F924989242F3327322F2227AA8928
:104AE0004A2F5527242B352B3F932F93BF852B2FF0
:104AF0003327442755278824922EA32EB42EED85E4
:104B0000CE2EDD24EE24FF245C2D442733272227DC
:104B1000FE85CF2EDD24EE24FF247601DD24CC2477
:104B20002C293D294E295F29A889CA2EDD24EE248F
:104B3000FF242C293D294E295F29822A932AA42A61
:104B4000B52ABF92AF929F928F92BB852B2F3327AE
:104B5000442755278824922EA32EB42EE985CE2EE5
:104B6000DD24EE24FF245C2D442733272227FA85F9
:104B7000CF2EDD24EE24FF247601DD24CC242C2945
:104B80003D294E295F29AC85CA2EDD24EE24FF2461
:104B90002C293D294E295F29822A932AA42AB52A45
:104BA000BF92AF929F928F92BF812B2F3327322FCC
:104BB0002227E8854E2F5527242B352B3F932F9303
:104BC000FD812F2F3327322F2227AE814A2F5527E1
:104BD000242B352B3F932F93BB812B2F3327322F41
:104BE0002227EC814E2F5527242B352B3F932F93D3
:104BF0001F930F939F938F937F936F9384E192E022
:104C00009F938F930E944F2C2DB73EB7225D3F4F4D
:104C10000FB6F8943EBF0FBE2DBF0E94A40B49A54E
:104C20005AA550937E0240937D022AC0103809F4A1
:104C3000E0CA113809F032CBE3CA1092D602D6C9C5
:104C40003F5F3A3008F461CA30E05FCA18A7EFA2AC
:104C50007EA36DA3552309F45CCA5FCA8091A902A3
:104C60009091AA0201969093AA028093A902C8018A
:104C70000E94FF038091D302873009F00FCBB7CA9F
:104C8000AA960FB6F894DEBF0FBECDBFDF91CF91CD
:104C90001F910F91FF90EF90DF90CF90BF90AF905A
:104CA0009F908F907F906F905F904F903F902F904C
:104CB0000895809178088F3FB1F0282F3327F901AC
:104CC000E157FC4F8081809378088F3F11F48093E7
:104CD000480A8FEF80832F3F31F0822F0E944C1AB9
:104CE00081E090E0089580E090E00895EF920F93C6
:104CF0001F93CF93DF93EFB6F89414BE88E10FB6FD
:104D0000F89480936000109260000FBE48E150E07C
:104D10006FEF70E08FE893E00E94482C8FEF809354
:104D200078088093480A56985E9854985C988091C9
:104D30006F008F7D80936F00209A289A279A2F9872
:104D40000E9A169A8DEF93E09093860380938503D5
:104D50001092EA038AE58093B60381E08093810094
:104D600080E28093B60083E08093B100809184005C
:104D7000909185004AE720918400309185002817A2
:104D8000390708F44150442311F0C901F4CF909140
:104D9000B2008091B2008917E1F320918400309134
:104DA00085009091B2008091B2008917E1F3809163
:104DB000840090918500821B930B409635E0969578
:104DC00087953A95E1F790937A0880937908109245
:104DD000B1008091B1008093810080918100809327
:104DE000B6001092B20010928500109284008FEFEE
:104DF00087BB87B386BB8091B6008571E1F70A9ABD
:104E0000099A089A129A119A109A18B88FEF87B9CE
:104E10000C981498109285001092840080916F0075
:104E2000816080936F0080918100887F8260809391
:104E30008100109295001092940080917100816021
:104E40008093710080919100887F826080939100AF
:104E50000E9459268823E1F782EF97E09093890713
:104E60008093880711E0109361041092EB0380E0B7
:104E700092E09093AC038093AB038AE08093840329
:104E800088E08093410A80E28093880383E08093E6
:104E9000E503109387031092B50383E390E09093AA
:104EA000E3038093E20380E098E2A0E0B0E0809327
:104EB000A7039093A803A093A903B093AA0380919A
:104EC0004E0290914F020196AA27BB278093E603DA
:104ED0009093E703A093E803B093E9030FEF0093E7
:104EE000F30380E00E942C0D2FEA38E03093690331
:104EF0002093680322E139E030936B0320936A0327
:104F000025E739E030936D0320936C032FEF3FEFDB
:104F1000309368082093670830936A0820936908E3
:104F200030936C0820936B0830936E0820936D08C3
:104F30003093700820936F0820E090E0882309F4F4
:104F400091E0911709F421E080914E02211709F0B8
:104F5000A6C18295807F8093F8020093B4031092DB
:104F6000E8021092E90200E010E08091B600806251
:104F70008093B600249A8091B60081FDFCCF82E434
:104F80008093B0008091B60080FDFCCF83E08093D9
:104F9000B1008091B60083FDFCCF86EE8093B30014
:104FA000809170008260809370000E943B058FE7C3
:104FB00092E09093560A8093550A12E006E06091C1
:104FC000790870917A08882799272CE0660F771F57
:104FD000881F991F2A95D1F720E031EE40E050E07C
:104FE0000E94E62B215030402093C400832F992744
:104FF0008093C5001093C0000093C2001092C100BE
:105000002093CC008093CD001093C8000093CA0079
:105010001092C90084E490E0909364088093630840
:105020001092F9031092FB038AE080938307109299
:10503000F2031092F40310927C0810924A0A109224
:10504000490A1092400A1092040610925E081092CB
:105050005D0884E08093DD03109287071092710849
:105060001092E10310920106109200061092F305CF
:105070001092F2051092A7020E9459268823E1F7A8
:105080008E2D99278FBF789410E007C01130B1F0B2
:10509000113018F01230C9F522C010927F0380E061
:1050A00090EDA2E0B0E08093800390938103A09301
:1050B0008203B0938303EFE7F3E0FFC01092ED07A4
:1050C00080E090E6A9E0B0E08093EE079093EF07D0
:1050D000A093F007B093F107EDEEF7E0EEC0109269
:1050E000FC0280E090E1AEE0B0E08093FD0290939E
:1050F000FE02A093FF02B093000340E050E16EE097
:1051000070E082E00E94A1190FC04091010050910F
:1051100002006091030070910400812F0E94A11988
:105120001F5F133008F4B2CF0E94740680E091E054
:105130009093AC038093AB03609184037727882717
:105140009927982F872F762F662724E630E040E0B6
:1051500050E00E94E62B3093E3032093E20381E0CA
:105160008093A8028093580280E00E94E01380910F
:10517000D302882331F484E08093D3028DE00E942F
:10518000C6010E9474060E94FC01AB01BC0111E043
:10519000E12E00E014E020E030E080E00E94EE0C20
:1051A0000E94FC01AB01BC01EE2400E010EB24E006
:1051B00030E081E00E94EE0C8FB7F894482F55271D
:1051C00053C080917000992783709070892B19F4D7
:1051D000E5E0F0E014C08091B6008A71E1F78091BB
:1051E000B3009091B200891B8C3038F08091B200EE
:1051F000853F18F4E3E0F0E002C0E2E0F0E08091E7
:105200006E008670E9F480916F008E72C9F40CB460
:1052100007FC16C08091C100807E91F48091C90086
:10522000807E71F48091BC0082FD0AC080917A007A
:1052300087FF03C081E090E005C085E090E002C0F8
:1052400080E090E023B78E1708F4E82FFF27E450A2
:10525000FD4FE491207F2160E22BE3BF7894889595
:10526000F89483B78E7F83BF809178088F3F09F4CD
:10527000A8CF282F3327F901E157FC4F8081809375
:1052800078088F3F11F48093480A8FEF80832F3F77
:1052900009F497CF4FBF822F0E944C1A8DCF829571
:1052A000807F8093F8028FEF8093B4031092E8021E
:1052B0001092E90201E010E058CE418152816381F1
:1052C0007481812F0E94A1191F5FE0CE5527861798
:1052D0009707E8F0861B970B9C013070F9014E9FF1
:1052E00090014F9F300D5E9F300D1124232F3327E7
:1052F000892F9927FC014E9FC0014F9F900D5E9F03
:10530000900D1124860F971F280F391F1EC09B0177
:10531000281B390BC901232F3327F9014E9F900118
:105320004F9F300D5E9F300D11249070FC014E9FF9
:10533000C0014F9F900D5E9F900D1124892F9927DA
:10534000280F391F621B730B9B01C90108956F92CF
:105350007F928F929F92AF92BF92CF92DF92EF9205
:10536000FF920F931F93CF93DF9359016A01C02FD0
:10537000DD27602E77248824992462177307840719
:10538000950730F19B01AC012A193B094C095D09D5
:10539000C9019070BC01C69FC001C79F900DD69FE8
:1053A000900D1124892F99277C0100271127232F85
:1053B000342F452F5527C401B3010E94A02B6A0D3D
:1053C0007B1D8C1D9D1DE60EF71E081F191F26C094
:1053D00079018A01E61AF70A080B190B5527412FA4
:1053E000302F2F2DC401B3010E94A02B2FEFE222FA
:1053F000FF24CE9D9001CF9D300DDE9D300D1124F8
:10540000232F332744275527260F371F481F591F9F
:1054100086017501E21AF30A040B150BC801B701E6
:10542000DF91CF911F910F91FF90EF90DF90CF9080
:10543000BF90AF909F908F907F906F900895ACE257
:10544000B0E0E5E2FAE20C94082C222E332E442E32
:10545000552E662E772E882E992EFE013196A8E0C5
:105460001192AA95E9F729823A824B825C826D8279
:105470007E828F829886FE013996B8E01192BA95A5
:10548000E9F7A986BA86CB86DC86ED86FE860F878D
:10549000188B89819A81AB81BC8189A79AA7ABA718
:1054A000BCA77C018D018FEF9FEFA0E0B0E0E82268
:1054B000F9220A231B2389A59AA5ABA5BCA51D012A
:1054C0004424552489859A85AB85BC858DA39EA3EC
:1054D000AFA3B8A75C016D018FEF9FEFA0E0B0E034
:1054E000A822B922CA22DB228DA19EA1AFA1B8A514
:1054F0003D0188249924C801B701A60195010E94A5
:10550000A02B69A37AA38BA39CA3C801B701A40114
:1055100093010E94A02B7B018C01C201B101A60165
:1055200095010E94A02B5B016C01C201B101A40195
:1055300093010E94A02B3B014C01EA0CFB1C0C1DAB
:105540001D1D89A19AA1ABA1BCA19D01442755278E
:105550002E0D3F1D401F511F2A153B054C055D05B3
:1055600040F480E090E0A1E0B0E0680E791E8A1E71
:105570009B1ECA01AA27BB27860D971DA81DB91D12
:105580008D8F9E8FAF8FB8A3A9013327222789A1C2
:105590009AA1ABA1BCA1A070B070280F391F4A1FFF
:1055A0005B1F298F3A8F4B8F5C8FA98CBA8CCB8C69
:1055B000DC8CED8CFE8C0F8D18A1FE01719698E0AD
:1055C00011929A95E9F7ED8AFE8A0F8B188F2D813B
:1055D0003E814F8158856DA17EA18FA198A50E9423
:1055E000A02B3B014C012D853E854F85588969A52F
:1055F0007AA58BA59CA50E94A02B2D893E894F8959
:10560000588D260F371F481F591F260D371D481D5F
:10561000591D2D8B3E8B4F8B588F6D887E888F88C0
:10562000988C2A2D3B2D4C2D5D2D662D772D882DA8
:10563000992DE2E1AC960C94242CA0E1B0E0E3E2D9
:10564000FBE20C94082C222E332E442E552E662E6F
:10565000772E882E992E002309F466C088E0FE017B
:10566000319611928A95E9F729833A834B835C83BB
:105670006D837E838F829887E0E2E01B1E16CCF557
:105680002D813E814F815885602F772767FD70956A
:10569000DA01C901062E04C0B695A795979587959E
:1056A0000A94D2F78D879E87AF87B88B04C0220FEC
:1056B000331F441F551FEA95D2F789819A81AB8128
:1056C000BC8104C0B695A795979587956A95D2F742
:1056D000282B392B4A2B5B2B29873A874B875C87F2
:1056E00029843A844B845C846D847E848F8498887A
:1056F0001BC01D861E861F86188A2E2F332727FD66
:105700003095309521953F4F8D819E81AF81B88531
:1057100004C0B695A795979587952A95D2F789875E
:105720009A87AB87BC87DCCF222D332D442D552D96
:10573000662D772D882D992DE2E160960C94242C0E
:10574000629FD001739FF001829FE00DF11D649F65
:10575000E00DF11D929FF00D839FF00D749FF00DF1
:10576000659FF00D9927729FB00DE11DF91F639F92
:10577000B00DE11DF91FBD01CF0111240895AA1B31
:10578000BB1B51E107C0AA1FBB1FA617B70710F02C
:10579000A61BB70B881F991F5A95A9F7809590955E
:1057A000BC01CD01089597FB092E07260AD077FD8D
:1057B00004D0E5DF06D000201AF4709561957F4F84
:1057C0000895F6F7909581959F4F0895A1E21A2EBE
:1057D000AA1BBB1BFD010DC0AA1FBB1FEE1FFF1F95
:1057E000A217B307E407F50720F0A21BB30BE40BE5
:1057F000F50B661F771F881F991F1A9469F760952C
:105800007095809590959B01AC01BD01CF010895E5
:105810002F923F924F925F926F927F928F929F92C0
:10582000AF92BF92CF92DF92EF92FF920F931F93AE
:10583000CF93DF93CDB7DEB7CA1BDB0B0FB6F8945F
:10584000DEBF0FBECDBF09942A88398848885F849F
:105850006E847D848C849B84AA84B984C884DF8010
:10586000EE80FD800C811B81AA81B981CE0FD11DF4
:105870000FB6F894DEBF0FBECDBFED010895FB015A
:10588000DC0102C001900D9241505040D8F70895BC
:10589000DC0101C06D9341505040E0F70895A2E053
:1058A000B0E0E5E5FCE20C94182CFE01379661911E
:1058B0007191FA83E983AF018091550A9091560A5C
:1058C0000E94992CE2E022960C94342C0F931F93A3
:1058D000CF93DF938C01E091550AF091560A8381B2
:1058E00081FF1FC0C0E0D0E00AC0FD0120853185E6
:1058F000BD01F9010995892B11F0CFEFDFEFF80118
:1059000081918F01A091550AB091560A882369F7B9
:10591000FD0120853185BD018AE0F9010995892BBA
:1059200011F0CFEFDFEFCE01DF91CF911F910F91FB
:105930000895ABE0B0E0EFE9FCE20C940A2C3C01E6
:105940004B016A01FC0117821682838181FD03C02D
:105950008FEF9FEFDAC1F3013381F40133FD8591BD
:1059600033FF81914F01882309F4CCC1853239F48A
:1059700033FD859133FF81914F01853229F4B301C5
:1059800099270E949F2EE7CF00E0442455244AE047
:105990000032B0F48B3269F08C3228F4803251F04E
:1059A000833271F40BC08D3239F0803349F40160D9
:1059B00028C00260046025C0086023C0006121C0C7
:1059C00007FD29C0282F20532A3078F406FF06C08F
:1059D000549EC0011124522E580E13C0449EC00183
:1059E0001124422E480E00620CC08E3221F406FDB6
:1059F00089C1006406C08C3611F4006802C0883684
:105A000051F4F40133FD859133FF81914F018823D7
:105A100009F46FC0BDCF982F8554833018F08052A1
:105A2000833038F424E030E0C20ED31E8FE3898344
:105A30000FC0933631F0933799F0933509F05BC07E
:105A400023C0F6018081898322E030E0C20ED31E9C
:105A50007E010894E11CF11C51E0A52EB12C12C06E
:105A6000F601E080F18006FD03C06FEF7FEF02C01A
:105A7000652D772722E030E0C20ED31EC7010E94B9
:105A8000942E5C010F7713C0F601E080F18006FDD3
:105A900003C06FEF7FEF02C0652D772722E030E073
:105AA000C20ED31EC7010E94892E5C01006803FF4D
:105AB00007C01BC0B30180E290E00E949F2E4A9471
:105AC000842D9927A816B906A8F30FC0F70107FD82
:105AD000859107FF81917F01B30199270E949F2E35
