S01700006275696C642F697269732F6D61696E2E7372656343
S11300000C947F010C949E010C949E010C949E010F
S11300100C949E010C949E010C949E010C949E01E0
S11300200C949E010C949E010C949E010C949E01D0
S11300300C949E010C94640A0C949E010C94E305A8
S11300400C9494130C94CA130C949F050C94AA0555
S11300500C94B5050C949E010C949E010C949E0185
S11300600C94F7050C9457080C949E010C94DA0830
S11300700C949E010C949E010C949E010C94310AE4
S11300800C94100A0C941B0A0C94260A0C94440A2F
S11300900C94F3090C949E010C94050A0C949E0193
S11300A00C949E010C949E010C949E010C949E0150
S11300B00C949E010C949E010C949E010C949E0140
S11300C00C949E010C949E010C949E017014621475
S11300D079158315B715C91524169116ED1622172F
S11300E0C7172B173F176814F1170418E8180D19D0
S11300F00F191A1949196C19000021104220633094
S11301008440A550C660E770088129914AA16BB16B
S11301108CC1ADD1CEE1EFF1311210027332522213
S1130120B5529442F772D662399318837BB35AA3BB
S1130130BDD39CC3FFF3DEE36224433420040114E3
S1130140E664C774A44485546AA54BB5288509950B
S1130150EEE5CFF5ACC58DD55336722611163006B3
S1130160D776F6669556B4465BB77AA7199738875B
S1130170DFF7FEE79DD7BCC7C448E5588668A77873
S11301804008611802282338CCC9EDD98EE9AFF9AB
S1130190488969990AA92BB9F55AD44AB77A966A53
S11301A0711A500A333A122AFDDBDCCBBFFB9EEBFB
S11301B0799B588B3BBB1AABA66C877CE44CC55C23
S11301C0222C033C600C411CAEED8FFDECCDCDDD4B
S11301D02AAD0BBD688D499D977EB66ED55EF44EF3
S11301E0133E322E511E700E9FFFBEEFDDDFFCCF9B
S11301F01BBF3AAF599F788F8891A981CAB1EBA1EF
S11302000CD12DC14EF16FE18010A100C230E3206A
S11302100450254046706760B9839893FBA3DAB312
S11302203DC31CD37FE35EF3B1029012F322D232BA
S11302303542145277625672EAB5CBA5A8958985E2
S11302406EF54FE52CD50DC5E234C324A01481040A
S11302506674476424540544DBA7FAB79987B897B2
S11302605FE77EF71DC73CD7D326F2369106B0165A
S113027057667676154634564CD96DC90EF92FE972
S1130280C899E9898AB9ABA94458654806782768AA
S1130290C018E1088238A3287DCB5CDB3FEB1EFB52
S11302A0F98BD89BBBAB9ABB754A545A376A167AFA
S11302B0F10AD01AB32A923A2EFD0FED6CDD4DCD22
S11302C0AABD8BADE89DC98D267C076C645C454C4A
S11302D0A23C832CE01CC10C1FEF3EFF5DCF7CDFF2
S11302E09BAFBABFD98FF89F176E367E554E745E9A
S11302F0932EB23ED10EF01E00020E060C04112401
S11303001FBECFEFD1E2DEBFCDBF12E0A0E0B2E06E
S1130310E8EAF1E400E00BBF02C007900D92A633B7
S1130320B107D9F715E0A6E3B2E001C01D92A534E8
S1130330B107E1F70E94AE190C94D3200C9400008D
S11303408FB7F894992708958FBF0895282F9FB7E2
S1130350F894E82FFF27E559FD4F80818F3F81F402
S1130360E0913305E21771F40BC02093110404C02B
S1130370FF27E559FD4F20832093330520E007C074
S113038025E005C0809111048F3F91F7EECF892FAE
S113039099278FBF822F992708951F931FB7F89429
S11303A08091DD04882341F48FE00E94A601882314
S11303B019F481E08093DD04812F99278FBF1F9169
S11303C00895382FFA01422F2D3118F082E090E081
S11303D008956683872F99278583338721878091A2
S11303E0420290914302892B19F085E090E0089530
S11303F02FB7F894332785E0809345021092460284
S1130400F0934102E093400282E090E09093430233
S1130410809342021092480210924702445F409334
S113042044022FBF8FB7F894282F33278091990364
S11304308A3011F42FBF19C02FBF9FB7F894809151
S1130440BD02882311F020E006C081E08093BD0244
S11304501092BE0221E0892F99278FBF222329F011
S11304600E94CD0180E090E0089510924302109222
S1130470420281E090E00895CF93DF93DB01FB011A
S113048035968183892F9927EB018D8384E68683B2
S113049080910F0490911004892B19F085E090E06D
S11304A029C07093100460930F04448380911F0249
S11304B0882319F480E090E01DC08681EB016D81F2
S11304C07727762F662721813327622B732B10928F
S11304D01F02242FAD010E94E1019927282F8823B0
S11304E039F081E080931F021092100410920F04DF
S11304F0822F9927DF91CF910895CF93DF931092A4
S11305001F02A0910F04B0911004109721F0809164
S1130510B30280FF08C081E080931F0217C08EE001
S11305200E94A60113C0FD01359624813327ED01F5
S11305306D817727762F662781819927682B792B00
S1130540AD0186810E94E101882349F7DF91CF91B3
S11305500895809199038A3021F48091A402843013
S113056021F081E080933D02089581E10E94A6017B
S113057010923D0208952FB7F89433278093C60054
S1130580E0ECF0E08081806480832FBF0895FC015B
S11305906115710519F481E090E008958091B80225
S11305A09091B902892B19F085E090E00895709339
S11305B0FF036093FE03F093B902E093B802109234
S11305C0A6021092A50281E08093A7028091C00048
S11305D080648093C0008091C10080648093C100D6
S11305E0808121E030E03093A6022093A5020E948E
S11305F0BB0280E090E008958FB7F894992720918A
S11306004E022E7F20934E022EE7209381028FBF4D
S113061061E070E081E892E00E94C70299270895A2
S1130620882319F08CB5806402C08CB58F7B8CBD97
S113063008950F931F93982F1FB7F8948091370252
S1130640823099F580911E02891779F580911C02F8
S113065020E030E08F3F11F421E030E0232BF1F46F
S11306609FEF90931E028F3F19F42FEF30E00DC0DF
S1130670282F3327F901EB54FD4F808180931C020E
S11306808F3F11F490931D0290832093B70281E071
S1130690809337028CE00E94A60105C08FEF8093FF
S11306A01E021092370201E001C000E0812F992759
S11306B08FBF1FB7F89480913702882311F40E94EA
S11306C01003812F99278FBF90E0013009F491E046
S11306D081E09827892F99271F910F9108958823E6
S11306E019F08CB5806802C08CB58F778CBD0895E5
S11306F00F931F9380E00E9410030FB7F894112703
S1130700229A2398219A209A8CB580618CBD80E02E
S11307100E946F038CB5877F8CBD8CB58B7F8CBD9D
S113072081E00E9410038DB581608DBD8CB58C7FF6
S11307308CBD0FBF1F910F910895FB0121E030E0A4
S113074002C0220F331F8A95E2F784A5822B84A767
S113075008958FB7F89420912C0330912D03409184
S11307602E0350912F03E0918400F0918500B09BFB
S113077008C02F5F3F4F4F4F5F4FE0918400F091CF
S1130780850099278FBFC901772766279F014427D2
S11307905527622B732B842B952B0895FC018281A2
S11307A09927982F882721813327822B932B75E053
S11307B0969587957A95E1F7817090700895FC017C
S11307C040E050E082819927982F882721813327A0
S11307D0822B932B87749C7C8154984811F441E0BC
S11307E050E0CA010895FC0187819927982F882732
S11307F026813327822B932B0895AC01EFB7F8940D
S11308002091840030918500C901841B950B0396C7
S11308108617970720F0B9016D5F7F4F02C0640F00
S1130820751F6115710511F461E070E0615070404D
S1130830709389006093880082E086BB80916F008A
S1130840826080936F008E2F99278FBF089520E0D8
S113085030E0FC0181818770823011F421E030E0C6
S1130860C9010895CF93DF93EC010E94CE0388233E
S1130870D1F0CE010E94DF038823A9F0CE010E94AB
S1130880F3032FB7F89433274091160250911702BF
S11308902FBF20E08417950709F021E081E0282785
S11308A0822F992702C080E090E0DF91CF910895D4
S11308B0FB0121E030E002C0220F331F8A95E2F7EA
S11308C084A582239927089580918C02823031F483
S11308D081E080938C0285E00E94A6010895EF9246
S11308E0FF920F931F937C018FB7F894992700917F
S11308F09C0310919D030F5E1E4F10939D03009364
S11309009C03015111408FBF87E00E94A601C801DA
S1130910B7010E94491D8A5D9E4F1F910F91FF9060
S1130920EF9008957FB7F8946091B2002091660229
S1130930309167024091680250916902B99B11C0DD
S11309408091B3009091B200280F311D411D511DBB
S11309502F5F3F4F4F4F5F4F290F311D411D511DD9
S113096004C0260F311D411D511D872F99278FBFAC
S1130970CA01B901089589E00E94A6010895DF9291
S1130980EF92FF920F931F938FB7F894282F33277A
S1130990D22E9091B3008091B20047B3981711F012
S11309A041FF02C02FBF71C08091A9028823E1F1E9
S11309B00E949204E0905E02F0905F020091600257
S11309C01091610220911704309118044091190488
S11309D050911A046E197F09800B910B62177307EB
S11309E08407950720F01092A90271E01EC02E0D15
S11309F03F1D401F511F8091660290916702A09194
S1130A006802B0916902281B390B4A0B5B0B273E25
S1130A1031054105510540F4822F223010F070E079
S1130A2005C070E082E002C070E086EE682F61507D
S1130A308091B60083FDFCCF8091B200681709F461
S1130A406F5F209166023091670240916802509175
S1130A506902DA01C9010196A11DB11D860F911D1C
S1130A60A11DB11D82179307A407B50710F4622FC7
S1130A7060958091B60083FDFCCF6093B300DFBE28
S1130A80772319F088E00E94A6011F910F91FF902F
S1130A90EF90DF900895AFB7F894BB27E1E0E093BF
S1130AA0A90260935E0270935F0280936002909348
S1130AB0610220931704309318044093190450934F
S1130AC01A04AFBF0E94BF040895582F2091530207
S1130AD0609138027091390230E040E029C0809181
S1130AE03C02992787709070892BA9F4E0913A020F
S1130AF0F0913B0281919927282FF0933B02E093D8
S1130B003A0210923C026E177F0728F48093530236
S1130B1081E090E00895330F822F881F8827881F73
S1130B20382B220F80913C028F5F80933C024F5FF1
S1130B304517A9F620935302832F99270895789493
S1130B401F920F920FB60F9211240F900FBE0F90A9
S1130B501F90189578941F920F920FB60F9211243C
S1130B600F900FBE0F901F90189578941F920F92BC
S1130B700FB60F9211242F933F938F939F93AF93AC
S1130B80BF932FB7F894332780912C0390912D03B2
S1130B90A0912E03B0912F030196A11DB11D809346
S1130BA02C0390932D03A0932E03B0932F032FBFF8
S1130BB0BF91AF919F918F913F912F910F900FBE55
S1130BC00F901F9018951F920F920FB60F92112439
S1130BD08F938091B0008093B0008091B60081FD26
S1130BE0FCCF8F910F900FBE0F901F9018951F92FE
S1130BF00F920FB60F9211240F931F932F933F93CD
S1130C004F935F936F937F938F939F93AF93BF9310
S1130C10CF93DF93EF93FF932EB5E0919303F0917D
S1130C209403309739F08091260390912703E80FBD
S1130C30F91F2083809126039091270301969093B6
S1130C4027038093260380E00E946F03C09126034C
S1130C50D09127032091560230915702C217D3072F
S1130C6008F042C00091A9041091AA044091930392
S1130C7050919403CE010A962817390708F4C90144
S1130C80DA01AC0FBD1FF801EC0FFD1F9C012150D0
S1130C90304015C00115110531F080818EBD0DB4B1
S1130CA007FEFDCF04C01EBC0DB407FEFDCF8EB5FC
S1130CB04115510509F08C93219611963196C2176E
S1130CC0D30740F381E00E946F030115110531F051
S1130CD00C0F1D1FF80180818EBD01C01EBCD09376
S1130CE02703C093260311C0109294031092930318
S1130CF01092AA041092A90410925702109256025C
S1130D0010922703109226038EB5FF91EF91DF9185
S1130D10CF91BF91AF919F918F917F916F915F918F
S1130D204F913F912F911F910F910F900FBE0F90F4
S1130D301F901895E8EFF0E06927660FF11DE60FA4
S1130D40F11DC895982F802D3196C895902508954A
S1130D50982F80914902882389F5992379F531E008
S1130D60309349028091200280934A0220913E02EE
S1130D70822F8170809364028091250290912602D3
S1130D8090934C0280934B0280913F0280934D02DA
S1130D9032273170267EE32FFF27EE0FFF1FEF5D12
S1130DA0FD4F808191819093260280932502232B0D
S1130DB020933E0284E10E94A601089580913E02A0
S1130DC080FF02C08B7F01C08D7F80933E02089517
S1130DD00F931F93082F162F8091A4028130D9F00E
S1130DE0813038F0823009F44AC0833009F028C1D8
S1130DF059C0002309F458C11092F7031092F60366
S1130E0010929F0310920A041092A80210923103C8
S1130E101092300339C1002309F046C18091300398
S1130E20909131030E949A0690933103809330038A
S1130E3082E08093A40210930A04143409F000C1E0
S1130E4025C18695869503C080913E028695817062
S1130E5009F0F6C080913E02992311F0846001C02C
S1130E60826080933E0280913E02877E88608093F8
S1130E703E0210923F028FEF8093200215C100239F
S1130E8009F0DEC06093A802809130039091310391
S1130E900E949A06909331038093300383E08093F9
S1130EA0A40202C180919F038F3F09F4C9C00023AB
S1130EB009F461C0823008F4C3C0E091F603EE2364
S1130EC009F4EBC04E2F4150E42FFF27EA50FC4FAA
S1130ED082819927382F2227442311F4E2E002C0AB
S1130EE0E42FE150FF27EA50FC4F82819927282BF9
S1130EF0392B80913003909131032817390709F079
S1130F009FC080E00E94A8063091A80280911E0331
S1130F1020911F03982F9F5F963008F090E092175E
S1130F2071F0E82FFF27E25EFC4F32838F5F8093DE
S1130F301E03863010F010921E030E94CD01109201
S1130F40F7031092F60394E09093A40210929F0387
S1130F5010920A041092A8021092310310923003E6
S1130F6080914E028D7F80934E0280913D028823B2
S1130F7009F49AC084C0823008F44EC0E091F703AB
S1130F80FF27EA50FC4F8281482F5527342F2091A8
S1130F903E02822F869586958695837099278130A7
S1130FA0910519F00297F9F40EC0277E2061209371
S1130FB03E02442311F485E001C080E080933F02A7
S1130FC03093200210C080913F028F3260F4E09190
S1130FD02502F0912602E80FF11D408380913F0223
S1130FE08F5F80933F028091F703E82FFF27EA5039
S1130FF0FC4F62818F5F8093F703833010F010926F
S1131000F703772780913003909131030E949A0669
S113101090933103809330038091F603E82FFF27E8
S1131020EA50FC4F12838F5F8093F603833010F0F5
S11310301092F60380919F038F5F80939F0334C0C7
S11310401092F7031092F60314E01093A402109286
S11310509F0310920A041092A80210923103109276
S1131060300380914E028D7F80934E0281E00E9476
S1131070A80680913D02882329F01093A4020E94BF
S1131080A90212C0002381F081E009CF80913E02C1
S1131090982F917080FDD5CED7CE8091FA039927F1
S11310A0382F222742E01CCF1F910F9108951F92E1
S11310B00F920FB60F9211242F933F934F935F9388
S11310C06F937F938F939F93AF93BF93EF93FF930C
S11310D08091C00087FF42C06091C600E091320356
S11310E0F0913303309719F18091DB049091DC0483
S11310F0E80FF91F608301969093DC048093DB046E
S113110020913805309139058217930738F11092F0
S1131110330310923203809198038330F9F0809165
S1131120C1008F778093C1001092980317C06E3767
S113113019F460E081E010C080914E026D3721F413
S1131140826080934E020AC081FF05C08D7F809328
S11311504E0280E2682780E00E94E806FF91EF914A
S1131160BF91AF919F918F917F916F915F914F91BB
S11311703F912F910F900FBE0F901F901895982FAD
S11311808D57823068F480914E02816080934E02C4
S113119080E2892780939E038DE78093810202C0B9
S11311A09093810261E070E081E892E00E94C702BE
S11311B09927089578941F920F920FB60F921124D5
S11311C0FF920F931F932F933F934F935F936F93CC
S11311D07F938F939F93AF93BF93CF93DF93EF93BB
S11311E0FF932091A5023091A6028091FE03909175
S11311F0FF032817390780F4E091B802F091B9028F
S1131200E20FF31F80812F5F3F4F3093A60220939C
S1131210A5020E94BB02D1C01092B9021092B8027A
S11312201092A7028091C1008F7B8093C100FFB60A
S1131230F89480914E0280FF0EC08E7F80934E0200
S113124080919E038093810261E070E081E892E0E6
S11312500E94C702AFC080919903843009F48CC006
S1131260853040F4823021F18330B8F5813009F0C3
S11312709CC00DC0863009F48DC0863008F483C04C
S1131280873009F48EC0883009F08FC091C08091F6
S1131290B6020E94BF08082F83E0809399036091EF
S11312A0B60280913605909137050E949A0610C0C7
S11312B0809115040E94BF08082F83E0809399034E
S11312C06091150480913605909137050E949A0625
S11312D0909337058093360566C0E0913403FF2769
S11312E0EE0FFF1FE454FD4F80810E94BF08082FBA
S11312F010913403C12FDD27FE01EE0FFF1FE454CC
S1131300FD4F608180913605909137050E949A06C1
S113131090933705809336052091B4022F5F209374
S1131320B402113039F580914502E0914002F09108
S11313304102E80FF11DE0818F5F80934502909197
S11313404402981730F482E08093BD0240E050E0FC
S113135002C04E2F5527DE01AA0FBB1FFD01E55425
S1131360FD4F8081823031F02F3F21F0A454BD4FD6
S11313704C9319C084E012C0809136050E94BF08C6
S1131380082F85E00BC0809137050E94BF08082F05
S113139086E004C00E94FC02082F87E08093990332
S11313A002C088E003C0002329F089E080939903F8
S11313B00E94CD018F2D99278FBFFF91EF91DF916F
S11313C0CF91BF91AF919F918F917F916F915F91D9
S11313D04F913F912F911F910F91FF900F900FBE4E
S11313E00F901F9018951F920F920FB60F92112411
S11313F08F938091C80087FF02C08091CE008F91A7
S11314000F900FBE0F901F90189578941F920F9213
S11314100FB60F9211240F900FBE0F901F901895C6
S113142078941F920F920FB60F9211240F900FBE53
S11314300F901F90189578941F920F920FB60F92E9
S113144011240F900FBE0F901F90189578941F923F
S11314500F920FB60F9211240F900FBE0F901F9092
S1131460189578941F920F920FB60F9211248F93B0
S11314709F9380919600909197009F918F910F90E8
S11314800FBE0F901F90189578941F920F920FB66D
S11314900F9211242F933F938F939F932FB7F89418
S11314A033278091AF029091B00201969093B002DD
S11314B08093AF022FBF9F918F913F912F910F90F7
S11314C00FBE0F901F9018951F920F920FB60F9298
S11314D011242F933F934F935F936F937F938F9335
S11314E09F93AF93BF93EF93FF938091B00080934A
S11314F0B0008091B60081FDFCCF8091B3009927A4
S11315000196AA27BB272091660230916702409179
S1131510680250916902280F391F4A1F5B1F2093EC
S1131520660230936702409368025093690278948C
S11315300E94BF04FF91EF91BF91AF919F918F9152
S11315407F916F915F914F913F912F910F900FBEBB
S11315500F901F90189521E02093BA0220939503D1
S11315602091840030918500BC01C9010E94FD03D3
S113157008950F931F93CF93DF93182F0FB7F89409
S113158080913702882311F40E947803802F9927D1
S11315908FBF8FB7F894C82FDD272C2F8091370287
S11315A0882361F481E0809337021093B7028CE0C2
S11315B00E94A601CFBF80E090E021C0E12FFF2769
S11315C0EB54FD4F80818F3F89F4E0911D02E117B8
S11315D089F40CC010931C0204C0FF27EB54FD4F88
S11315E0108310931D0280E090E002C085E090E03B
S11315F02FBF05C080911C028F3F79F7EBCFDF919D
S1131600CF911F910F9108958FB7F894282F332706
S1131610922F80911E02882331F480913702823008
S113162011F42FBF13C09FBF8FB7F894282F33270F
S113163080913702882369F482E080933702109204
S11316401E022FBF0E947803209A289A81E090E01E
S113165008952FBF80E00E94B90A80E090E00895C9
S11316601F93982F1FB7F89480913602823099F512
S113167080911B02891779F58091190220E030E0EE
S11316808F3F11F421E030E0232BF1F49FEF90938E
S11316901B028F3F19F42FEF30E00DC0282F3327A2
S11316A0F901E857FD4F8081809319028F3F11F4AF
S11316B090931A0290832093850281E080933602EE
S11316C083E00E94A60105C08FEF80931B02109255
S11316D0360221E001C020E0812F99278FBF90E0DE
S11316E0213009F491E081E09827892F99271F91EF
S11316F0089580931B04882311F484E001C081E0E1
S113170080938C0285E00E94A60108958091510285
S11317108C3118F04CE150E002C0482F55278CE181
S1131720E8EBF4E011928A95E9F7909151028091E7
S11317304F0220E030E0A8EBB4E00FC0E82FFF2711
S1131740E056FC4FE081992329F08F5F803509F43E
S113175080E09150ED932F5F3F4F2417350771F7C9
S11317609093510280934F024CE16CEA74E08FEF46
S11317709FEF0E943C02882319F085E10E94A60194
S113178008958FB7F894282F33278091520281301F
S113179021F42FBF80E090E0089590E08091510201
S11317A0882309F491E0992321F02FBF81E090E090
S11317B0089581E0809352022FBF0E94860B80E03F
S11317C090E00895662351F480915102882319F022
S11317D00E94860B089510925202089585E10E949A
S11317E0A60108951F93182F80915202882349F46B
S11317F080915102883228F081E0809352020E9445
S1131800860B8FB7F894282F332790915102903587
S1131810A8F480915002E82FFF27E056FC4F108374
S11318208F5F80935002803511F4109250029F5FB5
S1131830909351022FBF80E090E003C02FBF8FEF41
S11318409FEF1F9108953F924F925F926F927F9204
S11318508F929F92AF92BF92CF92DF92EF92FF92BC
S11318600F931F93CF93DF932C018091550288230C
S113187009F07AC18091AB04853009F075C10E94EA
S1131880040B882309F470C18091FB03882309F0B9
S11318906BC1B20182E00E945804882311F490E0E5
S11318A003C0F20196A59F708091EE02981781F013
S11318B09093EE02289885EC8EBD0DB407FEFDCF03
S11318C08EB590689EBD0DB407FEFDCF8EB5289AE7
S11318D0C2010E94DF03882301F1289886E88EBDA7
S11318E00DB407FEFDCF8EB51EBC0DB407FEFDCFB3
S11318F08EB5289A99278F7190702091AE024091ED
S11319008902240F312D311D43E0359527954A95E1
S1131910E1F7281739070CF427C1289882EC8EBD0B
S11319200DB407FEFDCF8EB589E08EBD0DB407FE64
S1131930FDCF8EB5289A0E94A9037B018C01B201C8
S113194084E00E945804882319F4E0E0F0E006C023
S1131950D2018C918550F201E80FF11D289881E89D
S11319608EBD0DB407FEFDCF8EB51EBC0DB407FEB3
S1131970FDCF8EB5289A8F71893079F0289882EC42
S11319808EBD0DB407FEFDCF8EB586E08EBD0DB4C1
S113199007FEFDCF8EB5289AE7C08FB7F894992734
S11319A02F9A20918400309185008FBF2F9828981A
S11319B080E68EBDD2019C910DB407FEFDCF8EB59D
S11319C09EBD8EEF382E390EB6E0B31510F0632DA0
S11319D001C067E0A2014F5F5F4FDA01962F7D914E
S11319E00DB407FEFDCF8EB57EBD9150C1F7615099
S11319F0EA01C60FD11D6F5F21962E193F092E559E
S1131A003F4F3901882477FC8094982C6E0C7F1CFE
S1131A10801E911E309719F4932D961B42C020818D
S1131A20E1808281A3809927AA27BB27BA2FA92FF7
S1131A30982F8827332744275527522F44273327A5
S1131A402227FF24002711278701FF24EE242E29B3
S1131A503F29402B512BBB24CC24DD242A293B29AC
S1131A604C295D29822B932BA42BB52B861997091E
S1131A70A809B9098383292F3A2F4B2F552722838D
S1131A809D014427552721838B2F9927AA27BB27FC
S1131A908083C2CF28810DB407FEFDCF21968EB579
S1131AA02EBD9150B8F70DB407FEFDCF8EB5289A20
S1131AB0289882EC8EBD0DB407FEFDCF8EB586E06E
S1131AC08EBD0DB407FEFDCF8EB5289A3097D1F1A7
S1131AD02081E1808281A3809927AA27BB27BA2F7E
S1131AE0A92F982F8827332744275527522F442777
S1131AF033272227FF24002711278701FF24EE2400
S1131B002E293F29402B512BBB24CC24DD242A2908
S1131B103B294C295D29822B932BA42BB52B860DB5
S1131B20971DA81DB91D8383292F3A2F4B2F5527A5
S1131B3022839D014427552721838B2F9927AA2788
S1131B40BB278083B20181E00E949D03F20160A65D
S1131B5071A682A693A686E08093AB0484E080936A
S1131B60550280E090E002C085E090E0DF91CF91E3
S1131B701F910F91FF90EF90DF90CF90BF90AF90A7
S1131B809F908F907F906F905F904F903F900895BB
S1131B90AF92BF92CF92DF92EF92FF920F931F9377
S1131BA0CF93DF938091FB03882309F4F5C00E944F
S1131BB0040B882309F4F0C08FB7F8949927C091D7
S1131BC0B102D091B2028FBF1092FB0328988FE824
S1131BD08EBD0DB407FEFDCF8EB51EBC0DB407FE41
S1131BE0FDCF8EB5289A982F80915502833011F03D
S1131BF0873031F485E08093AB0488E0809355020C
S1131C00A92EBB24A2FE63C080915502863019F42C
S1131C101092550203C0882309F059C0943009F08A
S1131C2045C0289886E88EBD0DB407FEFDCF8EB55D
S1131C301EBC0DB407FEFDCFFEB4289A2FE1F2229C
S1131C4080918902982F969596953F2D391B830F85
S1131C50809389020091620210916302F80184A5C5
S1131C608B7F84A7B80183E00E949D03F801F6A648
S1131C700E94A9037B018C01C0906202D090630290
S1131C80B60181E00E949D03CE19DF092797CE019A
S1131C90AA2797FDA095BA2F8E0D9F1DA01FB11FD7
S1131CA0F60180A791A7A2A7B3A70EC0E091620294
S1131CB0F091630284A5877F84A7E0916202F0918A
S1131CC0630284A58D7F84A785E080935502A3FEDB
S1131CD063C080915502843009F041C085E080934F
S1131CE0AB041092550280916502833019F410926E
S1131CF0650252C00091340510913505C8010E9457
S1131D00CE03882321F1C8010E94DF038823F9F060
S1131D10C8010E94F3038F5F9F4FC9F090E0809148
S1131D209503882309F491E0992389F012E0109334
S1131D30BA0281E08093950380918400909185009C
S1131D4069E973E00E94FD031093650225C01092B7
S1131D50650210928D0280E00E94790B1DC08530CF
S1131D60D9F42091AE02289886E88EBD0DB407FE02
S1131D70FDCF8EB51EBC0DB407FEFDCF8EB5289ADF
S1131D808F71922F96959695891B280F2093AE02FA
S1131D9089E08093550208C090915502992309F473
S1131DA0DFC2993009F00CC2289880E28EBD0DB4D0
S1131DB007FEFDCF8EB51EBC0DB407FEFDCF8EB55C
S1131DC0482F5527433008F490C3842F99278A97C6
S1131DD00CF08BC31EBCE0916202F091630240835D
S1131DE0042F0250073010F4102F01C017E09F0198
S1131DF02F5F3F4F912FF901EE24FF240DB407FE0E
S1131E00FDCF8EB51EBC80838191A7014827042E87
S1131E104295407F4025052E542F42954F7004264D
S1131E20469554274527440F440F440F40257A0113
S1131E30915021F71150E901C10FD11D1F5F219667
S1131E4080916202909163020E942704882349F0E2
S1131E5020E030E080916502823081F421E030E0BE
S1131E600DC08FB7F894282F332790E08091F003AA
S1131E70833008F491E02FBF292F3327232B09F453
S1131E805FC0902F911B1AC00DB407FEFDCF8EB515
S1131E901EBC88838991F701E8270E2EE295E07F26
S1131EA0E0250F2EFE2FE295EF700E26E695FE2715
S1131EB0EF27EE0FEE0FEE0FE0257F01915020F794
S1131EC00DB407FEFDCF8EB51EBC97012827022E48
S1131ED02295207F2025032E322F22952F70022653
S1131EE0269532272327220F220F220F20250DB4F7
S1131EF007FEFDCF8EB51EBC2827022E2295207F1B
S1131F002025032E322F22952F7002262695322764
S1131F102327220F220F220F20250DB407FEFDCF09
S1131F208EB5E0916202F091630285A7289A15E0CC
S1131F301093AB0410925502232B09F00DC205C077
S1131F400DB407FEFDCF8EB5D0C2C0916202D09110
S1131F506302CE010E94270490916502882321F137
S1131F60923009F028C19B81E0913405F091350548
S1131F708381981709F01FC189818770823009F025
S1131F801AC180916F008D7F80936F00109295032A
S1131F90BF0180E00E949D031092650210928D02A1
S1131FA080E00E94790B07C19923C1F4CE010E94FD
S1131FB03204882399F01093EF0282E08093F002B8
S1131FC01092F1028B818093F2028FEE92E00E94D4
S1131FD0230C882319F483E0809365020091840024
S1131FE010918500CE010E943204882311F0045E12
S1131FF01C4F10932903009328038091840090912F
S113200085009801281B390B12161306A4F480913D
S11320108D02882369F490E080919503882309F464
S113202091E0992341F0C9010E94AB0A80E801C004
S1132030806880938D025E010894A11CB11C89857F
S113204028859927582F44273327422B532B8091D7
S11320506A02282F3327F901EE0FFF1FE050FC4FCF
S113206080819181009196038417950749F4F901C1
S1132070E25DFA4F8081801709F468C0802F1BC08D
S1132080EE24FF2480E090E0A0E0B4E0EEE2F5E08E
S1132090BF01182F9C018D919C911197841795076E
S11320A089F420936A0290919603FB018081891739
S11320B009F44CC0892F8F5F809396038083E0E8F6
S11320C0EE2E2AC08081902F981BE91610F4E92E79
S11320D0F22E1F5FC90101966F5F7F4F12963196F2
S11320E085309105B1F61530B9F4F0926A02AF2D3E
S11320F0BB27FD01EE0FFF1FE050FC4F51834083CF
S1132100809196038F5F80939603FD01E25DFA4F01
S11321108083A65CBA4F1C9290919603892F8F7787
S11321208F3781F4EEE7EE1568F4EEE2F5E0292F3F
S1132130207880818F6789132083319635E0E333DB
S1132140F307B9F780916A02282F3327F5019281AA
S1132150A22FBB27FD01E65CFA4F808180FF07C0F8
S1132160FD01EF50FC4F8081981729F102C0816076
S11321708083AF50BC4F9C93FFB6F8948091F003DA
S11321808330B0F4E0911404E80FE33008F0E35036
S1132190FF27EE0FFF1FE85AFD4F00811181D18305
S11321A0C0838F5F8093F00386E00E94A601E8015C
S11321B08F2D99278FBFD0936302C0936202C3C04F
S11321C0892F8150833008F09CC081508230E0F424
S11321D03091AB043130C1F420E080919503882321
S11321E009F421E0222381F02F9883E08093BA023E
S11321F03093950380918400909185006BE273E0A5
S11322000E94FD0382E068C0933009F042C08091CF
S1132210AB04833009F097C00E94040B8823C9F1F2
S113222028988FE88EBD0DB407FEFDCF8EB51EBC79
S11322300DB407FEFDCF8EB5289A8091810080648D
S11322408093810080E286BB80916F0080628093DE
S11322506F0090918402289888EC8EBD0DB407FE1F
S1132260FDCF8EB590669EBD0DB407FEFDCF8EB535
S1132270289A289882EC8EBD0DB407FEFDCF8EB54A
S113228086E08EBD0DB407FEFDCF8EB5289A84E09E
S113229023C0809155028150823000F58091AB04B7
S11322A08530E1F40E94040B8823C1F0289882EC65
S11322B08EBD0DB407FEFDCF8EB583E08EBD0DB48B
S11322C007FEFDCF8EB5289A80916F008F7D809395
S11322D06F001092FB0383E08093AB04909155024E
S11322E0913041F48091AB048330B1F52F9A9093EF
S11322F0AB0425C0923039F58091AB04833061F58D
S11323001EC0973001F50E94040B8823E1F09091E0
S11323108402289888EC8EBD0DB407FEFDCF8EB5DF
S113232090669EBD0DB407FEFDCF8EB5289A8091B0
S1132330AB04853021F484E08093AB0404C088E0CE
S11323408093550204C080915502883029F410927C
S1132350550284E00E94A60180915502882309F564
S11323608091AB048530D1F48091FB038823B1F4D0
S113237080916502882391F480918D02882371F401
S113238090E080919503882309F491E0992331F03A
S11323900E94640480915502882319F48AE00E9403
S11323A0A60180919503823009F092C010929503A2
S11323B0F090BA02F2E0FF1609F466C023E0F216C8
S11323C009F46AC031E0F31609F082C020912803B1
S11323D030912903809184009091850040918D0271
S11323E0403829F410928D020E94640471C089015E
S11323F0081B190B47FF03C010161106ECF0C0911F
S11324008A02D0918B02809165028823A9F4CE01BF
S11324100E94230C9927882351F48CA58E7F8CA7C6
S1132420F0926502D0933505C093340529C09927ED
S1132430F82E882329F102C055E0F52E20918D0253
S1132440822F99278F77019759F42078226020935F
S11324508D0280E198E00E946F040E94AB0A38C0AC
S113246027FF0AC0101611063CF480E880938D0201
S1132470C8010E94AB0A02C010928D028F2D09C0C0
S113248083E080938D0224C01092650210928D0225
S113249080E00E94790B1CC08091AB04823019F457
S11324A0F092AB0413C080915502863079F41092F7
S11324B05502289881E88EBD0DB407FEFDCF8EB578
S11324C01EBC0DB407FEFDCF8EB5289A0E94801362
S11324D08FB7F894282F332780918302813061F0DD
S11324E081E0809383022FBF5DCB289A85E080939F
S11324F0AB041092550230CF109283022FBFDF91AC
S1132500CF911F910F91FF90EF90DF90CF90BF90EC
S1132510AF9008958FB7F894282F332780918302C2
S1132520815080938302803811F02FBF089581E099
S1132530809383022FBF0E94C80D08951F93FC014E
S11325408FE38287809154028F5F80935402838348
S11325502FB7F8943327809183028F5F809383028F
S11325602FBF80918C02882311F015E00DC0F093E9
S11325709B03E0939A0381E080938C02109297036B
S113258085E00E94A60110E00E948A12812F9927FB
S11325901F910895CF92DF92EF92FF920F931F93B2
S11325A0CF93DF9310921502C0912A03D0912B038D
S11325B0209721F08091160480FF8AC081E08093E7
S11325C0150295C0CE010E94DF03882351F489814E
S11325D0992780739070816498688983892F9927DB
S11325E08A83135F18832FB7F894332780911602D8
S11325F0909117022FBF8887892F992789872FB732
S1132600F8943327809118022FBF99278C831D8259
S1132610F6010083EE828F2D99278F838FB7F8946C
S1132620282F332780913602882371F482E0809327
S1132630360210921B022FBFCE010E949E129927D0
S1132640182F882399F00FC02FBFD0938702C0930F
S113265086028FB7F894C82FDD272C2F809136027D
S1132660882399F406C080E00E94300B812F9927BB
S113267024C081E0809336021092850283E00E9498
S1132680A601CFBF80E090E018C0809188028F3F00
S113269089F4E0911A02EE2369F015C01092190230
S11326A004C0FF27E857FD4F108210921A0280E001
S11326B090E002C085E090E02FBF892BC1F082E05A
S11326C00E94A60114C0809119028F3F51F7E6CFF2
S11326D01BE0C12ED12CCC0EDD1E0B85CE010E9439
S11326E0F3037C0118811D501D3148F76BCFDF9136
S11326F0CF911F910F91FF90EF90DF90CF900895AD
S11327008FB7F894282F332780918302882329F0E8
S11327108068809383022FBF089581E080938302B1
S11327202FBF0E94C80D089578941F920F920FB680
S11327300F9211242F933F934F935F936F937F9343
S11327408F939F93AF93BF93EF93FF93E6E8F0E0EB
S113275080819181208131818FB7F89499273093BA
S1132760B2022093B10221E02093FB038FBF0E94A9
S11327708013FF91EF91BF91AF919F918F917F91C2
S11327806F915F914F913F912F910F900FBE0F90DA
S11327901F90189578941F920F920FB60F921124E0
S11327A02F933F934F935F936F937F938F939F9355
S11327B0AF93BF93EF93FF9380916F008D7F8093CE
S11327C06F0078949FB7F89480919503813019F441
S11327D082E080939503892F99278FBF0E948013ED
S11327E0FF91EF91BF91AF919F918F917F916F91E5
S11327F05F914F913F912F910F900FBE0F901F90BB
S113280018951F938FB7F8949927209183022F5F0F
S1132810209383028FBF80918C02882311F015E0EE
S113282023C0809155028823E1F48091AB04813068
S113283049F490E080919503882309F491E0992369
S113284081F005C0853019F489E090E00CC083E084
S1132850809355020E94801385E080938C0210E0DF
S113286003C085E090E0182F0E948A12812F9927D7
S11328701F9108952F923F924F925F926F927F9291
S11328808F929F92AF92BF92CF92DF92EF92FF927C
S11328900F931F93CF93DF93CDB7DEB729970FB66E
S11328A0F894DEBF0FBECDBFE82FFF27E631F10558
S11328B008F01EC5EA59FF4FEE0FFF1F0590F49173
S11328C0E02D099480911604882309F0FBC010C5FB
S11328D08091B302882309F40BC590E011E05EC334
S11328E00E94A9034B015C0120918E02622F77277D
S11328F022952695277033272F5F3F4FF3E0759578
S11329006795FA95E1F7637070706F5F7F4F88E1A8
S113291090E00E945D1D269FC001279F900D369F69
S1132920900D11248093E304893418F088E4809393
S1132930E3040E9492046093DE047093DF048093A6
S1132940E0049093E10480E992E090933B02809349
S11329503A024396909339028093380210923C02D3
S113296020918E022770220F220F80918F029927C7
S1132970AC01E6E055954795EA95E1F7242B33271A
S11329802093E404959587958F719070C82E809359
S1132990E504D22EEE24FF2454C09D1521F468E1F1
S11329A0D62ED90E05C09C1519F458E1C52EC90EB2
S11329B0692E7724CD14D8F5F301EB51FB4F108128
S11329C0992309F415E000E003C00F5F033061F0C0
S11329D081E00E9465058823C1F7002329F486EE6F
S11329E094E0680E791E07C0013041F486EE94E04D
S11329F0680E791E1F5FF30110830DC086EE94E00C
S1132A00680E791E023011F41150F5CF84E00E9453
S1132A106505F301808320913A0230913B02809155
S1132A203802909139028217930740F410C08EED5A
S1132A3094E0680E791E8FEFF30180870894E11CFF
S1132A40F11C9E2D8091E304E81608F4A6CF0E94A1
S1132A50A9037B018C01CC24DD2413C0FF27E2529F
S1132A60FB4F808599279F938F9380E092E09F93FB
S1132A708F930E94F81D0E94C10B0F900F900F902E
S1132A800F90EC2D0894C11CD11C8091E304E8172D
S1132A9028F3E818F9080A091B091F930F93FF92FA
S1132AA0EF9284E092E09F938F930E94F81D0E941E
S1132AB0C10B8DB79EB706960FB6F8949EBF0FBE96
S1132AC08DBF16C421E0EAE2F3E090911604822F50
S1132AD0892339F011821082822F80959823909354
S1132AE01604329693E0EA33F90709F401C4220F7D
S1132AF0ECCFE0911502FF27EE0FFF1FE65DFC4FC0
S1132B001182108231C02FB7F89433278091850247
S1132B1080931B0282E0809336022FBF80911B02B8
S1132B20882309F0E5C380918602909187020E9470
S1132B309E12882309F4DCC380E00E94300B2091AC
S1132B4086023091870280911502882309F0D0C350
S1132B5080912A0390912B038217930709F0C8C32D
S1132B6010922B0310922A030E94CA12C1C38091AF
S1132B708C0210928C02853009F4BAC3863019F4A1
S1132B800E940114B5C3873009F4B2C380938C0248
S1132B90AFC32FB7F8943327809183028F5F80935C
S1132BA083022FBF40918C02413081F580919703BD
S1132BB08F5F80939703863048F520919A03309174
S1132BC09B0380918D028823C1F490E0809195034A
S1132BD0882309F491E0992381F030938B022093A8
S1132BE08A0240938D028BED91E10E946F040E9452
S1132BF0AB0A10921B0483E004C085E080931B049D
S1132C0082E080938C020E948A1272C310928C021A
S1132C100E948A1200919A0310919B03F801828505
S1132C208F3309F065C380E00E94300B8091150258
S1132C30882309F05DC380912A0390912B038017A8
S1132C40910709F055C38CCF8FB7F894282F3327F9
S1132C508091F003882309F43DC3E0911404FF2715
S1132C60EE0FFF1FE85AFD4FE080F1802FBFF70100
S1132C7082858F3321F503851081C7010E94F303F8
S1132C80AC018FB7F894992720911602309117025E
S1132C908FBF4217530719F04F5F5F4F31F5083C60
S1132CA021F51D50412F5527B701645F7F4F8EE8F2
S1132CB092E00E94E81D80E00E94A60116C0C701B0
S1132CC00E94F303AC018FB7F89499272091160260
S1132CD0309117028FBF4217530719F04F5F5F4FB0
S1132CE021F48FB7F89499278FBF9FB7F8948091F8
S1132CF01404E82FFF27EE0FFF1FE85AFD4FF1825F
S1132D00E0828F5F80931404833010F010921404D7
S1132D108091F00381508093F003892F99278FBF0E
S1132D2093CF8FB78983F8942090AA023090AB0296
S1132D304090AC025090AD026624772488240EE4BF
S1132D40A02E13E8B12ECC24DD24EE24FF2400E0D1
S1132D5010E0222D332D442D552D662D772D882DF1
S1132D6090E00E94C81B2A833B834C835D836E835F
S1132D707F8388879987822E932EA42EB52E2401D3
S1132D80350100E20E94C61CA22EB32EC42ED52EFD
S1132D90A301920156954795379527952A0D3B1D1A
S1132DA04C1D5D1D57FF05C05F772F5F3F4F4F4F91
S1132DB05F4F2093AA023093AB024093AC0250932E
S1132DC0AD02E9818E2F99278FBF8FB7F894992789
S1132DD030939D0320939C033CC0809182028823FE
S1132DE061F520910B0430910C0440910D04509135
S1132DF00E04EFB7F894FF2760915E0270915F02B2
S1132E008091600290916102E0901704F0901804A0
S1132E100091190410911A046E0D7F1D801F911FDB
S1132E20EFBF20930B0430930C0440930D04509394
S1132E300E04109282020E944B050E9492040E948A
S1132E40BB0456C20E9492048FB7F894992710923B
S1132E50A9028FBF4DC28FB7F8949927109294039B
S1132E60109293031092AA041092A904109257028C
S1132E70109256021092270310922603EACF2FB71E
S1132E80F89433278091B70280931E0282E08093E6
S1132E9037022FBF80911E02882309F029C2209A8D
S1132EA0289A8091AB04882309F075C08EEF91E0D5
S1132EB0019701960197E1F716982F9886E090E024
S1132EC0019701960197E1F7169A289883EC8EBD35
S1132ED00DB407FEFDCF8EB51EBC0DB407FEFDCFAD
S1132EE08EB5289A289882EC8EBD0DB407FEFDCFCE
S1132EF08EB588E08EBD0DB407FEFDCF8EB5289A41
S1132F008EEF91E0019701960197E1F728988EECF6
S1132F108EBD0DB407FEFDCF8EB58DE48EBD0DB410
S1132F2007FEFDCF8EB5289A289889EC8EBD0DB486
S1132F3007FEFDCF8EB587EC8EBD0DB407FEFDCF29
S1132F408EB5289A289885EC8EBD0DB407FEFDCF6A
S1132F508EB580E88EBD0DB407FEFDCF8EB5289AE0
S1132F601092EE028BE080938402289888EC8EBD48
S1132F700DB407FEFDCF8EB58BE68EBD0DB407FEF6
S1132F80FDCF8EB5289A2F9A81E08093AB0480E020
S1132F900E941903ADC10E948013AAC12091B302FB
S1132FA0812F8223C1F0E92FFF27EE0FFF1FE15F7E
S1132FB0FB4F4081518111821082812F80952823FB
S1132FC02093B302992339F463E0CA010E94E20B0F
S1132FD0110F91E0E3CF9F5F983008F089C1110F82
S1132FE0DDCF10911F02E12FFF27EE0FFF1FE15FDE
S1132FF0FB4FE080F180118210820E947D02112338
S113300009F076C161E041C18FB7F8941092DD04F4
S11330102091990340E0283009F441E030E0293060
S113302009F431E0442311F4332351F0109299034D
S1133030E0913403FF27EE0FFF1FE554FD4F10828C
S113304099278FBF442311F4332331F19FB7F894A8
S1133050809115048F5F809315048091B6028334A8
S113306079F420911F0380911E03821779F0822F37
S11330708F5F80931F03863048F010921F0306C0B1
S1133080A0E0442309F4A1E071E002C0A0E070E0F4
S1133090892F99278FBF06C0222311F010E06CC03E
S11330A0A0E070E08FB7F894992720913D028FBF7C
S11330B0222341F08FB7F89499272AE020939903AB
S11330C08FBF42C08FB7F89499276091BB0240919B
S11330D0BD028FBF8FB7F894282F332750E090910B
S11330E01E0380911F03981709F451E02FBF552345
S11330F041F5662331F55FB7F89482E08093BB0213
S11331008FB7F894282F332740E090911E038091C5
S11331101F03981709F441E02FBF442311F080E006
S113312006C0E0911F03FF27E25EFC4F828180937B
S1133130BC0283E48093B60210923403852F99274E
S11331400EC04150423010F010E00BC08FB7F8941D
S1133150992725E42093B60221E0209334038FBFFE
S113316011E0772349F08FB7F8949927A09346028A
S11331708FBF83E10E94A6018FB7F894E82EFF2445
S1133180809199038A3021F40E94A902EFBEB0C055
S1133190EFBE112309F4ACC02FB7F8943327109273
S11331A03705109236051092B40281E0809399039A
S11331B02FBF0E94FC02882309F49AC08FB7F894A9
S11331C0992729E0209399038FBF0E94CD0190C0D5
S11331D08091C1008F7B8093C1008091C1008F7763
S11331E08093C100109298031092A7028091C100AD
S11331F088608093C1008091C10080618093C10088
S11332008091C10080688093C1008FB7F89499279A
S1133210109299031092A4021CCE82E167C080919F
S1133220C100877F8093C1008091C1008F7E80930D
S1133230C1005EC010924302109242028FB7F8940C
S11332409927109146028FBF80914702811113E0A4
S1133250209140023091410280914802882309F074
S113326047C080911F02882309F042C0E0900F04F8
S1133270F0901004E216F30609F03AC0109210041C
S113328010920F040E947D02612FC7010E94E20B7D
S11332902FC08FB7F894992720914B0230914C029C
S11332A0409164028FBF8FB7F894E42FFF27EE0F8D
S11332B0FF1FEF5DFD4F3183208320913E024423A5
S11332C011F02B7F01C02D7F20933E021092490202
S11332D09927BFCD2FBF0CC04CE16CEA74E08FEF8F
S11332E09FEF0E943C02882319F085E10E94A60109
S11332F029960FB6F894DEBF0FBECDBFDF91CF91F4
S11333001F910F91FF90EF90DF90CF90BF90AF90FF
S11333109F908F907F906F905F904F903F902F90F1
S11333200895809111048F3FB1F0282F3327F901BC
S1133330E559FD4F8081809311048F3F11F48093F0
S113334033058FEF80832F3F31F0822F0E943A1490
S113335081E090E0089580E090E00895FF920F935B
S11333601F93FFB6F89414BE88E10FB6F8948093C7
S11333706000109260000FBE46E150E06FEF70E015
S11333808BE692E00E94F11D8FEF809311048093ED
S1133390330556985E9854985C9880916F008F7DA1
S11333A080936F00209A289A279A2F980E9A169A3B
S11333B08FEB92E090936302809362021092AE02CC
S11333C08AE58093890281E08093810080E2809382
S11333D0B60083E08093B1008091840090918500D1
S11333E04AE720918400309185002817390708F4B2
S11333F04150442311F0C901F4CF9091B20080915F
S1133400B2008917E1F320918400309185009091F6
S1133410B2008091B2008917E1F380918400909109
S11334208500821B930B409615E0969587951A9517
S1133430E1F790931304809312041092B1008091E9
S1133440B10080938100809181008093B600109236
S1133450B20010928500109284008FEF87BB87B36F
S113346086BB8091B6008571E1F70A9A099A089A99
S1133470129A119A109A18B88FEF87B90C98149869
S11334801092950010929400809171008160809355
S1133490710080919100887F8260809391001092E6
S11334A085001092840080916F00816080936F008A
S11334B080918100887F8260809381000E949119AD
S11334C08823E1F787E292E09093420580934105D7
S11334D012E006E060911204709113048827992782
S11334E0BCE0660F771F881F991FBA95D1F720E0BB
S11334F031EE40E050E00E94701D21503040209396
S1133500C400832F99278093C5001093C0000093B3
S1133510C2001092C1002093CC008093CD00109380
S1133520C8000093CA001092C90084E490E090930C
S1133530FD038093FC031092BB021092BD028AE04B
S1133540809399031092B4021092B602109215045B
S113355010923705109236051092DD041092340350
S11335601092F7031092F60384E08093A402109261
S11335709F0310920A041092A80210923103109231
S1133580300310921F0310921E03109252028FEF09
S11335908093B50280E00E94B90A182F8091B6008A
S11335A080628093B6008091B60081FDFCCF82E0FA
S11335B08093B0008091B60080FDFCCF83E08093BF
S11335C0B1008091B60083FDFCCF86EE8093B300FA
S11335D0809170008260809370000E94BF0480918B
S11335E01302909114020196AA27BB278093AA0282
S11335F09093AB02A093AC02B093AD028CE194E043
S113360090935902809358028F9690935B02809313
S11336105A028AE794E090935D0280935C028FEFF4
S11336209FEF90930104809300049093030480938C
S113363002049093050480930404909307048093F8
S113364006049093090480930804809113028295E0
S1133650807F809354028FEF809388020E94911997
S11336608823E1F78F2D99278FBF78948FB7F8942B
S1133670282F3327922F809199038A3031F080913B
S1133680A402843011F02FBF04C09FBF80E10E94C8
S1133690A6010E9401148CE092E00E940F1E0E9479
S11336A0C10B8FB7F894482F552757C080917000ED
S11336B0992783709070892B19F4E5E0F0E014C029
S11336C08091B6008A71E1F78091B3009091B200C5
S11336D0891B8C3038F08091B200853F18F4E3E008
S11336E0F0E002C0E2E0F0E080916E00867009F53F
S11336F080916F008E72E9F4809171008E72C9F42A
S11337000CB407FC16C08091C100887191F48091BB
S1133710C900887171F48091BC0082FD0AC0809157
S11337207A0087FF03C081E090E005C085E090E067
S113373002C080E090E023B78E1708F4E82FFF273B
S1133740E850FD4FE491207F2160E22BE3BF7894A1
S11337508895F89483B78E7F83BF809111048F3F3F
S113376009F4A4CF282F3327F901E559FD4F8081AF
S1133770809311048F3F11F4809333058FEF80837E
S11337802F3F09F493CF4FBF822F0E943A1489CF61
S1133790ACE2B0E0EEECFBE10C94B11D222E332E32
S11337A0442E552E662E772E882E992EFE013196A4
S11337B0A8E01192AA95E9F729823A824B825C82A9
S11337C06D827E828F829886FE013996B8E01192CE
S11337D0BA95E9F7A986BA86CB86DC86ED86FE869D
S11337E00F87188B89819A81AB81BC8189A79AA79D
S11337F0ABA7BCA77C018D018FEF9FEFA0E0B0E0E9
S1133800E822F9220A231B2389A59AA5ABA5BCA506
S11338101D014424552489859A85AB85BC858DA3D7
S11338209EA3AFA3B8A75C016D018FEF9FEFA0E04B
S1133830B0E0A822B922CA22DB228DA19EA1AFA1A9
S1133840B8A53D0188249924C801B701A6019501B2
S11338500E94921D69A37AA38BA39CA3C801B701FC
S1133860A40193010E94921D7B018C01C201B1014C
S1133870A60195010E94921D5B016C01C201B10178
S1133880A40193010E94921D3B014C01EA0CFB1C14
S11338900C1D1D1D89A19AA1ABA1BCA19D014427AA
S11338A055272E0D3F1D401F511F2A153B054C0562
S11338B05D0540F480E090E0A1E0B0E0680E791E80
S11338C08A1E9B1ECA01AA27BB27860D971DA81D09
S11338D0B91D8D8F9E8FAF8FB8A3A90133272227DF
S11338E089A19AA1ABA1BCA1A070B070280F391F07
S11338F04A1F5B1F298F3A8F4B8F5C8FA98CBA8C20
S1133900CB8CDC8CED8CFE8C0F8D18A1FE01719696
S113391098E011929A95E9F7ED8AFE8A0F8B188F39
S11339202D813E814F8158856DA17EA18FA198A5DF
S11339300E94921D3B014C012D853E854F8558897F
S113394069A57AA58BA59CA50E94921D2D893E8907
S11339504F89588D260F371F481F591F260D371DB5
S1133960481D591D2D8B3E8B4F8B588F6D887E883B
S11339708F88988C2A2D3B2D4C2D5D2D662D772D0F
S1133980882D992DE2E1AC960C94CD1DA0E1B0E018
S1133990ECECFCE10C94B11D222E332E442E552E5A
S11339A0662E772E882E992E002309F466C088E0AF
S11339B0FE01319611928A95E9F729833A834B8364
S11339C05C836D837E838F829887E0E2E01B1E1602
S11339D0CCF52D813E814F815885602F772767FD77
S11339E07095DA01C901062E04C0B695A79597957E
S11339F087950A94D2F78D879E87AF87B88B04C0CA
S1133A00220F331F441F551FEA95D2F789819A81EB
S1133A10AB81BC8104C0B695A795979587956A95A7
S1133A20D2F7282B392B4A2B5B2B29873A874B87D4
S1133A305C8729843A844B845C846D847E848F847F
S1133A4098881BC01D861E861F86188A2E2F332732
S1133A5027FD3095309521953F4F8D819E81AF8113
S1133A60B88504C0B695A795979587952A95D2F7FA
S1133A7089879A87AB87BC87DCCF222D332D442DD1
S1133A80552D662D772D882D992DE2E160960C94A5
S1133A90CD1DAA1BBB1B51E107C0AA1FBB1FA61744
S1133AA0B70710F0A61BB70B881F991F5A95A9F7E3
S1133AB080959095BC01CD01089597FB092E0726AA
S1133AC00AD077FD04D0E5DF06D000201AF4709503
S1133AD061957F4F0895F6F7909581959F4F0895CE
S1133AE0A1E21A2EAA1BBB1BFD010DC0AA1FBB1FFE
S1133AF0EE1FFF1FA217B307E407F50720F0A21B70
S1133B00B30BE40BF50B661F771F881F991F1A94DC
S1133B1069F760957095809590959B01AC01BD0106
S1133B20CF010895629FD001739FF001829FE00D41
S1133B30F11D649FE00DF11D929FF00D839FF00D28
S1133B40749FF00D659FF00D9927729FB00DE11DD4
S1133B50F91F639FB00DE11DF91FBD01CF011124B1
S1133B6008952F923F924F925F926F927F928F921D
S1133B709F92AF92BF92CF92DF92EF92FF920F93F8
S1133B801F93CF93DF93CDB7DEB7CA1BDB0B0FB602
S1133B90F894DEBF0FBECDBF09942A8839884888BF
S1133BA05F846E847D848C849B84AA84B984C88455
S1133BB0DF80EE80FD800C811B81AA81B981CE0F4C
S1133BC0D11D0FB6F894DEBF0FBECDBFED01089531
S1133BD0FB01DC0102C001900D9241505040D8F726
S1133BE00895DC0101C06D9341505040E0F7089501
S1133BF0A2E0B0E0EEEFFDE10C94C11DFE013796AA
S1133C0061917191FA83E983AF01809141059091AB
S1133C1042050E94421EE2E022960C94DD1D0F93A1
S1133C201F93CF93DF938C01E0914105F0914205FE
S1133C30838181FF1FC0C0E0D0E00AC0FD01208560
S1133C403185BD01F9010995892B11F0CFEFDFEF23
S1133C50F80181918F01A0914105B091420588231B
S1133C6069F7FD0120853185BD018AE0F9010995D7
S1133C70892B11F0CFEFDFEFCE01DF91CF911F91B0
S1133C800F910895ABE0B0E0E8E4FEE10C94B31DBD
S1133C903C014B016A01FC0117821682838181FD7C
S1133CA003C08FEF9FEFDAC1F3013381F40133FDD9
S1133CB0859133FF81914F01882309F4CCC185326A
S1133CC039F433FD859133FF81914F01853229F415
S1133CD0B30199270E944820E7CF00E044245524EB
S1133CE04AE00032B0F48B3269F08C3228F480322E
S1133CF051F0833271F40BC08D3239F0803349F4C2
S1133D00016028C00260046025C0086023C000610F
S1133D1021C007FD29C0282F20532A3078F406FF3C
S1133D2006C0549EC0011124522E580E13C0449E46
S1133D30C0011124422E480E00620CC08E3221F4C0
S1133D4006FD89C1006406C08C3611F4006802C007
S1133D50883651F4F40133FD859133FF81914F018D
S1133D60882309F46FC0BDCF982F8554833018F091
S1133D708052833038F424E030E0C20ED31E8FE347
S1133D8089830FC0933631F0933799F0933509F056
S1133D905BC023C0F6018081898322E030E0C20E3B
S1133DA0D31E7E010894E11CF11C51E0A52EB12C18
S1133DB012C0F601E080F18006FD03C06FEF7FEFD3
S1133DC002C0652D772722E030E0C20ED31EC70162
S1133DD00E943D205C010F7713C0F601E080F18062
S1133DE006FD03C06FEF7FEF02C0652D772722E049
S1133DF030E0C20ED31EC7010E9432205C0100686D
S1133E0003FF07C01BC0B30180E290E00E9448207A
S1133E104A94842D9927A816B906A8F30FC0F70170
S1133E2007FD859107FF81917F01B30199270E94C6
S1133E30482041104A940894A108B108A114B1047F
S1133E4071F706C190E03EC0943611F0993691F5B1
S1133E5007FF0AC0F601608171818281938124E0A9
S1133E6030E0C20ED31E0DC0F601808191819C0109
S1133E70B901882777FD8095982F42E050E0C40E61
S1133E80D51E4FE6B42EB02297FF09C090958095B9
S1133E90709561957F4F8F4F9F4F50E8B52A8E01E3
S1133EA00F5F1F4F2AE030E0A8010E947520A82E62
S1133EB0A01A4DC0953731F43FEEF32EF0222AE0DC
S1133EC030E023C029EFF22EF0229F3661F09037C4
S1133ED020F4983509F0BFC012C0903739F09837F4
S1133EE009F0B9C005C028E030E00FC080E1F82A2D
S1133EF0F4FE02C094E0F92A20E130E006C0F4FEAA
S1133F0002C0E6E0FE2A20E132E0F7FE0AC0F60134
S1133F10608171818281938144E050E0C40ED51E9A
S1133F200BC0F60180819181AC01BA0188279927E1
S1133F30E2E0F0E0CE0EDF1E8E010F5F1F4FA801FE
S1133F400E947520A82EA01A8FE7B82EBF20B6FEB7
S1133F5010C0FEEFBF22A51460F42B2D332724FFDD
S1133F601AC022FF02C0052D09C02FEEB222052D72
S1133F7001C00A2D2B2D332724FF0EC0FE01EA0DAC
S1133F80F11D8081803319F439EEB32209C00F5F2B
S1133F9022FF06C004C0052D822F867809F00F5F2A
S1133FA0EB2CFF24E3FC14C0E0FE0FC0041510F05A
S1133FB05A2C0BC0542C501A5A0C042D06C0B301B1
S1133FC080E290E00E9448200F5F0415C0F304C013
S1133FD0041510F4401A01C04424E4FE10C0B301D7
S1133FE080E390E00E944820E2FE1EC0E1FE03C090
S1133FF088E590E002C088E790E0B3010CC08E2D04
S1134000867891F0E1FE02C08BE201C080E2B7FC49
S11340108DE2B30199270E94482006C0B30180E3D2
S113402090E00E9448205A94A514C0F3AA94FE017B
S1134030EA0DF11D8181B30199270E944820AA202D
S113404039F0F4CFB30180E290E00E9448204A9412
S11340504420C1F729CEF30186819781E0E12B96B4
S11340600C94CF1DFC010590615070400110D8F7ED
S1134070809590958E0F9F1F0895FC0161507040AC
S113408001900110D8F7809590958E0F9F1F089589
S11340900F931F93CF93DF938C01EB018B819927AF
S11340A081FF1BC082FF0DC02E813F818C819D81C9
S11340B02817390764F4E881F9810193F983E883C7
S11340C006C0E885F985802F0995892B31F48E8106
S11340D09F8101969F838E8302C00FEF1FEFC8015B
S11340E0DF91CF911F910F910895FA01AA272830EB
S11340F051F1203181F1E8946F936E7F6E5F7F4FB1
S11341008F4F9F4FAF4FB1E03ED0B4E03CD0670F2C
S1134110781F891F9A1FA11D680F791F8A1F911D7F
S1134120A11D6A0F711D811D911DA11D20D009F4CF
S113413068943F912AE0269F11243019305D319311
S1134140DEF6CF010895462F4770405D4193B3E0FA
S11341500FD0C9F7F6CF462F4F70405D4A3318F0A1
S1134160495D31FD4052419302D0A9F7EACFB4E052
S1134170A6959795879577956795BA95C9F700970A
S11341806105710508959B01AC010A2E06945795AB
S1134190479537952795BA95C9F7620F731F841F02
S10B41A0951FA01D0895FFCF37
S11341A825752A003A20256C75200A0073746172FB
S11341B8742000010001010022FFFFFFFFFFFF013F
S11341C8FF3503640335030000000200000000F219
S10941D80B0000000000D2
S9030000FC
