S01700006275696C642F697269732F6D61696E2E7372656343
S11300000C947F010C949E010C949E010C949E010F
S11300100C949E010C949E010C949E010C949E01E0
S11300200C949E010C949E010C949E010C949E01D0
S11300300C949E010C944E0A0C949E010C94CD05D4
S11300400C9494130C94CA130C9489050C94940581
S11300500C949F050C949E010C949E010C949E019B
S11300600C94E1050C9441080C949E010C94C40872
S11300700C949E010C949E010C949E010C941B0AFA
S11300800C94FA090C94050A0C94100A0C942E0A88
S11300900C94DD090C949E010C94EF090C949E01C0
S11300A00C949E010C949E010C949E010C949E0150
S11300B00C949E010C949E010C949E010C949E0140
S11300C00C949E010C949E010C949E017014621475
S11300D080158A15BE15D0152B169816F4162917F7
S11300E0CE17321746176814F8170C18F01815199C
S11300F01719221953197619000021104220633070
S11301008440A550C660E770088129914AA16BB16B
S11301108CC1ADD1CEE1EFF1311210027332522213
S1130120B5529442F772D662399318837BB35AA3BB
S1130130BDD39CC3FFF3DEE36224433420040114E3
S1130140E664C774A44485546AA54BB5288509950B
S1130150EEE5CFF5ACC58DD55336722611163006B3
S1130160D776F6669556B4465BB77AA7199738875B
S1130170DFF7FEE79DD7BCC7C448E5588668A77873
S11301804008611802282338CCC9EDD98EE9AFF9AB
S1130190488969990AA92BB9F55AD44AB77A966A53
S11301A0711A500A333A122AFDDBDCCBBFFB9EEBFB
S11301B0799B588B3BBB1AABA66C877CE44CC55C23
S11301C0222C033C600C411CAEED8FFDECCDCDDD4B
S11301D02AAD0BBD688D499D977EB66ED55EF44EF3
S11301E0133E322E511E700E9FFFBEEFDDDFFCCF9B
S11301F01BBF3AAF599F788F8891A981CAB1EBA1EF
S11302000CD12DC14EF16FE18010A100C230E3206A
S11302100450254046706760B9839893FBA3DAB312
S11302203DC31CD37FE35EF3B1029012F322D232BA
S11302303542145277625672EAB5CBA5A8958985E2
S11302406EF54FE52CD50DC5E234C324A01481040A
S11302506674476424540544DBA7FAB79987B897B2
S11302605FE77EF71DC73CD7D326F2369106B0165A
S113027057667676154634564CD96DC90EF92FE972
S1130280C899E9898AB9ABA94458654806782768AA
S1130290C018E1088238A3287DCB5CDB3FEB1EFB52
S11302A0F98BD89BBBAB9ABB754A545A376A167AFA
S11302B0F10AD01AB32A923A2EFD0FED6CDD4DCD22
S11302C0AABD8BADE89DC98D267C076C645C454C4A
S11302D0A23C832CE01CC10C1FEF3EFF5DCF7CDFF2
S11302E09BAFBABFD98FF89F176E367E554E745E9A
S11302F0932EB23ED10EF01E00020E060C04112401
S11303001FBECFEFD1E2DEBFCDBF12E0A0E0B2E06E
S1130310EAE4F1E400E00BBF02C007900D92AC32B6
S1130320B107D9F715E0ACE2B2E001C01D92A53ED9
S1130330B107E1F70E94B8190C94A4200C940000B2
S11303408FB7F894992708958FBF0895282F9FB7E2
S1130350F894E82FFF27EF59FD4F80818F3F81F4F8
S1130360E091D305E21771F40BC02093B10404C0EB
S1130370FF27EF59FD4F20832093D30520E007C0CA
S113038025E005C08091B1048F3F91F7EECF892F0E
S113039099278FBF822F992708951F931FB7F89429
S11303A080917D05882341F48FE00E94A601882373
S11303B019F481E080937D05812F99278FBF1F91C8
S11303C00895382FFA01422F2D3118F082E090E081
S11303D008956683872F99278583338721878091A2
S11303E0380290913902892B19F085E090E0089544
S11303F02FB7F894332785E080933B0210923C0298
S1130400F0933702E093360282E090E09093390251
S11304108093380210923E0210923D02445F409352
S11304203A022FBF8FB7F894282F332780918F0378
S11304308A3011F42FBF19C02FBF9FB7F894809151
S1130440B302882311F020E006C081E08093B30258
S11304501092B40221E0892F99278FBF222329F01B
S11304600E94CD0180E090E008951092390210922C
S1130470380281E090E00895CF93DF93DB01FB0124
S113048035968183892F9927EB018D8384E68683B2
S11304908091AF049091B004892B19F085E090E02D
S11304A029C07093B0046093AF0444838091150213
S11304B0882319F480E090E01DC08681EB016D81F2
S11304C07727762F662721813327622B732B10928F
S11304D01502242FAD010E94E1019927282F8823BA
S11304E039F081E0809315021092B0041092AF04A9
S11304F0822F9927DF91CF910895CF93DF931092A4
S11305001502A091AF04B091B004109721F080912E
S1130510A90280FF08C081E08093150217C08EE015
S11305200E94A60113C0FD01359624813327ED01F5
S11305306D817727762F662781819927682B792B00
S1130540AD0186810E94E101882349F7DF91CF91B3
S1130550089580918F038A3021F480919A02843027
S113056021F081E080933302089581E10E94A60185
S11305701092330208952FB7F89433278093C6005E
S1130580E0ECF0E08081806480832FBF0895FC015B
S11305906115710519F481E090E008958091AE022F
S11305A09091AF02892B19F085E090E00895709343
S11305B09F0460939E04F093AF02E093AE02109206
S11305C09C0210929B0281E080939D028091C00066
S11305D080648093C0008091C10080648093C100D6
S11305E0808121E030E030939C0220939B020E94A2
S11305F0BB0280E090E008958FB7F894992720918A
S113060044022E7F209344022EE7209377028FBF6B
S113061061E070E087E792E00E94C702992708959D
S1130620882319F08CB5806402C08CB58F7B8CBD97
S11306300895882319F08CB5806802C08CB58F7733
S11306408CBD08950F931F9380E00E9410030FB791
S1130650F8941127229A2398219A209A8CB58061C4
S11306608CBD80E00E9419038CB5877F8CBD8CB54E
S11306708B7F8CBD81E00E9410038DB581608DBDA0
S11306808CB58C7F8CBD0FBF1F910F9108950F9374
S11306901F93CF93DF93182F0FB7F89480912D02F7
S11306A0882311F40E942203802F99278FBF8FB7CC
S11306B0F894C82FDD272C2F80912D02882361F414
S11306C081E080932D021093AD028CE00E94A6017C
S11306D0CFBF80E090E021C0E12FFF27E555FD4F1B
S11306E080818F3F89F4E0911302E11789F40CC0F3
S11306F01093120204C0FF27E555FD4F1083109399
S1130700130280E090E002C085E090E02FBF05C0B6
S1130710809112028F3F79F7EBCFDF91CF911F9138
S11307200F910895FB0121E030E002C0220F331F36
S11307308A95E2F784A5822B84A708958FB7F8944D
S113074020912203309123034091240350912503E7
S1130750E0918400F0918500B09B08C02F5F3F4F6B
S11307604F4F5F4FE0918400F091850099278FBF30
S1130770C901772766279F0144275527622B732BCE
S1130780842B952B0895FC0182819927982F882723
S113079021813327822B932B75E0969587957A9543
S11307A0E1F7817090700895FC0140E050E082818F
S11307B09927982F882721813327822B932B87749D
S11307C09C7C8154984811F441E050E0CA0108959A
S11307D0FC0187819927982F882726813327822B2C
S11307E0932B0895AC01EFB7F894209184003091D5
S11307F08500C901841B950B03968617970720F083
S1130800B9016D5F7F4F02C0640F751F61157105DB
S113081011F461E070E0615070407093890060935E
S1130820880082E086BB80916F00826080936F00B5
S11308308E2F99278FBF089520E030E0FC0181813D
S11308408770823011F421E030E0C9010895CF931C
S1130850DF93EC010E94C3038823D1F0CE010E94F0
S1130860D4038823A9F0CE010E94E8032FB7F8949B
S1130870332740910C0250910D022FBF20E08417C2
S1130880950709F021E081E02827822F992702C0EB
S113089080E090E0DF91CF910895FB0121E030E00A
S11308A002C0220F331F8A95E2F784A58223992779
S11308B00895EF92FF920F931F937C018FB7F894E2
S11308C0992700919203109193030F5E1E4F10938A
S11308D0930300939203015111408FBF87E00E945C
S11308E0A601C801B7010E944D1D8A5D9E4F1F914C
S11308F00F91FF90EF9008957FB7F8946091B20044
S113090020915C0230915D0240915E0250915F0241
S1130910B99B11C08091B3009091B200280F311D92
S1130920411D511D2F5F3F4F4F4F5F4F290F311D09
S1130930411D511D04C0260F311D411D511D872F1E
S113094099278FBFCA01B901089589E00E94A601C1
S11309500895DF92EF92FF920F931F938FB7F8944D
S1130960282F3327D22E9091B3008091B20047B341
S1130970981711F041FF02C02FBF71C080919F02F0
S11309808823E1F10E947C04E0905402F090550227
S113099000915602109157022091B7043091B80487
S11309A04091B9045091BA046E197F09800B910BE0
S11309B0621773078407950720F010929F0271E075
S11309C01EC02E0D3F1D401F511F80915C0290914F
S11309D05D02A0915E02B0915F02281B390B4A0BA5
S11309E05B0B273E31054105510540F4822F22302F
S11309F010F070E005C070E082E002C070E086EEA6
S1130A00682F61508091B60083FDFCCF8091B200C5
S1130A10681709F46F5F20915C0230915D02409188
S1130A205E0250915F02DA01C9010196A11DB11D58
S1130A30860F911DA11DB11D82179307A407B50749
S1130A4010F4622F60958091B60083FDFCCF609313
S1130A50B300DFBE772319F088E00E94A6011F913E
S1130A600F91FF90EF90DF900895AFB7F894BB27F4
S1130A70E1E0E0939F0260935402709355028093E7
S1130A805602909357022093B7043093B8044093CE
S1130A90B9045093BA04AFBF0E94A9040895582F13
S1130AA02091490260912E0270912F0230E040E0C3
S1130AB029C080913202992787709070892BA9F4FC
S1130AC0E0913002F091310281919927282FF0931F
S1130AD03102E0933002109232026E177F0728F43D
S1130AE08093490281E090E00895330F822F881F9C
S1130AF08827881F382B220F809132028F5F8093C2
S1130B0032024F5F4517A9F620934902832F992794
S1130B10089578941F920F920FB60F9211240F909C
S1130B200FBE0F901F90189578941F920F920FB6D6
S1130B300F9211240F900FBE0F901F901895789468
S1130B401F920F920FB60F9211242F933F938F93FE
S1130B509F93AF93BF932FB7F894332780912203C9
S1130B6090912303A0912403B09125030196A11D24
S1130B70B11D8093220390932303A0932403B09385
S1130B8025032FBFBF91AF919F918F913F912F91DB
S1130B900F900FBE0F901F9018951F920F920FB6D3
S1130BA00F9211248F938091B0008093B0008091B4
S1130BB0B60081FDFCCF8F910F900FBE0F901F9058
S1130BC018951F920F920FB60F9211240F931F9333
S1130BD02F933F934F935F936F937F938F939F9341
S1130BE0AF93BF93CF93DF93EF93FF932EB5E09131
S1130BF08903F0918A03309739F080911C03909116
S1130C001D03E80FF91F208380911C0390911D039D
S1130C10019690931D0380931C0380E00E941903A6
S1130C20C0911C03D0911D0320914C0230914D02C0
S1130C30C217D30708F042C00091490510914A0534
S1130C404091890350918A03CE010A9628173907E7
S1130C5008F4C901DA01AC0FBD1FF801EC0FFD1F48
S1130C609C012150304015C00115110531F08081DF
S1130C708EBD0DB407FEFDCF04C01EBC0DB407FE2F
S1130C80FDCF8EB54115510509F08C93219611962F
S1130C903196C217D30740F381E00E94190301156E
S1130CA0110531F00C0F1D1FF80180818EBD01C0AC
S1130CB01EBCD0931D03C0931C0311C010928A0361
S1130CC01092890310924A051092490510924D0220
S1130CD010924C0210921D0310921C038EB5FF91CA
S1130CE0EF91DF91CF91BF91AF919F918F917F91C0
S1130CF06F915F914F913F912F911F910F910F90A1
S1130D000FBE0F901F901895E8EFF0E06927660F6B
S1130D10F11DE60FF11DC895982F802D3196C895C9
S1130D2090250895982F80913F02882389F599236F
S1130D3079F531E030933F028091160280934002AE
S1130D4020913402822F817080935A0280911B0279
S1130D5090911C029093420280934102809135024B
S1130D608093430232273170267EE32FFF27EE0F54
S1130D70FF1FE95EFD4F8081918190931C02809357
S1130D801B02232B2093340284E10E94A6010895C0
S1130D908091340280FF02C08B7F01C08D7F8093DD
S1130DA0340208950F931F93082F162F80919A02EF
S1130DB08130D9F0813038F0823009F44AC0833070
S1130DC009F028C159C0002309F458C110929704AE
S1130DD010929604109295031092AA0410929E0207
S1130DE0109227031092260339C1002309F046C14B
S1130DF080912603909127030E94840690932703F1
S1130E008093260382E080939A021093AA041434F8
S1130E1009F000C125C18695869503C080913402EE
S1130E208695817009F0F6C080913402992311F0FF
S1130E30846001C082608093340280913402877E92
S1130E40886080933402109235028FEF80931602EB
S1130E5015C1002309F0DEC060939E028091260331
S1130E60909127030E94840690932703809326037E
S1130E7083E080939A0202C1809195038F3F09F425
S1130E80C9C0002309F461C0823008F4C3C0E091F2
S1130E909604EE2309F4EBC04E2F4150E42FFF27B4
S1130EA0EA56FB4F82819927382F2227442311F4D5
S1130EB0E2E002C0E42FE150FF27EA56FB4F8281B3
S1130EC09927282B392B80912603909127032817E3
S1130ED0390709F09FC080E00E94920630919E027B
S1130EE08091140320911503982F9F5F963008F08A
S1130EF090E0921771F0E82FFF27EC5EFC4F3283ED
S1130F008F5F80931403863010F0109214030E94B4
S1130F10CD01109297041092960494E090939A0253
S1130F20109295031092AA0410929E021092270325
S1130F3010922603809144028D7F80934402809115
S1130F403302882309F49AC084C0823008F44EC066
S1130F50E0919704FF27EA56FB4F8281482F5527DB
S1130F60342F20913402822F86958695869583703E
S1130F7099278130910519F00297F9F40EC0277E64
S1130F80206120933402442311F485E001C080E001
S1130F90809335023093160210C0809135028F324F
S1130FA060F4E0911B02F0911C02E80FF11D4083F4
S1130FB0809135028F5F8093350280919704E82FEA
S1130FC0FF27EA56FB4F62818F5F8093970483303B
S1130FD010F01092970477278091260390912703AD
S1130FE00E9484069093270380932603809196049D
S1130FF0E82FFF27EA56FB4F12838F5F80939604F6
S1131000833010F010929604809195038F5F809343
S1131010950334C0109297041092960414E0109330
S11310209A02109295031092AA0410929E021092B2
S1131030270310922603809144028D7F80934402FB
S113104081E00E94920680913302882329F0109354
S11310509A020E94A90212C0002381F081E009CF04
S113106080913402982F917080FDD5CED7CE809197
S11310709A049927382F222742E01CCF1F910F9101
S113108008951F920F920FB60F9211242F933F933E
S11310904F935F936F937F938F939F93AF93BF937C
S11310A0EF93FF938091C00087FF42C06091C60018
S11310B0E0912803F0912903309719F180917B0581
S11310C090917C05E80FF91F6083019690937C054D
S11310D080937B052091D8053091D9058217930719
S11310E038F1109229031092280380918E038330E3
S11310F0F9F08091C1008F778093C10010928E0324
S113110017C06E3719F460E081E010C0809144028A
S11311106D3721F48260809344020AC081FF05C0C8
S11311208D7F8093440280E2682780E00E94D2068B
S1131130FF91EF91BF91AF919F918F917F916F91AB
S11311405F914F913F912F910F900FBE0F901F9081
S11311501895982F8D57823068F4809144028160ED
S11311608093440280E28927809394038DE78093DF
S1131170770202C09093770261E070E087E792E023
S11311800E94C7029927089578941F920F920FB670
S11311900F921124FF920F931F932F933F934F931A
S11311A05F936F937F938F939F93AF93BF93CF93EB
S11311B0DF93EF93FF9320919B0230919C028091E7
S11311C09E0490919F042817390780F4E091AE02A1
S11311D0F091AF02E20FF31F80812F5F3F4F3093F6
S11311E09C0220939B020E94BB02D1C01092AF02CA
S11311F01092AE0210929D028091C1008F7B809369
S1131200C100FFB6F8948091440280FF0EC08E7F27
S113121080934402809194038093770261E070E0AC
S113122087E792E00E94C702AFC080918F038430A9
S113123009F48CC0853040F4823021F18330B8F554
S1131240813009F09CC00DC0863009F48DC0863011
S113125008F483C0873009F48EC0883009F08FC049
S113126091C08091AC020E94A908082F83E080936A
S11312708F036091AC028091D6059091D7050E94AE
S1131280840610C08091B5040E94A908082F83E049
S113129080938F036091B5048091D6059091D70512
S11312A00E9484069093D7058093D60566C0E0918A
S11312B02A03FF27EE0FFF1FEE54FD4F80810E948B
S11312C0A908082F10912A03C12FDD27FE01EE0F74
S11312D0FF1FEE54FD4F60818091D6059091D70594
S11312E00E9484069093D7058093D6052091AA0284
S11312F02F5F2093AA02113039F580913B02E091CF
S11313003602F0913702E80FF11DE0818F5F809380
S11313103B0290913A02981730F482E08093B30232
S113132040E050E002C04E2F5527DE01AA0FBB1F3C
S1131330FD01EF54FD4F8081823031F02F3F21F0C9
S1131340AE54BD4F4C9319C084E012C08091D605B1
S11313500E94A908082F85E00BC08091D7050E9440
S1131360A908082F86E004C00E94FC02082F87E029
S113137080938F0302C088E003C0002329F089E032
S113138080938F030E94CD018F2D99278FBFFF91EA
S1131390EF91DF91CF91BF91AF919F918F917F9109
S11313A06F915F914F913F912F911F910F91FF90FA
S11313B00F900FBE0F901F9018951F920F920FB6AB
S11313C00F9211248F938091C80087FF02C08091EF
S11313D0CE008F910F900FBE0F901F9018957894A8
S11313E01F920F920FB60F9211240F900FBE0F9001
S11313F01F90189578941F920F920FB60F92112494
S11314000F900FBE0F901F90189578941F920F9213
S11314100FB60F9211240F900FBE0F901F901895C6
S113142078941F920F920FB60F9211240F900FBE53
S11314300F901F90189578941F920F920FB60F92E9
S113144011248F939F9380919600909197009F9180
S11314508F910F900FBE0F901F90189578941F9244
S11314600F920FB60F9211242F933F938F939F9354
S11314702FB7F89433278091A5029091A602019684
S11314809093A6028093A5022FBF9F918F913F91C5
S11314902F910F900FBE0F901F9018951F920F92CF
S11314A00FB60F9211242F933F934F935F936F9333
S11314B07F938F939F93AF93BF93EF93FF93809109
S11314C0B0008093B0008091B60081FDFCCF809184
S11314D0B30099270196AA27BB2720915C0230917B
S11314E05D0240915E0250915F02280F391F4A1F2E
S11314F05B1F20935C0230935D0240935E02509325
S11315005F0278940E94A904FF91EF91BF91AF917B
S11315109F918F917F916F915F914F913F912F9107
S11315200F900FBE0F901F90189521E02093B002EA
S113153020938B032091840030918500BC01C90164
S11315400E94F20308951F93982F1FB7F894809177
S11315502C02823099F580911102891779F58091D6
S11315600F0220E030E08F3F11F421E030E0232B24
S1131570F1F49FEF909311028F3F19F42FEF30E0B5
S11315800DC0282F3327F901E258FD4F8081809345
S11315900F028F3F11F490931002908320937B02EB
S11315A081E080932C0283E00E94A60105C08FEFA6
S11315B08093110210922C0221E001C020E0812FBF
S11315C099278FBF90E0213009F491E081E09827BA
S11315D0892F99271F9108950F931F93982F1FB751
S11315E0F89480912D02823099F580911402891724
S11315F079F58091120220E030E08F3F11F421E070
S113160030E0232BF1F49FEF909314028F3F19F4F1
S11316102FEF30E00DC0282F3327F901E555FD4F9A
S11316208081809312028F3F11F490931302908370
S11316302093AD0281E080932D028CE00E94A601EC
S113164005C08FEF8093140210922D0201E001C0B7
S113165000E0812F99278FBF1FB7F89480912D0246
S1131660882311F40E941003812F99278FBF90E0E3
S1131670013009F491E081E09827892F99271F917F
S11316800F9108958FB7F894282F3327922F8091C4
S11316901402882331F480912D02823011F42FBF7B
S11316A013C09FBF8FB7F894282F332780912D0242
S11316B0882369F482E080932D02109214022FBFD4
S11316C00E942203209A289A81E090E008952FBF77
S11316D080E00E94470380E090E0089580918202B8
S11316E0823031F481E08093820285E00E94A60179
S11316F008958093BB04882311F484E001C081E041
S11317008093820285E00E94A60108958091470299
S11317108C3118F04CE150E002C0482F55278CE181
S1131720E8E5F5E011928A95E9F7909147028091F6
S1131730450220E030E0A8E5B5E00FC0E82FFF2720
S1131740EA56FC4FE081992329F08F5F8A3F09F420
S113175080E09150ED932F5F3F4F2417350771F7C9
S113176090934702809345024CE16CE475E08FEF5F
S11317709FEF0E943C02882319F085E10E94A60194
S113178008958FB7F894282F332780914802813029
S113179021F42FBF80E090E0089590E0809147020B
S11317A0882309F491E0992321F02FBF81E090E090
S11317B0089581E0809348022FBF0E94860B80E049
S11317C090E008951F93182F80914802882349F4CC
S11317D0809147028D3728F081E0809348020E946F
S11317E0860B8FB7F894282F3327909147029A3F9E
S11317F0A8F480914602E82FFF27EA56FC4F108395
S11318008F5F809346028A3F11F4109246029F5FD5
S1131810909347022FBF80E090E003C02FBF8FEF6B
S11318209FEF1F910895662351F480914702882306
S113183019F00E94860B089510924802089585E1DC
S11318400E94A60108953F924F925F926F927F92F9
S11318508F929F92AF92BF92CF92DF92EF92FF92BC
S11318600F931F93CF93DF932C0180914B02882316
S113187009F07AC180914B05853009F075C10E9449
S1131880420B882309F470C180919B04882309F0DA
S11318906BC1B20182E00E944D04882311F490E0F0
S11318A003C0F20196A59F708091E402981781F01D
S11318B09093E402289885EC8EBD0DB407FEFDCF0D
S11318C08EB590689EBD0DB407FEFDCF8EB5289AE7
S11318D0C2010E94D403882301F1289886E88EBDB2
S11318E00DB407FEFDCF8EB51EBC0DB407FEFDCFB3
S11318F08EB5289A99278F7190702091A4024091F7
S11319007F02240F312D311D43E0359527954A95EB
S1131910E1F7281739070CF427C1289882EC8EBD0B
S11319200DB407FEFDCF8EB589E08EBD0DB407FE64
S1131930FDCF8EB5289A0E949E037B018C01B201D3
S113194084E00E944D04882319F4E0E0F0E006C02E
S1131950D2018C918550F201E80FF11D289881E89D
S11319608EBD0DB407FEFDCF8EB51EBC0DB407FEB3
S1131970FDCF8EB5289A8F71893079F0289882EC42
S11319808EBD0DB407FEFDCF8EB586E08EBD0DB4C1
S113199007FEFDCF8EB5289AE7C08FB7F894992734
S11319A02F9A20918400309185008FBF2F9828981A
S11319B080E68EBDD2019C910DB407FEFDCF8EB59D
S11319C09EBD8EEF382E390EB6E0B31510F0632DA0
S11319D001C067E0A2014F5F5F4FDA01962F7D914E
S11319E00DB407FEFDCF8EB57EBD9150C1F7615099
S11319F0EA01C60FD11D6F5F21962E193F092E559E
S1131A003F4F3901882477FC8094982C6E0C7F1CFE
S1131A10801E911E309719F4932D961B42C020818D
S1131A20E1808281A3809927AA27BB27BA2FA92FF7
S1131A30982F8827332744275527522F44273327A5
S1131A402227FF24002711278701FF24EE242E29B3
S1131A503F29402B512BBB24CC24DD242A293B29AC
S1131A604C295D29822B932BA42BB52B861997091E
S1131A70A809B9098383292F3A2F4B2F552722838D
S1131A809D014427552721838B2F9927AA27BB27FC
S1131A908083C2CF28810DB407FEFDCF21968EB579
S1131AA02EBD9150B8F70DB407FEFDCF8EB5289A20
S1131AB0289882EC8EBD0DB407FEFDCF8EB586E06E
S1131AC08EBD0DB407FEFDCF8EB5289A3097D1F1A7
S1131AD02081E1808281A3809927AA27BB27BA2F7E
S1131AE0A92F982F8827332744275527522F442777
S1131AF033272227FF24002711278701FF24EE2400
S1131B002E293F29402B512BBB24CC24DD242A2908
S1131B103B294C295D29822B932BA42BB52B860DB5
S1131B20971DA81DB91D8383292F3A2F4B2F5527A5
S1131B3022839D014427552721838B2F9927AA2788
S1131B40BB278083B20181E00E949203F20160A668
S1131B5071A682A693A686E080934B0584E08093C9
S1131B604B0280E090E002C085E090E0DF91CF91ED
S1131B701F910F91FF90EF90DF90CF90BF90AF90A7
S1131B809F908F907F906F905F904F903F900895BB
S1131B90AF92BF92CF92DF92EF92FF920F931F9377
S1131BA0CF93DF9380919B04882309F4F5C00E94AE
S1131BB0420B882309F4F0C08FB7F8949927C09199
S1131BC0A702D091A8028FBF10929B0428988FE897
S1131BD08EBD0DB407FEFDCF8EB51EBC0DB407FE41
S1131BE0FDCF8EB5289A982F80914B02833011F047
S1131BF0873031F485E080934B0588E080934B0275
S1131C00A92EBB24A2FE63C080914B02863019F436
S1131C1010924B0203C0882309F059C0943009F094
S1131C2045C0289886E88EBD0DB407FEFDCF8EB55D
S1131C301EBC0DB407FEFDCFFEB4289A2FE1F2229C
S1131C4080917F02982F969596953F2D391B830F8F
S1131C5080937F020091580210915902F80184A5E3
S1131C608B7F84A7B80183E00E949203F801F6A653
S1131C700E949E037B018C01C0905802D0905902AF
S1131C80B60181E00E949203CE19DF092797CE01A5
S1131C90AA2797FDA095BA2F8E0D9F1DA01FB11FD7
S1131CA0F60180A791A7A2A7B3A70EC0E09158029E
S1131CB0F091590284A5877F84A7E0915802F0919E
S1131CC0590284A58D7F84A785E080934B02A3FEEF
S1131CD063C080914B02843009F041C085E0809359
S1131CE04B0510924B0280915B02833019F41092E1
S1131CF05B0252C00091D4051091D505C8010E9421
S1131D00C303882321F1C8010E94D4038823F9F076
S1131D10C8010E94E8038F5F9F4FC9F090E0809153
S1131D208B03882309F491E0992389F012E010933E
S1131D30B00281E080938B038091840090918500B0
S1131D4069E973E00E94F20310935B0225C01092CC
S1131D505B021092830280E00E94790B1DC08530E3
S1131D60D9F42091A402289886E88EBD0DB407FE0C
S1131D70FDCF8EB51EBC0DB407FEFDCF8EB5289ADF
S1131D808F71922F96959695891B280F2093A40204
S1131D9089E080934B0208C090914B02992309F487
S1131DA0DFC2993009F00CC2289880E28EBD0DB4D0
S1131DB007FEFDCF8EB51EBC0DB407FEFDCF8EB55C
S1131DC0482F5527433008F490C3842F99278A97C6
S1131DD00CF08BC31EBCE0915802F0915902408371
S1131DE0042F0250073010F4102F01C017E09F0198
S1131DF02F5F3F4F912FF901EE24FF240DB407FE0E
S1131E00FDCF8EB51EBC80838191A7014827042E87
S1131E104295407F4025052E542F42954F7004264D
S1131E20469554274527440F440F440F40257A0113
S1131E30915021F71150E901C10FD11D1F5F219667
S1131E4080915802909159020E941C04882349F001
S1131E5020E030E080915B02823081F421E030E0C8
S1131E600DC08FB7F894282F332790E08091900409
S1131E70833008F491E02FBF292F3327232B09F453
S1131E805FC0902F911B1AC00DB407FEFDCF8EB515
S1131E901EBC88838991F701E8270E2EE295E07F26
S1131EA0E0250F2EFE2FE295EF700E26E695FE2715
S1131EB0EF27EE0FEE0FEE0FE0257F01915020F794
S1131EC00DB407FEFDCF8EB51EBC97012827022E48
S1131ED02295207F2025032E322F22952F70022653
S1131EE0269532272327220F220F220F20250DB4F7
S1131EF007FEFDCF8EB51EBC2827022E2295207F1B
S1131F002025032E322F22952F7002262695322764
S1131F102327220F220F220F20250DB407FEFDCF09
S1131F208EB5E0915802F091590285A7289A15E0E0
S1131F3010934B0510924B02232B09F00DC205C0E0
S1131F400DB407FEFDCF8EB5D0C2C0915802D0911A
S1131F505902CE010E941C0490915B02882321F156
S1131F60923009F028C19B81E091D405F091D50508
S1131F708381981709F01FC189818770823009F025
S1131F801AC180916F008D7F80936F0010928B0334
S1131F90BF0180E00E94920310925B0210928302C0
S1131FA080E00E94790B07C19923C1F4CE010E94FD
S1131FB02704882399F01093E50282E08093E602D7
S1131FC01092E7028B818093E80285EE92E00E94F2
S1131FD0230C882319F483E080935B02009184002E
S1131FE010918500CE010E942704882311F0045E1D
S1131FF01C4F10931F0300931E0380918400909143
S113200085009801281B390B12161306A4F480913D
S11320108302882369F490E080918B03882309F478
S113202091E0992341F0C9010E94950A80E801C01A
S11320308068809383025E010894A11CB11C898589
S113204028859927582F44273327422B532B8091D7
S11320506002282F3327F901EE0FFF1FE056FB4FD4
S11320608081918100918C038417950749F4F901CB
S1132070E253FA4F8081801709F468C0802F1BC097
S1132080EE24FF2480E090E0A0EAB4E0EEECF5E07A
S1132090BF01182F9C018D919C911197841795076E
S11320A089F42093600290918C03FB01808189174D
S11320B009F44CC0892F8F5F80938C038083E0E800
S11320C0EE2E2AC08081902F981BE91610F4E92E79
S11320D0F22E1F5FC90101966F5F7F4F12963196F2
S11320E085309105B1F61530B9F4F0926002AF2D48
S11320F0BB27FD01EE0FFF1FE056FB4F51834083CA
S113210080918C038F5F80938C03FD01E253FA4F1F
S11321108083A652BA4F1C9290918C03892F8F779B
S11321208F3781F4EEE7EE1568F4EEECF5E0292F35
S1132130207880818F6789132083319635E0E33DD1
S1132140F307B9F780916002282F3327F5019281B4
S1132150A22FBB27FD01E652FA4F808180FF07C002
S1132160FD01EF56FB4F8081981729F102C0816071
S11321708083AF56BB4F9C93FFB6F8948091900434
S11321808330B0F4E091B404E80FE33008F0E35096
S1132190FF27EE0FFF1FE25BFD4F00811181D1830A
S11321A0C0838F5F8093900486E00E94A601E801BB
S11321B08F2D99278FBFD0935902C0935802C3C063
S11321C0892F8150833008F09CC081508230E0F424
S11321D030914B053130C1F420E080918B0388238A
S11321E009F421E0222381F02F9883E08093B00248
S11321F030938B0380918400909185006BE273E0AF
S11322000E94F20382E068C0933009F042C08091DA
S11322104B05833009F097C00E94420B8823C9F113
S113222028988FE88EBD0DB407FEFDCF8EB51EBC79
S11322300DB407FEFDCF8EB5289A8091810080648D
S11322408093810080E286BB80916F0080628093DE
S11322506F0090917A02289888EC8EBD0DB407FE29
S1132260FDCF8EB590669EBD0DB407FEFDCF8EB535
S1132270289A289882EC8EBD0DB407FEFDCF8EB54A
S113228086E08EBD0DB407FEFDCF8EB5289A84E09E
S113229023C080914B028150823000F580914B0520
S11322A08530E1F40E94420B8823C1F0289882EC27
S11322B08EBD0DB407FEFDCF8EB583E08EBD0DB48B
S11322C007FEFDCF8EB5289A80916F008F7D809395
S11322D06F0010929B0483E080934B0590914B0216
S11322E0913041F480914B058330B1F52F9A90934E
S11322F04B0525C0923039F580914B05833061F54B
S11323001EC0973001F50E94420B8823E1F09091A2
S11323107A02289888EC8EBD0DB407FEFDCF8EB5E9
S113232090669EBD0DB407FEFDCF8EB5289A8091B0
S11323304B05853021F484E080934B0504C088E08C
S113234080934B0204C080914B02883029F4109290
S11323504B0284E00E94A60180914B02882309F578
S113236080914B058530D1F480919B048823B1F48E
S113237080915B02882391F480918302882371F415
S113238090E080918B03882309F491E0992331F044
S11323900E946E0B80914B02882319F48AE00E94FC
S11323A0A60180918B03823009F092C010928B03B6
S11323B0F090B002F2E0FF1609F466C023E0F216D2
S11323C009F46AC031E0F31609F082C020911E03BB
S11323D030911F0380918400909185004091830285
S11323E0403829F4109283020E946E0B71C0890157
S11323F0081B190B47FF03C010161106ECF0C0911F
S11324008002D091810280915B028823A9F4CE01DD
S11324100E94230C9927882351F48CA58E7F8CA7C6
S1132420F0925B02D093D505C093D40529C09927B7
S1132430F82E882329F102C055E0F52E209183025D
S1132440822F99278F77019759F42078226020935F
S1132450830280E198E00E9459040E94950A38C0E2
S113246027FF0AC0101611063CF480E8809383020B
S1132470C8010E94950A02C0109283028F2D09C0E0
S113248083E08093830224C010925B021092830243
S113249080E00E94790B1CC080914B05823019F4B6
S11324A0F0924B0513C080914B02863079F4109260
S11324B04B02289881E88EBD0DB407FEFDCF8EB582
S11324C01EBC0DB407FEFDCF8EB5289A0E94801362
S11324D08FB7F894282F332780917902813061F0E7
S11324E081E0809379022FBF5DCB289A85E08093A9
S11324F04B0510924B0230CF109279022FBFDF911F
S1132500CF911F910F91FF90EF90DF90CF90BF90EC
S1132510AF9008958FB7F894282F332780917902CC
S1132520815080937902803811F02FBF089581E0A3
S1132530809379022FBF0E94C80D08951F93FC0158
S11325408FE3828780914A028F5F80934A0283835C
S11325502FB7F8943327809179028F5F80937902A3
S11325602FBF80918202882311F015E00DC0F093F3
S11325709103E093900381E08093820210928D0393
S113258085E00E94A60110E00E948A12812F9927FB
S11325901F910895CF92DF92EF92FF920F931F93B2
S11325A0CF93DF9310920B02C0912003D0912103AB
S11325B0209721F08091B60480FF8AC081E0809347
S11325C00B0295C0CE010E94D403882351F4898163
S11325D0992780739070816498688983892F9927DB
S11325E08A83135F18832FB7F894332780910C02E2
S11325F090910D022FBF8887892F992789872FB73C
S1132600F894332780910E022FBF99278C831D8263
S1132610F6010083EE828F2D99278F838FB7F8946C
S1132620282F332780912C02882371F482E0809331
S11326302C02109211022FBFCE010E949E129927E4
S1132640182F882399F00FC02FBFD0937D02C09319
S11326507C028FB7F894C82FDD272C2F80912C0291
S1132660882399F406C080E00E94A30A812F992749
S113267024C081E080932C0210927B0283E00E94AC
S1132680A601CFBF80E090E018C080917E028F3F0A
S113269089F4E0911002EE2369F015C010920F0244
S11326A004C0FF27E258FD4F10821092100280E010
S11326B090E002C085E090E02FBF892BC1F082E05A
S11326C00E94A60114C080910F028F3F51F7E6CFFC
S11326D01BE0C12ED12CCC0EDD1E0B85CE010E9439
S11326E0E8037C0118811D501D3148F76BCFDF9141
S11326F0CF911F910F91FF90EF90DF90CF900895AD
S11327008FB7F894282F332780917902882329F0F2
S11327108068809379022FBF089581E080937902C5
S11327202FBF0E94C80D089578941F920F920FB680
S11327300F9211242F933F934F935F936F937F9343
S11327408F939F93AF93BF93EF93FF93E6E8F0E0EB
S113275080819181208131818FB7F89499273093BA
S1132760A8022093A70221E020939B048FBF0E941C
S11327708013FF91EF91BF91AF919F918F917F91C2
S11327806F915F914F913F912F910F900FBE0F90DA
S11327901F90189578941F920F920FB60F921124E0
S11327A02F933F934F935F936F937F938F939F9355
S11327B0AF93BF93EF93FF9380916F008D7F8093CE
S11327C06F0078949FB7F89480918B03813019F44B
S11327D082E080938B03892F99278FBF0E948013F7
S11327E0FF91EF91BF91AF919F918F917F916F91E5
S11327F05F914F913F912F910F900FBE0F901F90BB
S113280018951F938FB7F8949927209179022F5F19
S1132810209379028FBF80918202882311F015E002
S113282023C080914B028823E1F480914B058130D1
S113283049F490E080918B03882309F491E0992373
S113284081F005C0853019F489E090E00CC083E084
S113285080934B020E94801385E08093820210E0F3
S113286003C085E090E0182F0E948A12812F9927D7
S11328701F9108952F923F924F925F926F927F9291
S11328808F929F92AF92BF92CF92DF92EF92FF927C
S11328900F931F93CF93DF93CDB7DEB72A970FB66D
S11328A0F894DEBF0FBECDBFE82FFF27E631F10558
S11328B008F028C5EA59FF4FEE0FFF1F0590F49169
S11328C0E02D09948091B604882309F002C11AC549
S11328D08091A902882309F415C590E011E065C32D
S11328E00E949E035B016C0120918402622F772772
S11328F022952695277033272F5F3F4FF3E0759578
S11329006795FA95E1F7637070706F5F7F4F88E1A8
S113291090E00E94611D269FC001279F900D369F65
S1132920900D112480938305893418F088E48093F2
S113293083050E947C0460937E0570937F058093D9
S113294080059093810586E892E09093310280930C
S11329503002439690932F0280932E0210923202FB
S1132960209184022770220F220F809185029927DB
S1132970AC01E6E055954795EA95E1F7242B33271A
S113298020938405959587958F719070E82E809398
S11329908505F22E882499245DC00F1529F468E179
S11329A0F62EF00E81E006C00E1519F458E1E52E5E
S11329B0E00E80E0EF1408F044C0882311F015E025
S11329C005C0E02FFF27EB57FA4F1081002309F4CD
S11329D015E090E003C09F5F933071F081E09A8727
S11329E00E944F059A858823B1F7992329F4E02F93
S11329F0FF27EA57FA4F07C0913039F4E02FFF2739
S1132A00EA57FA4F1F5F108310C0E02FFF27923060
S1132A1021F4EA57FA4F1150F6CF8F010A571A4F93
S1132A2084E00E944F05F8018083209130023091A8
S1132A30310280912E0290912F028217930738F46D
S1132A400FC0E02FFF27E258FA4F89E080870894EF
S1132A50811C911C082D80918305881608F49DCF54
S1132A600E949E037B018C018824992411C0FF27B6
S1132A70E258FA4F808599279F938F9380E092E0E4
S1132A809F938F930E94FC1D0F900F900F900F90B7
S1132A90E82D0894811C911C80918305E81738F374
S1132AA0EA18FB080C091D091F930F93FF92EF927C
S1132AB084E092E09F938F930E94FC1D0E94C10BBF
S1132AC08DB79EB706960FB6F8949EBF0FBE8DBF06
S1132AD019C421E0E0E2F3E09091B604822F892347
S1132AE039F011821082822F809598239093B60436
S1132AF0329693E0E033F90709F404C4220FECCFD3
S1132B00E0910B02FF27EE0FFF1FE05EFC4F1182E6
S1132B10108231C02FB7F894332780917B028093C1
S1132B20110282E080932C022FBF8091110288232E
S1132B3009F0E8C380917C0290917D020E949E126C
S1132B40882309F4DFC380E00E94A30A20917C0259
S1132B5030917D0280910B02882309F0D3C38091C8
S1132B602003909121038217930709F0CBC310929D
S1132B702103109220030E94CA12C4C380918202CE
S1132B8010928202853009F4BDC3863019F40E9484
S1132B900114B8C3873009F4B5C380938202B2C369
S1132BA02FB7F8943327809179028F5F809379024D
S1132BB02FBF40918202413081F580918D038F5F58
S1132BC080938D03863048F52091900330919103D2
S1132BD0809183028823C1F490E080918B03882341
S1132BE009F491E0992381F03093810220938002CB
S1132BF0409383028BED91E10E9459040E94950A4F
S1132C001092BB0483E004C085E08093BB0482E09F
S1132C10809382020E948A1275C3109282020E94DB
S1132C208A120091900310919103F80182858F33E9
S1132C3009F068C380E00E94A30A80910B028823F4
S1132C4009F060C3809120039091210380179107BC
S1132C5009F058C38CCF8FB7F894282F332780916D
S1132C609004882309F440C3E091B404FF27EE0FD5
S1132C70FF1FE25BFD4FE080F1802FBFF7018285EB
S1132C808F3321F503851081C7010E94E803AC014D
S1132C908FB7F894992720910C0230910D028FBFC1
S1132CA04217530719F04F5F5F4F31F5083C21F588
S1132CB01D50412F5527B701645F7F4F84E892E090
S1132CC00E94EC1D80E00E94A60116C0C7010E946C
S1132CD0E803AC018FB7F894992720910C02309146
S1132CE00D028FBF4217530719F04F5F5F4F21F456
S1132CF08FB7F89499278FBF9FB7F8948091B40445
S1132D00E82FFF27EE0FFF1FE25BFD4FF182E08209
S1132D108F5F8093B404833010F01092B4048091D8
S1132D209004815080939004892F99278FBF93CF6B
S1132D308FB78983F8942090A0023090A10240902C
S1132D40A2025090A3026624772488248EE4A82E3D
S1132D5003E8B02ECC24DD24EE24FF2400E010E0B0
S1132D60222D332D442D552D662D772D882D90E061
S1132D700E94CC1B2A833B834C835D836E837F83B9
S1132D8088879987822E932EA42EB52E240135018F
S1132D9000E20E94CA1CA22EB32EC42ED52EA3017B
S1132DA0920156954795379527952A0D3B1D4C1D45
S1132DB05D1D57FF05C05F772F5F3F4F4F4F5F4F3C
S1132DC02093A0023093A1024093A2025093A30245
S1132DD0E9818E2F99278FBF8FB7F8949927309365
S1132DE09303209392033CC080917802882361F579
S1132DF02091AB043091AC044091AD045091AE04E9
S1132E00EFB7F894FF2760915402709155028091B6
S1132E10560290915702E090B704F090B8040091E4
S1132E20B9041091BA046E0D7F1D801F911FEFBF6E
S1132E302093AB043093AC044093AD045093AE04A0
S1132E40109278020E9435050E947C040E94A50419
S1132E5059C20E947C048FB7F894992710929F025C
S1132E608FBF50C28FB7F894992710928A0310929B
S1132E70890310924A051092490510924D0210924E
S1132E804C0210921D0310921C03EACF2FB7F89442
S1132E9033278091AD028093140282E080932D0247
S1132EA02FBF80911402882309F02CC2209A289AFB
S1132EB080914B05882309F075C08EEF91E001974E
S1132EC001960197E1F716982F9886E090E0019714
S1132ED001960197E1F7169A289883EC8EBD0DB4FC
S1132EE007FEFDCF8EB51EBC0DB407FEFDCF8EB51B
S1132EF0289A289882EC8EBD0DB407FEFDCF8EB5BE
S1132F0088E08EBD0DB407FEFDCF8EB5289A8EEFF6
S1132F1091E0019701960197E1F728988EEC8EBD18
S1132F200DB407FEFDCF8EB58DE48EBD0DB407FE46
S1132F30FDCF8EB5289A289889EC8EBD0DB407FE76
S1132F40FDCF8EB587EC8EBD0DB407FEFDCF8EB5DB
S1132F50289A289885EC8EBD0DB407FEFDCF8EB55A
S1132F6080E88EBD0DB407FEFDCF8EB5289A109271
S1132F70E4028BE080937A02289888EC8EBD0DB42D
S1132F8007FEFDCF8EB58BE68EBD0DB407FEFDCFDB
S1132F908EB5289A2F9A81E080934B0580E00E9499
S1132FA0EC0AB0C10E948013ADC12091A902812F07
S1132FB08223C1F0E92FFF27EE0FFF1FE155FB4FDE
S1132FC04081518111821082812F80952823209382
S1132FD0A902992339F463E0CA010E94130C110F6A
S1132FE091E0E3CF9F5F983008F08CC1110FDDCFE3
S1132FF010911502E12FFF27EE0FFF1FE155FB4F44
S1133000E080F180118210820E947D02112309F078
S113301079C161E0C70144C18FB7F89410927D056E
S113302020918F0340E0283009F441E030E029305A
S113303009F431E0442311F4332351F010928F0347
S1133040E0912A03FF27EE0FFF1FEF54FD4F10827C
S113305099278FBF442311F4332331F19FB7F89498
S11330608091B5048F5F8093B5048091AC02833462
S113307079F42091150380911403821779F0822F3B
S11330808F5F80931503863048F01092150306C0B5
S1133090A0E0442309F4A1E071E002C070E0A0E0E4
S11330A0892F99278FBF06C0222311F010E06CC02E
S11330B070E0A0E08FB7F8949927209133028FBF76
S11330C0222341F08FB7F89499272AE020938F03A5
S11330D08FBF42C08FB7F89499276091B102409195
S11330E0B3028FBF8FB7F894282F332750E0909105
S11330F0140380911503981709F451E02FBF552349
S113310041F5662331F55FB7F89482E08093B1020C
S11331108FB7F894282F332740E0909114038091BF
S11331201503981709F441E02FBF442311F080E000
S113313006C0E0911503FF27EC5EFC4F828180936B
S1133140B20283E48093AC0210922A03852F99275C
S11331500EC04150423010F010E00BC08FB7F8940D
S1133160992725E42093AC0221E020932A038FBF02
S113317011E0772349F08FB7F8949927A0933C0284
S11331808FBF83E10E94A6018FB7F894E82EFF2435
S113319080918F038A3021F40E94A902EFBEB2C04D
S11331A0EFBE112309F4AEC02FB7F8943327109261
S11331B0D7051092D6051092AA0281E080938F035E
S11331C02FBF0E94FC02882309F49CC08FB7F89497
S11331D0992729E020938F038FBF0E94CD0192C0CD
S11331E08091C1008F7B8093C1008091C1008F7753
S11331F08093C10010928E0310929D028091C100B1
S113320088608093C1008091C10080618093C10077
S11332108091C10080688093C1008FB7F89499278A
S113322010928F0310929A021BCE82E169C08091A2
S1133230C100877F8093C1008091C1008F7E8093FD
S1133240C10060C010923902109238028FB7F8940E
S11332509927F0903C028FBF80913D02882311F0A2
S113326063E0F62E209136023091370280913E02BF
S1133270882309F047C080911502882309F042C0D1
S11332800091AF041091B0040217130709F03AC07B
S11332901092B0041092AF040E947D026F2DC801F9
S11332A00E94130C2FC08FB7F894992720914102E4
S11332B03091420240915A028FBF8FB7F894E42FA5
S11332C0FF27EE0FFF1FE95EFD4F3183208320911E
S11332D03402442311F02B7F01C02D7F209334024C
S11332E010923F029927BCCD2FBF0CC04CE16CE477
S11332F075E08FEF9FEF0E943C02882319F085E16F
S11333000E94A6012A960FB6F894DEBF0FBECDBF69
S1133310DF91CF911F910F91FF90EF90DF90CF90AD
S1133320BF90AF909F908F907F906F905F904F90E1
S11333303F902F9008958091B1048F3FB1F0282FD2
S11333403327F901EF59FD4F80818093B1048F3FFA
S113335011F48093D3058FEF80832F3F31F0822FB8
S11333600E943A1481E090E0089580E090E008958E
S1133370FF920F931F93FFB6F89414BE88E10FB623
S1133380F89480936000109260000FBE46E150E014
S11333906FEF70E081E692E00E94F51D8FEF80935D
S11333A0B1048093D30556985E9854985C988091A4
S11333B06F008F7D80936F00209A289A279A2F9808
S11333C00E9A169A85EB92E09093590280935802D4
S11333D01092A4028AE580937F0281E080938100A9
S11333E080E28093B60083E08093B10080918400F2
S11333F0909185004AE72091840030918500281738
S1133400390708F44150442311F0C901F4CF9091D5
S1133410B2008091B2008917E1F3209184003091C9
S113342085009091B2008091B2008917E1F38091F8
S1133430840090918500821B930B409615E096952D
S113344087951A95E1F79093B3048093B204109290
S1133450B1008091B10080938100809181008093BC
S1133460B6001092B20010928500109284008FEF83
S113347087BB87B386BB8091B6008571E1F70A9A52
S1133480099A089A129A119A109A18B88FEF87B964
S11334900C981498109295001092940080917100E9
S11334A081608093710080919100887F8260809315
S11334B09100109285001092840080916F008160C9
S11334C080936F0080918100887F82608093810067
S11334D00E949B198823E1F78DE192E09093E20525
S11334E08093E10512E006E06091B2047091B304A8
S11334F088279927BCE0660F771F881F991FBA9504
S1133500D1F720E031EE40E050E00E94741D2150DC
S113351030402093C400832F99278093C5001093D3
S1133520C0000093C2001092C1002093CC0080938D
S1133530CD001093C8000093CA001092C90084E41F
S113354090E090939D0480939C041092B102109299
S1133550B3028AE080938F031092AA021092AC0205
S11335601092B5041092D7051092D60510927D05DD
S113357010922A03109297041092960484E0809388
S11335809A02109295031092AA0410929E0210922D
S1133590270310922603109215031092140310921D
S11335A048028FEF8093AB0280E00E944703182FFC
S11335B08091B60080628093B6008091B60081FD50
S11335C0FCCF82E08093B0008091B60080FDFCCFF8
S11335D083E08093B1008091B60083FDFCCF86EE3A
S11335E08093B300809170008260809370000E9489
S11335F0A9048091090290910A020196AA27BB2787
S11336008093A0029093A102A093A202B093A3027C
S11336108CEB94E090934F0280934E028F9690939C
S11336205102809350028AE195E090935302809373
S113363052028FEF9FEF9093A1048093A004909384
S1133640A3048093A2049093A5048093A40490936C
S1133650A7048093A6049093A9048093A80480915E
S113366009028295807F80934A028FEF80937E02C5
S11336700E949B198823E1F78F2D99278FBF789497
S11336808FB7F894282F3327922F80918F038A3095
S113369031F080919A02843011F02FBF04C09FBF93
S11336A080E10E94A6010E9401148FB7F894482F6C
S11336B0552757C080917000992783709070892B8B
S11336C019F4E5E0F0E014C08091B6008A71E1F7E6
S11336D08091B3009091B200891B8C3038F08091B6
S11336E0B200853F18F4E3E0F0E002C0E2E0F0E06D
S11336F080916E00867009F580916F008E72E9F4F6
S1133700809171008E72C9F40CB407FC16C08091CC
S1133710C100887191F48091C900887171F480911D
S1133720BC0082FD0AC080917A0087FF03C081E05B
S113373090E005C085E090E002C080E090E023B70F
S11337408E1708F4E82FFF27E850FD4FE491207FFF
S11337502160E22BE3BF78948895F89483B78E7F39
S113376083BF8091B1048F3F09F4A4CF282F33275E
S1133770F901EF59FD4F80818093B1048F3F11F41B
S11337808093D3058FEF80832F3F09F493CF4FBFEE
S1133790822F0E943A1489CFACE2B0E0E2EDFBE163
S11337A00C94B51D222E332E442E552E662E772EC4
S11337B0882E992EFE013196A8E01192AA95E9F778
S11337C029823A824B825C826D827E828F829886C5
S11337D0FE013996B8E01192BA95E9F7A986BA863E
S11337E0CB86DC86ED86FE860F87188B89819A81CD
S11337F0AB81BC8189A79AA7ABA7BCA77C018D012B
S11338008FEF9FEFA0E0B0E0E822F9220A231B2308
S113381089A59AA5ABA5BCA51D0144245524898579
S11338209A85AB85BC858DA39EA3AFA3B8A75C0185
S11338306D018FEF9FEFA0E0B0E0A822B922CA2269
S1133840DB228DA19EA1AFA1B8A53D0188249924B6
S1133850C801B701A60195010E94961D69A37AA328
S11338608BA39CA3C801B701A40193010E94961DD8
S11338707B018C01C201B101A60195010E94961D34
S11338805B016C01C201B101A40193010E94961D68
S11338903B014C01EA0CFB1C0C1D1D1D89A19AA1C6
S11338A0ABA1BCA19D01442755272E0D3F1D401FF0
S11338B0511F2A153B054C055D0540F480E090E05E
S11338C0A1E0B0E0680E791E8A1E9B1ECA01AA27D9
S11338D0BB27860D971DA81DB91D8D8F9E8FAF8F99
S11338E0B8A3A9013327222789A19AA1ABA1BCA11E
S11338F0A070B070280F391F4A1F5B1F298F3A8FA1
S11339004B8F5C8FA98CBA8CCB8CDC8CED8CFE8CB1
S11339100F8D18A1FE01719698E011929A95E9F71E
S1133920ED8AFE8A0F8B188F2D813E814F81588539
S11339306DA17EA18FA198A50E94961D3B014C010B
S11339402D853E854F85588969A57AA58BA59CA5AB
S11339500E94961D2D893E894F89588D260F371F49
S1133960481F591F260D371D481D591D2D8B3E8B91
S11339704F8B588F6D887E888F88988C2A2D3B2D8D
S11339804C2D5D2D662D772D882D992DE2E1AC9679
S11339900C94D11DA0E1B0E0E0EDFCE10C94B51D68
S11339A0222E332E442E552E662E772E882E992EB7
S11339B0002309F466C088E0FE01319611928A95CD
S11339C0E9F729833A834B835C836D837E838F82FB
S11339D09887E0E2E01B1E16CCF52D813E814F81D5
S11339E05885602F772767FD7095DA01C901062E87
S11339F004C0B695A795979587950A94D2F78D87B5
S1133A009E87AF87B88B04C0220F331F441F551FF6
S1133A10EA95D2F789819A81AB81BC8104C0B695BD
S1133A20A795979587956A95D2F7282B392B4A2B1A
S1133A305B2B29873A874B875C8729843A844B849C
S1133A405C846D847E848F8498881BC01D861E864A
S1133A501F86188A2E2F332727FD30953095219500
S1133A603F4F8D819E81AF81B88504C0B695A795DF
S1133A70979587952A95D2F789879A87AB87BC87CC
S1133A80DCCF222D332D442D552D662D772D882DF9
S1133A90992DE2E160960C94D11DAA1BBB1B51E148
S1133AA007C0AA1FBB1FA617B70710F0A61BB70BAA
S1133AB0881F991F5A95A9F780959095BC01CD014F
S1133AC0089597FB092E07260AD077FD04D0E5DF79
S1133AD006D000201AF4709561957F4F0895F6F78B
S1133AE0909581959F4F0895A1E21A2EAA1BBB1BA6
S1133AF0FD010DC0AA1FBB1FEE1FFF1FA217B307B6
S1133B00E407F50720F0A21BB30BE40BF50B661FCB
S1133B10771F881F991F1A9469F76095709580958F
S1133B2090959B01AC01BD01CF010895629FD00126
S1133B30739FF001829FE00DF11D649FE00DF11D64
S1133B40929FF00D839FF00D749FF00D659FF00D13
S1133B509927729FB00DE11DF91F639FB00DE11D00
S1133B60F91FBD01CF01112408952F923F924F9266
S1133B705F926F927F928F929F92AF92BF92CF92F9
S1133B80DF92EF92FF920F931F93CF93DF93CDB702
S1133B90DEB7CA1BDB0B0FB6F894DEBF0FBECDBF7A
S1133BA009942A88398848885F846E847D848C844B
S1133BB09B84AA84B984C884DF80EE80FD800C8154
S1133BC01B81AA81B981CE0FD11D0FB6F894DEBF37
S1133BD00FBECDBFED010895FB01DC0102C00190D1
S1133BE00D9241505040D8F70895DC0101C06D9307
S1133BF041505040E0F70895A2E0B0E0E2E0FEE179
S1133C000C94C51DFE01379661917191FA83E98385
S1133C10AF018091E1059091E2050E94131EE2E05C
S1133C2022960C94E11DABE0B0E0E9E1FEE10C94D6
S1133C30B71D3C014B016A01FC0117821682838186
S1133C4081FD03C08FEF9FEFDAC1F3013381F401EB
S1133C5033FD859133FF81914F01882309F4CCC151
S1133C60853239F433FD859133FF81914F018532DB
S1133C7029F4B30199270E941920E7CF00E04424D6
S1133C8055244AE00032B0F48B3269F08C3228F4C7
S1133C90803251F0833271F40BC08D3239F08033AD
S1133CA049F4016028C00260046025C0086023C094
S1133CB0006121C007FD29C0282F20532A3078F441
S1133CC006FF06C0549EC0011124522E580E13C084
S1133CD0449EC0011124422E480E00620CC08E3254
S1133CE021F406FD89C1006406C08C3611F4006815
S1133CF002C0883651F4F40133FD859133FF81917C
S1133D004F01882309F46FC0BDCF982F85548330A9
S1133D1018F08052833038F424E030E0C20ED31E11
S1133D208FE389830FC0933631F0933799F093353D
S1133D3009F05BC023C0F6018081898322E030E072
S1133D40C20ED31E7E010894E11CF11C51E0A52E85
S1133D50B12C12C0F601E080F18006FD03C06FEFC4
S1133D607FEF02C0652D772722E030E0C20ED31E1C
S1133D70C7010E940E205C010F7713C0F601E0809A
S1133D80F18006FD03C06FEF7FEF02C0652D77273A
S1133D9022E030E0C20ED31EC7010E9403205C0162
S1133DA0006803FF07C01BC0B30180E290E00E94DB
S1133DB019204A94842D9927A816B906A8F30FC090
S1133DC0F70107FD859107FF81917F01B3019927D1
S1133DD00E94192041104A940894A108B108A11422
S1133DE0B10471F706C190E03EC0943611F09936E3
S1133DF091F507FF0AC0F601608171818281938188
S1133E0024E030E0C20ED31E0DC0F6018081918102
S1133E109C01B901882777FD8095982F42E050E0F6
S1133E20C40ED51E4FE6B42EB02297FF09C090955C
S1133E308095709561957F4F8F4F9F4F50E8B52ABD
S1133E408E010F5F1F4F2AE030E0A8010E94462038
S1133E50A82EA01A4DC0953731F43FEEF32EF02270
S1133E602AE030E023C029EFF22EF0229F3661F0E1
S1133E70903720F4983509F0BFC012C0903739F05C
S1133E80983709F0B9C005C028E030E00FC080E1E0
S1133E90F82AF4FE02C094E0F92A20E130E006C0DA
S1133EA0F4FE02C0E6E0FE2A20E132E0F7FE0AC09A
S1133EB0F601608171818281938144E050E0C40EF7
S1133EC0D51E0BC0F60180819181AC01BA0188270F
S1133ED09927E2E0F0E0CE0EDF1E8E010F5F1F4F48
S1133EE0A8010E944620A82EA01A8FE7B82EBF2052
S1133EF0B6FE10C0FEEFBF22A51460F42B2D3327AD
S1133F0024FF1AC022FF02C0052D09C02FEEB222E1
S1133F10052D01C00A2D2B2D332724FF0EC0FE01D1
S1133F20EA0DF11D8081803319F439EEB32209C002
S1133F300F5F22FF06C004C0052D822F867809F08A
S1133F400F5FEB2CFF24E3FC14C0E0FE0FC004154C
S1133F5010F05A2C0BC0542C501A5A0C042D06C0C5
S1133F60B30180E290E00E9419200F5F0415C0F3B2
S1133F7004C0041510F4401A01C04424E4FE10C027
S1133F80B30180E390E00E941920E2FE1EC0E1FE2E
S1133F9003C088E590E002C088E790E0B3010CC05C
S1133FA08E2D867891F0E1FE02C08BE201C080E2A2
S1133FB0B7FC8DE2B30199270E94192006C0B30112
S1133FC080E390E00E9419205A94A514C0F3AA94A7
S1133FD0FE01EA0DF11D8181B30199270E94192088
S1133FE0AA2039F0F4CFB30180E290E00E941920B6
S1133FF04A944420C1F729CEF30186819781E0E1F8
S11340002B960C94D31DFC01059061507040011057
S1134010D8F7809590958E0F9F1F0895FC016150ED
S1134020704001900110D8F7809590958E0F9F1FD6
S113403008950F931F93CF93DF938C01EB018B8132
S1134040992781FF1BC082FF0DC02E813F818C8187
S11340509D812817390764F4E881F9810193F98374
S1134060E88306C0E885F985802F0995892B31F40A
S11340708E819F8101969F838E8302C00FEF1FEF75
S1134080C801DF91CF911F910F910895FA01AA27DA
S1134090283051F1203181F1E8946F936E7F6E5F87
S11340A07F4F8F4F9F4FAF4FB1E03ED0B4E03CD035
S11340B0670F781F891F9A1FA11D680F791F8A1F18
S11340C0911DA11D6A0F711D811D911DA11D20D07F
S11340D009F468943F912AE0269F11243019305D39
S11340E03193DEF6CF010895462F4770405D41932A
S11340F0B3E00FD0C9F7F6CF462F4F70405D4A3377
S113410018F0495D31FD4052419302D0A9F7EACF3E
S1134110B4E0A6959795879577956795BA95C9F76D
S113412000976105710508959B01AC010A2E069460
S11341305795479537952795BA95C9F7620F731F19
S10D4140841F951FA01D0895FFCFF2
S113414A25752A00256C750A00010001010022FF69
S113415AFFFFFFFFFF01FF2B035A032B030000009D
S10F416A0200000000E20B000000000056
S9030000FC
