:100000000C9469010C9488010C9488010C9488016B
:100010000C9488010C9488010C9488010C9488013C
:100020000C9488010C9488010C9488010C9488012C
:100030000C9488010C94BC070C9488010C94A807BC
:100040000C949D030C947C030C9487030C949203F2
:100050000C94B0030C9488010C9488010C948801D2
:100060000C9488010C949B050C9488010C941E063A
:100070000C9488010C9488010C9488010C947507E9
:100080000C9454070C945F070C946A070C9488072F
:100090000C9437070C9488010C9449070C94880140
:1000A0000C9488010C9488010C9488010C948801AC
:1000B0000C9488010C9488010C9488010C9488019C
:1000C0000C9488010C9488010C9488010000211084
:1000D000422063308440A550C660E77008812991B2
:1000E0004AA16BB18CC1ADD1CEE1EFF1311210025A
:1000F00073325222B5529442F772D6623993188302
:100100007BB35AA3BDD39CC3FFF3DEE36224433425
:1001100020040114E664C774A44485546AA54BB551
:1001200028850995EEE5CFF5ACC58DD553367226F9
:1001300011163006D776F6669556B4465BB77AA7A1
:1001400019973887DFF7FEE79DD7BCC7C448E55845
:100150008668A7784008611802282338CCC9EDD9F1
:100160008EE9AFF9488969990AA92BB9F55AD44A99
:10017000B77A966A711A500A333A122AFDDBDCCB41
:10018000BFFB9EEB799B588B3BBB1AABA66C877C65
:10019000E44CC55C222C033C600C411CAEED8FFD91
:1001A000ECCDCDDD2AAD0BBD688D499D977EB66E39
:1001B000D55EF44E133E322E511E700E9FFFBEEFE1
:1001C000DDDFFCCF1BBF3AAF599F788F8891A981A3
:1001D000CAB1EBA10CD12DC14EF16FE18010A1008D
:1001E000C230E3200450254046706760B98398937D
:1001F000FBA3DAB33DC31CD37FE35EF3B1029012DD
:10020000F322D2323542145277625672EAB5CBA548
:10021000A89589856EF54FE52CD50DC5E234C3242C
:10022000A01481046674476424540544DBA7FAB71C
:100230009987B8975FE77EF71DC73CD7D326F2367C
:100240009106B01657667676154634564CD96DC968
:100250000EF92FE9C899E9898AB9ABA944586548CC
:1002600006782768C018E1088238A3287DCB5CDBBC
:100270003FEB1EFBF98BD89BBBAB9ABB754A545A1C
:10028000376A167AF10AD01AB32A923A2EFD0FED88
:100290006CDD4DCDAABD8BADE89DC98D267C076C6C
:1002A000645C454CA23C832CE01CC10C1FEF3EFF5C
:1002B0005DCF7CDF9BAFBABFD98FF89F176E367EBC
:1002C000554E745E932EB23ED10EF01E00020E0605
:1002D0000C0411241FBECFEFD1E2DEBFCDBF12E070
:1002E000A0E0B2E0E2EEFAE100E00BBF02C007904E
:1002F0000D92AA30B107D9F714E0AAE0B2E001C02C
:100300001D92A835B107E1F70E94860B0C94700D81
:100310000C9400008FB7F894992708958FBF089523
:100320007FB7F8946091B20020912A0230912B029D
:1003300040912C0250912D02B99B11C08091B300C5
:100340009091B200280F311D411D511D2F5F3F4F6D
:100350004F4F5F4F290F311D411D511D04C0260F06
:10036000311D411D511D872F99278FBFCA01B9012A
:100370000895282F9FB7F894E82FFF27E25DFD4FDF
:1003800080818F3F81F4E0915304E21771F40BC038
:100390002093950304C0FF27E25DFD4F2083209347
:1003A000530420E007C025E005C0809195038F3FEE
:1003B00091F7EECF892F99278FBF822F9927089524
:1003C00088E00E94B9010895DF92EF92FF920F93A7
:1003D0001F938FB7F894282F3327D22E9091B30014
:1003E0008091B20047B3981711F041FF02C02FBFB0
:1003F00071C08091A1028823E1F10E949001E090F8
:100400002502F090260200912702109128022091E7
:10041000990330919A0340919B0350919C036E196C
:100420007F09800B910B621773078407950720F0F3
:100430001092A10271E01EC02E0D3F1D401F511FE2
:1004400080912A0290912B02A0912C02B0912D0252
:10045000281B390B4A0B5B0B273E31054105510523
:1004600040F4822F223010F070E005C070E082E08E
:1004700002C070E086EE682F61508091B60083FD67
:10048000FCCF8091B200681709F46F5F20912A02B7
:1004900030912B0240912C0250912D02DA01C901BA
:1004A0000196A11DB11D860F911DA11DB11D8217C1
:1004B0009307A407B50710F4622F60958091B600EA
:1004C00083FDFCCF6093B300DFBE772319F087E094
:1004D0000E94B9011F910F91FF90EF90DF90089556
:1004E000AFB7F894BB27E1E0E093A1026093250247
:1004F00070932602809327029093280220939903F9
:1005000030939A0340939B0350939C03AFBF0E9488
:10051000E40108958FB7F894282F3327922F809104
:1005200084038A3041F080919C02843021F02FBFF7
:1005300089E090E008959FBF82E00E94B90180E0C9
:1005400090E00895809184038A3021F480919C0288
:10055000843021F081E080930D02089583E00E94B1
:10056000B90110920D0208952FB7F89433278093A4
:10057000C600E0ECF0E08081806480832FBF0895A6
:10058000FC016115710519F481E090E008958091F6
:10059000A6029091A702892B19F085E090E00895BA
:1005A00070938F0360938E03F093A702E093A602EB
:1005B00010929E0210929D0281E080939F02809192
:1005C000C00080648093C0008091C10080648093EB
:1005D000C100808121E030E030939E0220939D0293
:1005E0000E94B40280E090E008958FB7F8949927B4
:1005F00020911E022E7F20931E022EE720933702A9
:100600008FBF61E070E087E392E00E94C00299270B
:1006100008951F931FB7F89480910204882341F432
:1006200081E00E94B901882319F481E080930204DB
:10063000812F99278FBF1F9108958FB7F89420912C
:10064000B4023091B5024091B6025091B702E091E8
:100650008400F0918500B09B08C02F5F3F4F4F4F43
:100660005F4FE0918400F091850099278FBFC90109
:10067000772766279F0144275527622B732B842BEE
:10068000952B0895582F2091240260911F0270919C
:10069000200230E040E029C0809123029927877032
:1006A0009070892BA9F4E0912102F09122028191AE
:1006B0009927282FF0932202E0932102109223021F
:1006C0006E177F0728F48093240281E090E008955C
:1006D000330F822F881F8827881F382B220F809185
:1006E00023028F5F809323024F5F4517A9F6209363
:1006F0002402832F9927089578941F920F920FB6A2
:100700000F9211240F900FBE0F901F9018957894A0
:100710001F920F920FB60F9211240F900FBE0F90E1
:100720001F90189578941F920F920FB60F92112474
:100730000F900FBE0F901F90189578941F920F92F4
:100740000FB60F9211248F939F9380918600909102
:1007500087009F918F910F900FBE0F901F9018955B
:1007600078941F920F920FB60F9211242F933F93FC
:100770008F939F93AF93BF932FB7F89433278091B4
:10078000B4029091B502A091B602B091B702019661
:10079000A11DB11D8093B4029093B502A093B6023F
:1007A000B093B7022FBFBF91AF919F918F913F91AF
:1007B0002F910F900FBE0F901F901895ECECF0E06A
:1007C0006927660FF11DE60FF11DC895982F802D42
:1007D0003196C89590250895982F80911902882305
:1007E00089F5992379F531E030931902809102025D
:1007F00080931A0220910E02822F81708093290229
:10080000809107029091080290931C0280931B0232
:1008100080910F0280931D0232273170267EE32FD4
:10082000FF27EE0FFF1FED5FFD4F808191819093B9
:10083000080280930702232B20930E0286E00E9479
:10084000B901089580910E0280FF02C08B7F01C024
:100850008D7F80930E0208950F931F93082F162FFC
:1008600080919C028130D9F0813038F0823009F4D7
:100870004AC0833009F028C159C0002309F458C187
:1008800010928803109287031092860310929003AF
:100890001092A0021092B9021092B80239C100233E
:1008A00009F046C18091B8029091B9020E94DE031E
:1008B0009093B9028093B80282E080939C021093D7
:1008C0009003143409F000C125C18695869503C0B4
:1008D00080910E028695817009F0F6C080910E021B
:1008E000992311F0846001C0826080930E02809190
:1008F0000E02877E886080930E0210920F028FEFA7
:100900008093020215C1002309F0DEC06093A002AB
:100910008091B8029091B9020E94DE039093B902CF
:100920008093B80283E080939C0202C18091860389
:100930008F3F09F4C9C0002309F461C0823008F474
:10094000C3C0E0918703EE2309F4EBC04E2F415062
:10095000E42FFF27E957FC4F82819927382F222760
:10096000442311F4E2E002C0E42FE150FF27E957ED
:10097000FC4F82819927282B392B8091B8029091C6
:10098000B9022817390709F09FC080E00E94EC03E4
:100990003091A0028091AC022091AD02982F9F5F10
:1009A000963008F090E0921771F0E82FFF27E45599
:1009B000FD4F32838F5F8093AC02863010F010922F
:1009C000AC020E940903109288031092870394E0FE
:1009D00090939C0210928603109290031092A002B2
:1009E0001092B9021092B80280911E028D7F8093FE
:1009F0001E0280910D02882309F49AC084C08230BF
:100A000008F44EC0E0918803FF27E957FC4F82812C
:100A1000482F5527342F20910E02822F86958695D8
:100A20008695837099278130910519F00297F9F422
:100A30000EC0277E206120930E02442311F485E02E
:100A400001C080E080930F023093020210C08091B9
:100A50000F02833660F4E0910702F0910802E80F7C
:100A6000F11D408380910F028F5F80930F02809170
:100A70008803E82FFF27E957FC4F62818F5F80933F
:100A80008803833010F01092880377278091B80292
:100A90009091B9020E94DE039093B9028093B8024C
:100AA00080918703E82FFF27E957FC4F12838F5F60
:100AB00080938703833010F0109287038091860320
:100AC0008F5F8093860334C010928803109287034F
:100AD00014E010939C0210928603109290031092DF
:100AE000A0021092B9021092B80280911E028D7F6E
:100AF00080931E0281E00E94EC0380910D02882306
:100B000029F010939C020E94A20212C0002381F0DF
:100B100081E009CF80910E02982F917080FDD5CE93
:100B2000D7CE80918B039927382F222742E01CCF04
:100B30001F910F9108951F920F920FB60F921124DB
:100B40002F933F934F935F936F937F938F939F93D5
:100B5000AF93BF93EF93FF938091C00087FF42C094
:100B60006091C600E091BA02F091BB02309719F192
:100B70008091000490910104E80FF91F60830196B1
:100B800090930104809300042091560430915704FF
:100B90008217930738F11092BB021092BA0280912B
:100BA00083038330F9F08091C1008F778093C10077
:100BB0001092830317C06E3719F460E081E010C013
:100BC00080911E026D3721F4826080931E020AC05C
:100BD00081FF05C08D7F80931E0280E2682780E040
:100BE0000E942C04FF91EF91BF91AF919F918F9143
:100BF0007F916F915F914F913F912F910F900FBE19
:100C00000F901F901895982F8D57823068F480911F
:100C10001E02816080931E0280E2892780938503F3
:100C20008DE78093370202C09093370261E070E055
:100C300087E392E00E94C0029927089578941F925A
:100C40000F920FB60F921124FF920F931F932F93C1
:100C50003F934F935F936F937F938F939F93AF9344
:100C6000BF93CF93DF93EF93FF9320919D02309139
:100C70009E0280918E0390918F032817390780F48C
:100C8000E091A602F091A702E20FF31F80812F5F8F
:100C90003F4F30939E0220939D020E94B402D1C028
:100CA0001092A7021092A60210929F028091C1009A
:100CB0008F7B8093C100FFB6F89480911E0280FF65
:100CC0000EC08E7F80931E02809185038093370231
:100CD00061E070E087E392E00E94C002AFC08091C3
:100CE0008403843009F48CC0853040F4823021F1D3
:100CF0008330B8F5813009F09CC00DC0863009F40E
:100D00008DC0863008F483C0873009F48EC08830E7
:100D100009F08FC091C08091A5020E940306082FA0
:100D200083E0809384036091A502809154049091A4
:100D300055040E94DE0310C0809198030E940306B0
:100D4000082F83E08093840360919803809154047A
:100D5000909155040E94DE039093550480935404AF
:100D600066C0E091BC02FF27EE0FFF1FE755FD4F65
:100D700080810E940306082F1091BC02C12FDD273D
:100D8000FE01EE0FFF1FE755FD4F60818091540477
:100D9000909155040E94DE0390935504809354046F
:100DA0002091A4022F5F2093A402113039F5809185
:100DB0001502E0911002F0911102E80FF11DE0819F
:100DC0008F5F8093150290911402981730F482E09F
:100DD0008093AA0240E050E002C04E2F5527DE016A
:100DE000AA0FBB1FFD01E855FD4F8081823031F015
:100DF0002F3F21F0A755BD4F4C9319C084E012C07E
:100E0000809154040E940306082F85E00BC0809156
:100E100055040E940306082F86E004C00E94F502D4
:100E2000082F87E08093840302C088E003C000237A
:100E300029F089E0809384030E9409038F2D99276C
:100E40008FBFFF91EF91DF91CF91BF91AF919F91B4
:100E50008F917F916F915F914F913F912F911F9152
:100E60000F91FF900F900FBE0F901F9018951F923B
:100E70000F920FB60F9211248F938091C80087FFB5
:100E800002C08091CE008F910F900FBE0F901F90E7
:100E9000189578941F920F920FB60F9211240F900D
:100EA0000FBE0F901F90189578941F920F920FB657
:100EB0000F9211240F900FBE0F901F9018957894E9
:100EC0001F920F920FB60F9211240F900FBE0F902A
:100ED0001F90189578941F920F920FB60F921124BD
:100EE0000F900FBE0F901F90189578941F920F923D
:100EF0000FB60F9211248F939F938091960090913B
:100F000097009F918F910F900FBE0F901F90189593
:100F100078941F920F920FB60F9211242F933F9344
:100F20008F939F932FB7F89433278091A2029091CB
:100F3000A30201969093A3028093A2022FBF9F91D8
:100F40008F913F912F910F900FBE0F901F9018958A
:100F50001F920F920FB60F9211248F938091B000C1
:100F60008093B0008091B60081FDFCCF8F910F90EF
:100F70000FBE0F901F9018951F920F920FB60F92F1
:100F800011242F933F934F935F936F937F938F938E
:100F90009F93AF93BF93EF93FF938091B0008093A3
:100FA000B0008091B60081FDFCCF8091B3009927FD
:100FB0000196AA27BB2720912A0230912B0240914B
:100FC0002C0250912D02280F391F4A1F5B1F2093BE
:100FD0002A0230932B0240932C0250932D027894D6
:100FE0000E94E401FF91EF91BF91AF919F918F918A
:100FF0007F916F915F914F913F912F910F900FBE15
:101000000F901F9018958F929F92AF92BF92CF92A0
:10101000DF92EF92FF920F931F93CF93DF93CDB7A1
:10102000DEB721970FB6F894DEBF0FBECDBF843078
:1010300009F495C2853060F4813009F483C18130B0
:10104000A0F0823009F462C2833009F02FC383C25A
:10105000863009F4ADC2863008F48EC2873009F4B8
:10106000E8C2883009F022C319C300910002109130
:1010700001020E941D035B016C01F8012485622FAF
:10108000772722952695277033272F5F3F4FB3E0B0
:1010900075956795BA95E1F7637070706F5F7F4FD4
:1010A00088E190E00E94200D269FC001279F900DAF
:1010B000369F900D112480930804893418F088E439
:1010C000809308040E9490016093030470930404C9
:1010D0008093050490930604025F1F4F1093220231
:1010E00000932102035E1F4F1093200200931F0202
:1010F0000B52104010922302F801848525858770D9
:10110000880F880F2295269526952370282B332744
:101110002093090485859927959587958F719070FF
:10112000F82E80930A04E22E882499245DC00E15BF
:1011300029F4F8E1EF2EE00E81E006C00F1519F456
:10114000E8E1FE2EF00E80E0FE1408F044C0882393
:1011500011F015E005C0E02FFF27E65FFB4F10817F
:10116000002309F415E090E003C09F5F933071F015
:1011700081E099830E94420399818823B1F79923E2
:1011800029F4E02FFF27E55FFB4F07C0913039F4CA
:10119000E02FFF27E55FFB4F1F5F108310C0E02F9C
:1011A000FF27923021F4E55FFB4F1150F6CF8F01FE
:1011B000055F1B4F84E00E944203F8018083209169
:1011C00021023091220280911F0290912002821709
:1011D000930738F40FC0E02FFF27ED5FFB4F89E046
:1011E00080870894811C911C082D80910804881622
:1011F00008F49DCF0E941D039B01AC0180910A025F
:10120000882309F053C2DA01C9018A199B09AC0984
:10121000BD0980934702292F3A2F4B2F5527209342
:1012200046029D0144275527209345028B2F99277D
:10123000AA27BB2780934402909108049093480208
:10124000809109048093490280910A0480934A02A4
:10125000392F369520E010C0E22FFF27DF01A55B74
:10126000BD4FEE0FFF1FED5FFB4F80858295807FA6
:101270009185890F8C932F5F231771F78FEF8093E0
:101280003E0280933D028BE7809343028FE480937C
:1012900041028091120290911302892B09F006C23B
:1012A0002FB7F894332785E0809315021092160229
:1012B00088E392E0909311028093100282E090E024
:1012C0009093130280931202109218021092170248
:1012D0008BE5809314022FBF8FB7F894282F332704
:1012E000809184038A3011F42FBF1BC02FBF9FB79A
:1012F000F8948091AA02882311F020E006C081E0D2
:101300008093AA021092AB0221E0892F99278FBF08
:10131000222339F00E94090380910C02882331F0C6
:101320000AC01092130210921202C0C1109881E0FC
:1013300080930C0203C0109A10920C0281E08093FB
:101340000A02B4C18FB7F89410920204209184036A
:1013500040E0283009F441E030E0293009F431E080
:10136000442311F4332351F010928403E091BC0222
:10137000FF27EE0FFF1FE855FD4F108299278FBF03
:10138000442311F4332331F19FB7F89480919803EB
:101390008F5F809398038091A502833479F4209124
:1013A000AD028091AC02821779F0822F8F5F80931B
:1013B000AD02863048F01092AD0206C0A0E0442392
:1013C00009F4A1E071E002C0A0E070E0892F992744
:1013D0008FBF06C0222311F010E06CC0A0E070E0C7
:1013E0008FB7F894992720910D028FBF222341F0E7
:1013F0008FB7F89499272AE0209384038FBF42C0C7
:101400008FB7F89499276091A8024091AA028FBFE4
:101410008FB7F894282F332750E09091AC02809139
:10142000AD02981709F451E02FBF552341F566230B
:1014300031F55FB7F89482E08093A8028FB7F894F3
:10144000282F332740E09091AC028091AD0298178D
:1014500009F441E02FBF442311F080E006C0E09181
:10146000AD02FF27E455FD4F82818093A90283E4FA
:101470008093A5021092BC02852F99270EC041507F
:10148000423010F010E00BC08FB7F894992725E494
:101490002093A50221E02093BC028FBF11E07723A7
:1014A00049F08FB7F8949927A09316028FBF85E073
:1014B0000E94B9018FB7F894E82EFF24809184032D
:1014C0008A3021F40E94A202EFBEF0C0EFBE1123C9
:1014D00009F4ECC02FB7F8943327109255041092FA
:1014E00054041092A40281E0809384032FBF0E94D1
:1014F000F502882309F4DAC08FB7F894992729E018
:10150000209384038FBF0E940903D0C08091C10043
:101510008F7B8093C1008091C1008F778093C10041
:101520001092830310929F028091C1008860809383
:10153000C1008091C10080618093C1008091C10091
:1015400080688093C1008FB7F89499271092840324
:1015500010929C02AAC084E00E94B901A7C08091A9
:10156000C100877F8093C1008091C1008F7E8093EE
:10157000C1000E948A029AC01092130210921202B5
:101580008FB7F89499278FBFE0911002F091110264
:1015900080911802882309F089C083858B3709F070
:1015A00085C0E853F24009F081C010920A027EC063
:1015B0008FB7F894992720911A02A0911B02B0913D
:1015C0001C02109129028FBF2223E1F4FD018385C3
:1015D000883CC1F4E0900002F0900102B093010257
:1015E000A093000280910B02882329F4119881E0D6
:1015F00080930B0203C0119A10920B0280E00E94AC
:10160000B901D7018FB7F894E12FFF27EE0FFF1F25
:10161000ED5FFD4FB183A08320910E02112311F0E5
:101620002B7F01C02D7F20930E0210921902992763
:101630003CC080919B02882361F5209191033091F9
:1016400092034091930350919403EFB7F894FF27CE
:1016500060912502709126028091270290912802C4
:10166000E0909903F0909A0300919B0310919C03E2
:101670006E0D7F1D801F911FEFBF2093910330934C
:101680009203409393035093940310929B020E9401
:1016900070020E9490010E94E00108C00E94900127
:1016A0008FB7F89499271092A1028FBF21960FB699
:1016B000F894DEBF0FBECDBFDF91CF911F910F9188
:1016C000FF90EF90DF90CF90BF90AF909F908F9062
:1016D0000895809195038F3FB1F0282F3327F901AA
:1016E000E25DFD4F8081809395038F3F11F48093DD
:1016F00053048FEF80832F3F31F0822F0E94030825
:1017000081E090E0089580E090E00895FF920F93CB
:101710001F93FFB6F89414BE88E10FB6F894809337
:101720006000109260000FBE49E050E06FEF70E083
:101730008EE292E00E94690D8FEF80939503809373
:10174000530481E08093810080E28093B60083E0BF
:101750008093B10080918400909185004AE72091A8
:101760008400309185002817390708F4415044233C
:1017700011F0C901F4CF9091B2008091B2008917A5
:10178000E1F320918400309185009091B200809126
:10179000B2008917E1F38091840090918500821B4B
:1017A000930B409635E0969587953A95E1F790939F
:1017B0009703809396031092B1008091B1008093BB
:1017C0008100809181008093B6001092B200109247
:1017D0008500109284008FEF87BB87B386BB809112
:1017E000B6008571E1F70A9A099A089A129A119A35
:1017F000109A18B88FEF87B90C981498109295002A
:1018000010929400809171008160809371008091AA
:101810009100887F826080939100109285001092E1
:10182000840080916F00816080936F0080918100BF
:10183000887F8260809381000E94690B8823E1F792
:101840008091B60080628093B6008091B60081FDE1
:10185000FCCF82E08093B0008091B60080FDFCCF89
:1018600083E08093B1008091B60083FDFCCF86EECB
:101870008093B300809170008260809370000E941A
:10188000E40112E006E060919603709197038827C7
:1018900099272CE0660F771F881F991F2A95D1F78B
:1018A00020E031EE40E050E00E94330D2150304006
:1018B0002093C400832F99278093C5001093C00004
:1018C0000093C2001092C1002093CC008093CD0001
:1018D0001093C8000093CA001092C90084E490E0FD
:1018E00090938D0380938C031092A8021092AA0209
:1018F0008AE0809384031092A4021092A5021092B1
:1019000098031092550410925404109202041092FD
:10191000BC02109288031092870384E080939C029B
:1019200010928603109290031092A0021092B902B6
:101930001092B8021092AD021092AC020E94690B94
:101940008823E1F78F2D99278FBF78940E948A0210
:10195000129A8FB7F894482F552757C0809170007E
:10196000992783709070892B19F4E5E0F0E014C09A
:101970008091B6008A71E1F78091B3009091B20036
:10198000891B8C3038F08091B200853F18F4E3E079
:10199000F0E002C0E2E0F0E080916E00867009F5B0
:1019A00080916F008E72E9F4809171008E72C9F49B
:1019B0000CB407FC16C08091C100887191F480912D
:1019C000C900887171F48091BC0082FD0AC08091C9
:1019D0007A0087FF03C081E090E005C085E090E0D9
:1019E00002C080E090E023B78E1708F4E82FFF27AD
:1019F000E453FD4FE491207F2160E22BE3BF789414
:101A00008895F89483B78E7F83BF809195038F3F2D
:101A100009F4A4CF282F3327F901E25DFD4F80811F
:101A2000809395038F3F11F4809353048FEF80834D
:101A30002F3F09F493CF4FBF822F0E94030889CF15
:101A400097FB092E07260AD077FD04D02ED006D0AA
:101A500000201AF4709561957F4F0895F6F79095E0
:101A600081959F4F0895A1E21A2EAA1BBB1BFD0171
:101A70000DC0AA1FBB1FEE1FFF1FA217B307E4076D
:101A8000F50720F0A21BB30BE40BF50B661F771FC5
:101A9000881F991F1A9469F76095709580959095A5
:101AA0009B01AC01BD01CF010895AA1BBB1B51E1F5
:101AB00007C0AA1FBB1FA617B70710F0A61BB70BBE
:101AC000881F991F5A95A9F780959095BC01CD0163
:101AD0000895DC0101C06D9341505040E0F7089536
:021AE000FFCF36
:0A1AE2009D03FFBD022003BD0200BA
:00000001FF
